:100000000C949A020C94C2020C94C2020C94C20288
:100010000C94C2020C94C2020C94C2020C94C20250
:100020000C94C2020C94C2020C9409060C94B30600
:100030000C94C2050C94C2020C94C2020C94C2022D
:100040000C9478050C94C2020C94860A0C94C20A93
:100050000C941D0B0C94C2020C94C2020C94C202AC
:100060000C9440090C94C2026420762079208020F0
:100070008720B520BC20C920D620E220E220E22043
:10008000E220E220E220E220E220E220E220E22060
:10009000E220E220E220E220E220E220E220E22050
:1000A000E220E220E220E220642071207620792004
:1000B000802087208E209B20A820AD23BF23B22341
:1000C000C823D623DF23FB2313241A2439233E23FA
:1000D000FE2688234723752304270A271027452750
:1000E000084AD73B3BCE016E84BCBFFDC12F3D6C9F
:1000F00074319ABD56833DDA3D00C77F11BED9E405
:10010000BB4C3E916BAAAABE000000803F05A84CE4
:10011000CDB2D44EB93836A9020C50B991868808B0
:100120003CA6AAAA2ABE000000803F07634236B759
:100130009BD8A71A39685618AEBAAB558C1D3CB778
:10014000CC5763BD6DEDFD753EF6177231BF0000F3
:1001500000803F08000000BE922449123EABAAAACC
:100160002ABECDCCCC4C3E00000080BEABAAAAAAD1
:100170003E00000000BF000000803F0000000000C3
:10018000084178D3BB4387D1133D190E3CC3BD4210
:1001900082AD2B3E68EC8276BED98FE1A93E4C80C1
:1001A000EFFFBE01C4FF7F3F0000000000002044BD
:1001B000697361626C65640020456E61626C6564A0
:1001C000000020756E6B6E6F776E0020424D5032CE
:1001D0003830000020424D453238300000204D5369
:1001E000353631310000204C505300000000002013
:1001F000324400203344002044697361626C6564BA
:100200000020426173696300000000204578746536
:100210006E6465640056657273696F6E2056322E87
:10022000332E362E3200566172696F475053205379
:10023000656E736F7200005265736574206F666639
:100240007365740000000000475053206D6F6465B3
:100250003A0000000000000000475053206469731A
:1002600074616E63653A00000000507265737375C7
:1002700072652073656E736F723A00566172696FB2
:1002800020736D6F6F7468696E673A0056617269AA
:100290006F20646561647A6F6E653A000052783150
:1002A00020766F6C746167653A0000000000527838
:1002B0003220766F6C746167653A0000000000536D
:1002C00061766520616E642072657374617274007A
:1002D0004C6F61642064656661756C747300000026
:1002E0000000000000240027002A00000000002574
:1002F0000028002B00040404040404040402020285
:100300000202020303030303030102040810204056
:1003100080010204081020010204081020000000DF
:1003200008000201000003040700000000000000B4
:1003300000014C6174697475646500000000000080
:100340000000000000002000000000000009000282
:100350004C6F6E67697475646500000000000000F2
:1003600000000000200000000000000900034750CA
:1003700053207370656564000000000000000000F9
:1003800000006B6D2F680000000100074469737462
:10039000616E6365000000000000000000000000C6
:1003A0006D00000000000004000854726970000035
:1003B00000000000000000000000000000006B6D65
:1003C0000000000000040209417A696D757468003C
:1003D000000000000000000000000000B00000006D
:1003E00000000001000A436F757273650000000091
:1003F00000000000000000000000B000000000004D
:100400000001000B536174656C6C697465730000C6
:1004100000000000000000002000000000000000BC
:10042000000C48444F500000000000000000000095
:100430000000000000002000000000000001020495
:1004400052656C2E20416C7469740000000000003D
:10045000000000006D000000000000040105416282
:10046000732E20416C7469740000000000000000CD
:1004700000006D0000000000000400065661726973
:100480006F6D6574657200000000000000000000E0
:100490006D2F730000000004020D4169722070721C
:1004A0006573732E0000000000000000000068501B
:1004B000610000000004020E54656D702E00000003
:1004C000000000000000000000000000B043000039
:1004D00000000001011452783120566F6C7461677E
:1004E0006500000000000000000056000000000051
:1004F0000001021552783220566F6C7461676500F6
:100500000000000000000000560000000000000194
:1005100002000000000000000000000000000000D9
:1005200000000000000000000000000000000000CB
:100530007627582711241FBECFEFD8E0DEBFCDBFEE
:1005400011E0A0E0B1E0E4E1F7E602C005900D9211
:10055000A239B107D9F724E0A2E9B1E001C01D92A8
:10056000AC3DB207E1F712E0C9E9D2E004C021973F
:10057000FE010E940C2EC839D107C9F70E948016CF
:100580000C947D330C940000CF92DF92EF92FF9297
:100590000F931F93CF93DF936C017A018B01C0E01F
:1005A000D0E0CE15DF0581F0D8016D918D01D60127
:1005B000ED91FC910190F081E02DC6010995892B08
:1005C00011F02196EECF7E01C701DF91CF911F91EF
:1005D0000F91FF90EF90DF90CF9008953FB7F89480
:1005E0008091B6029091B702A091B802B091B90281
:1005F00026B5A89B05C02F3F19F00196A11DB11D7E
:100600003FBFBA2FA92F982F8827820F911DA11DB8
:10061000B11DBC01CD0142E0660F771F881F991FF5
:100620004A95D1F708955091960140919501852FF3
:1006300090E0242F30E0541710F4805B9F4F821B12
:10064000930B089580919601E09195018E1751F0DA
:10065000EF5FE03508F0E0E0F0E0EF59FD4F80811A
:1006600090E008958FEF9FEF08958091960190910B
:100670009501891769F09F5F903508F090E0E92FA8
:10068000F0E0EF59FD4F80819093950190E008953F
:100690008FEF9FEF089585ED8093BC008091BC00A3
:1006A00084FDFCCF10924E0308954091F401262F53
:1006B00030E0240F311D21323105DCF420914E034E
:1006C0002430C9F4FC0180E090E0861758F43091A2
:1006D000F4012191DC01AC52BE4FA30FB11D2C934C
:1006E0000196F3CF8091F401680F6093F40180E0EC
:1006F000089581E0089582E008950895E091070348
:1007000080910603E81730F4F0E0E85FFC4F808149
:1007100090E008958FEF9FEF0895909107038091E7
:100720000603981750F4E92FF0E0E85FFC4F2081B2
:1007300030E09F5F9093070302C02FEF3FEFC901A6
:1007400008958091060390E020910703821B910990
:100750000895CF92DF92EF92FF920F931F93CF9362
:10076000DF937C01CB018A0120914F03222389F082
:10077000EB016B01C40ED51ECC15DD0569F0699146
:10078000D701ED91FC910190F081E02DC701099511
:10079000F3CF642F0E945503C801DF91CF911F91C1
:1007A0000F91FF90EF90DF90CF900895CF93DF935C
:1007B0001F92CDB7DEB7698320914F032223D1F07A
:1007C00020917203203240F021E030E0FC013383BD
:1007D000228380E090E015C080915003E82FF0E084
:1007E000EF5AFC4F998190838F5F809350038093E1
:1007F000720305C061E0CE0101960E94550381E0BD
:1008000090E00F90DF91CF9108951F93CF93DF93E6
:10081000F894EC01CA57DF4F2881203400F5DC0141
:10082000AE57BF4F1C9111965C91119770E041112A
:1008300003C020E030E002C020E031E0622B732BE7
:10084000E12FF52F71836083329628812F5F2883F3
:10085000EA17FB0710F0FC013296ED93FC93FC01C4
:10086000E057FF4F8081811108C081E08083809133
:10087000C1008F7688628093C1007894DF91CF9118
:100880001F910895FC01E157FF4F2081222301F1C0
:10089000F894A091D201B091D301A357BF4F0D900E
:1008A000BC91A02D4C912081215020833297208132
:1008B00031812F5F3F4FBC0165577F4F26173707A8
:1008C00018F09C0129573F4F31832083789401C051
:1008D00040E0842F08950895809194018111FCCF08
:1008E0000895809193018F5F843408F080E09091A7
:1008F00092019817E1F32FB7F894909194019923FE
:1009000041F0E82FF0E0E95EFD4F608380939301B2
:100910001DC081E08093940160935C0210925B02A1
:1009200082E086BB80916F00826080936F0080912F
:1009300080008F7B806880938000809184009091FC
:100940008500409690938900809388002FBF81E0B6
:1009500090E0089580E090E008950E944930CF93A0
:10096000DF9390E0FC01E75FFC4F2491FC01EB502A
:10097000FD4F8491882361F190E0880F991FFC015D
:10098000EF51FD4FC591D491FC01E551FD4FA5916B
:10099000B491611109C09FB7F89488812095822392
:1009A0008883EC912E230BC0623061F49FB7F894DA
:1009B0008881322F309583238883EC912E2B2C93C2
:1009C0009FBF06C08FB7F894E8812E2B28838FBF76
:1009D000DF91CF9108951092C0008CE08093C10008
:1009E00086E38093C2001092C50086E68093C4001F
:1009F00062E080E00E94AF0462E081E00C94AF040A
:100A0000CF93DF93EC010E94EB04FE01329680E865
:100A1000DF011D928A95E9F7DE01AE57BF4F1196AF
:100A2000FC93EE931296ED93FC93EC57FF4F1082DC
:100A3000319684E0DF011D928A95E9F7DE01A55722
:100A4000BF4F1196FC93EE931296ED93FC9338965C
:100A5000108231961082D093D301C093D201DF91DE
:100A6000CF9108958F929F92AF92BF92CF92DF92D3
:100A7000EF92FF926B017C010E94EE024B015C0140
:100A8000C114D104E104F104F1F00E94EE02DC0192
:100A9000CB0188199909AA09BB09883E9340A10591
:100AA000B10570F321E0C21AD108E108F10888EE1F
:100AB000880E83E0981EA11CB11CC114D104E1046E
:100AC000F10419F7DDCFFF90EF90DF90CF90BF904A
:100AD000AF909F908F9008952FB7F8946091B202D5
:100AE0007091B3028091B4029091B5022FBF089526
:100AF0001F920F920FB60F9211242F933F938F9353
:100B00009F93AF93BF938091B2029091B302A09153
:100B1000B402B091B5023091B10223E0230F2D371A
:100B200020F40196A11DB11D05C026E8230F0296F1
:100B3000A11DB11D2093B1028093B2029093B30224
:100B4000A093B402B093B5028091B6029091B7021F
:100B5000A091B802B091B9020196A11DB11D809378
:100B6000B6029093B702A093B802B093B902BF91B6
:100B7000AF919F918F913F912F910F900FBE0F904A
:100B80001F9018951F920F920FB60F9211242F935A
:100B90008F939F93EF93FF9380916F008B7F809350
:100BA0006F00809181008F7B8093810080919701FD
:100BB00020916002205890915F02893020F4969530
:100BC000922B8F5FFACF90935F02809196018F5F97
:100BD000803508F080E020919501821739F0E82FE8
:100BE000F0E0EF59FD4F90838093960110929701AA
:100BF000809181008F7B8093810010926002FF9131
:100C0000EF919F918F912F910F900FBE0F901F909A
:100C100018951F920F920FB60F9211242F933F93A6
:100C20004F935F936F937F938F939F93AF93BF93F4
:100C3000EF93FF938091860090918700409160022E
:100C400020918100442331F02F7B2093810010926A
:100C5000600206C020642093810020E82093600297
:100C600030919701311125C041116CC0209198013C
:100C700030919901280F391F30938B0020938A00FF
:100C800024E026BB20916F00246020936F00209108
:100C90009A0130919B01820F931F36952795820F01
:100CA000931F90935E0280935D0281E08093970191
:100CB00049C040915D0250915E0260919A0170912D
:100CC0009B01DB01A095B09520915F02E09160024D
:100CD000841B950BA817B90768F126952E2B460F94
:100CE000571F3F5F861B970B3930A0F320935F029D
:100CF00080916F008B7F80936F00809196018F5F52
:100D0000803508F080E090919501891749F0E82F2F
:100D1000F0E090915F02EF59FD4F90838093960130
:100D2000809181008F7B80938100109260021092ED
:100D3000970108C020935F0250935E0240935D02CA
:100D400030939701FF91EF91BF91AF919F918F9158
:100D50007F916F915F914F913F912F910F900FBEB7
:100D60000F901F9018951F920F920FB60F9211249B
:100D70002F933F934F935F936F937F938F939F93A3
:100D8000EF93FF938091940160915C022091880021
:100D90003091890040919A0150919B0190915B02A2
:100DA0008A30F8F4240F351F893019F0762F7170CE
:100DB00001C071E066958F5F791791F39091800083
:100DC000772311F0906C02C09F7B90689093800015
:100DD000309389002093880070935B0260935C02DB
:100DE0004AC090919301E09192019E1319C08A30FC
:100DF00051F48BE080939401240F351F30938900C8
:100E0000209388003AC010929401809180008F73E3
:100E10008093800080916F008D7F80936F002DC044
:100E2000EF5FE43408F0E0E0E0939201F0E0E95E87
:100E3000FD4F908190935C0210925B029091800034
:100E40009F7B9068909380008A3059F480919A013A
:100E500090919B01280F391F3093890020938800BF
:100E600009C08091840090918500409690938900FC
:100E70008093880081E080939401FF91EF919F918E
:100E80008F917F916F915F914F913F912F910F9033
:100E90000FBE0F901F901895CF93DF93EC018A85BA
:100EA0009B85AC85BD858E839F83A887B9870E946B
:100EB0006C056A837B838C839D8381E0898388832F
:100EC000DF91CF910895CF93DF93EC018E819F81C5
:100ED000A885B9858A839B83AC83BD830E946C05FA
:100EE0006A877B878C879D8781E089838883DF91F0
:100EF000CF9108954F925F926F927F928F929F92BF
:100F0000AF92BF92CF92DF92EF92FF920F931F9317
:100F1000CF93DF93CDB7DEB760970FB6F894DEBFFF
:100F20000FBECDBF69837A838B839C83CA01B901CD
:100F300027013801A60195010E94C92825E33AEF4F
:100F40004EE85CE30E94B32B6B017C010E94702C85
:100F50006D877E878F87988BC701B6010E94AD2968
:100F60006D837E838F83988725E33AEF4EE85CE3B9
:100F700069817A818B819C810E94B32B4B015C013A
:100F800025E33AEF4EE85CE3C301B2010E94B32BC4
:100F90002B013C01C501B4010E94702C69837A8346
:100FA0008B839C83C501B4010E94AD294B015C0178
:100FB000C301B2010E94702C69877A878B879C8756
:100FC000C301B2010E94AD296B017C0129853A85DC
:100FD0004B855C85C501B4010E94B32B2B013C01FC
:100FE000A701960169817A818B819C810E94B32B34
:100FF0002D813E814F8158850E94B32B9B01AC010E
:10100000C301B2010E94C9289B01AC010E94B32B0D
:101010002B013C01A70196016D857E858F859889FE
:101020000E94B32B9B01AC010E94B32BA301920140
:101030000E94CA280E947E2C2B013C01A701960128
:10104000C501B4010E94B32B2D813E814F8158858B
:101050000E94B32B4B015C0129853A854B855C8549
:1010600069817A818B819C810E94B32B9B01AC01A9
:10107000C501B4010E94CA289B01AC01C301B201A1
:101080000E94492926E73BE742EC5AE40E94B32B31
:1010900060960FB6F894DEBF0FBECDBFDF91CF9143
:1010A0001F910F91FF90EF90DF90CF90BF90AF9086
:1010B0009F908F907F906F905F904F9008952F92A8
:1010C0003F924F925F926F927F928F929F92AF92D8
:1010D000BF92CF92DF92EF92FF920F931F93CF9325
:1010E000DF93D82FC92F8B010E946E2824E630E0B1
:1010F00040E050E00E94CB2D49015A019B01AC0118
:1011000060E876E988E990E00E94AF2D6B017C01F0
:10111000F80191828082ED2FFC2F2191822F022EE7
:10112000000C990BC0970A97C0F32E3239F51F01B6
:1011300080E8882E86E9982E88E9A82EB12C9AE0BE
:10114000492E512C612C712CF101C1911F010C2EE3
:10115000000CDD0BE097CA30D10580F4C501B40165
:10116000A30192010E94CB2D49015A01DE010E9488
:101170001D2EC60ED71EE81EF91EE6CFA5E0B0E074
:10118000A70196010E94122E6F5F7F4F8F4F9F4FD6
:1011900023E030E040E050E00E94CB2DF8012283B4
:1011A0003383448355831682DF91CF911F910F9132
:1011B000FF90EF90DF90CF90BF90AF909F908F9077
:1011C0007F906F905F904F903F902F900895FF9287
:1011D0000F931F93CF93DF93EC01F8802DE2F2126F
:1011E00001C02196CE010E946E289B01AC01A4E6AD
:1011F000B0E00E94122EFE014991242F042E000C13
:10120000330B205331092A303105A8F34E3241F512
:101210002181022E000C330B205331092A30310575
:10122000F8F44AE0429F8001439F100D1124012EE3
:10123000000C220B330B600F711F821F931F028162
:10124000002E000C110B005311090A30110540F457
:10125000012E000C220B330B600F711F821F931F96
:101260002DE2F21207C090958095709561957F4FA1
:101270008F4F9F4FDF91CF911F910F91FF90089556
:101280001F920F920FB60F9211242F933F934F93FB
:101290005F936F937F938F939F93AF93BF93EF93DE
:1012A000FF938091B900887F803609F49CC068F56F
:1012B000883209F45BC090F4803109F454C038F4EA
:1012C000882309F4F2C0883009F44DC0F2C0883197
:1012D00009F44CC0803209F45DC0EBC0803409F4DD
:1012E00068C048F4803309F455C0883309F0E1C080
:1012F00080934C03D4C0803509F44FC0883509F47D
:101300005DC0883409F0D5C0D2C0883909F4C3C0A3
:10131000A8F4883709F467C038F4883609F463C044
:10132000803709F460C0C5C0883809F4B4C080397A
:1013300009F45FC0803809F0BCC05BC0803B09F491
:1013400084C038F4803A09F466C0883A09F47DC054
:10135000B0C0803C09F4A3C0883C09F4A0C0883B1D
:1013600009F486C0A6C08091290310C090914B0358
:1013700080914A03981770F5E0914B0381E08E0F3E
:1013800080934B03F0E0E65DFC4F80818093BB00CF
:1013900085EC82C080934C038AC0E0914B0381E0CE
:1013A0008E0F80934B038091BB00F0E0E65DFC4F15
:1013B000808390914B0380914A036AC0E0914B0374
:1013C00081E08E0F80934B038091BB00F0E0E65DDF
:1013D000FC4F808380914D03811169C081E080932F
:1013E000280384EA5DC083E080934E0310921602C6
:1013F000CFCF80911602803208F04DC0E0911602E6
:1014000081E08E0F809316028091BB00F0E0EA50DD
:10141000FE4F8083BDCF85EC8093BC0010924E03BD
:1014200080911602803230F4E0911602F0E0EA502A
:10143000FE4F10826091160270E086EF91E0E0E0CE
:10144000F0E009951092160234C084E080934E03B8
:101450001092F5011092F401E0E0F0E0099580911E
:10146000F401811105C081E08093F4011092D40150
:10147000E091F50181E08E0F8093F501F0E0EC52F0
:10148000FE4F80818093BB009091F5018091F40123
:10149000981708F47DCF85E88093BC000AC085ECDE
:1014A0008093BC0010924E0304C010924C030E9423
:1014B0004B03FF91EF91BF91AF919F918F917F91DE
:1014C0006F915F914F913F912F910F900FBE0F90B1
:1014D0001F90189510924E0381E080934D03109257
:1014E000280382E10E94E00B83E10E94E00BE9EB1C
:1014F000F0E080818E7F808380818D7F808388E48F
:101500008093B80085E48093BC0008951F920F92E9
:101510000FB60F9211242F933F938F939F93AF9306
:10152000BF93EF93FF938091C600803FF1F0982F17
:101530009F70D9F42091D2013091D301F901E55780
:10154000FF4FA081B1818C93D901A157BF4F8C91DE
:101550008F5F8C938081918101968E179F0718F081
:10156000C90189579F4F91838083FF91EF91BF916C
:10157000AF919F918F913F912F910F900FBE0F9040
:101580001F9018951F920F920FB60F9211242F9350
:101590003F934F935F938F939F93EF93FF9380912C
:1015A000D2019091D301FC01EA57FF4F2081222301
:1015B00051F132970190F081E02D208131818091AD
:1015C000C10030FF02C0816001C08E7F8093C100E6
:1015D0002093C6002091D2013091D301F901EA573E
:1015E000FF4F808181508083329780819181029664
:1015F000A9014E575F4F8417950710F0C901029655
:10160000918380830DC08091C1008F7D8064809321
:10161000C100E091D201F091D301E057FF4F108259
:10162000FF91EF919F918F915F914F913F912F91FA
:101630000F900FBE0F901F9018951F920F920FB62C
:101640000F9211242F933F938F939F93EF93FF93C8
:10165000E1ECF0E08081877B806980838091D2011A
:101660009091D3019C0129573F4FFC01E557FF4F53
:101670003183208332963183208332961082FF910A
:10168000EF919F918F913F912F910F900FBE0F90EF
:101690001F9018950C94BB280C94B328CF93C82F97
:1016A0006E3008F06E506770606460937C008091CB
:1016B0007A00806480937A0080917A0086FDFCCF66
:1016C000609178008091790070E0782B072E000CF3
:1016D000880B990B0E945C2A20E030E040E85AE336
:1016E0000E94B32B20E030EE4BEA55E40E94B32B6E
:1016F00024E0C29FF0011124E15EFE4F2081318180
:10170000428153810E94B32B0E94242ACF910895D5
:10171000CF93DF9300D000D0CDB7DEB719821A8205
:101720001B821C82BE016F5F7F4F84E190E00E94AC
:10173000B31319821A821B821C82BE016F5F7F4F16
:1017400088E190E00E94B3130F900F900F900F90DC
:10175000DF91CF910895CF93C82F80916904909124
:101760006A04892B11F40E94DE13C03208F5EC2FB5
:10177000F0E0E65BFB4F84A1E82FF0E020916904E4
:1017800030916A04E217F3079CF493E0F595E7952E
:101790009A95E1F7E257FB4F282F277081E090E000
:1017A00001C0880F2A95EAF780959081892380836C
:1017B00010924E0410926D0410926B04CF91089514
:1017C00090E0FC01E35EFC4F2491FC01E75FFC4FDD
:1017D0003491FC01EB50FD4FE491EE23B1F1222353
:1017E00039F1233091F038F42130A9F0223001F59D
:1017F00084B58F7D12C0273091F02830A1F02430BD
:10180000B9F4809180008F7D03C0809180008F7734
:10181000809380000DC084B58F7784BD09C080910E
:10182000B0008F7703C08091B0008F7D8093B000AF
:10183000F0E0EE0FFF1FE551FD4FA591B4918FB77A
:10184000F894EC91E32BEC938FBF089530917203E1
:10185000313208F04BC080914E038111FCCF909142
:10186000710322E020934E0321E020934D032FEFDC
:1018700020934C0310924B0330934A03E1E5F3E0CD
:10188000AAE2B3E020E0321721F041914D932F5F9F
:10189000FACF1092290320912903990F922B90934C
:1018A000290390912803913061F4109228039091BC
:1018B00029039093BB009091BC0093FDF8CF95EC69
:1018C00001C095EE9093BC0090914E039230E1F3ED
:1018D00090914C039F3F79F080914C03803241F00E
:1018E00080914C03803331F084E005C081E003C077
:1018F00082E001C083E010925003109272031092B4
:101900004F03089590914E039111FCCF982F81328F
:1019100008F090E281E080934E0380934D032FEF17
:1019200020934C0310924B03290F20934A0380937A
:101930002903809129038E6E8093290380912803C7
:10194000813061F410922803809129038093BB00B9
:101950008091BC0083FDF8CF85EC01C085EE8093BB
:10196000BC0080914E038130E1F380914B038917D5
:1019700010F490914B03EAE2F3E0A8E0B3E080E0DA
:10198000891721F021912D938F5FFACF10920703D1
:101990008093060308951F93CF93DF93C1E0C09314
:1019A0004F0387E7809371031092500310927203E4
:1019B00060E08FE793E00E94D6030E94260CC0935C
:1019C0004F03109250031092720383E090E00E9444
:1019D000820C90910603809107039817F1F38FE72B
:1019E00093E00E948D03182F8FE793E00E948D03F0
:1019F000C82F8FE793E00E948D03D82F0E94260CFA
:101A00008C2F90E0A0E0B0E0BA2FA92F982F882764
:101A1000A12BBC01CD016D2BDF91CF911F910895BA
:101A20002F923F924F925F926F927F928F929F92EE
:101A3000AF92BF92CF92DF92EF92FF920F931F93DC
:101A4000CF93DF93CDB7DEB7A5970FB6F894DEBF7F
:101A50000FBECDBF9A8789870E946C0500917B03DA
:101A600010917C0320917D0330917E0306171707A8
:101A70002807390708F081C48091BC029091BD020B
:101A8000A091BE02B091BF020196A11DB11D80932D
:101A9000BC029093BD02A093BE02B093BF028436F5
:101AA0009105A105B10561F51092BB0220E836EE63
:101AB00045EC57E46091E8027091E9028091EA02F6
:101AC0009091EB020E94B2292BEA3CED42E45EE3E6
:101AD0000E94202C9B01AC0160E070E080E89FE355
:101AE0000E94C92820E03AE24DE257E40E94B32B5D
:101AF0006093C4027093C5028093C6029093C7029C
:101B00008091C8029091C9028130910509F0D0C33B
:101B10000E94CB0C688F798F8A8F9B8F6093DC0239
:101B20007093DD028093DE029093DF028091D802F1
:101B30009091D902A0E0B0E0BA2FA92F982F882762
:101B40004090E0025090E1026090E2027090E30267
:101B5000481A590A6A0A7B0A6091DA027091DB021C
:101B600080E090E0A30192010E947E2E122F3D831F
:101B70004983B52FF62FE72FF82E092FA0E00E94FA
:101B80000D2F84F42150310940485F4F6F4F7F4F34
:101B90008F4F9F4F122F3D834983B52FF62FE72F8D
:101BA000F82E092F212F3D8149815B2F6F2F7E2F2A
:101BB0008F2D902F07E10E94D12E49015A01A501D6
:101BC00094012053384F4F4F5F4F2D833E834F83F7
:101BD00058871092F2021092F3021092F4021092BF
:101BE000F5023091BA0239833323E9F04D815E81E9
:101BF0006F817885403D574061057105A4F4A301CC
:101C00009201C301B2010E94AF2D2FEF3FEF4FEFC2
:101C10005FE70E94ED2D2093F2023093F302409390
:101C2000F4025093F5028091F2029091F302A09198
:101C3000F402B091F5022D813E814F815885281B19
:101C4000390B4A0B5B0B2093EC023093ED0240936F
:101C5000EE025093EF02E091D602F091D70280900D
:101C6000D2029090D302940140E050E060E070E036
:101C700080E090E000E10E94B82EF22E132F1A01AE
:101C80004B018D879C87BF0180E090E0A30192010A
:101C90000E947E2ED22EE32E042FB52FF62FE72F93
:101CA000B82EC92EA0E00E940D2F5CF4AFE70E9471
:101CB000F82ED22EE32E042FB52FF62FE72FB82EB5
:101CC000C92E2D2D3E2D402F5B2F6F2F7E2F8B2D5C
:101CD0009C2D07E00E94D12E59016A01E62EF72FB4
:101CE000082FE92F2F2D312FA101B4018D859C855F
:101CF000FF2E1E2F0E94EF2E2C873D874E875F8779
:101D0000688B798B8A8B9B8B4091D0025091D1024A
:101D10005D8F4C8F6091D4027091D50280E090E08D
:101D2000A30192010E947E2EF22E032F142FB52FB5
:101D3000F62FE72FD82EE92EA0E00E940D2F84F475
:101D400021503F4F4F4F5F4F6F4F7F4F8F4F9F4FF0
:101D5000F22E032F142FB52FF62FE72FD82EE92EB2
:101D60002F2D302F412F5B2F6F2F7E2F8D2D9E2DEE
:101D700008E00E94D12E39014A01B62FA72FF82F73
:101D8000E92F6C8D7D8DC12CD12C9B01A60160E0CB
:101D900070E080E090E00FE00E94B82E59016A01E7
:101DA0007B018C019301A4016B2F7A2F8F2F9E2F23
:101DB0000E94EF2EF22FE32F342E252E6C8B7D8B7D
:101DC0008E8B9F8B7981772309F42EC11092F602B6
:101DD0001092F7021092F8021092F9021092FA0291
:101DE0001092FB021092FC021092FD021092FE0271
:101DF0001092FF021092000310920103109202034E
:101E00001092030310920403109205038D819E81AA
:101E1000AF81B885803D27E09207A105B1050CF0A0
:101E2000BFC0BC01CD01605D7740810991099B0174
:101E3000AC010E94AF2D9B01AC01A5E0B0E00E9477
:101E4000122E7B018C0115950795F794E7942B01D1
:101E50003C01770C4408542C3201E092F602F092D7
:101E6000F7020093F8021093F9024092FA024092AE
:101E7000FB024092FC024092FD029B01AC01B2E0E9
:101E80005595479537952795BA95D1F729833A8384
:101E90004B835C832093FE023093FF024093000348
:101EA00050930103409202034092030340920403C3
:101EB000409205034D815E816F81788544328AEFBF
:101EC00058078FEF680778070CF06AC0CB01BA019A
:101ED00064527A4F8F4F9F4F9B01AC010E94AF2DF0
:101EE0006D837E838F839887A7E0B0E09B01AC0170
:101EF0000E94122E4B015C01BB0C8808982C5401E7
:101F00009B01AC01682D782D882D982D5701680113
:101F1000E42CF42C042D142D0E94EF2E2093F602B5
:101F20003093F7024093F8025093F9026093FA025B
:101F30007093FB028093FC029093FD02ABE0B0E053
:101F40002D813E814F8158850E94122E6B017C01AC
:101F5000F594E794D794C7944B015C01BB0C8808B7
:101F6000982C54019601A701682D782D882D982D65
:101F7000A980BA80CB80DC80E42CF42C0E94EF2E68
:101F80002093FE023093FF0240930003509301031D
:101F900060930203709303038093040390930503FB
:101FA0002C853D854E855F85688979898A899B89DD
:101FB000A090F602B090F702C090F802D090F9021B
:101FC000E090FA02F090FB020091FC021091FD02F9
:101FD0000E94042F2C873D874E875F87688B798B03
:101FE0008A8B9B8B2F2F3E2F432D522D6C897D8901
:101FF0008E899F89A090FE02B090FF02C0900003DE
:10200000D0900103E0900203F090030300910403D9
:10201000109105030E94042FF22FE32F342E252E5A
:102020006C8B7D8B8E8B9F8B488D598D6A8D7B8DB4
:102030009A01AB0160E070E0CB012E8F3F8F48A387
:1020400059A36AA37BA38CA39DA3AF2EBE2EC32C42
:10205000D22CEC88FD880E891F8960E070E080E05A
:1020600090E00E94252E122F3D834983B52FF62F35
:10207000E72FF82E092FA0E00E940D2F84F42150A5
:102080003109404E5F4F6F4F7F4F8F4F9F4F122F41
:102090003D834983B52FF62FE72FF82E092F212FE7
:1020A0003D8149815B2F6F2F7E2F8F2D902F05E172
:1020B0000E94D12EAC84BD84CE84DF84E888F98868
:1020C0000A891B890E94042F122F3D834983B52F53
:1020D000F62FE72FF82E092FA0E00E940D2F84F491
:1020E000215030484F4F5F4F6F4F7F4F8F4F9F4F63
:1020F000122F3D834983B52FF62FE72FF82E092F96
:10210000212F3D8149815B2F6F2F7E2F8F2D902FA7
:102110000FE00E94D12EB901CA012093E40270930E
:10212000E5024093E6029093E7020E945C2A6B016D
:102130007C019B01AC016091E8027091E902809101
:10214000EA029091EB020E94C9282091C0023091CE
:10215000C1024091C2025091C3020E94B32BA70159
:1021600096010E94CA286093E8027093E902809366
:10217000EA029093EB020E946C05009177031091A4
:1021800078032091790330917A034B015C01801A26
:10219000910AA20AB30A20E836EE45EC57E46091B2
:1021A000E8027091E9028091EA029091EB020E94AC
:1021B000B2292BEA3CED42E45EE30E94202C9B0115
:1021C000AC0160E070E080E89FE30E94C92820E055
:1021D0003AE24DE257E40E94B32B20E030E048ECB5
:1021E00052E40E94B32B6B017C018091BB028823D7
:1021F00041F0C0927303D0927403E0927503F092A1
:1022000076032091730330917403409175035091CC
:102210007603C701B6010E94C9282B013C01C50104
:10222000B4010E945A2A9B01AC0160E070E08AE789
:1022300094E40E94B2299B01AC01C301B2010E9447
:10224000B32B4B015C016091CA027091CB02072E47
:10225000000C880B990B0E945C2AA50194010E9436
:10226000C9282091CC023091CD024091CE025091EC
:10227000CF020E94B32BA50194010E94CA280E949C
:10228000242A7093CB026093CA02C0927303D09247
:102290007403E0927503F09276030E946C056093DC
:1022A0007703709378038093790390937A030CC03B
:1022B000029751F40E94CB0C6093E0027093E1020C
:1022C0008093E2029093E30251E059838091C80227
:1022D0009091C90269857A858617970709F0198256
:1022E00089859A85009779F09093C9028093C802F6
:1022F0008130910529F00297E1F48091F1020FC03D
:102300008091F10214C09091BC028091F10290FD85
:1023100008C022E030E03093C9022093C802805BFD
:1023200007C021E030E03093C9022093C802805CEE
:102330008B8781E080934F0387E78093710310922E
:102340005003109272036B858FE793E00E94D603CF
:102350000E94260C0E946C052091F002DC01CB014A
:10236000820F911DA11DB11D80937B0390937C036F
:10237000A0937D03B0937E0301C019828981A59645
:102380000FB6F894DEBF0FBECDBFDF91CF911F9186
:102390000F91FF90EF90DF90CF90BF90AF909F9004
:1023A0008F907F906F905F904F903F902F90089507
:1023B00082E090E00E94100D811107C061E070E0A2
:1023C00080E090E00E943205F3CF6091E0027091CE
:1023D000E1028091E2029091E30208954F925F92B0
:1023E0006F927F92AF92BF92CF92DF92EF92FF9265
:1023F0000F931F93CF93DF9300D000D0CDB7DEB7FC
:10240000082FA62E69017A01AE014F5F5F4FC70109
:10241000B6010E947F2B2B013C0189819A81AB81FF
:10242000BC81BC01CD019F770E942B2AB62E172FAD
:102430002AE939E949E15FE3C301B2010E94B32B04
:1024400020E030E543EC57E40E94B32B9F770E94D5
:102450002B2A3B011170A11002C090E001C090E254
:10246000192B20E030E0A901C701B6010E94A8297C
:10247000881F8827881F8295880F880F807C712F7E
:10248000782B2AE0A3016B2D802F0F900F900F90D7
:102490000F90DF91CF911F910F91FF90EF90DF9000
:1024A000CF90BF90AF907F906F905F904F900C94C3
:1024B0008013CF92DF92EF92FF9210929E03609171
:1024C000A8037091A9038091AA039091AB030E9485
:1024D0005A2A28E23BE64EE65EE40E94B2296B01EE
:1024E0007C016091A6037091A70380E090E00E94B8
:1024F0005A2A9B01AC01C701B6010E94CA2820914B
:10250000AC0321119058FF90EF90DF90CF90089589
:10251000CF92DF92EF92FF9210929E036091A103FF
:102520007091A2038091A3039091A4030E945A2A60
:1025300028E23BE64EE65EE40E94B2296B017C0194
:1025400060919F037091A00380E090E00E945A2A5E
:102550009B01AC01C701B6010E94CA282091A503C6
:1025600021119058FF90EF90DF90CF900895EF9257
:10257000FF920F931F93CF93DF93CDB7DEB76E9784
:102580000FB6F894DEBF0FBECDBFFC0112828FEFF5
:102590009FEFDC0183839483A583B68381E08783E7
:1025A000158E168E178E10A211A2DB0183E0B59551
:1025B000A7958A95E1F7A257BB4F8C9190E09B01BC
:1025C0002770332702C0959587952A95E2F7817089
:1025D00099278783892B09F486C07B018F012EE11F
:1025E000269FC001279F900D112460916504709172
:1025F0006604680F791F4EE150E0CE0101960E94FB
:1026000095288D8DF801878F8981828325E02E9D05
:10261000C0012F9D900D1124E0916704F091680492
:102620009F01280F391FF90180819181A281B38117
:10263000F80183839483A583B683F9018481F8012B
:102640008087A801475F5F4FDE011296FA0130E0F4
:102650008D91882329F0333129F03F5F8193F8CFA2
:10266000832F01C083E1F801858F20E0732F720F63
:10267000E6E1F0E0EC0FFD1FE20FF11D6081872F16
:1026800090E0662341F0733130F42F5FFA01E80FD8
:10269000F91F6083EBCFF801268FFA01E80FF91FCD
:1026A00010828E8D813021F0823029F480E401C0C7
:1026B00080E2F80180A3F801878D843091F030F436
:1026C000882361F0813079F483E00BC0883041F0D9
:1026D000893031F0853039F484E003C082E001C0F4
:1026E00085E0F80181A36E960FB6F894DEBF0FBEA9
:1026F000CDBFDF91CF911F910F91FF90EF90089583
:10270000CF92DF92EF92FF92C0906704D09068045E
:10271000C114D10419F1803208F5E82FF0E0E65B2E
:10272000FB4F84A1A82FB0E0E0906904F0906A0408
:10273000AE15BF059CF4D60195E0899FA00DB11D93
:1027400011244D935D936D937C93139784A1F601AF
:1027500095E0899FE00DF11D11242483FF90EF90F7
:10276000DF90CF900895AF92BF92DF92EF92FF92E9
:102770000F931F93CF93DF93EC017B018B015C01DF
:1027800084E0A80EB11CF801D1908F01CE010E9407
:10279000B328D81621F06D2DCE010E94BB282196BA
:1027A000CA15DB0581F7C701DF91CF911F910F910A
:1027B000FF90EF90DF90BF90AF900895FF920F933E
:1027C0001F93CF93DF93CDB7DEB76E970FB6F89414
:1027D000DEBF0FBECDBF10926A041092690481E380
:1027E00093E0909366048093650480E2EEE6F4E063
:1027F000DF011D928A95E9F7F12C00E010E060916D
:10280000650470916604600F711F4EE150E0CE01C7
:1028100001960E949528E981EE23B1F0E03220F480
:10282000F0E0E65BFB4FF4A28091690490916A04AA
:10283000019690936A0480936904025E1F4FF3949B
:10284000003CB3E01B07D9F66E960FB6F894DEBFD6
:102850000FBECDBFDF91CF911F910F91FF900895D3
:10286000CF93DF938091920490919304DC01ED91DA
:10287000FC910280F381E02D40E06EEF099580919C
:10288000B404882311F1C4EBD4E0809192049091B8
:1028900093046991DC01ED91FC910280F381E02DBC
:1028A00041E00995B4E0C43DDB0779F780919204DB
:1028B00090919304DC01ED91FC910280F381E02D75
:1028C00040E06FEFDF91CF910994C0E2D0E08091BA
:1028D000920490919304DC01ED91FC910280F381CC
:1028E000E02D41E060E00995219789F7DFCF8F92D5
:1028F0009F92AF92BF92EF92FF920F931F93CF934D
:10290000DF93CDB7DEB7A2970FB6F894DEBF0FBE48
:10291000CDBF811116C01092960410929C041091A4
:102920006404812F880F880F880F80939D04412FA6
:1029300050E060E574E08EE994E00E946130165F3B
:1029400074C1282F269530E04091690450916A04A3
:10295000421753070CF44AC080FD48C000E010E065
:102960008091690490916A04081719070CF05CC102
:1029700060916D0470E0CE0101960E94B7128091C3
:102980006D048F5F80936D0490E020916904309115
:102990006A048217930714F010926D0488858823C7
:1029A00011F1109296048B8180939C048E8D28E007
:1029B000829FC00111249F8D892B80939D0480E00C
:1029C0001AE0180FEAE0F0E0EC0FFD1FE80FF11D30
:1029D0009081992309F429C18F5FE12FF0E0EC5633
:1029E000FB4F9083EDCF0F5F1F4FBACF80E48093F2
:1029F0009604E12CF12C18E060916B0470E0CE019C
:102A000001960E94B7128885882309F4F1C080914D
:102A10006C0469850E94BF2D292F9111E9C08AA1FC
:102A200090E03B81412F50E03031A8F00296840FB6
:102A3000951F4E970CF0F9C0FA01EC56FB4F88A198
:102A40008F70808382E0810F1F5FE12FF0E0EC56F2
:102A5000FB4F308314C00196840F951F4E970CF0E6
:102A6000E4C081E0810FFA01EC56FB4F68A1962F7C
:102A70009F7040E1349FB0011124692B608398A1BD
:102A8000943009F43FC028F4992369F0913001F1A2
:102A9000ADC0983009F472C0993009F490C09530F7
:102AA00009F0A4C04CC0E82FF0E0EC56FB4F4C817D
:102AB0005D816E817F81242F2F7177FD02C090E0B0
:102AC00001C090E8922B29A1922B908321E08EC027
:102AD000282F30E04C815D816E817F81F901EC56B9
:102AE000FB4F4083D901AB56BB4FE52FEF7177FD0C
:102AF00002C090E001C090E89E2B49A1942B9C93CA
:102B000022E074C0282F30E04C815D816E817F818E
:102B1000F901EC56FB4F4083F901EB56FB4F508314
:102B2000D901AA56BB4FE62FEF7177FD02C090E0A6
:102B300001C090E89E2B49A1942B9C931DC0282F87
:102B400030E04C815D816E817F81F901EC56FB4F55
:102B50004083F901EB56FB4F5083F901EA56FB4FD6
:102B60004B01BB2497FCB094AB2C77FD02C090E0E6
:102B700001C090E8892A808223E038C0282F30E005
:102B80004C815D816E817F81F901EC56FB4F408362
:102B9000F901EB56FB4F5083F901EA56FB4F608376
:102BA000D901A956BB4FE72FEF7177FD02C090E026
:102BB00001C090E89E2B49A1942B9C9316C0282F0E
:102BC00030E06C815D814E819F81F901EC56FB4FB5
:102BD0006083F901EB56FB4F5083F901EA56FB4F36
:102BE0004083F901E956FB4F908324E0182F120F20
:102BF00080916B048F5F80936B0420916904309106
:102C00006A0490E0821793073CF010926B04809165
:102C10006C048F5F80936C048FEFE81AF80AE21659
:102C2000F3060CF4E9CE01C010E08EE78093940423
:102C30008FE280939504909196048EEF810F892BFB
:102C40008093960489E08093970484EA80939804A3
:102C50008091D604809399048091D70480939A043C
:102C600010929B04E12FF0E0A6E9B4E092E080E04E
:102C700037E0911768F42D91822728E087FF03C081
:102C8000880F832701C0880F2150C1F79F5FF1CFC4
:102C9000EC56FB4F80838091920490919304DC0169
:102CA000ED91FC910280F381E02D40E06EE7099503
:102CB00001E01017A0F08091920490919304A02F4E
:102CC000B0E0AC56BB4FFC0120813181F90122817B
:102CD000338141E06C91F90109950F5FEACFA2962B
:102CE0000FB6F894DEBF0FBECDBFDF91CF911F911D
:102CF0000F91FF90EF90BF90AF909F908F900895AD
:102D0000CF93DF93CDB7DEB7CE54D1090FB6F89489
:102D1000DEBF0FBECDBF789484B5826084BD84B51C
:102D2000816084BD85B5826085BD85B5816085BDC6
:102D300080916E00816080936E001092810080917E
:102D40008100826080938100809181008160809306
:102D50008100809180008160809380008091B1002B
:102D600084608093B1008091B00081608093B00056
:102D700080917A00846080937A0080917A008260EA
:102D800080937A0080917A00816080937A008091AC
:102D90007A00806880937A001092C10080918B0342
:102DA00081118EC4109207031092060310925003F3
:102DB000109272030E946A0A01E000934F0317E722
:102DC0001093710310925003109272030E94260C0C
:102DD000811176C4109207031092060310925003DB
:102DE000109272030E946A0A00934F0310937103BA
:102DF00010925003109272036EE18FE793E00E94ED
:102E0000D6030E94260C8AE08093F00288E080932B
:102E1000F10264E670E080E090E00E94320550ED3F
:102E2000E52E52E0F52E12EA67E7B62E00934F0327
:102E3000B09271031092500310927203612F8FE7CA
:102E400093E00E94D6030E94260C00934F03B09299
:102E50007103109250031092720382E090E00E947E
:102E6000820C90910603809107039817F1F38FE786
:102E700093E00E948D03982E8FE793E00E948D03CC
:102E8000A82E0E94260CD92CC12CC6018A29D70154
:102E90008D939D937D011E5F1E3A41F61092C902EB
:102EA0001092C80286E696E6A6E6BFE38093C002CB
:102EB0009093C102A093C202B093C302E2E3F0E098
:102EC000F8AFEFAB81E090E00E94100D811107C0D8
:102ED00061E070E080E090E00E943205F3CFE09086
:102EE000DC02F090DD020091DE021091DF022196FB
:102EF000ECAEFDAE0EAF1FAF21970E94D81120910E
:102F0000D8023091D902890120E030E0322F212F00
:102F1000102F00272B013C01401A510A620A730A44
:102F2000E091D602F091D7028090D2029090D30225
:102F3000940140E050E060E070E080E090E000E16B
:102F40000E94B82E6901E42E252E362E872E982E4B
:102F50009BA3BF0180E090E0A30192010E947E2E1E
:102F60005901F42EB52FF62FE72F8C01A0E00E9417
:102F70000D2F4CF4AFE70E94F82E5901F42EB52F17
:102F8000F62FE72F8C0195014F2D5B2F6F2F7E2F92
:102F9000C80107E00E94D12E5901A42FF52FE62F7A
:102FA000F72E8C0196014E2D522D632D782D892DF3
:102FB0009BA1CA2EDF2EEE2E0E94EF2E22962FAF5F
:102FC000229723963FAF239724964FAF24972596B9
:102FD0005FAF259726966FAF269727967FAF2797E7
:102FE00028968FAF289729969FAF2997E090D00217
:102FF000F090D1026091D4027091D50280E090E00F
:10300000A30192010E947E2ED22E032F142FB52FE2
:10301000F62FE72FB82EC92EA0E00E940D2F84F4C2
:1030200021503F4F4F4F5F4F6F4F7F4F8F4F9F4FFD
:10303000D22E032F142FB52FF62FE72FB82EC92E1F
:103040002D2D302F412F5B2F6F2F7E2F8B2D9C2D01
:1030500008E00E94D12E19014A01B62FA72FF82FA0
:10306000E92FC12CD12C9701A60160E070E080E02F
:1030700090E00FE00E94B82E59016A017B018C019B
:103080009101A4016B2F7A2F8F2F9E2F0E94EF2E7C
:103090002A962FAF2A97332E242E2B965FAF2B978D
:1030A0002C966FAF2C972D967FAF2D972E968FAFC6
:1030B0002E972F969FAF2F976091DA027091DB02C7
:1030C00080E090E0A30192010E947E2EF22E032F59
:1030D000142FB52FF62FE72FD82EE92EA0E00E944F
:1030E0000D2F84F42150310940485F4F6F4F7F4FBF
:1030F0008F4F9F4FF22E032F142FB52FF62FE72F50
:10310000D82EE92E2F2D302F412F5B2F6F2F7E2FA2
:103110008D2D9E2D07E10E94D12E49015A01950166
:1031200084010053184F2F4F3F4F0FA718AB29AB07
:103130003AAB1092F6021092F7021092F802109237
:10314000F9021092FA021092FB021092FC02109205
:10315000FD021092FE021092FF02109200031092E4
:1031600001031092020310920303109204031092C1
:103170000503003D1740210531050CF0BFC0A50136
:103180009401C501B4010E94AF2D9B01AC01A5E0E3
:10319000B0E00E94122E8B019C0135952795179562
:1031A00007950BA31CA32DA33EA32B013C01770C79
:1031B0004408542C32010093F6021093F702209336
:1031C000F8023093F9024092FA024092FB024092D8
:1031D000FC024092FD029B01AC0112E0559547951F
:1031E000379527951A95D1F72BA73CA74DA75EA732
:1031F0002093FE023093FF0240930003509301039B
:10320000409202034092030340920403409205035C
:103210000FA518A929A93AA904321A4F2F4F3F4FD9
:103220000CF06CC0C501B4016455724F8F4F9F4FB5
:103230009B01AC010E94AF2D6FA778AB89AB9AAB15
:10324000A7E0B0E09B01AC010E94122E4B015C0193
:10325000BB0C8808982C54019B01AC01682D782D7B
:10326000882D982DABA0BCA0CDA0DEA0E42CF42C22
:10327000042D142D0E94EF2E2093F6023093F702B6
:103280004093F8025093F9026093FA027093FB02A4
:103290008093FC029093FD02ABE0B0E02FA538A92B
:1032A00049A95AA90E94122E4B015C01B594A7941A
:1032B000979487946B017C01FF0CCC08DC2C760181
:1032C0009401A5016C2D7C2D8C2D9C2DABA4BCA450
:1032D000CDA4DEA4E42CF42C0E94EF2E2093FE0259
:1032E0003093FF0240930003509301036093020365
:1032F0007093030380930403909305032A962FADE4
:103300002A97332D422D2B965FAD2B972C966FADC0
:103310002C972D967FAD2D972E968FAD2E972F96AD
:103320009FAD2F97A090FE02B090FF02C0900003C7
:10333000D0900103E0900203F09003030091040396
:10334000109105030E94042F2196ECACFDAC0EAD4C
:103350001FAD21971701280157016201E12CF12CC3
:1033600000E010E00E94252EF22E032F142FB52F1F
:10337000F62FE72FD82EE92EA0E00E940D2F84F41F
:1033800021503109404E5F4F6F4F7F4F8F4F9F4FFE
:10339000F22E032F142FB52FF62FE72FD82EE92E5C
:1033A0002F2D302F412F5B2F6F2F7E2F8D2D9E2D98
:1033B00005E10E94D12E39014A01B62FA72FF82F1F
:1033C000E92F22962FAD229723963FAD239724967F
:1033D0004FAD249725965FAD259726966FAD26971E
:1033E00027967FAD279728968FAD289729969FAD72
:1033F0002997A090F602B090F702C090F802D09002
:10340000F902E090FA02F090FB020091FC021091A8
:10341000FD020E94042F59016A017B018C01930176
:10342000A4016B2F7A2F8F2F9E2F0E94042FF22E34
:10343000032F142FB52FF62FE72FD82EE92EA0E05B
:103440000E940D2F84F4215030484F4F5F4F6F4F33
:103450007F4F8F4F9F4FF22E032F142FB52FF62F34
:10346000E72FD82EE92E2F2D302F412F5B2F6F2FD6
:103470007E2F8D2D9E2D0FE00E94D12EB901CA0105
:103480000E945C2A6093E8027093E9028093EA024A
:103490009093EB020FA918AD0150110918AF0FABB3
:1034A000012B09F00FCD0E94D8116093E0027093B8
:1034B000E1028093E2029093E3021092CB02109219
:1034C000CA0286E696E6A6E6BFE38093CC02909316
:1034D000CD02A093CE02B093CF020E94D8112091CA
:1034E000D8023091D902890120E030E0322F212F1B
:1034F000102F00274B015C01801A910AA20AB30A1F
:103500006091DA027091DB0280E090E0A501940105
:103510000E947E2EF22E032F142FB52FF62FE72FA9
:10352000D82EE92EA0E00E940D2F84F421503109FD
:1035300040485F4F6F4F7F4F8F4F9F4FF22E032FAB
:10354000142FB52FF62FE72FD82EE92E2F2D302F41
:10355000412F5B2F6F2F7E2F8D2D9E2D07E10E9417
:10356000D12E2BA33CA34DA35EA36FA378A789A75D
:103570009AA7CBA0DCA0EDA0FEA010EDC10E17E035
:10358000D11EE11CF11C1092F2021092F302109273
:10359000F4021092F50220EDC21627E0D206E104F3
:1035A000F104A4F4A5019401C501B4010E94AF2D5A
:1035B0002FEF3FEF4FEF5FE70E94ED2D2093F202D8
:1035C0003093F3024093F4025093F5028091F2029B
:1035D0009091F302A091F402B091F5029701860157
:1035E000081B190B2A0B3B0BC901B8010E945C2A6E
:1035F00020E030E048EC52E40E94B2290E94242AE4
:103600006093EC027093ED028093EE029093EF02D0
:1036100020E836EE45EC57E46091E8027091E9024B
:103620008091EA029091EB020E94B2292BEA3CEDD4
:1036300042E45EE30E94202C9B01AC0160E070E05C
:1036400080E89FE30E94C92820E03AE24DE257E477
:103650000E94B32B6093C4027093C5028093C6028C
:103660009093C7021092BA021092BC021092BD024F
:103670001092BE021092BF0281E08093BB028AE0EA
:103680008093F00288E08093F1028FE892ECA5E746
:10369000BFE38093CC029093CD02A093CE02B0936F
:1036A000CF028FE195E8ABE6BFE38093C002909331
:1036B000C102A093C202B093C30283E080938B0344
:1036C00080918B038230B9F018F48130A1F02FC0C3
:1036D0008330F9F0843059F58DEC9CECACE4BFE319
:1036E00080938C0390938D03A0938E03B0938F03EC
:1036F000109290031CC08AE999E9A9E5BFE3809381
:103700008C0390938D03A0938E03B0938F0385E079
:103710000CC04DEC5CEC6CE47FE340938C03509365
:103720008D0360938E0370938F038093900381E0E9
:1037300090E00E944C0B8F3F11F08093010182E0DA
:1037400090E00E944C0B8F3F31F091E0811101C05D
:1037500090E09093020186E090E00E944C0B8F3F36
:1037600031F091E0811101C090E09093C50187E0B4
:1037700090E00E944C0B8F3F31F091E0811101C02D
:1037800090E09093C4018AE090E00E944C0B8F3F40
:10379000A1F0682F70E080E090E00E945A2A20E0BB
:1037A00030E048EC52E40E94B22960938C0370939D
:1037B0008D0380938E0390938F038CE090E00E94A2
:1037C0004C0B8F3F11F08093900310926F0010927A
:1037D000800081E88093810083E896E090939B01CC
:1037E00080939A018BE39CE39093990180939801D5
:1037F00062E088E00E94AF0489E00E94E00B61E093
:1038000089E00E94AF0410929701109296011092E5
:10381000950110929401109293011092920180E20E
:1038200086BB80936F0080918B03811103C086E07B
:103830000E94AB0B80918B03833019F49BE490932F
:103840004F0490910101913011F0811106C08DE07B
:103850000E94AB0B8EE00E94AB0B809101018111A5
:103860000CC081E00E94AB0B82E00E94AB0B83E0B6
:103870000E94AB0B87E00E94AB0B8091010181118C
:103880000AC080918B03811106C084E00E94AB0BBB
:1038900085E00E94AB0B80910101823079F088E0D5
:1038A0000E94AB0B89E00E94AB0B8AE00E94AB0B3D
:1038B0008BE00E94AB0B8CE00E94AB0B8091C501AA
:1038C000811103C084E10E94AB0B8091C40181117E
:1038D00003C085E10E94AB0B86E78093D60482E3A8
:1038E0008093D70480916404882329F09E012F5F80
:1038F0003F4F19012CC180E2E4E9F4E0DF011D92A1
:103900008A95E9F740E250E060E270E084EB94E0F1
:103910000E946A3043E150E063E671E080E594E0A4
:103920000E94813088E080936404809169049091C2
:103930006A04892B11F40E94DE130091690410912E
:103940006A040138B9E11B0738F425E0209FC00163
:10395000219F900D112402C08FEF9FEF0E94282F0E
:10396000FC0120E030E04FEF5FEFBA0102171307D0
:1039700049F04083518362837383148235962F5FAD
:103980003F4FF4CF809367049093680481E990E0FF
:103990000E94282F21E9FC0111922A95E9F725E1DF
:1039A00031E0DC012D933C93909393048093920437
:1039B0000E94000510924E0410926D0410926B0448
:1039C0000E946C056B017C01B0EDCB0EB7E0DB1EF5
:1039D000E11CF11C8091650490916604892B61F1D2
:1039E0000E946C056C157D058E059F0528F504E089
:1039F00010E00E94301466E970E080E090E00E94E0
:103A0000320501501109A9F700E010E08091690426
:103A100090916A0480179107ECF2802F880F0E9422
:103A200077140E94301466E970E080E090E00E9414
:103A300032050F5F1F4FEACF80919204909193045B
:103A4000DC01ED91FC910480F581E02D0995811157
:103A5000F3CF4CCF80918B03811190C00E946C05F5
:103A60006093CE017093CF018093D0019093D101E8
:103A70008091C501882381F060E186E00E944E0BB1
:103A80002AE030E040E050E00E94ED2DBA01A901AB
:103A90002AE084E10E9480138091C401882381F090
:103AA00061E187E00E944E0B2AE030E040E050E008
:103AB0000E94ED2DBA01A9012AE085E10E94801340
:103AC00080910101882309F4F4C481E993E00E9404
:103AD0001303892B09F4CCC381E993E00E943503D9
:103AE000182F80913A0490913B04A0913C04B0912E
:103AF0003D040196A11DB11D80933A0490933B04AF
:103B0000A0933C04B0933D04143209F48FC3E091B8
:103B1000340415320CF03FC11A3009F038C1EF30CF
:103B200008F445C180E0909133049F5F9093330483
:103B30001092340491E01A3209F090E0909322043C
:103B4000811196C3E0E0F0E0309709F009950E94FA
:103B50006C050091CE011091CF012091D0013091E0
:103B6000D101DC01CB01801B910BA20BB30B853B78
:103B70009105A105B10508F4A3CF6CCF833009F0FE
:103B8000ACC080918C0390918D03A0918E03B09175
:103B90008F038093CC029093CD02A093CE02B0937A
:103BA000CF026091EC027091ED028091EE02909153
:103BB000EF020E945C2A20E030E048EC52E40E94D0
:103BC000B2296093070170930801809309019093D3
:103BD0000A016091E8027091E9028091EA029091F5
:103BE000EB020E94242A6B017C0160930301709315
:103BF00004018093050190930601809101018111D8
:103C000028C0C701B6010E945C2A20E836EE45ECC8
:103C100057E40E94B2292BEA3CED42E45EE30E94A5
:103C2000202C9B01AC0160E070E080E89FE30E94E3
:103C3000C92820E03AE24DE257E40E94B32B0E94EB
:103C4000242A6093CA017093CB018093CC01909396
:103C5000CD01C701B6010E945C2A20E836EE45EC92
:103C600057E40E94B2292BEA3CED42E45EE30E9455
:103C7000202C9B01AC0160E070E080E89FE30E9493
:103C8000C92820E03AE24DE257E40E94B32B20918C
:103C9000C4023091C5024091C6025091C7020E94F1
:103CA000C92820E030E040E251E40E94B32B0E949A
:103CB000242A6093C6017093C7018093C801909332
:103CC000C9018091CA029091CB027C01990F000B2F
:103CD000110BE9AEFAAE0BAF1CAF0E946C058091E0
:103CE0009003482F50E060E070E009AD1AAD2BADB5
:103CF0003CAD40175107620773073CF4041B150BDA
:103D0000260B370BB901A8011BC090E09195819556
:103D10009109092E000CAA0BBB0B29AD3AAD4BAD96
:103D20005CAD281739074A075B073CF4BA01A901C3
:103D3000481B590B6A0B7B0B03C040E050E0BA01F3
:103D400025E086E00E948013409103015091040118
:103D500060910501709106012FE08DE00E948013B3
:103D600020E030E040E251E46091070170910801E9
:103D70008091090190910A010E94B32B0E94242A8C
:103D8000AB01BC012FE08EE00E94801367CE1D3096
:103D900009F05AC2C4CE1A3209F4C1CE1C3209F05D
:103DA00053C280912104812780932104B8CEF0E092
:103DB000ED5DFB4F108280912204882309F421C11C
:103DC000209123043FEB320F822F022E000C990B1F
:103DD000363010F4C79707C02156263018F487559F
:103DE000910901C0C097282F2295207F309124048B
:103DF0004FEB430F832F032E000C990B463010F42A
:103E0000C79707C03156363018F48755910901C05D
:103E1000C097820F909121048913DFC080914604DE
:103E200090914704A0914804B09149040196A11DC6
:103E3000B11D8093460490934704A0934804B09327
:103E4000490480913504882399F080913E04909133
:103E50003F04A0914004B09141040196A11DB11D01
:103E600080933E0490933F04A0934004B093410498
:103E7000009132040023B9F1013009F084C08FEBC6
:103E800093E00E9463078DEC93E00E9463078091AA
:103E90003504882309F477C087E0EDEAF3E0AFE961
:103EA000B3E001900D928A95E1F787E0E4EBF3E04F
:103EB000A6EAB3E001900D928A95E1F70E946C05A5
:103EC0006093BB037093BC038093BD039093BE03C8
:103ED00000939E0300939D038BED93E00E944C079B
:103EE00089EE93E04EC08DEC93E00E9463078091D1
:103EF0003504882329F187E0EDEAF3E0AFE9B3E088
:103F000001900D928A95E1F787E0E4EBF3E0A6EAF1
:103F1000B3E001900D928A95E1F70E946C056093E1
:103F2000BB037093BC038093BD039093BE0381E0F9
:103F300080939E0380939D0387EF93E00E944C073C
:103F400080910F0490911004A0911104B09112047B
:103F500080930B0490930C04A0930D04B0930E0473
:103F60000E946C0560930704709308048093090411
:103F700090930A0481E0809306048093050483E112
:103F800094E00E944C07E0903804F090390401E07E
:103F9000E114F10409F448C1E0913804F0913904C6
:103FA00066A177A1D70196968D919C9197970E94D3
:103FB0007130892B09F038C1B701C70140960E94C2
:103FC0007A300E946C05F70160A371A382A393A3CA
:103FD00005A304A3E2A4F3A4DBCF80914204909153
:103FE0004304A0914404B09145040196A11DB11D64
:103FF0008093420490934304A0934404B0934504F7
:1040000091CD90913304911147C06CE671E083E249
:1040100094E00E947130892B41F062E771E083E205
:1040200094E00E947130892B11F481E014C068E79C
:1040300071E083E294E00E947130892B41F06EE7D9
:1040400071E083E294E00E947130892B19F41092A0
:10405000320403C082E08093320480913604909150
:1040600037049093390480933804E0903804F0903A
:104070003904E114F10409F455CD63E274E0D70189
:1040800096968D919C9197970E94713097FFB4C43A
:10409000F70182A593A5E5CFE0913204E23009F45F
:1040A00091C080912304882309F48CC000E2E09F32
:1040B000F0011124E92B3197E932F10508F082C0B3
:1040C000EC5CFF4F0C940C2E83E294E00E94E70816
:1040D0006093D3037093D4038093D5039093D60356
:1040E00071C091E0813409F043C043C06DEA73E0D0
:1040F00009C091E0833509F090E09093B30362C06A
:1041000064EB73E083E294E00E945F085BC091E09F
:10411000873509F090E09093BA0354C083E294E0AD
:104120000E94E7086093E5037093E6038093E7033A
:104130009093E80347C083E294E00E94E70860930D
:10414000F3037093F4038093F5039093F6033AC05E
:1041500083E294E00E946E286093C5037093C603C7
:104160008093C7039093C8032DC091E081330CF472
:1041700090E09093350426C083E294E00E946E287C
:1041800060930F04709310048093110490931204B1
:1041900019C083E294E00E94E70860931D047093C5
:1041A0001E0480931F04909320040CC083E294E0CB
:1041B0000E94E70860930104709302048093030453
:1041C00090930404E0903804F0903904E114F10471
:1041D00009F4A8CCE0913804F091390466A177A1E4
:1041E000D70196968D919C9197970E947130892B5B
:1041F00009F098CCF70120A531A58091330490E017
:10420000821793070CF48ECC2817390739F440E154
:1042100050E063E274E0C7010E948130D7019A96B2
:10422000ED90FC909B97D2CF81E07DCC109234042E
:10423000109233041092210482E080933204109291
:104240002204109235047ECCEE3040F481E08E0FD3
:1042500080933404F0E0ED5DFB4F108380912204E5
:10426000811170CC809121041827109321046ACC0D
:1042700080919D03882309F4C7C30E946C050091B7
:10428000BB031091BC032091BD033091BE03DC0140
:10429000CB01801B910BA20BB30B803D9740A10576
:1042A000B10508F0B1C30E9488129B01AC0160E027
:1042B00081E00E94EE110E9459129B01AC0161E065
:1042C00082E00E94EE111092F8036091FD0370915C
:1042D000FE038091FF03909100040E945C2A20E07D
:1042E00030E048EC52E40E94B2290E94242A6BA3D9
:1042F0007CA38DA39EA36093CA017093CB0180938E
:10430000CC019093CD011092DC036091E103709198
:10431000E2038091E3039091E4030E945C2A26E586
:104320003EE04DEE5FE30E94B32B20E030E048EC2E
:1043300052E40E94B2290E94242AAB01BC012AE067
:1043400083E00E9480131092EA036091EF03709162
:10435000F0038091F1039091F2030E945C2A20E027
:1043600030E048EC52E40E94B2290E94242AAB01BA
:10437000BC012FE08AE00E9480138091C2019091DD
:10438000C301883BFBE09F070CF07AC30196909332
:10439000C3018093C2010E9488126B017C0160936B
:1043A000BE017093BF018093C0019093C1010E9430
:1043B00059126093BA017093BB018093BC01909332
:1043C000BD01C092B601D092B701E092B801F0925F
:1043D000B9016093B2017093B3018093B4019093DB
:1043E000B5011092F8036091FD037091FE03809176
:1043F000FF03909100040E945C2A20E030E048EC2A
:1044000052E40E94B2290E94242A6093AE01709364
:10441000AF018093B0019093B1011092AA01109264
:10442000AB011092AC011092AD0120918B032111D0
:1044300008C06093A6017093A7018093A801909390
:10444000A9011092060440910B0450910C04609154
:104450000D0470910E042FE08BE00E9480131092E7
:1044600014044091190450911A0460911B04709136
:104470001C042FE08CE00E9480136091AA017091CF
:10448000AB018091AC019091AD012AE030E040E0B9
:1044900050E00E94CB2DBA01A9012FE088E00E94D4
:1044A00080132FE04BA95CA96DA97EA987E00E942B
:1044B00080134091C6015091C7016091C80170916D
:1044C000C90125E084E00E9480134091CA01509107
:1044D000CB016091CC017091CD012FE085E00E946D
:1044E000801380E090E00E94100D0E946C05009106
:1044F000A2011091A3012091A4013091A501065FB2
:104500001F4F2F4F3F4F0617170728073907D0F4C3
:1045100080918B03833061F44091CA025091CB02A9
:10452000052E000C660B770B21E086E00E948013BD
:104530000E946C056093A2017093A3018093A40173
:104540009093A5018091920490919304DC01ED91E8
:10455000FC910480F581E02D0995082F811105C09B
:1045600080910001882309F498C10E946C05C090D5
:104570009E01D0909F01E090A001F090A1016C15E8
:104580007D058E059F0508F488C10E946C05DC013D
:10459000CB0188539F4FAF4FBF4F80939E019093A5
:1045A0009F01A093A001B093A10111E091E1F92E28
:1045B000003E71F480919C0190919D018A3091059B
:1045C0000CF0A8C0019690939D0180939C01A0C01F
:1045D000003781F480919C0190919D011816190675
:1045E0000CF098C0019790939D0180939C011093CB
:1045F000000195C0003D09F080C080919C01909120
:104600009D018530910569F08630910559F1029739
:1046100009F07EC080910101882309F479C081509E
:1046200033C080908C0390908D03A0908E03B09047
:104630008F0320E030E040E85FE3C501B4010E9451
:10464000A82987FF65C020E030E048EC52E4C501AE
:10465000B4010E94B32B20E030E040E85FE30E9409
:10466000CA2834C080919003843608F051C08F5F0F
:1046700041C00E94880BE0E0F0E0099580910101C3
:10468000823008F045C08F5F8093010141C0809067
:104690008C0390908D03A0908E03B0908F0320E048
:1046A00030E0A901C501B4010E94722B181684F5EF
:1046B00020E030E048EC52E4C501B4010E94B32B85
:1046C00020E030E040E85FE30E94C92820E030E0CD
:1046D00048EC52E40E94B22960938C0370938D03DE
:1046E00080938E0390938F0313C08091900388234F
:1046F00079F08150809390030BC0003B59F4E09116
:104700009C01F0919D013197EA30F10508F472C3E4
:104710001093000180910001882309F4BEC01A8A19
:10472000198280919C0190919D01F89EB001F99EA3
:10473000700D11246A5D7D4F40E150E0CE0142963C
:104740000E949528E0919C01F0919D01E930F105CE
:10475000B0F4E35AFF4F0C940C2E40E150E065E1B9
:1047600072E00AC060910101FAE06F9FB00111246C
:1047700069507E4F40E150E0C1010E9495289E01A2
:104780002E5E3F4FA4EBB4E044EC54E080E05BC00D
:1047900080910101882309F40BCF6091020104E0AC
:1047A000609FB001112461517E4FE4CF60918B0373
:1047B00019E0619FB00111246E537E4FDBCF8091D1
:1047C0008B03882309F4F4CE20E030E048EC52E477
:1047D00060918C0370918D0380918E0390918F0373
:1047E0000E94B32B0E94242A7F936F9324E831E028
:1047F0003F932F930DC080918B03882309F4D8CE6B
:10480000809190031F928F938BE891E09F938F93F9
:104810003F922F920E9490300F900F900F900F9028
:104820000F900F90ACCF6091C501BAE06B9FB001C3
:10483000112406C06091C401EAE06E9FB00111240A
:1048400062557E4F97CFF90191919F01992321F0F5
:10485000811102C09C9303C0F0E2FC9381E01196A9
:1048600004E0A43CB00779F7DE01119680E09D9149
:10487000992329F0811103C0FA01908305C080E2D9
:10488000E82EFA01E08281E04F5F5F4F04ED14E013
:104890000417150761F71092000180914F04C09032
:1048A0004A04D0904B04E0904C04F0904D04C80EA4
:1048B000D11CE11CF11C0E946C056C157D058E0558
:1048C0009F0508F43FC90E946C0560934A047093E9
:1048D0004B0480934C0490934D048091D50488231D
:1048E00051F18091920490919304DC01ED91FC913F
:1048F0000280F381E02D40E06EE7099580919204FB
:1049000090919304DC01ED91FC910280F381E02D04
:1049100041E061E909958091920490919304DC0152
:10492000ED91FC910280F381E02D41E061E3099576
:104930001092D5045EC01091D404112309F44BC029
:10494000E12E012E000CFF08C7010E945230892B76
:1049500031F0C7010E945930182F00E001C001E07A
:104960008091920490919304DC01ED91FC9102807E
:10497000F381E02D40E06EE70995809192049091DB
:104980009304DC01ED91FC910280F381E02D41E084
:1049900062E009958091920490919304DC01ED917D
:1049A000FC910280F381E02D002311F063E201C04D
:1049B00062E241E009958091920490919304DC01B8
:1049C000ED91FC910280F381E02D41E0612F09958A
:1049D0001092D4040EC08091650490916604892BD6
:1049E00041F080914E0491E0980F90934E040E9404
:1049F00077140E943014A6C8892B09F493C810922A
:104A00003904109238048EC820E030E0A90160E03B
:104A100081E00E94EE1120E030E0A90161E082E037
:104A20000E94EE1180918B03811108C01092C60183
:104A30001092C7011092C8011092C9011092CA01C8
:104A40001092CB011092CC011092CD012AE040E0EF
:104A500050E0BA0183E00E9480132FE040E050E074
:104A6000BA018AE00E9480132FE040E050E0BA01D2
:104A700089E00E9480131BAA1CAA1DAA1EAAE1CCD1
:104A800080918B0381111CC08091A6019091A70198
:104A9000A091A801B091A9012BA13CA14DA15EA1BB
:104AA000281B390B4A0B5B0BAAE0B0E00E94122EC8
:104AB0006093C6017093C7018093C8019093C901A8
:104AC0004090BA015090BB016090BC017090BD0154
:104AD000E090BE01F090BF010091C0011091C101B2
:104AE000EBA6FCA60DA71EA70E9459126BAB7CABD0
:104AF0008DAB9EAB0E94881263015201EBA4FCA413
:104B00000DA51EA52BA93CA94DA95EA90E947A0757
:104B10000E942B2A6BAB7CAB8DAB9EABF09002015D
:104B2000FFAAFF20C1F16091C6017091C701809179
:104B3000C8019091C9012AE030E040E050E00E94B5
:104B4000ED2DCA01B9010E945C2A4B015C016BA9E1
:104B50007CA98DA99EA90E945A2A6B017C01A501FE
:104B60009401C501B4010E94B32B4B015C01A70164
:104B70009601C701B6010E94B32B9B01AC01C50190
:104B8000B4010E94CA280E947E2C0E942B2A6BAB83
:104B90007CAB8DAB9EAB0E9459124B015C010E9415
:104BA00088126B017C01A3019201C501B4010E942E
:104BB000C92825E33AEF4EE85CE30E94B32B4B0192
:104BC0005C0125E33AEF4EE85CE36BA57CA58DA57F
:104BD0009EA50E94B32B2B013C0125E33AEF4EE842
:104BE0005CE3C701B6010E94B32B6B017C01C501D8
:104BF000B4010E94702C6FA778AB89AB9AABC70148
:104C0000B6010E94AD296BA77CA78DA79EA7C30103
:104C1000B2010E94702C21966CAF7DAF8EAF9FAF1A
:104C20002197C501B4010E94AD294B015C01219679
:104C30002CAD3DAD4EAD5FAD21976BA57CA58DA58F
:104C40009EA50E94B32BA50194010E94B32B4B019A
:104C50005C01C301B2010E94AD292B013C01C701D7
:104C6000B6010E94702C9B01AC01C301B2010E94ED
:104C7000B32BA50194010E94C9286B017C012BA5CF
:104C80003CA54DA55EA56FA578A989A99AA90E9402
:104C9000B32BA70196010E9449296B017C0120E0FA
:104CA00030E0A9010E94A82987FF0AC02BED3FE050
:104CB00049EC50E4C701B6010E94CA286B017C018F
:104CC00021EE3EE245E652E4C701B6010E94B32B55
:104CD0000E94242AAB01BC012FE089E00E948013CE
:104CE000A090B201B090B301C090B401D090B501D2
:104CF000E090B601F090B7010091B8011091B901B0
:104D0000EBA6FCA60DA71EA70E9459122B013C0181
:104D10000E948812EBA4FCA40DA51EA5A30192017C
:104D20000E947A076B017C010FA90023B1F18091E9
:104D3000AE019091AF01A091B001B091B1012BA152
:104D40003CA14DA15EA1281B390B4A0B5B0BCA018C
:104D5000B9010E945C2A9B01AC010E94B32B4B015C
:104D60005C01A7019601C701B6010E94B32B9B010C
:104D7000AC01C501B4010E94CA280E947E2C6B01BF
:104D80007C018BA19CA1ADA1BEA18093AE019093AB
:104D9000AF01A093B001B093B1016091AA017091ED
:104DA000AB018091AC019091AD010E945A2AA701FC
:104DB00096010E94CA280E942B2A6093AA01709330
:104DC000AB018093AC019093AD010E948812609377
:104DD000B6017093B7018093B8019093B9010E9416
:104DE00059126093B2017093B3018093B401909310
:104DF000B50127CBEA59FF4F0C940C2E809102018C
:104E000081278093020184CC8091C5018127809302
:104E1000C5017ECC8091C40181278093C40178CCE8
:104E20006091010181E090E00E944A0B60910201D3
:104E300082E090E00E944A0B6091C50186E090E01C
:104E40000E944A0B6091C40187E090E00E944A0BE7
:104E500020E030E048EC52E460918C0370918D03C7
:104E600080918E0390918F030E94B32B0E94242A7D
:104E70008AE090E00E944A0B609190038CE090E001
:104E80000E944A0BE0E0F0E00995C12CD12C6FEFB5
:104E9000C6010E944A0BFFEFCF1ADF0A22E3C216B7
:104EA000D104A9F70E94880BE0E0F0E0099530CC2E
:104EB00085E591E0909392038093910380916F0038
:104EC0008B7F80936F0080916F008F7D80936F0048
:104ED0008091950180939601809194018111FCCF7E
:104EE00080916F008D7F80936F000895CF92DF9245
:104EF000EF92FF92EFE7F3E01382128288EEC82E62
:104F000083E0D82EE12CF12CC482D582E682F78290
:104F100083E491E091838083EAE4F4E010821182DB
:104F200012821382148286E98583128E148E138E68
:104F3000168E158E10A2178E11A281E082A313A2E5
:104F400010929304109292041092D4041092D504FB
:104F500086E78093D60482E38093D704168244E0E8
:104F600050E06FEF70E08EE894E00E946A3080E2DB
:104F7000EEE6F4E0DF011D928A95E9F7EDE9F3E052
:104F80001082118213821282148215821682178275
:104F90001086128611861386148615861686178645
:104FA000118A108A128A138A148A158A168A108E18
:104FB000178A118E128E138E148E158E12A213A2C2
:104FC00014A215A216A217A210AA11AA12AA13AA15
:104FD00014AA15AA16AE17AE1092E1031092E203BE
:104FE0001092E3031092E4031092E9031092EA0393
:104FF0001092EF031092F0031092F1031092F2035B
:105000001092F7031092F8031092FD031092FE0322
:105010001092FF03109200041092050410920604EF
:1050200010920B0410920C0410920D0410920E04B6
:1050300010921304109214041092190410921A047E
:1050400010921B0410921C0410922104109222044E
:1050500082E0809332041092330410923404109250
:1050600035041092370410923604109239041092CD
:10507000380410923A0410923B0410923C041092AF
:105080003D0410923E0410923F041092400410928E
:10509000410410924204109243041092440410926E
:1050A000450410924604109247041092480410924E
:1050B000490410922304E1E9F3E013821282C482CE
:1050C000D582E682F78285E591E091838083109214
:1050D0008B03FF90EF90DF90CF9008951F93FC011A
:1050E00099278827BC01E89411911032E9F319300F
:1050F00010F01E30C8F31B3251F01D3249F4689491
:1051000006C00E949E28610F711D811D911D119185
:1051100010531A30B0F33EF49095809570956195D8
:105120007F4F8F4F9F4F1F910895FB01DC0102C0FD
:1051300005900D9241505040D8F70895592F482FAF
:10514000372F262F660F771F881F991F660F771F2F
:10515000881F991F620F731F841F951F660F771F8B
:10516000881F991F0895F999FECF92BD81BDF89AC5
:10517000992780B50895262FF999FECF1FBA92BDC1
:1051800081BD20BD0FB6F894FA9AF99A0FBE019628
:1051900008955058BB27AA270E94E1280C94242B7D
:1051A0000E94EB2A38F00E94F22A20F039F49F3F47
:1051B00019F426F40C94C12A0EF4E095E7FB0C9444
:1051C000BB2AE92F0E94492B58F3BA1762077307CD
:1051D0008407950720F079F4A6F50C946B2B0EF458
:1051E000E0950B2EBA2FA02D0B01B90190010C01F7
:1051F000CA01A0011124FF27591B99F0593F50F40F
:10520000503E68F11A16F040A22F232F342F442766
:10521000585FF3CF469537952795A795F04053955E
:10522000C9F77EF41F16BA0B620B730B840BBAF02E
:105230009150A1F0FF0FBB1F661F771F881FC2F799
:105240000EC0BA0F621F731F841F48F487957795AD
:105250006795B795F7959E3F08F0B0CF9395880F67
:1052600008F09927EE0F9795879508950E94EB2AED
:1052700060F080E891E009F49EEF0E94F22A28F0A5
:1052800040E851E071F45EEF0CC00C94C12A0C941C
:105290006B2BE92FE0780E94492B40F3092E052A59
:1052A000B1F3261737074807590738F00E2E07F8CD
:1052B000E02569F0E025E0640AC0EF6307F8009498
:1052C00007FADB01B9019D01DC01CA01AD01EF93D1
:1052D0000E94C9290E94242B0E9479295F9155239D
:1052E00039F02BED3FE049E450FD49EC0C94CA281D
:1052F0000895DF93DD27B92FBF7740E85FE31616E7
:10530000170648075B0718F4D92F0E94772B9F9345
:105310008F937F936F930E94BE2CE0EEF0E00E948B
:10532000C42A0E94242B2F913F914F915F910E949C
:10533000C62BDD2351F09058A2EA2AED3FE049EC5C
:105340005FE3D0785D270E94E128DF910C94242B45
:105350000E94972A08F481E008950E94FB2AE395B1
:105360000C94352B0E94C6290C94242B0E94F22AFF
:1053700058F00E94EB2A40F029F45F3F29F00C948A
:10538000BB2A51110C946C2B0C94C12A0E94492BFE
:1053900068F39923B1F3552391F3951B550BBB2764
:1053A000AA2762177307840738F09F5F5F4F220FA9
:1053B000331F441FAA1FA9F335D00E2E3AF0E0E8A0
:1053C00032D091505040E695001CCAF72BD0FE2FEA
:1053D00029D0660F771F881FBB1F2617370748077E
:1053E000AB07B0E809F0BB0B802DBF01FF27935836
:1053F0005F4F3AF09E3F510578F00C94BB2A0C9415
:105400006C2B5F3FE4F3983ED4F3869577956795D0
:10541000B795F7959F5FC9F7880F911D969587956A
:1054200097F90895E1E0660F771F881FBB1F621789
:1054300073078407BA0720F0621B730B840BBA0B47
:10544000EE1F88F7E09508950E942B2A6894B11109
:105450000C946C2B08950E94512B88F09F5798F064
:10546000B92F9927B751B0F0E1F0660F771F881F69
:10547000991F1AF0BA95C9F714C0B13091F00E9483
:105480006B2BB1E008950C946B2B672F782F882736
:10549000B85F39F0B93FCCF3869577956795B395AA
:1054A000D9F73EF490958095709561957F4F8F4F19
:1054B0009F4F0895E89409C097FB3EF4909580951E
:1054C000709561957F4F8F4F9F4F9923A9F0F92FCA
:1054D00096E9BB279395F695879577956795B79548
:1054E000F111F8CFFAF4BB0F11F460FF1BC06F5F2E
:1054F0007F4F8F4F9F4F16C0882311F096E911C040
:10550000772321F09EE8872F762F05C0662371F060
:1055100096E8862F70E060E02AF09A95660F771F74
:10552000881FDAF7880F9695879597F90895990F50
:105530000008550FAA0BE0E8FEEF16161706E8075D
:10554000F907C0F012161306E407F50798F0621B7E
:10555000730B840B950B39F40A2661F0232B242B53
:10556000252B21F408950A2609F4A140A6958FEF72
:10557000811D811D089597F99F6780E870E060E0C4
:1055800008959FEF80EC0895DF93CF931F930F93BF
:10559000FF92EF92DF927B018C01689406C0DA2EB5
:1055A000EF010E94C62BFE01E894A591259135914B
:1055B00045915591A6F3EF010E94E128FE01970164
:1055C000A801DA9469F7DF90EF90FF900F911F9197
:1055D000CF91DF91089500240A9416161706180635
:1055E0000906089500240A941216130614060506E7
:1055F00008950C94C12A0E94512BD8F3E894E0E05E
:10560000BB279F57F0F02AED3FE049EC06C0EE0FB4
:10561000BB0F661F771F881F28F0B23A6207730717
:10562000840728F0B25A620B730B840BE3959A95AA
:1056300072F7803830F49A95BB0F661F771F881F6A
:10564000D2F790480C94FE2C092E0394000C11F410
:10565000882352F0BB0F40F4BF2B11F460FF04C04D
:105660006F5F7F4F8F4F9F4F0895EF93E0FF07C00D
:10567000A2EA2AED3FE049EC5FEB0E94E1280E949C
:10568000242B0F90039401FC9058EDE0F1E00C9472
:10569000112D57FD9058440F551F59F05F3F71F081
:1056A0004795880F97FB991F61F09F3F79F0879589
:1056B0000895121613061406551FF2CF4695F1DF12
:1056C00008C0161617061806991FF1CF86957105A2
:1056D000610508940895E894BB2766277727CB01D6
:1056E00097F908950E94972A08F48FEF08959B0177
:1056F000AC0160E070E080E89FE30C94B229FA010D
:10570000DC01AA0FBB1F9B01AC01BF5728F4222765
:1057100033274427507820C0B75190F4AB2F002492
:10572000469537952795011CA395D2F3002071F07B
:10573000220F331F441FB395DAF30ED00C94C928FF
:1057400061307105A0E88A07B94630F49B01AC01CD
:105750006627772788279078309621F02083318339
:105760004283538308950E94C62B0C94242B0E94DD
:10577000EB2A38F00E94F22A20F0952311F00C94C5
:10578000BB2A0C94C12A11240C946C2B0E94492B27
:1057900070F3959FC1F3950F50E0551F629FF00184
:1057A000729FBB27F00DB11D639FAA27F00DB11D9D
:1057B000AA1F649F6627B00DA11D661F829F222726
:1057C000B00DA11D621F739FB00DA11D621F839FAD
:1057D000A00D611D221F749F3327A00D611D231F83
:1057E000849F600D211D822F762F6A2F11249F57D1
:1057F00050409AF0F1F088234AF0EE0FFF1FBB1FD4
:10580000661F771F881F91505040A9F79E3F510592
:1058100080F00C94BB2A0C946C2B5F3FE4F3983E11
:10582000D4F3869577956795B795F795E7959F5F3C
:10583000C1F7FE2B880F911D9695879597F90895CE
:10584000FA01EE0FFF1F309621053105A1F1611518
:10585000710561F48038BFE39B0749F16894903883
:10586000810561F08038BFEF9B0741F099234AF52D
:10587000FF3FE1053105210519F1E8940894E7950A
:10588000D901AA2329F4AB2FBE2FF85FD0F310C0A3
:10589000FF5F70F4A695E0F7F73950F019F0FF3A82
:1058A00038F49F779F930DD00F9007FC9058089580
:1058B00046F00C94C12A60E070E080E89FE3089510
:1058C0004FE79F775F934F933F932F930E94672DEE
:1058D0002F913F914F915F910E94B32B0C94CA2C52
:1058E0009F930E94FB2A0F9007FCEE5F0C94352BD0
:1058F00019F416F40C94C12A0C94FC2C0E94512B20
:10590000B8F39923C9F3B6F39F57550B87FF0E944D
:105910000A2D0024A0E640EA9001805856959795FC
:1059200028F4805C660F771F881F20F02617370742
:10593000480730F4621B730B840B202931294A2B52
:10594000A69517940794202531254A2758F7660F06
:10595000771F881F20F026173707480730F4620B9F
:10596000730B840B200D311D411DA09581F7B901EA
:10597000842F9158880F9695879508959B01AC01C7
:105980000C94B32B29F416F00C94BB2A0C946B2BBB
:105990000C94C12A0E94512BA8F39638A0F707F85F
:1059A0000F92E8942BE33AEA48EB5FE70E94C92B99
:1059B0000F920F920F924DB75EB70F920E947F2BFE
:1059C000EBE2F1E00E94C42A4F915F91EF91FF91C9
:1059D000E595EE1FFF1F49F0FE57E0684427EE0FE4
:1059E000441FFA95E1F74195550B0E94292D0F9020
:1059F00007FE0C94772B08959F3F31F0915020F4CF
:105A0000879577956795B795880F911D969587959A
:105A100097F9089591505040660F771F881FD2F76D
:105A200008959F938F937F936F93FF93EF939B01C1
:105A3000AC010E94B32BEF91FF910E94C42A2F91D9
:105A40003F914F915F910C94B32B0C94BB2A0C9413
:105A5000FC2C0E94512BD8F39923C9F3940F511DAC
:105A6000A3F39150504094F059F0882332F0660F20
:105A7000771F881F91505040C1F79E3F51052CF76A
:105A8000880F911D9695879597F908955F3FACF023
:105A9000983E9CF0BB27869577956795B79508F457
:105AA000B1609395C1F7BB0F58F711F460FFE8CFD1
:105AB0006F5F7F4F8F4F9F4FE3CF0C946C2B16F08F
:105AC0000C94FC2C0C94C12A68940C94BB2A0E9460
:105AD000512BA8F39923C1F3AEF3DF93CF931F9318
