:100000000C949A020C94C2020C94C2020C94C20288
:100010000C94C2020C94C2020C94C2020C94C20250
:100020000C94C2020C94C2020C9409060C94B30600
:100030000C94C2050C94C2020C94C2020C94C2022D
:100040000C9478050C94C2020C94860A0C94C20A93
:100050000C941D0B0C94C2020C94C2020C94C202AC
:100060000C9440090C94C2028B209D20A020A72054
:10007000AE20DC20E320F020FD2009210921092108
:100080000921092109210921092109210921092120
:100090000921092109210921092109210921092110
:1000A00009210921092109218B2098209D20A020C8
:1000B000A720AE20B520C220CF20D423E623D92309
:1000C000EF23FD23062422243A24412460236523C0
:1000D0002527AF236E239C232B27312737276C2717
:1000E000084AD73B3BCE016E84BCBFFDC12F3D6C9F
:1000F00074319ABD56833DDA3D00C77F11BED9E405
:10010000BB4C3E916BAAAABE000000803F05A84CE4
:10011000CDB2D44EB93836A9020C50B991868808B0
:100120003CA6AAAA2ABE000000803F07634236B759
:100130009BD8A71A39685618AEBAAB558C1D3CB778
:10014000CC5763BD6DEDFD753EF6177231BF0000F3
:1001500000803F08000000BE922449123EABAAAACC
:100160002ABECDCCCC4C3E00000080BEABAAAAAAD1
:100170003E00000000BF000000803F0000000000C3
:10018000084178D3BB4387D1133D190E3CC3BD4210
:1001900082AD2B3E68EC8276BED98FE1A93E4C80C1
:1001A000EFFFBE01C4FF7F3F0000000000002044BD
:1001B000697361626C65640020456E61626C6564A0
:1001C000000020756E6B6E6F776E0020424D5032CE
:1001D0003830000020424D453238300000204D5369
:1001E000353631310000204C505300000000002013
:1001F000324400203344002044697361626C6564BA
:100200000020426173696300000000204578746536
:100210006E6465640056657273696F6E2056322E87
:10022000332E362E3100566172696F47505320537A
:10023000656E736F7200005265736574206F666639
:100240007365740000000000475053206D6F6465B3
:100250003A0000000000000000475053206469731A
:1002600074616E63653A00000000507265737375C7
:1002700072652073656E736F723A00566172696FB2
:1002800020736D6F6F7468696E673A0056617269AA
:100290006F20646561647A6F6E653A000052783150
:1002A00020766F6C746167653A0000000000527838
:1002B0003220766F6C746167653A0000000000536D
:1002C00061766520616E642072657374617274007A
:1002D0004C6F61642064656661756C747300000026
:1002E0000000000000240027002A00000000002574
:1002F0000028002B00040404040404040402020285
:100300000202020303030303030102040810204056
:1003100080010204081020010204081020000000DF
:1003200008000201000003040700000000000000B4
:1003300000014C6174697475646500000000000080
:100340000000000000002000000000000009000282
:100350004C6F6E67697475646500000000000000F2
:1003600000000000200000000000000900034750CA
:1003700053207370656564000000000000000000F9
:1003800000006B6D2F680000000100074469737462
:10039000616E6365000000000000000000000000C6
:1003A0006D00000000000004000854726970000035
:1003B00000000000000000000000000000006B6D65
:1003C0000000000000040209417A696D757468003C
:1003D000000000000000000000000000B00000006D
:1003E00000000001000A436F757273650000000091
:1003F00000000000000000000000B000000000004D
:100400000001000B536174656C6C697465730000C6
:1004100000000000000000002000000000000000BC
:10042000000C48444F500000000000000000000095
:100430000000000000002000000000000001020495
:1004400052656C2E20416C7469740000000000003D
:10045000000000006D000000000000040105416282
:10046000732E20416C7469740000000000000000CD
:1004700000006D0000000000000400065661726973
:100480006F6D6574657200000000000000000000E0
:100490006D2F730000000004020D4169722070721C
:1004A0006573732E0000000000000000000068501B
:1004B000610000000004020E54656D702E00000003
:1004C000000000000000000000000000B043000039
:1004D00000000001011452783120566F6C7461677E
:1004E0006500000000000000000056000000000051
:1004F0000001021552783220566F6C7461676500F6
:100500000000000000000000560000000000000194
:1005100002000000000000000000000000000000D9
:1005200000000000000000000000000000000000CB
:100530009D277F2711241FBECFEFD8E0DEBFCDBFA0
:1005400011E0A0E0B1E0EEE5F7E602C005900D9203
:10055000A239B107D9F724E0A2E9B1E001C01D92A8
:10056000AB3DB207E1F712E0C9E9D2E004C0219740
:10057000FE010E94312EC839D107C9F70E94A71683
:100580000C94A2330C940000CF92DF92EF92FF9272
:100590000F931F93CF93DF936C017A018B01C0E01F
:1005A000D0E0CE15DF0581F0D8016D918D01D60127
:1005B000ED91FC910190F081E02DC6010995892B08
:1005C00011F02196EECF7E01C701DF91CF911F91EF
:1005D0000F91FF90EF90DF90CF9008953FB7F89480
:1005E0008091B6029091B702A091B802B091B90281
:1005F00026B5A89B05C02F3F19F00196A11DB11D7E
:100600003FBFBA2FA92F982F8827820F911DA11DB8
:10061000B11DBC01CD0142E0660F771F881F991FF5
:100620004A95D1F708955091960140919501852FF3
:1006300090E0242F30E0541710F4805B9F4F821B12
:10064000930B089580919601E09195018E1751F0DA
:10065000EF5FE03508F0E0E0F0E0EF59FD4F80811A
:1006600090E008958FEF9FEF08958091960190910B
:100670009501891769F09F5F903508F090E0E92FA8
:10068000F0E0EF59FD4F80819093950190E008953F
:100690008FEF9FEF089585ED8093BC008091BC00A3
:1006A00084FDFCCF10924E0308954091F401262F53
:1006B00030E0240F311D21323105DCF420914E034E
:1006C0002430C9F4FC0180E090E0861758F43091A2
:1006D000F4012191DC01AC52BE4FA30FB11D2C934C
:1006E0000196F3CF8091F401680F6093F40180E0EC
:1006F000089581E0089582E008950895E091070348
:1007000080910603E81730F4F0E0E85FFC4F808149
:1007100090E008958FEF9FEF0895909107038091E7
:100720000603981750F4E92FF0E0E85FFC4F2081B2
:1007300030E09F5F9093070302C02FEF3FEFC901A6
:1007400008958091060390E020910703821B910990
:100750000895CF92DF92EF92FF920F931F93CF9362
:10076000DF937C01CB018A0120914F03222389F082
:10077000EB016B01C40ED51ECC15DD0569F0699146
:10078000D701ED91FC910190F081E02DC701099511
:10079000F3CF642F0E945503C801DF91CF911F91C1
:1007A0000F91FF90EF90DF90CF900895CF93DF935C
:1007B0001F92CDB7DEB7698320914F032223D1F07A
:1007C00020917203203240F021E030E0FC013383BD
:1007D000228380E090E015C080915003E82FF0E084
:1007E000EF5AFC4F998190838F5F809350038093E1
:1007F000720305C061E0CE0101960E94550381E0BD
:1008000090E00F90DF91CF9108951F93CF93DF93E6
:10081000F894EC01CA57DF4F2881203400F5DC0141
:10082000AE57BF4F1C9111965C91119770E041112A
:1008300003C020E030E002C020E031E0622B732BE7
:10084000E12FF52F71836083329628812F5F2883F3
:10085000EA17FB0710F0FC013296ED93FC93FC01C4
:10086000E057FF4F8081811108C081E08083809133
:10087000C1008F7688628093C1007894DF91CF9118
:100880001F910895FC01E157FF4F2081222301F1C0
:10089000F894A091D201B091D301A357BF4F0D900E
:1008A000BC91A02D4C912081215020833297208132
:1008B00031812F5F3F4FBC0165577F4F26173707A8
:1008C00018F09C0129573F4F31832083789401C051
:1008D00040E0842F08950895809194018111FCCF08
:1008E0000895809193018F5F843408F080E09091A7
:1008F00092019817E1F32FB7F894909194019923FE
:1009000041F0E82FF0E0E95EFD4F608380939301B2
:100910001DC081E08093940160935C0210925B02A1
:1009200082E086BB80916F00826080936F0080912F
:1009300080008F7B806880938000809184009091FC
:100940008500409690938900809388002FBF81E0B6
:1009500090E0089580E090E008950E946E30CF937B
:10096000DF9390E0FC01E75FFC4F2491FC01EB502A
:10097000FD4F8491882361F190E0880F991FFC015D
:10098000EF51FD4FC591D491FC01E551FD4FA5916B
:10099000B491611109C09FB7F89488812095822392
:1009A0008883EC912E230BC0623061F49FB7F894DA
:1009B0008881322F309583238883EC912E2B2C93C2
:1009C0009FBF06C08FB7F894E8812E2B28838FBF76
:1009D000DF91CF9108951092C0008CE08093C10008
:1009E00086E38093C2001092C50086E68093C4001F
:1009F00062E080E00E94AF0462E081E00C94AF040A
:100A0000CF93DF93EC010E94EB04FE01329680E865
:100A1000DF011D928A95E9F7DE01AE57BF4F1196AF
:100A2000FC93EE931296ED93FC93EC57FF4F1082DC
:100A3000319684E0DF011D928A95E9F7DE01A55722
:100A4000BF4F1196FC93EE931296ED93FC9338965C
:100A5000108231961082D093D301C093D201DF91DE
:100A6000CF9108958F929F92AF92BF92CF92DF92D3
:100A7000EF92FF926B017C010E94EE024B015C0140
:100A8000C114D104E104F104F1F00E94EE02DC0192
:100A9000CB0188199909AA09BB09883E9340A10591
:100AA000B10570F321E0C21AD108E108F10888EE1F
:100AB000880E83E0981EA11CB11CC114D104E1046E
:100AC000F10419F7DDCFFF90EF90DF90CF90BF904A
:100AD000AF909F908F9008952FB7F8946091B202D5
:100AE0007091B3028091B4029091B5022FBF089526
:100AF0001F920F920FB60F9211242F933F938F9353
:100B00009F93AF93BF938091B2029091B302A09153
:100B1000B402B091B5023091B10223E0230F2D371A
:100B200020F40196A11DB11D05C026E8230F0296F1
:100B3000A11DB11D2093B1028093B2029093B30224
:100B4000A093B402B093B5028091B6029091B7021F
:100B5000A091B802B091B9020196A11DB11D809378
:100B6000B6029093B702A093B802B093B902BF91B6
:100B7000AF919F918F913F912F910F900FBE0F904A
:100B80001F9018951F920F920FB60F9211242F935A
:100B90008F939F93EF93FF9380916F008B7F809350
:100BA0006F00809181008F7B8093810080919701FD
:100BB00020916002205890915F02893020F4969530
:100BC000922B8F5FFACF90935F02809196018F5F97
:100BD000803508F080E020919501821739F0E82FE8
:100BE000F0E0EF59FD4F90838093960110929701AA
:100BF000809181008F7B8093810010926002FF9131
:100C0000EF919F918F912F910F900FBE0F901F909A
:100C100018951F920F920FB60F9211242F933F93A6
:100C20004F935F936F937F938F939F93AF93BF93F4
:100C3000EF93FF938091860090918700409160022E
:100C400020918100442331F02F7B2093810010926A
:100C5000600206C020642093810020E82093600297
:100C600030919701311125C041116CC0209198013C
:100C700030919901280F391F30938B0020938A00FF
:100C800024E026BB20916F00246020936F00209108
:100C90009A0130919B01820F931F36952795820F01
:100CA000931F90935E0280935D0281E08093970191
:100CB00049C040915D0250915E0260919A0170912D
:100CC0009B01DB01A095B09520915F02E09160024D
:100CD000841B950BA817B90768F126952E2B460F94
:100CE000571F3F5F861B970B3930A0F320935F029D
:100CF00080916F008B7F80936F00809196018F5F52
:100D0000803508F080E090919501891749F0E82F2F
:100D1000F0E090915F02EF59FD4F90838093960130
:100D2000809181008F7B80938100109260021092ED
:100D3000970108C020935F0250935E0240935D02CA
:100D400030939701FF91EF91BF91AF919F918F9158
:100D50007F916F915F914F913F912F910F900FBEB7
:100D60000F901F9018951F920F920FB60F9211249B
:100D70002F933F934F935F936F937F938F939F93A3
:100D8000EF93FF938091940160915C022091880021
:100D90003091890040919A0150919B0190915B02A2
:100DA0008A30F8F4240F351F893019F0762F7170CE
:100DB00001C071E066958F5F791791F39091800083
:100DC000772311F0906C02C09F7B90689093800015
:100DD000309389002093880070935B0260935C02DB
:100DE0004AC090919301E09192019E1319C08A30FC
:100DF00051F48BE080939401240F351F30938900C8
:100E0000209388003AC010929401809180008F73E3
:100E10008093800080916F008D7F80936F002DC044
:100E2000EF5FE43408F0E0E0E0939201F0E0E95E87
:100E3000FD4F908190935C0210925B029091800034
:100E40009F7B9068909380008A3059F480919A013A
:100E500090919B01280F391F3093890020938800BF
:100E600009C08091840090918500409690938900FC
:100E70008093880081E080939401FF91EF919F918E
:100E80008F917F916F915F914F913F912F910F9033
:100E90000FBE0F901F901895CF93DF93EC018A85BA
:100EA0009B85AC85BD858E839F83A887B9870E946B
:100EB0006C056A837B838C839D8381E0898388832F
:100EC000DF91CF910895CF93DF93EC018E819F81C5
:100ED000A885B9858A839B83AC83BD830E946C05FA
:100EE0006A877B878C879D8781E089838883DF91F0
:100EF000CF9108954F925F926F927F928F929F92BF
:100F0000AF92BF92CF92DF92EF92FF920F931F9317
:100F1000CF93DF93CDB7DEB760970FB6F894DEBFFF
:100F20000FBECDBF69837A838B839C83CA01B901CD
:100F300027013801A60195010E94EE2825E33AEF2A
:100F40004EE85CE30E94D82B6B017C010E94952C3B
:100F50006D877E878F87988BC701B6010E94D22943
:100F60006D837E838F83988725E33AEF4EE85CE3B9
:100F700069817A818B819C810E94D82B4B015C0115
:100F800025E33AEF4EE85CE3C301B2010E94D82B9F
:100F90002B013C01C501B4010E94952C69837A8321
:100FA0008B839C83C501B4010E94D2294B015C0153
:100FB000C301B2010E94952C69877A878B879C8731
:100FC000C301B2010E94D2296B017C0129853A85B7
:100FD0004B855C85C501B4010E94D82B2B013C01D7
:100FE000A701960169817A818B819C810E94D82B0F
:100FF0002D813E814F8158850E94D82B9B01AC01E9
:10100000C301B2010E94EE289B01AC010E94D82BC3
:101010002B013C01A70196016D857E858F859889FE
:101020000E94D82B9B01AC010E94D82BA3019201F6
:101030000E94EF280E94A32C2B013C01A7019601DE
:10104000C501B4010E94D82B2D813E814F81588566
:101050000E94D82B4B015C0129853A854B855C8524
:1010600069817A818B819C810E94D82B9B01AC0184
:10107000C501B4010E94EF289B01AC01C301B2017C
:101080000E946E2926E73BE742EC5AE40E94D82BE7
:1010900060960FB6F894DEBF0FBECDBFDF91CF9143
:1010A0001F910F91FF90EF90DF90CF90BF90AF9086
:1010B0009F908F907F906F905F904F9008952F92A8
:1010C0003F924F925F926F927F928F929F92AF92D8
:1010D000BF92CF92DF92EF92FF920F931F93CF9325
:1010E000DF93D82FC92F8B010E94932824E630E08C
:1010F00040E050E00E94F02D49015A019B01AC01F3
:1011000060E876E988E990E00E94D42D6B017C01CB
:10111000F80191828082ED2FFC2F2191822F022EE7
:10112000000C990BC0970A97C0F32E3239F51F01B6
:1011300080E8882E86E9982E88E9A82EB12C9AE0BE
:10114000492E512C612C712CF101C1911F010C2EE3
:10115000000CDD0BE097CA30D10580F4C501B40165
:10116000A30192010E94F02D49015A01DE010E9463
:10117000422EC60ED71EE81EF91EE6CFA5E0B0E04F
:10118000A70196010E94372E6F5F7F4F8F4F9F4FB1
:1011900023E030E040E050E00E94F02DF80122838F
:1011A0003383448355831682DF91CF911F910F9132
:1011B000FF90EF90DF90CF90BF90AF909F908F9077
:1011C0007F906F905F904F903F902F900895FF9287
:1011D0000F931F93CF93DF93EC01F8802DE2F2126F
:1011E00001C02196CE010E9493289B01AC01A4E688
:1011F000B0E00E94372EFE014991242F042E000CEE
:10120000330B205331092A303105A8F34E3241F512
:101210002181022E000C330B205331092A30310575
:10122000F8F44AE0429F8001439F100D1124012EE3
:10123000000C220B330B600F711F821F931F028162
:10124000002E000C110B005311090A30110540F457
:10125000012E000C220B330B600F711F821F931F96
:101260002DE2F21207C090958095709561957F4FA1
:101270008F4F9F4FDF91CF911F910F91FF90089556
:101280001F920F920FB60F9211242F933F934F93FB
:101290005F936F937F938F939F93AF93BF93EF93DE
:1012A000FF938091B900887F803609F49CC068F56F
:1012B000883209F45BC090F4803109F454C038F4EA
:1012C000882309F4F2C0883009F44DC0F2C0883197
:1012D00009F44CC0803209F45DC0EBC0803409F4DD
:1012E00068C048F4803309F455C0883309F0E1C080
:1012F00080934C03D4C0803509F44FC0883509F47D
:101300005DC0883409F0D5C0D2C0883909F4C3C0A3
:10131000A8F4883709F467C038F4883609F463C044
:10132000803709F460C0C5C0883809F4B4C080397A
:1013300009F45FC0803809F0BCC05BC0803B09F491
:1013400084C038F4803A09F466C0883A09F47DC054
:10135000B0C0803C09F4A3C0883C09F4A0C0883B1D
:1013600009F486C0A6C08091290310C090914B0358
:1013700080914A03981770F5E0914B0381E08E0F3E
:1013800080934B03F0E0E65DFC4F80818093BB00CF
:1013900085EC82C080934C038AC0E0914B0381E0CE
:1013A0008E0F80934B038091BB00F0E0E65DFC4F15
:1013B000808390914B0380914A036AC0E0914B0374
:1013C00081E08E0F80934B038091BB00F0E0E65DDF
:1013D000FC4F808380914D03811169C081E080932F
:1013E000280384EA5DC083E080934E0310921602C6
:1013F000CFCF80911602803208F04DC0E0911602E6
:1014000081E08E0F809316028091BB00F0E0EA50DD
:10141000FE4F8083BDCF85EC8093BC0010924E03BD
:1014200080911602803230F4E0911602F0E0EA502A
:10143000FE4F10826091160270E086EF91E0E0E0CE
:10144000F0E009951092160234C084E080934E03B8
:101450001092F5011092F401E0E0F0E0099580911E
:10146000F401811105C081E08093F4011092D40150
:10147000E091F50181E08E0F8093F501F0E0EC52F0
:10148000FE4F80818093BB009091F5018091F40123
:10149000981708F47DCF85E88093BC000AC085ECDE
:1014A0008093BC0010924E0304C010924C030E9423
:1014B0004B03FF91EF91BF91AF919F918F917F91DE
:1014C0006F915F914F913F912F910F900FBE0F90B1
:1014D0001F90189510924E0381E080934D03109257
:1014E000280382E10E94D90B83E10E94D90BE9EB2A
:1014F000F0E080818E7F808380818D7F808388E48F
:101500008093B80085E48093BC0008951F920F92E9
:101510000FB60F9211242F933F938F939F93AF9306
:10152000BF93EF93FF938091C600803FF1F0982F17
:101530009F70D9F42091D2013091D301F901E55780
:10154000FF4FA081B1818C93D901A157BF4F8C91DE
:101550008F5F8C938081918101968E179F0718F081
:10156000C90189579F4F91838083FF91EF91BF916C
:10157000AF919F918F913F912F910F900FBE0F9040
:101580001F9018951F920F920FB60F9211242F9350
:101590003F934F935F938F939F93EF93FF9380912C
:1015A000D2019091D301FC01EA57FF4F2081222301
:1015B00051F132970190F081E02D208131818091AD
:1015C000C10030FF02C0816001C08E7F8093C100E6
:1015D0002093C6002091D2013091D301F901EA573E
:1015E000FF4F808181508083329780819181029664
:1015F000A9014E575F4F8417950710F0C901029655
:10160000918380830DC08091C1008F7D8064809321
:10161000C100E091D201F091D301E057FF4F108259
:10162000FF91EF919F918F915F914F913F912F91FA
:101630000F900FBE0F901F9018951F920F920FB62C
:101640000F9211242F933F938F939F93EF93FF93C8
:10165000E1ECF0E08081877B806980838091D2011A
:101660009091D3019C0129573F4FFC01E557FF4F53
:101670003183208332963183208332961082FF910A
:10168000EF919F918F913F912F910F900FBE0F90EF
:101690001F9018950C94E0280C94D828CF93C82F4D
:1016A0006E3008F06E506770606460937C008091CB
:1016B0007A00806480937A0080917A0086FDFCCF66
:1016C000609178008091790070E0782B072E000CF3
:1016D000880B990B0E94812A20E030E040E85AE311
:1016E0000E94D82B20E030E44CE955E40E94D82B2E
:1016F00024E0C29FF0011124E15EFE4F2081318180
:10170000428153810E94D82B0E94492ACF9108958B
:10171000CF93DF9300D000D0CDB7DEB719821A8205
:101720001B821C82BE016F5F7F4F84E190E00E94AC
:10173000C71319821A821B821C82BE016F5F7F4F02
:1017400088E190E00E94C7130F900F900F900F90C8
:10175000DF91CF910895CF93C82F80916904909124
:101760006A04892B11F40E94F213C032D0F4EC2FDA
:10177000F0E0E65BFB4F83A1E82FF0E093E0F59506
:10178000E7959A95E1F7E357FB4F282F277081E003
:1017900090E001C0880F2A95EAF78095908189230F
:1017A000808310924E0410926C0410926B04CF91BF
:1017B000089590E0FC01E35EFC4F2491FC01E75F9B
:1017C000FC4F3491FC01EB50FD4FE491EE23B1F15D
:1017D000222339F1233091F038F42130A9F022305E
:1017E00001F584B58F7D12C0273091F02830A1F02B
:1017F0002430B9F4809180008F7D03C080918000F7
:101800008F77809380000DC084B58F7784BD09C029
:101810008091B0008F7703C08091B0008F7D80935E
:10182000B000F0E0EE0FFF1FE551FD4FA591B49120
:101830008FB7F894EC91E32BEC938FBF0895309120
:101840007203313208F04BC080914E038111FCCFFE
:101850009091710322E020934E0321E020934D03E9
:101860002FEF20934C0310924B0330934A03E1E592
:10187000F3E0AAE2B3E020E0321721F041914D936A
:101880002F5FFACF1092290320912903990F922BF1
:101890009093290390912803913061F410922803CA
:1018A000909129039093BB009091BC0093FDF8CFD9
:1018B00095EC01C095EE9093BC0090914E03923050
:1018C000E1F390914C039F3F79F080914C0380327B
:1018D00041F080914C03803331F084E005C081E019
:1018E00003C082E001C083E01092500310927203A3
:1018F00010924F03089590914E039111FCCF982FB1
:10190000813208F090E281E080934E0380934D0392
:101910002FEF20934C0310924B03290F20934A037F
:1019200080932903809129038E6E809329038091EF
:101930002803813061F41092280380912903809359
:10194000BB008091BC0083FDF8CF85EC01C085EE23
:101950008093BC0080914E038130E1F380914B0372
:10196000891710F490914B03EAE2F3E0A8E0B3E0AA
:1019700080E0891721F021912D938F5FFACF10928B
:1019800007038093060308951F93CF93DF93C1E06D
:10199000C0934F0387E78093710310925003109216
:1019A000720360E08FE793E00E94D6030E941F0C51
:1019B000C0934F03109250031092720383E090E0A3
:1019C0000E947B0C90910603809107039817F1F316
:1019D0008FE793E00E948D03182F8FE793E00E941A
:1019E0008D03C82F8FE793E00E948D03D82F0E94AC
:1019F0001F0C8C2F90E0A0E0B0E0BA2FA92F982FF9
:101A00008827A12BBC01CD016D2BDF91CF911F91B8
:101A100008952F923F924F925F926F927F928F9292
:101A20009F92AF92BF92CF92DF92EF92FF920F936D
:101A30001F93CF93DF93CDB7DEB7A5970FB6F8947A
:101A4000DEBF0FBECDBF9A8789870E946C050091CB
:101A50007B0310917C0320917D0330917E03061758
:101A600017072807390708F081C48091BC029091BC
:101A7000BD02A091BE02B091BF020196A11DB11D91
:101A80008093BC029093BD02A093BE02B093BF02AC
:101A900084369105A105B10561F51092BB0220E8DD
:101AA00036EE45EC57E46091E8027091E9028091CE
:101AB000EA029091EB020E94D7292BEA3CED42E426
:101AC0005EE30E94452C9B01AC0160E070E080E881
:101AD0009FE30E94EE2820E03AE24DE257E40E94A4
:101AE000D82B6093C4027093C5028093C602909372
:101AF000C7028091C8029091C9028130910509F016
:101B0000D0C30E94C40C688F798F8A8F9B8F60939B
:101B1000DC027093DD028093DE029093DF028091FD
:101B2000D8029091D902A0E0B0E0BA2FA92F982F47
:101B300088274090E0025090E1026090E2027090AD
:101B4000E302481A590A6A0A7B0A6091DA02709124
:101B5000DB0280E090E0A30192010E94A32E122FED
:101B60003D834983B52FF62FE72FF82E092FA0E0EC
:101B70000E94322F84F42150310940485F4F6F4F4B
:101B80007F4F8F4F9F4F122F3D834983B52FF62FE5
:101B9000E72FF82E092F212F3D8149815B2F6F2FD1
:101BA0007E2F8F2D902F07E10E94F62E49015A01BA
:101BB000A50194012053384F4F4F5F4F2D833E8333
:101BC0004F8358871092F2021092F3021092F4029F
:101BD0001092F5023091BA0239833323E9F04D8136
:101BE0005E816F817885403D574061057105A4F4A1
:101BF000A3019201C301B2010E94D42D2FEF3FEF48
:101C00004FEF5FE70E94122E2093F2023093F3020F
:101C10004093F4025093F5028091F2029091F30206
:101C2000A091F402B091F5022D813E814F8158853B
:101C3000281B390B4A0B5B0B2093EC023093ED020F
:101C40004093EE025093EF02E091D602F091D7025A
:101C50008090D2029090D302940140E050E060E086
:101C600070E080E090E000E10E94DD2EF22E132F64
:101C70001A014B018D879C87BF0180E090E0A30192
:101C800092010E94A32ED22EE32E042FB52FF62F01
:101C9000E72FB82EC92EA0E00E94322F5CF4AFE7E8
:101CA0000E941D2FD22EE32E042FB52FF62FE72FE3
:101CB000B82EC92E2D2D3E2D402F5B2F6F2F7E2F3E
:101CC0008B2D9C2D07E00E94F62E59016A01E62E0D
:101CD000F72F082FE92F2F2D312FA101B4018D856A
:101CE0009C85FF2E1E2F0E94142F2C873D874E8728
:101CF0005F87688B798B8A8B9B8B4091D002509148
:101D0000D1025D8F4C8F6091D4027091D50280E03A
:101D100090E0A30192010E94A32EF22E032F142F14
:101D2000B52FF62FE72FD82EE92EA0E00E94322FF4
:101D300084F421503F4F4F4F5F4F6F4F7F4F8F4F76
:101D40009F4FF22E032F142FB52FF62FE72FD82EEB
:101D5000E92E2F2D302F412F5B2F6F2F7E2F8D2DB2
:101D60009E2D08E00E94F62E39014A01B62FA72FBA
:101D7000F82FE92F6C8D7D8DC12CD12C9B01A601F4
:101D800060E070E080E090E00FE00E94DD2E5901FD
:101D90006A017B018C019301A4016B2F7A2F8F2F95
:101DA0009E2F0E94142FF22FE32F342E252E6C8BA2
:101DB0007D8B8E8B9F8B7981772309F42EC11092B6
:101DC000F6021092F7021092F8021092F9021092A5
:101DD000FA021092FB021092FC021092FD02109285
:101DE000FE021092FF021092000310920103109263
:101DF00002031092030310920403109205038D81D5
:101E00009E81AF81B885803D27E09207A105B1058D
:101E10000CF0BFC0BC01CD01605D77408109910924
:101E20009B01AC010E94D42D9B01AC01A5E0B0E068
:101E30000E94372E7B018C0115950795F794E79446
:101E40002B013C01770C4408542C3201E092F6023D
:101E5000F092F7020093F8021093F9024092FA020E
:101E60004092FB024092FC024092FD029B01AC01B9
:101E7000B2E05595479537952795BA95D1F72983BF
:101E80003A834B835C832093FE023093FF0240939E
:101E900000035093010340920203409203034092D7
:101EA0000403409205034D815E816F817885443241
:101EB0008AEF58078FEF680778070CF06AC0CB01EC
:101EC000BA0164527A4F8F4F9F4F9B01AC010E9421
:101ED000D42D6D837E838F839887A7E0B0E09B012C
:101EE000AC010E94372E4B015C01BB0C8808982C7A
:101EF00054019B01AC01682D782D882D982D570138
:101F00006801E42CF42C042D142D0E94142F20932E
:101F1000F6023093F7024093F8025093F90260936F
:101F2000FA027093FB028093FC029093FD02ABE0F7
:101F3000B0E02D813E814F8158850E94372E6B0184
:101F40007C01F594E794D794C7944B015C01BB0CDA
:101F50008808982C54019601A701682D782D882DAA
:101F6000982DA980BA80CB80DC80E42CF42C0E94D0
:101F7000142F2093FE023093FF02409300035093EE
:101F8000010360930203709303038093040390930F
:101F900005032C853D854E855F85688979898A8909
:101FA0009B89A090F602B090F702C090F802D09002
:101FB000F902E090FA02F090FB020091FC0210910D
:101FC000FD020E94292F2C873D874E875F87688BF3
:101FD000798B8A8B9B8B2F2F3E2F432D522D6C8913
:101FE0007D898E899F89A090FE02B090FF02C090EB
:101FF0000003D0900103E0900203F09003030091EE
:102000000403109105030E94292FF22FE32F342E91
:10201000252E6C8B7D8B8E8B9F8B488D598D6A8D79
:102020007B8D9A01AB0160E070E0CB012E8F3F8F7A
:1020300048A359A36AA37BA38CA39DA3AF2EBE2E56
:10204000C32CD22CEC88FD880E891F8960E070E0DB
:1020500080E090E00E944A2E122F3D834983B52FE5
:10206000F62FE72FF82E092FA0E00E94322F84F4DC
:1020700021503109404E5F4F6F4F7F4F8F4F9F4F21
:10208000122F3D834983B52FF62FE72FF82E092F06
:10209000212F3D8149815B2F6F2F7E2F8F2D902F18
:1020A00005E10E94F62EAC84BD84CE84DF84E888EE
:1020B000F9880A891B890E94292F122F3D834983A1
:1020C000B52FF62FE72FF82E092FA0E00E94322F10
:1020D00084F4215030484F4F5F4F6F4F7F4F8F4FE9
:1020E0009F4F122F3D834983B52FF62FE72FF82EF0
:1020F000092F212F3D8149815B2F6F2F7E2F8F2D3F
:10210000902F0FE00E94F62EB901CA012093E4023D
:102110007093E5024093E6029093E7020E94812AC1
:102120006B017C019B01AC016091E8027091E902B6
:102130008091EA029091EB020E94EE282091C00269
:102140003091C1024091C2025091C3020E94D82B2B
:10215000A70196010E94EF286093E8027093E902BC
:102160008093EA029093EB020E946C050091770342
:10217000109178032091790330917A034B015C012F
:10218000801A910AA20AB30A20E836EE45EC57E419
:102190006091E8027091E9028091EA029091EB026D
:1021A0000E94D7292BEA3CED42E45EE30E94452CD5
:1021B0009B01AC0160E070E080E89FE30E94EE28A4
:1021C00020E03AE24DE257E40E94D82B20E030E0D4
:1021D00048EC52E40E94D82B6B017C018091BB0239
:1021E000882341F0C0927303D0927403E092750388
:1021F000F09276032091730330917403409175033C
:1022000050917603C701B6010E94EE282B013C01D4
:10221000C501B4010E947F2A9B01AC0160E070E01F
:102220008AE794E40E94D7299B01AC01C301B20163
:102230000E94D82B4B015C016091CA027091CB02C5
:10224000072E000C880B990B0E94812AA50194018E
:102250000E94EE282091CC023091CD024091CE0216
:102260005091CF020E94D82BA50194010E94EF2823
:102270000E94492A7093CB026093CA02C0927303F2
:10228000D0927403E0927503F09276030E946C057D
:1022900060937703709378038093790390937A0324
:1022A0000CC0029751F40E94C40C6093E00270933A
:1022B000E1028093E2029093E30251E0598380911E
:1022C000C8029091C90269857A858617970709F037
:1022D000198289859A85009779F09093C902809335
:1022E000C8028130910529F00297E1F48091F10252
:1022F0000FC08091F10214C09091BC028091F10254
:1023000090FD08C022E030E03093C9022093C8025B
:10231000805B07C021E030E03093C9022093C802FF
:10232000805C8B8781E080934F0387E78093710304
:1023300010925003109272036B858FE793E00E9416
:10234000D6030E941F0C0E946C052091F002DC0154
:10235000CB01820F911DA11DB11D80937B03909332
:102360007C03A0937D03B0937E0301C01982898111
:10237000A5960FB6F894DEBF0FBECDBFDF91CF910B
:102380001F910F91FF90EF90DF90CF90BF90AF9093
:102390009F908F907F906F905F904F903F902F9085
:1023A000089582E090E00E94090D811107C061E06C
:1023B00070E080E090E00E943205F3CF6091E0028F
:1023C0007091E1028091E2029091E30208954F92B0
:1023D0005F926F927F92AF92BF92CF92DF92EF9215
:1023E000FF920F931F93CF93DF9300D000D0CDB710
:1023F000DEB7082FA62E69017A01AE014F5F5F4F4D
:10240000C701B6010E94A42B2B013C0189819A814E
:10241000AB81BC81BC01CD019F770E94502AB62EB2
:10242000172F2AE939E949E15FE3C301B2010E94AC
:10243000D82B20E030E543EC57E40E94D82B9F775F
:102440000E94502A3B011170A11002C090E001C00F
:1024500090E2192B20E030E0A901C701B6010E94EB
:10246000CD29881F8827881F8295880F880F807C38
:10247000712F782B2AE0A3016B2D802F0F900F90E6
:102480000F900F90DF91CF911F910F91FF90EF90E0
:10249000DF90CF90BF90AF907F906F905F904F9004
:1024A0000C948513CF92DF92EF92FF9210929E03CD
:1024B0006091A8037091A9038091AA039091AB0346
:1024C0000E947F2A28E23BE64EE65EE40E94D7297E
:1024D0006B017C016091A6037091A70380E090E0FE
:1024E0000E947F2A9B01AC01C701B6010E94EF2820
:1024F0002091AC0321119058FF90EF90DF90CF9086
:102500000895CF92DF92EF92FF9210929E03609116
:10251000A1037091A2038091A3039091A4030E9450
:102520007F2A28E23BE64EE65EE40E94D7296B0153
:102530007C0160919F037091A00380E090E00E9475
:102540007F2A9B01AC01C701B6010E94EF282091B0
:10255000A50321119058FF90EF90DF90CF90089540
:10256000EF92FF920F931F93CF93DF93CDB7DEB718
:102570006E970FB6F894DEBF0FBECDBFFC0112827E
:102580008FEF9FEFDC0183839483A583B68381E083
:102590008783168E178E10A211A212A2DB0183E090
:1025A000B595A7958A95E1F7A357BB4F8C9190E01D
:1025B0009B012770332702C0959587952A95E2F7EE
:1025C000817099278783892B09F492C07B018F0141
:1025D0002EE1269FC001279F900D11246091650474
:1025E00070916604680F791F4EE150E0CE010196AC
:1025F0000E94BA288D8DD80190968C9390978981EE
:1026000012968C93129725E02E9DC0012F9D900D60
:102610001124E0916704F0916804E80FF91F4191DB
:1026200051916191719113964D935D936D937C934C
:1026300016971996FC93EE931897A801465F5F4F83
:10264000DE011296FA0130E08D91882329F03331B2
:1026500029F03F5F8193F8CF832F01C083E1F80118
:10266000868F20E0732F720FE6E1F0E0EC0FFD1F84
:10267000E20FF11D6081872F90E0662341F07331F6
:1026800030F42F5FFA01E80FF91F6083EBCFD80118
:102690005F962C93FA01E80FF91F10828E8D81301E
:1026A00039F0823041F480E4D80191968C9303C0D4
:1026B00080E2F80181A3F80180A1843091F030F428
:1026C000882361F08130A1F483E010C0883041F0AC
:1026D000893059F0853061F484E008C082E001C09F
:1026E00085E0D80192968C9303C085E0F80182A31F
:1026F0006E960FB6F894DEBF0FBECDBFDF91CF91BF
:102700001F910F91FF90EF900895EF92FF92E0904C
:102710006704F0906804E82FF0E0E114F10491F010
:10272000803280F4DF01A65BBB4F93968C91D7017A
:1027300095E0899FA00DB11D11244D935D936D937C
:102740007C93139780EF820F803F20F0211103C00C
:1027500021E001C02FE0E65BFB4F83A1D70195E0AC
:10276000899FA00DB11D112414968C911497807F20
:1027700014968C9383A1F70195E0899FE00DF11DDC
:1027800011248481282B2483FF90EF900895AF9229
:10279000BF92DF92EF92FF920F931F93CF93DF933D
:1027A000EC017B018B015C0184E0A80EB11CF801F7
:1027B000D1908F01CE010E94D828D81621F06D2D1E
:1027C000CE010E94E0282196CA15DB0581F7C701DA
:1027D000DF91CF911F910F91FF90EF90DF90BF900D
:1027E000AF900895FF920F931F93CF93DF93CDB7D0
:1027F000DEB76E970FB6F894DEBF0FBECDBF109256
:102800006A041092690481E393E0909366048093D4
:10281000650480E2EDE6F4E0DF011D928A95E9F7B8
:10282000F12C00E010E06091650470916604600F87
:10283000711F4EE150E0CE0101960E94BA28E98155
:10284000EE23B1F0E03220F4F0E0E65BFB4FF3A2C0
:102850008091690490916A04019690936A04809330
:102860006904025E1F4FF394003CB3E01B07D9F6E6
:102870006E960FB6F894DEBF0FBECDBFDF91CF913D
:102880001F910F91FF900895CF93DF938091910452
:1028900090919204DC01ED91FC910280F381E02D96
:1028A00040E06EEF09958091B304882311F1C3EBEA
:1028B000D4E080919104909192046991DC01ED91B2
:1028C000FC910280F381E02D41E00995B4E0C33D25
:1028D000DB0779F78091910490919204DC01ED91EE
:1028E000FC910280F381E02D40E06FEFDF91CF910A
:1028F0000994C0E2D0E08091910490919204DC01AF
:10290000ED91FC910280F381E02D41E060E00995BA
:10291000219789F7DFCF8F929F92AF92BF92CF928C
:10292000DF92EF92FF920F931F93CF93DF93CDB778
:10293000DEB7A3970FB6F894DEBF0FBECDBF8111EF
:1029400016C01092950410929B0410916404812F7C
:10295000880F880F880F80939C04412F50E060E51A
:1029600074E08DE994E00E948630165F83C1282FC1
:10297000269530E04091690450916A04421753074C
:102980000CF44AC080FD48C000E010E0809169046A
:1029900090916A04081719070CF06BC160916C04E0
:1029A00070E0CE0101960E94B01280916C048F5F9E
:1029B00080936C0490E02091690430916A0482173E
:1029C000930714F010926C048885882311F11092FB
:1029D00095048B8180939B048F8D28E0829FC0019A
:1029E000112498A1892B80939C0480E01AE0180F91
:1029F000EBE0F0E0EC0FFD1FE80FF11D9081992353
:102A000009F438C18F5FE12FF0E0ED56FB4F908362
:102A1000EDCF0F5F1F4FBACF80E480939504E12C78
:102A2000F12C18E06AE1C62ED12C60916B0470E0A5
:102A3000CE0101960E94B01280916B048F5F80934B
:102A40006B0490E02091690430916A048217930727
:102A500014F010926B04E985FA852081422F4F70A3
:102A600030E054E0359527955A95E1F7822F642F91
:102A70000E94E42D992311F02F5F01C021E04083D3
:102A8000E985FA8530E1239FC00111243081832B31
:102A900080838885882309F4D6C08C819D81AE818E
:102AA000BF818F3FEFEF9E07AE07BE0709F4CBC093
:102AB000213009F0C8C04B81612F70E029A151E09D
:102AC000510F403160F06D567B4F322F3F70FB014C
:102AD00030831E5FE52FF0E0ED56FB4F0BC0152F46
:102AE000FB01ED56FB4F30E1439FA0011124322F33
:102AF0003F70432B40834BA150E02430C1F128F4B8
:102B0000222369F02130E1F09BC0283009F467C02E
:102B1000293009F481C0253009F092C043C0E12F6B
:102B2000F0E0ED56FB4F282F2F71B7FD02C080E07B
:102B300001C080E8822B9AA1892B808381E081C02B
:102B4000612F70E09B012D563B4FF9018083FB0103
:102B5000EC56FB4F292F2F71B7FD02C080E001C05A
:102B600080E8822B9AA1892B808382E06AC0612F42
:102B700070E09B012D563B4FF90180839B012C5641
:102B80003B4FF9019083FB01EB56FB4F2A2F2F712E
:102B9000B7FD02C080E001C080E8822B9AA1892B9A
:102BA00080831BC0612F70E09B012D563B4FF901C4
:102BB00080839B012C563B4FF9019083FB01EB5620
:102BC000FB4F4D01BB2497FCB094AB2CB7FD02C06A
:102BD00080E001C080E8882A808283E032C0212F13
:102BE00030E0F901ED56FB4F8083F901EC56FB4FC5
:102BF0009083F901EB56FB4FA083F901EA56FB4F96
:102C00006B2F6F71B7FD02C080E001C080E8862B9A
:102C10009AA1892B808312C0212F30E0F901ED5653
:102C2000FB4F8083F901EC56FB4F9083F901EB5683
:102C3000FB4FA083F901EA56FB4FB08384E001C04B
:102C400080E0180F02C040E050E0FFEFEF1AFF0AEB
:102C50008091690490916A04E816F9065CF4812F6A
:102C600090E09601241B350B821793070CF4DDCE00
:102C700001C010E08EE7809393048FE28093940468
:102C8000909195048EEF810F892B8093950489E0B4
:102C90008093960484EA809397048091D50480936E
:102CA00098048091D6048093990410929A04E12F9D
:102CB000F0E0A5E9B4E092E080E037E0911768F435
:102CC0002D91822728E087FF03C0880F832701C04A
:102CD000880F2150C1F79F5FF1CFED56FB4F8083E6
:102CE0008091910490919204DC01ED91FC9102801D
:102CF000F381E02D40E06EE7099501E01017A0F0A8
:102D00008091910490919204A02FB0E0AD56BB4FFA
:102D1000FC0120813181F9012281338141E06C91F4
:102D2000F90109950F5FEACFA3960FB6F894DEBFBD
:102D30000FBECDBFDF91CF911F910F91FF90EF900C
:102D4000DF90CF90BF90AF909F908F900895CF93DA
:102D5000DF93CDB7DEB7CE54D1090FB6F894DEBFFE
:102D60000FBECDBF789484B5826084BD84B5816088
:102D700084BD85B5826085BD85B5816085BD809146
:102D80006E00816080936E001092810080918100BE
:102D900082608093810080918100816080938100B6
:102DA000809180008160809380008091B100846078
:102DB0008093B1008091B00081608093B0008091D9
:102DC0007A00846080937A0080917A008260809398
:102DD0007A0080917A00816080937A0080917A00F5
:102DE000806880937A001092C10080918B038111DA
:102DF0008EC4109207031092060310925003109293
:102E000072030E946A0A01E000934F0317E71093D0
:102E1000710310925003109272030E941F0C8111D3
:102E200076C410920703109206031092500310927A
:102E300072030E946A0A00934F0310937103109269
:102E40005003109272036EE18FE793E00E94D60365
:102E50000E941F0C8AE08093F00288E08093F102C8
:102E600064E670E080E090E00E94320550EDE52ECF
:102E700052E0F52E12EA67E7B62E00934F03B092A8
:102E800071031092500310927203612F8FE793E049
:102E90000E94D6030E941F0C00934F03B09271034F
:102EA000109250031092720382E090E00E947B0C1B
:102EB00090910603809107039817F1F38FE793E051
:102EC0000E948D03982E8FE793E00E948D03A82E19
:102ED0000E941F0CD92CC12CC6018A29D7018D93C1
:102EE0009D937D011E5F1E3A41F61092C902109219
:102EF000C80286E696E6A6E6BFE38093C0029093FA
:102F0000C102A093C202B093C302E2E3F0E0F8AFC3
:102F1000EFAB81E090E00E94090D811107C061E0F4
:102F200070E080E090E00E943205F3CFE090DC0298
:102F3000F090DD020091DE021091DF022196ECAEEE
:102F4000FDAE0EAF1FAF21970E94D1112091D80284
:102F50003091D902890120E030E0322F212F102F4B
:102F600000272B013C01401A510A620A730AE091C2
:102F7000D602F091D7028090D2029090D3029401B1
:102F800040E050E060E070E080E090E000E10E940E
:102F9000DD2E6901E42E252E362E872E982E9BA33A
:102FA000BF0180E090E0A30192010E94A32E59018D
:102FB000F42EB52FF62FE72F8C01A0E00E94322FC0
:102FC0004CF4AFE70E941D2F5901F42EB52FF62FB8
:102FD000E72F8C0195014F2D5B2F6F2F7E2FC8019E
:102FE00007E00E94F62E5901A42FF52FE62FF72EA9
:102FF0008C0196014E2D522D632D782D892D9BA18C
:10300000CA2EDF2EEE2E0E94142F22962FAF22976B
:1030100023963FAF239724964FAF249725965FAF13
:10302000259726966FAF269727967FAF27972896E6
:103030008FAF289729969FAF2997E090D002F09004
:10304000D1026091D4027091D50280E090E0A3019A
:1030500092010E94A32ED22E032F142FB52FF62FEC
:10306000E72FB82EC92EA0E00E94322F84F4215001
:103070003F4F4F4F5F4F6F4F7F4F8F4F9F4FD22E1E
:10308000032F142FB52FF62FE72FB82EC92E2D2D75
:10309000302F412F5B2F6F2F7E2F8B2D9C2D08E023
:1030A0000E94F62E19014A01B62FA72FF82FE92FFB
:1030B000C12CD12C9701A60160E070E080E090E087
:1030C0000FE00E94DD2E59016A017B018C01910104
:1030D000A4016B2F7A2F8F2F9E2F0E94142F2A96D8
:1030E0002FAF2A97332E242E2B965FAF2B972C963B
:1030F0006FAF2C972D967FAF2D972E968FAF2E9773
:103100002F969FAF2F976091DA027091DB0280E0DB
:1031100090E0A30192010E94A32EF22E032F142F00
:10312000B52FF62FE72FD82EE92EA0E00E94322FE0
:1031300084F42150310940485F4F6F4F7F4F8F4FCC
:103140009F4FF22E032F142FB52FF62FE72FD82ED7
:10315000E92E2F2D302F412F5B2F6F2F7E2F8D2D9E
:103160009E2D07E10E94F62E49015A019501840126
:103170000053184F2F4F3F4F0FA718AB29AB3AAB57
:103180001092F6021092F7021092F8021092F902D1
:103190001092FA021092FB021092FC021092FD02B1
:1031A0001092FE021092FF0210920003109201038F
:1031B000109202031092030310920403109205036D
:1031C000003D1740210531050CF0BFC0A501940159
:1031D000C501B4010E94D42D9B01AC01A5E0B0E073
:1031E0000E94372E8B019C013595279517950795E1
:1031F0000BA31CA32DA33EA32B013C01770C440879
:10320000542C32010093F6021093F7022093F80237
:103210003093F9024092FA024092FB024092FC0283
:103220004092FD029B01AC0112E055954795379500
:1032300027951A95D1F72BA73CA74DA75EA72093FA
:10324000FE023093FF02409300035093010340922B
:1032500002034092030340920403409205030FA52A
:1032600018A929A93AA904321A4F2F4F3F4F0CF041
:103270006CC0C501B4016455724F8F4F9F4F9B01C5
:10328000AC010E94D42D6FA778AB89AB9AABA7E0B5
:10329000B0E09B01AC010E94372E4B015C01BB0CDE
:1032A0008808982C54019B01AC01682D782D882D3D
:1032B000982DABA0BCA0CDA0DEA0E42CF42C042D56
:1032C000142D0E94142F2093F6023093F70240939E
:1032D000F8025093F9026093FA027093FB02809314
:1032E000FC029093FD02ABE0B0E02FA538A949A9FC
:1032F0005AA90E94372E4B015C01B594A79497946C
:1033000087946B017C01FF0CCC08DC2C76019401C6
:10331000A5016C2D7C2D8C2D9C2DABA4BCA4CDA423
:10332000DEA4E42CF42C0E94142F2093FE02309390
:10333000FF024093000350930103609302037093D4
:10334000030380930403909305032A962FAD2A97D5
:10335000332D422D2B965FAD2B972C966FAD2C976E
:103360002D967FAD2D972E968FAD2E972F969FADD4
:103370002F97A090FE02B090FF02C0900003D09063
:103380000103E0900203F090030300910403109105
:1033900005030E94292F2196ECACFDAC0EAD1FADAC
:1033A00021971701280157016201E12CF12C00E05F
:1033B00010E00E944A2EF22E032F142FB52FF62F65
:1033C000E72FD82EE92EA0E00E94322F84F421505E
:1033D0003109404E5F4F6F4F7F4F8F4F9F4FF22EFF
:1033E000032F142FB52FF62FE72FD82EE92E2F2DD0
:1033F000302F412F5B2F6F2F7E2F8D2D9E2D05E1BE
:103400000E94F62E39014A01B62FA72FF82FE92F77
:1034100022962FAD229723963FAD239724964FAD4A
:10342000249725965FAD259726966FAD269727960C
:103430007FAD279728968FAD289729969FAD29971E
:10344000A090F602B090F702C090F802D090F90276
:10345000E090FA02F090FB020091FC021091FD0254
:103460000E94292F59016A017B018C019301A4015B
:103470006B2F7A2F8F2F9E2F0E94292FF22E032F32
:10348000142FB52FF62FE72FD82EE92EA0E00E949B
:10349000322F84F4215030484F4F5F4F6F4F7F4F92
:1034A0008F4F9F4FF22E032F142FB52FF62FE72F9C
:1034B000D82EE92E2F2D302F412F5B2F6F2F7E2FEF
:1034C0008D2D9E2D0FE00E94F62EB901CA010E949B
:1034D000812A6093E8027093E9028093EA02909354
:1034E000EB020FA918AD0150110918AF0FAB012B5A
:1034F00009F00FCD0E94D1116093E0027093E102B8
:103500008093E2029093E3021092CB021092CA02DF
:1035100086E696E6A6E6BFE38093CC029093CD02C2
:10352000A093CE02B093CF020E94D1112091D80275
:103530003091D902890120E030E0322F212F102F65
:1035400000274B015C01801A910AA20AB30A60911C
:10355000DA027091DB0280E090E0A50194010E9404
:10356000A32EF22E032F142FB52FF62FE72FD82ED0
:10357000E92EA0E00E94322F84F421503109404806
:103580005F4F6F4F7F4F8F4F9F4FF22E032F142FA0
:10359000B52FF62FE72FD82EE92E2F2D302F412FC4
:1035A0005B2F6F2F7E2F8D2D9E2D07E10E94F62E13
:1035B0002BA33CA34DA35EA36FA378A789A79AA7CB
:1035C000CBA0DCA0EDA0FEA010EDC10E17E0D11E37
:1035D000E11CF11C1092F2021092F3021092F4021C
:1035E0001092F50220EDC21627E0D206E104F104A4
:1035F000A4F4A5019401C501B4010E94D42D2FEFBC
:103600003FEF4FEF5FE70E94122E2093F2023093BC
:10361000F3024093F4025093F5028091F2029091EC
:10362000F302A091F402B091F50297018601081B04
:10363000190B2A0B3B0BC901B8010E94812A20E01B
:1036400030E048EC52E40E94D7290E94492A609356
:10365000EC027093ED028093EE029093EF0220E86B
:1036600036EE45EC57E46091E8027091E9028091F2
:10367000EA029091EB020E94D7292BEA3CED42E44A
:103680005EE30E94452C9B01AC0160E070E080E8A5
:103690009FE30E94EE2820E03AE24DE257E40E94C8
:1036A000D82B6093C4027093C5028093C602909396
:1036B000C7021092BA021092BC021092BD02109280
:1036C000BE021092BF0281E08093BB028AE0809329
:1036D000F00288E08093F1028FE892ECA5E7BFE367
:1036E0008093CC029093CD02A093CE02B093CF02F0
:1036F0008FE195E8ABE6BFE38093C0029093C102EF
:10370000A093C202B093C30283E080938B038091A5
:103710008B038230B9F018F48130A1F02FC08330D0
:10372000F9F0843059F58DEC9CECACE4BFE3809368
:103730008C0390938D03A0938E03B0938F0310920C
:1037400090031CC08AE999E9A9E5BFE380938C0343
:1037500090938D03A0938E03B0938F0385E00CC0EC
:103760004DEC5CEC6CE47FE340938C0350938D0351
:1037700060938E0370938F038093900381E090E0B9
:103780000E944C0B8F3F11F08093010182E090E08A
:103790000E944C0B8F3F31F091E0811101C090E00D
:1037A0009093020186E090E00E944C0B8F3F31F035
:1037B00091E0811101C090E09093C50187E090E015
:1037C0000E944C0B8F3F31F091E0811101C090E0DD
:1037D0009093C4018AE090E00E944C0B8F3FA1F0CF
:1037E000682F70E080E090E00E947F2A20E030E0C7
:1037F00048EC52E40E94D72960938C0370938D03A8
:1038000080938E0390938F038CE090E00E944C0B8A
:103810008F3F11F08093900310926F001092800000
:1038200081E88093810083E896E090939B018093E8
:103830009A018BE39CE3909399018093980162E055
:1038400088E00E94AF0489E00E94D90B61E089E022
:103850000E94AF0410929701109296011092950168
:1038600010929401109293011092920180E286BB13
:1038700080936F0080918B03811103C086E00E94CA
:10388000AB0B80918B03833019F49BE490934F042E
:1038900090910101913011F0811106C08DE00E94DC
:1038A000AB0B8EE00E94AB0B8091010181110CC02B
:1038B00081E00E94AB0B82E00E94AB0B83E00E9490
:1038C000AB0B87E00E94AB0B8091010181110AC014
:1038D00080918B03811106C084E00E94AB0B85E0D0
:1038E0000E94AB0B80910101823079F088E00E9448
:1038F000AB0B89E00E94AB0B8AE00E94AB0B8BE024
:103900000E94AB0B8CE00E94AB0B8091C501811132
:1039100003C084E10E94AB0B8091C401811103C0FC
:1039200085E10E94AB0B86E78093D50482E3809308
:10393000D60480916404882329F09E012F5F3F4FB5
:1039400019012CC180E2E3E9F4E0DF011D928A95C0
:10395000E9F740E250E060E270E083EB94E00E941F
:103960008F3043E150E063E671E080E594E00E942F
:10397000A63088E0809364048091690490916A0481
:10398000892B11F40E94F2130091690410916A04CA
:103990000138B9E11B0738F425E0209FC001219FC1
:1039A000900D112402C08FEF9FEF0E944D2FFC015C
:1039B00020E030E04FEF5FEFBA010217130749F044
:1039C0004083518362837383148235962F5F3F4F08
:1039D000F4CF809367049093680481E990E00E949B
:1039E0004D2F21E9FC0111922A95E9F725E131E0FB
:1039F000DC012D933C9390939204809391040E9458
:103A0000000510924E0410926C0410926B040E94F8
:103A10006C056B017C01B0EDCB0EB7E0DB1EE11C49
:103A2000F11C8091650490916604892B61F10E94DC
:103A30006C056C157D058E059F0528F504E010E0EA
:103A40000E94441466E970E080E090E00E94320534
:103A500001501109A9F700E010E0809169049091EC
:103A60006A0480179107ECF2802F880F0E948B1454
:103A70000E94441466E970E080E090E00E94320504
:103A80000F5F1F4FEACF8091910490919204DC0167
:103A9000ED91FC910480F581E02D09958111F3CF22
:103AA0004CCF80918B03811190C00E946C05609374
:103AB000CE017093CF018093D0019093D10180917A
:103AC000C501882381F060E186E00E944E0B2AE068
:103AD00030E040E050E00E94122EBA01A9012AE035
:103AE00084E10E9485138091C401882381F061E103
:103AF00087E00E944E0B2AE030E040E050E00E9458
:103B0000122EBA01A9012AE085E10E948513809155
:103B10000101882309F4F4C481E993E00E941303AE
:103B2000892B09F4CCC381E993E00E943503182F57
:103B300080913A0490913B04A0913C04B0913D04E3
:103B40000196A11DB11D80933A0490933B04A0936C
:103B50003C04B0933D04143209F48FC3E091340463
:103B600015320CF03FC11A3009F038C1EF3008F4BB
:103B700045C180E0909133049F5F9093330410928D
:103B8000340491E01A3209F090E0909322048111FC
:103B900096C3E0E0F0E0309709F009950E946C05CB
:103BA0000091CE011091CF012091D0013091D1012F
:103BB000DC01CB01801B910BA20BB30B853B910564
:103BC000A105B10508F4A3CF6CCF833009F0ACC0D8
:103BD00080918C0390918D03A0918E03B0918F03FF
:103BE0008093CC029093CD02A093CE02B093CF02EB
:103BF0006091EC027091ED028091EE029091EF02E3
:103C00000E94812A20E030E048EC52E40E94D7294B
:103C100060930701709308018093090190930A0152
:103C20006091E8027091E9028091EA029091EB02C2
:103C30000E94492A6B017C01609303017093040187
:103C4000809305019093060180910101811128C0A4
:103C5000C701B6010E94812A20E836EE45EC57E400
:103C60000E94D7292BEA3CED42E45EE30E94452CFA
:103C70009B01AC0160E070E080E89FE30E94EE28C9
:103C800020E03AE24DE257E40E94D82B0E94492AF4
:103C90006093CA017093CB018093CC019093CD01C6
:103CA000C701B6010E94812A20E836EE45EC57E4B0
:103CB0000E94D7292BEA3CED42E45EE30E94452CAA
:103CC0009B01AC0160E070E080E89FE30E94EE2879
:103CD00020E03AE24DE257E40E94D82B2091C40242
:103CE0003091C5024091C6025091C7020E94EE2851
:103CF00020E030E040E251E40E94D82B0E94492AA3
:103D00006093C6017093C7018093C8019093C90165
:103D10008091CA029091CB027C01990F000B110B8C
:103D2000E9AEFAAE0BAF1CAF0E946C058091900318
:103D3000482F50E060E070E009AD1AAD2BAD3CAD0E
:103D400040175107620773073CF4041B150B260B41
:103D5000370BB901A8011BC090E09195819591099D
:103D6000092E000CAA0BBB0B29AD3AAD4BAD5CADD7
:103D7000281739074A075B073CF4BA01A901481B19
:103D8000590B6A0B7B0B03C040E050E0BA0121E005
:103D900086E00E94851340910301509104016091D7
:103DA0000501709106012FE08DE00E94851320E04F
:103DB00030E040E251E46091070170910801809188
:103DC000090190910A010E94D82B0E94492AAB0157
:103DD000BC0125E08EE00E94851367CE1D3009F0FE
:103DE0005AC2C4CE1A3209F4C1CE1C3209F053C2F1
:103DF00080912104812780932104B8CEF0E0ED5D0D
:103E0000FB4F108280912204882309F421C1209164
:103E100023043FEB320F822F022E000C990B363019
:103E200010F4C79707C02156263018F4875591091A
:103E300001C0C097282F2295207F309124044FEB9A
:103E4000430F832F032E000C990B463010F4C797B5
:103E500007C03156363018F48755910901C0C09714
:103E6000820F909121048913DFC0809146049091C4
:103E70004704A0914804B09149040196A11DB11DC9
:103E80008093460490934704A0934804B093490458
:103E900080913504882399F080913E0490913F04ED
:103EA000A0914004B09141040196A11DB11D8093E1
:103EB0003E0490933F04A0934004B09341040091CA
:103EC00032040023B9F1013009F084C08FEB93E094
:103ED0000E9463078DEC93E00E9463078091350494
:103EE000882309F477C087E0EDEAF3E0AFE9B3E0B7
:103EF00001900D928A95E1F787E0E4EBF3E0A6EA02
:103F0000B3E001900D928A95E1F70E946C056093F1
:103F1000BB037093BC038093BD039093BE030093D7
:103F20009E0300939D038BED93E00E944C0789EE66
:103F300093E04EC08DEC93E00E94630780913504BE
:103F4000882329F187E0EDEAF3E0AFE9B3E00190DF
:103F50000D928A95E1F787E0E4EBF3E0A6EAB3E09F
:103F600001900D928A95E1F70E946C056093BB0366
:103F70007093BC038093BD039093BE0381E0809354
:103F80009E0380939D0387EF93E00E944C078091EE
:103F90000F0490911004A0911104B0911204809329
:103FA0000B0490930C04A0930D04B0930E040E9494
:103FB0006C05609307047093080480930904909340
:103FC0000A0481E0809306048093050483E194E071
:103FD0000E944C07E0903804F090390401E0E114AD
:103FE000F10409F448C1E0913804F091390466A164
:103FF00077A1D70196968D919C9197970E949630C4
:10400000892B09F038C1B701C70140960E949F3043
:104010000E946C05F70160A371A382A393A305A37B
:1040200004A3E2A4F3A4DBCF809142049091430463
:10403000A0914404B09145040196A11DB11D809347
:10404000420490934304A0934404B093450491CD5B
:1040500090913304911147C06CE671E083E294E0E3
:104060000E949630892B41F062E771E083E294E090
:104070000E949630892B11F481E014C068E771E04A
:1040800083E294E00E949630892B41F06EE771E064
:1040900083E294E00E949630892B19F41092320446
:1040A00003C082E0809332048091360490913704FB
:1040B0009093390480933804E0903804F0903904E8
:1040C000E114F10409F455CD63E274E0D70196964A
:1040D0008D919C9197970E94963097FFB4C4F701F9
:1040E00082A593A5E5CFE0913204E23009F491C0B6
:1040F00080912304882309F48CC000E2E09FF00142
:104100001124E92B3197E932F10508F082C0EC5C0B
:10411000FF4F0C94312E83E294E00E94E7086093F5
:10412000D3037093D4038093D5039093D60371C0C7
:1041300091E0813409F043C043C06DEA73E009C0E7
:1041400091E0833509F090E09093B30362C064EB93
:1041500073E083E294E00E945F085BC091E08735E2
:1041600009F090E09093BA0354C083E294E00E9477
:10417000E7086093E5037093E6038093E703909369
:10418000E80347C083E294E00E94E7086093F303EA
:104190007093F4038093F5039093F6033AC083E29F
:1041A00094E00E9493286093C5037093C6038093A4
:1041B000C7039093C8032DC091E081330CF490E0C5
:1041C0009093350426C083E294E00E949328609384
:1041D0000F0470931004809311049093120419C07B
:1041E00083E294E00E94E70860931D0470931E042C
:1041F00080931F04909320040CC083E294E00E94FB
:10420000E708609301047093020480930304909381
:104210000404E0903804F0903904E114F10409F446
:10422000A8CCE0913804F091390466A177A1D701B8
:1042300096968D919C9197970E949630892B09F0C4
:1042400098CCF70120A531A58091330490E0821726
:1042500093070CF48ECC2817390739F440E150E06D
:1042600063E274E0C7010E94A630D7019A96ED90F0
:10427000FC909B97D2CF81E07DCC109234041092B9
:1042800033041092210482E08093320410922204BD
:10429000109235047ECCEE3040F481E08E0F809396
:1042A0003404F0E0ED5DFB4F108380912204811116
:1042B00070CC809121041827109321046ACC80913E
:1042C0009D03882309F4C7C30E946C050091BB03BA
:1042D0001091BC032091BD033091BE03DC01CB01E2
:1042E000801B910BA20BB30B803D9740A105B1053C
:1042F00008F0B1C30E9481129B01AC0160E081E033
:104300000E94E7110E9452129B01AC0161E082E021
:104310000E94E7111092F8036091FD037091FE0373
:104320008091FF03909100040E94812A20E030E0F8
:1043300048EC52E40E94D7290E94492A6BA37CA32F
:104340008DA39EA36093CA017093CB018093CC018F
:104350009093CD011092DC036091E1037091E20330
:104360008091E3039091E4030E94812A26E53EE0D8
:104370004DEE5FE30E94D82B20E030E048EC52E4A1
:104380000E94D7290E94492AAB01BC012AE083E0A0
:104390000E9485131092EA036091EF037091F0037D
:1043A0008091F1039091F2030E94812A20E030E095
:1043B00048EC52E40E94D7290E94492AAB01BC0173
:1043C0002FE08AE00E9485138091C2019091C30181
:1043D000883BFBE09F070CF07AC301969093C301E2
:1043E0008093C2010E9481126B017C016093BE0127
:1043F0007093BF018093C0019093C1010E9452123B
:104400006093BA017093BB018093BC019093BD018E
:10441000C092B601D092B701E092B801F092B90112
:104420006093B2017093B3018093B4019093B5018E
:104430001092F8036091FD037091FE038091FF03D9
:10444000909100040E94812A20E030E048EC52E480
:104450000E94D7290E94492A6093AE017093AF0150
:104460008093B0019093B1011092AA011092AB0118
:104470001092AC011092AD0120918B03211108C064
:104480006093A6017093A7018093A8019093A9015E
:104490001092060440910B0450910C0460910D049D
:1044A00070910E042FE08BE00E948513109214048B
:1044B0004091190450911A0460911B0470911C04DE
:1044C0002FE08CE00E9485136091AA017091AB01EE
:1044D0008091AC019091AD012AE030E040E050E0E5
:1044E0000E94F02DBA01A9012FE088E00E948513F7
:1044F0002FE04BA95CA96DA97EA987E00E948513D6
:104500004091C6015091C7016091C8017091C901E5
:1045100025E084E00E9485134091CA015091CB01AF
:104520006091CC017091CD012FE085E00E94851350
:1045300080E090E00E94090D0E946C050091A201AC
:104540001091A3012091A4013091A501065F1F4F96
:104550002F4F3F4F0617170728073907D0F48091D0
:104560008B03833061F44091CA025091CB02052E37
:10457000000C660B770B21E086E00E9485130E94F9
:104580006C056093A2017093A3018093A4019093A2
:10459000A5018091910490919204DC01ED91FC9130
:1045A0000480F581E02D0995082F811105C08091C7
:1045B0000001882309F498C10E946C05C0909E01F7
:1045C000D0909F01E090A001F090A1016C157D05B5
:1045D0008E059F0508F488C10E946C05DC01CB01A3
:1045E00088539F4FAF4FBF4F80939E0190939F0181
:1045F000A093A001B093A10111E091E1F92E003E3A
:1046000071F480919C0190919D018A3091050CF08C
:10461000A8C0019690939D0180939C01A0C0003793
:1046200081F480919C0190919D01181619060CF05F
:1046300098C0019790939D0180939C011093000175
:1046400095C0003D09F080C080919C0190919D0132
:104650008530910569F08630910559F1029709F08E
:104660007EC080910101882309F479C0815033C054
:1046700080908C0390908D03A0908E03B0908F0358
:1046800020E030E040E85FE3C501B4010E94CD299D
:1046900087FF65C020E030E048EC52E4C501B4017A
:1046A0000E94D82B20E030E040E85FE30E94EF2832
:1046B00034C080919003843608F051C08F5F41C0B0
:1046C0000E94880BE0E0F0E00995809101018230C2
:1046D00008F045C08F5F8093010141C080908C033A
:1046E00090908D03A0908E03B0908F0320E030E077
:1046F000A901C501B4010E94972B181684F520E08A
:1047000030E048EC52E4C501B4010E94D82B20E00F
:1047100030E040E85FE30E94EE2820E030E048EC23
:1047200052E40E94D72960938C0370938D03809389
:104730008E0390938F0313C080919003882379F0A8
:104740008150809390030BC0003B59F4E0919C0191
:10475000F0919D013197EA30F10508F472C310938E
:10476000000180910001882309F4BEC01A8A1982D1
:1047700080919C0190919D01F89EB001F99E700D71
:1047800011246A5D7D4F40E150E0CE0142960E94C7
:10479000BA28E0919C01F0919D01E930F105B0F457
:1047A000E35AFF4F0C94312E40E150E065E172E096
:1047B0000AC060910101FAE06F9FB00111246950B5
:1047C0007E4F40E150E0C1010E94BA289E012E5E5A
:1047D0003F4FA3EBB4E043EC54E080E05BC080913A
:1047E0000101882309F40BCF6091020104E0609F6E
:1047F000B001112461517E4FE4CF60918B0319E029
:10480000619FB00111246E537E4FDBCF80918B03EB
:10481000882309F4F4CE20E030E048EC52E46091C3
:104820008C0370918D0380918E0390918F030E9471
:10483000D82B0E94492A7F936F9324E831E03F935D
:104840002F930DC080918B03882309F4D8CE8091DB
:1048500090031F928F938BE891E09F938F933F92E9
:104860002F920E94B5300F900F900F900F900F90E5
:104870000F90ACCF6091C501BAE06B9FB0011124DD
:1048800006C06091C401EAE06E9FB0011124625538
:104890007E4F97CFF90191919F01992321F08111CA
:1048A00002C09C9303C0F0E2FC9381E0119604E007
:1048B000A33CB00779F7DE01119680E09D91992322
:1048C00029F0811103C0FA01908305C080E2E82E2F
:1048D000FA01E08281E04F5F5F4F03ED14E00417BF
:1048E000150761F71092000180914F04C0904A04AF
:1048F000D0904B04E0904C04F0904D04C80ED11CB5
:10490000E11CF11C0E946C056C157D058E059F0550
:1049100008F43FC90E946C0560934A0470934B04ED
:1049200080934C0490934D048091D404882351F1DA
:104930008091910490919204DC01ED91FC910280B0
:10494000F381E02D40E06EE709958091910490910C
:104950009204DC01ED91FC910280F381E02D41E0B5
:1049600061E909958091910490919204DC01ED91A7
:10497000FC910280F381E02D41E061E30995109202
:10498000D4045EC01091D304112309F44BC0E12E6E
:10499000012E000CFF08C7010E947730892B31F0EF
:1049A000C7010E947E30182F00E001C001E0809115
:1049B000910490919204DC01ED91FC910280F381CD
:1049C000E02D40E06EE7099580919104909192046A
:1049D000DC01ED91FC910280F381E02D41E062E089
:1049E00009958091910490919204DC01ED91FC91E4
:1049F0000280F381E02D002311F063E201C062E246
:104A000041E009958091910490919204DC01ED912F
:104A1000FC910280F381E02D41E0612F0995109215
:104A2000D3040EC08091650490916604892B41F0F7
:104A300080914E0491E0980F90934E040E948B1445
:104A40000E944414A6C8892B09F493C81092390413
:104A5000109238048EC820E030E0A90160E081E0C7
:104A60000E94E71120E030E0A90161E082E00E94AD
:104A7000E71180918B03811108C01092C60110923A
:104A8000C7011092C8011092C9011092CA01109278
:104A9000CB011092CC011092CD0125E040E050E016
:104AA000BA0183E00E9485132FE040E050E0BA0194
:104AB0008AE00E9485132FE040E050E0BA0189E0CF
:104AC0000E9485131BAA1CAA1DAA1EAAE1CC8091D4
:104AD0008B0381111CC08091A6019091A701A09128
:104AE000A801B091A9012BA13CA14DA15EA1281B59
:104AF000390B4A0B5B0BAAE0B0E00E94372E6093A3
:104B0000C6017093C7018093C8019093C90140907A
:104B1000BA015090BB016090BC017090BD01E09063
:104B2000BE01F090BF010091C0011091C101EBA640
:104B3000FCA60DA71EA70E9452126BAB7CAB8DABDF
:104B40009EAB0E94811263015201EBA4FCA40DA54F
:104B50001EA52BA93CA94DA95EA90E947A070E9417
:104B6000502A6BAB7CAB8DAB9EABF0900201FFAAE1
:104B7000FF20C1F16091C6017091C7018091C80109
:104B80009091C9012AE030E040E050E00E94122EEE
:104B9000CA01B9010E94812A4B015C016BA97CA961
:104BA0008DA99EA90E947F2A6B017C01A501940119
:104BB000C501B4010E94D82B4B015C01A7019601ED
:104BC000C701B6010E94D82B9B01AC01C501B401FD
:104BD0000E94EF280E94A32C0E94502A6BAB7CAB52
:104BE0008DAB9EAB0E9452124B015C010E94811260
:104BF0006B017C01A3019201C501B4010E94EE2862
:104C000025E33AEF4EE85CE30E94D82B4B015C01B0
:104C100025E33AEF4EE85CE36BA57CA58DA59EA548
:104C20000E94D82B2B013C0125E33AEF4EE85CE3D0
:104C3000C701B6010E94D82B6B017C01C501B401EC
:104C40000E94952C6FA778AB89AB9AABC701B601D0
:104C50000E94D2296BA77CA78DA79EA7C301B20192
:104C60000E94952C21966CAF7DAF8EAF9FAF2197A0
:104C7000C501B4010E94D2294B015C0121962CADE3
:104C80003DAD4EAD5FAD21976BA57CA58DA59EA5D5
:104C90000E94D82BA50194010E94D82B4B015C01E6
:104CA000C301B2010E94D2292B013C01C701B60108
:104CB0000E94952C9B01AC01C301B2010E94D82B2C
:104CC000A50194010E94EE286B017C012BA53CA557
:104CD0004DA55EA56FA578A989A99AA90E94D82B90
:104CE000A70196010E946E296B017C0120E030E053
:104CF000A9010E94CD2987FF0AC02BED3FE049ECB6
:104D000050E4C701B6010E94EF286B017C0121EE3F
:104D10003EE245E652E4C701B6010E94D82B0E944C
:104D2000492AAB01BC012FE089E00E948513A090C5
:104D3000B201B090B301C090B401D090B501E09041
:104D4000B601F090B7010091B8011091B901EBA63E
:104D5000FCA60DA71EA70E9452122B013C010E9427
:104D60008112EBA4FCA40DA51EA5A30192010E9433
:104D70007A076B017C010FA90023B1F18091AE018C
:104D80009091AF01A091B001B091B1012BA13CA1D4
:104D90004DA15EA1281B390B4A0B5B0BCA01B9015F
:104DA0000E94812A9B01AC010E94D82B4B015C011F
:104DB000A7019601C701B6010E94D82B9B01AC0147
:104DC000C501B4010E94EF280E94A32C6B017C0155
:104DD0008BA19CA1ADA1BEA18093AE019093AF0128
:104DE000A093B001B093B1016091AA017091AB01A1
:104DF0008091AC019091AD010E947F2AA70196019C
:104E00000E94EF280E94502A6093AA017093AB0180
:104E10008093AC019093AD010E9481126093B60122
:104E20007093B7018093B8019093B9010E94521218
:104E30006093B2017093B3018093B4019093B50174
:104E400027CBEA59FF4F0C94312E80910201812724
:104E50008093020184CC8091C50181278093C50194
:104E60007ECC8091C40181278093C40178CC60916D
:104E7000010181E090E00E944A0B6091020182E012
:104E800090E00E944A0B6091C50186E090E00E948C
:104E90004A0B6091C40187E090E00E944A0B20E039
:104EA00030E048EC52E460918C0370918D03809166
:104EB0008E0390918F030E94D82B0E94492A8AE08A
:104EC00090E00E944A0B609190038CE090E00E9479
:104ED0004A0BE0E0F0E00995C12CD12C6FEFC60140
:104EE0000E944A0BFFEFCF1ADF0A22E3C216D10459
:104EF000A9F70E94880BE0E0F0E0099530CC85E549
:104F000091E0909392038093910380916F008B7F47
:104F100080936F0080916F008F7D80936F008091F0
:104F2000950180939601809194018111FCCF80912D
:104F30006F008D7F80936F000895CF92DF92EF9284
:104F4000FF92EFE7F3E01382128288EEC82E83E02F
:104F5000D82EE12CF12CC482D582E682F78283E43C
:104F600091E091838083EAE4F4E01082118212825E
:104F70001382148286E98583128E148E138E168E08
:104F8000158E10A2178E11A212A2109292041092E6
:104F900091041092D3041092D40486E78093D50430
:104FA00082E38093D604168244E050E06FEF70E015
:104FB0008DE894E00E948F3080E2EDE6F4E0DF01BE
:104FC0001D928A95E9F7EDE9F3E0108211821382D0
:104FD000128214821582168217821086128611861A
:104FE00013861486158616861786118A108A128AE9
:104FF000138A148A158A168A108E178A118E128EB9
:10500000138E148E158E12A213A214A215A216A22C
:1050100017A210AA11AA12AA13AA14AA15AA16AEA8
:1050200017AE1092E1031092E2031092E303109284
:10503000E4031092E9031092EA031092EF03109236
:10504000F0031092F1031092F2031092F703109202
:10505000F8031092FD031092FE031092FF031092CA
:105060000004109205041092060410920B04109292
:105070000C0410920D0410920E041092130410925E
:1050800014041092190410921A0410921B04109226
:105090001C04109221041092220482E080933204B6
:1050A0001092330410923404109235041092370495
:1050B00010923604109239041092380410923A0477
:1050C00010923B0410923C0410923D0410923E0456
:1050D00010923F0410924004109241041092420436
:1050E0001092430410924404109245041092460416
:1050F000109247041092480410924904109223041D
:10510000E1E9F3E013821282C482D582E682F7825B
:1051100085E591E09183808310928B03FF90EF905F
:10512000DF90CF9008951F93FC0199278827BC0139
:10513000E89411911032E9F3193010F01E30C8F3E1
:105140001B3251F01D3249F4689406C00E94C328F6
:10515000610F711D811D911D119110531A30B0F313
:105160003EF490958095709561957F4F8F4F9F4F3E
:105170001F910895FB01DC0102C005900D92415082
:105180005040D8F70895592F482F372F262F660FF4
:10519000771F881F991F660F771F881F991F620F3F
:1051A000731F841F951F660F771F881F991F08950F
:1051B000F999FECF92BD81BDF89A992780B50895DF
:1051C000262FF999FECF1FBA92BD81BD20BD0FB623
:1051D000F894FA9AF99A0FBE019608955058BB2791
:1051E000AA270E9406290C94492B0E94102B38F004
:1051F0000E94172B20F039F49F3F19F426F40C94E9
:10520000E62A0EF4E095E7FB0C94E02AE92F0E94D1
:105210006E2B58F3BA17620773078407950720F0BF
:1052200079F4A6F50C94902B0EF4E0950B2EBA2F82
:10523000A02D0B01B90190010C01CA01A00111249C
:10524000FF27591B99F0593F50F4503E68F11A1648
:10525000F040A22F232F342F4427585FF3CF4695D9
:1052600037952795A795F0405395C9F77EF41F16FB
:10527000BA0B620B730B840BBAF09150A1F0FF0FC5
:10528000BB1F661F771F881FC2F70EC0BA0F621FB1
:10529000731F841F48F4879577956795B795F795A1
:1052A0009E3F08F0B0CF9395880F08F09927EE0F36
:1052B0009795879508950E94102B60F080E891E003
:1052C00009F49EEF0E94172B28F040E851E071F49A
:1052D0005EEF0CC00C94E62A0C94902BE92FE0783A
:1052E0000E946E2B40F3092E052AB1F326173707CB
:1052F0004807590738F00E2E07F8E02569F0E02539
:10530000E0640AC0EF6307F8009407FADB01B90113
:105310009D01DC01CA01AD01EF930E94EE290E94BC
:10532000492B0E949E295F91552339F02BED3FE0D8
:1053300049E450FD49EC0C94EF280895DF93DD27F4
:10534000B92FBF7740E85FE31616170648075B07DB
:1053500018F4D92F0E949C2B9F938F937F936F9368
:105360000E94E32CE0EEF0E00E94E92A0E94492B23
:105370002F913F914F915F910E94EB2BDD2351F0D4
:105380009058A2EA2AED3FE049EC5FE3D0785D2730
:105390000E940629DF910C94492B0E94BC2A08F434
:1053A00081E008950E94202BE3950C945A2B0E94D3
:1053B000EB290C94492B0E94172B58F00E94102BBC
:1053C00040F029F45F3F29F00C94E02A51110C942D
:1053D000912B0C94E62A0E946E2B68F39923B1F36B
:1053E000552391F3951B550BBB27AA27621773070B
:1053F000840738F09F5F5F4F220F331F441FAA1F9F
:10540000A9F335D00E2E3AF0E0E832D0915050405A
:10541000E695001CCAF72BD0FE2F29D0660F771F08
:10542000881FBB1F261737074807AB07B0E809F0EE
:10543000BB0B802DBF01FF2793585F4F3AF09E3F73
:10544000510578F00C94E02A0C94912B5F3FE4F323
:10545000983ED4F3869577956795B795F7959F5FB6
:10546000C9F7880F911D9695879597F90895E1E002
:10547000660F771F881FBB1F621773078407BA0761
:1054800020F0621B730B840BBA0BEE1F88F7E095BC
:1054900008950E94502A6894B1110C94912B08959C
:1054A0000E94762B88F09F5798F0B92F9927B75113
:1054B000B0F0E1F0660F771F881F991F1AF0BA95B8
:1054C000C9F714C0B13091F00E94902BB1E008955B
:1054D0000C94902B672F782F8827B85F39F0B93F4D
:1054E000CCF3869577956795B395D9F73EF490956B
:1054F0008095709561957F4F8F4F9F4F0895E894E9
:1055000009C097FB3EF490958095709561957F4F0B
:105510008F4F9F4F9923A9F0F92F96E9BB279395B9
:10552000F695879577956795B795F111F8CFFAF4C9
:10553000BB0F11F460FF1BC06F5F7F4F8F4F9F4FFA
:1055400016C0882311F096E911C0772321F09EE858
:10555000872F762F05C0662371F096E8862F70E0BE
:1055600060E02AF09A95660F771F881FDAF7880F98
:105570009695879597F90895990F0008550FAA0BEE
:10558000E0E8FEEF16161706E807F907C0F0121656
:105590001306E407F50798F0621B730B840B950B59
:1055A00039F40A2661F0232B242B252B21F40895AE
:1055B0000A2609F4A140A6958FEF811D811D08954B
:1055C00097F99F6780E870E060E008959FEF80ECB6
:1055D0000895DF93CF931F930F93FF92EF92DF9283
:1055E0007B018C01689406C0DA2EEF010E94EB2B40
:1055F000FE01E894A5912591359145915591A6F329
:10560000EF010E940629FE019701A801DA9469F7CB
:10561000DF90EF90FF900F911F91CF91DF91089550
:1056200000240A9416161706180609060895002481
:105630000A94121613061406050608950C94E62A19
:105640000E94762BD8F3E894E0E0BB279F57F0F058
:105650002AED3FE049EC06C0EE0FBB0F661F771F37
:10566000881F28F0B23A62077307840728F0B25AFD
:10567000620B730B840BE3959A9572F7803830F4C4
:105680009A95BB0F661F771F881FD2F790480C941E
:10569000232D092E0394000C11F4882352F0BB0F24
:1056A00040F4BF2B11F460FF04C06F5F7F4F8F4F3A
:1056B0009F4F0895EF93E0FF07C0A2EA2AED3FE075
:1056C00049EC5FEB0E9406290E94492B0F9003943E
:1056D00001FC9058EDE0F1E00C94362D57FD905808
:1056E000440F551F59F05F3F71F04795880F97FBA6
:1056F000991F61F09F3F79F0879508951216130660
:105700001406551FF2CF4695F1DF08C0161617068E
:105710001806991FF1CF86957105610508940895C3
:10572000E894BB2766277727CB0197F908950E9455
:10573000BC2A08F48FEF08959B01AC0160E070E093
:1057400080E89FE30C94D729FA01DC01AA0FBB1F64
:105750009B01AC01BF5728F42227332744275078F8
:1057600020C0B75190F4AB2F00244695379527956C
:10577000011CA395D2F3002071F0220F331F441FA8
:10578000B395DAF30ED00C94EE2861307105A0E8E1
:105790008A07B94630F49B01AC0166277727882732
:1057A0009078309621F0208331834283538308958B
:1057B0000E94EB2B0C94492B0E94102B38F00E9476
:1057C000172B20F0952311F00C94E02A0C94E62A74
:1057D00011240C94912B0E946E2B70F3959FC1F3B2
:1057E000950F50E0551F629FF001729FBB27F00D8F
:1057F000B11D639FAA27F00DB11DAA1F649F6627E4
:10580000B00DA11D661F829F2227B00DA11D621F32
:10581000739FB00DA11D621F839FA00D611D221FEC
:10582000749F3327A00D611D231F849F600D211DD0
:10583000822F762F6A2F11249F5750409AF0F1F053
:1058400088234AF0EE0FFF1FBB1F661F771F881FBC
:1058500091505040A9F79E3F510580F00C94E02AEA
:105860000C94912B5F3FE4F3983ED4F386957795A3
:105870006795B795F795E7959F5FC1F7FE2B880F62
:10588000911D9695879597F90895FA01EE0FFF1FE0
:10589000309621053105A1F16115710561F480385B
:1058A000BFE39B0749F168949038810561F0803827
:1058B000BFEF9B0741F099234AF5FF3FE105310512
:1058C000210519F1E8940894E795D901AA2329F450
:1058D000AB2FBE2FF85FD0F310C0FF5F70F4A6951A
:1058E000E0F7F73950F019F0FF3A38F49F779F93BB
:1058F0000DD00F9007FC9058089546F00C94E62ABE
:1059000060E070E080E89FE308954FE79F775F9342
:105910004F933F932F930E948C2D2F913F914F9146
:105920005F910E94D82B0C94EF2C9F930E94202B08
:105930000F9007FCEE5F0C945A2B19F416F40C949C
:10594000E62A0C94212D0E94762BB8F39923C9F3F3
:10595000B6F39F57550B87FF0E942F2D0024A0E61A
:1059600040EA900180585695979528F4805C660F20
:10597000771F881F20F026173707480730F4621B6F
:10598000730B840B202931294A2BA6951794079471
:10599000202531254A2758F7660F771F881F20F0EA
:1059A00026173707480730F4620B730B840B200D62
:1059B000311D411DA09581F7B901842F9158880FA1
:1059C0009695879508959B01AC010C94D82B29F4EA
:1059D00016F00C94E02A0C94902B0C94E62A0E946A
:1059E000762BA8F39638A0F707F80F92E8942BE3EC
:1059F0003AEA48EB5FE70E94EE2B0F920F920F926C
:105A00004DB75EB70F920E94A42BEBE2F1E00E942B
:105A1000E92A4F915F91EF91FF91E595EE1FFF1FEE
:105A200049F0FE57E0684427EE0F441FFA95E1F76E
:105A30004195550B0E944E2D0F9007FE0C949C2B08
:105A400008959F3F31F0915020F4879577956795A1
:105A5000B795880F911D9695879597F90895915060
:105A60005040660F771F881FD2F708959F938F933A
:105A70007F936F93FF93EF939B01AC010E94D82B10
:105A8000EF91FF910E94E92A2F913F914F915F91F1
:105A90000C94D82B0C94E02A0C94212D0E94762B88
:105AA000D8F39923C9F3940F511DA3F3915050409B
:105AB00094F059F0882332F0660F771F881F9150B9
:105AC0005040C1F79E3F51052CF7880F911D9695C8
:105AD000879597F908955F3FACF0983E9CF0BB27FF
