:100000000C943F020C9467020C9467020C946702F4
:100010000C9467020C9467020C9467020C946702BC
:100020000C9467020C9467020C9488160C94321797
:100030000C9441160C9467020C9467020C946702AE
:100040000C94F7150C9467020C94E7180C94231980
:100050000C9483190C9467020C9467020C94670249
:100060000C94C8170C946702084AD73B3BCE016E2C
:1000700084BCBFFDC12F3D6C74319ABD56833DDAFF
:100080003D00C77F11BED9E4BB4C3E916BAAAABE0E
:10009000000000803F05A84CCDB2D44EB93836A937
:1000A000020C50B9918688083CA6AAAA2ABE000074
:1000B00000803F07634236B79BD8A71A39685618A5
:1000C000AEBAAB558C1D3CB7CC5763BD6DEDFD751D
:1000D0003EF6177231BF000000803F08000000BEEE
:1000E000922449123EABAAAA2ABECDCCCC4C3E00EB
:1000F000000080BEABAAAAAA3E00000000BF00001C
:1001000000803F0000000000084178D3BB4387D146
:10011000133D190E3CC3BD4282AD2B3E68EC827686
:10012000BED98FE1A93E4C80EFFFBE01C4FF7F3FE7
:100130000000000000002044697361626C65640087
:1001400020456E61626C6564000020756E6B6E6F99
:10015000776E0020424D50323830000020424D452D
:100160003238300000204D53353631310000204CFC
:10017000505300000000002032440020334400208F
:1001800044697361626C6564002042617369630055
:1001900000000020457874656E64656400566572E1
:1001A00073696F6E2056322E3400000000005661D5
:1001B00072696F4750532053656E736F7200000071
:1001C0005265736574206F66667365740000000085
:1001D0000000475053206D6F64653A000000000036
:1001E000000000004750532064697374616E6365BA
:1001F0003A000000000050726573737572652073D9
:10020000656E736F723A00005365614C6576656C7C
:100210002050726573732E3A0000566172696F2028
:10022000736D6F6F7468696E673A0000566172692A
:100230006F20646561647A6F6E653A000000436FF9
:100240006D706173733A0000000000000000000050
:10025000547261696E696E67204D6F64653A000083
:1002600000005361766520616E642072657374616D
:10027000727400004C6F61642064656661756C7413
:1002800073000000000000000000240027002A0086
:1002900000000000250028002B00040404040404CE
:1002A0000404020202020202030303030303010225
:1002B00004081020408001020408102001020408F4
:1002C00010200000000800020100000304070000E5
:1002D000000000000000014C6174697475646500E1
:1002E00000000000000000000000002000000000EE
:1002F00000000900024C6F6E676974756465000048
:1003000000000000000000000020000000000000CD
:1003100009000347505320737065656400000000B6
:10032000000000000000006B6D2F6800000001005D
:100330000744697374616E6365000000000000008B
:1003400000000000006D00000000000004000452E6
:10035000656C2E20416C7469740000000000000080
:100360000000006D00000000000004010541627300
:100370002E20416C74697400000000000000000031
:10038000006D000000000000040006566172696FF5
:100390006D65746572000000000000000000006DD3
:1003A0002F730000000004020D4169722070726515
:1003B00073732E0000000000000000000068506110
:1003C0000000000004020E54656D702E0000000055
:1003D0000000000000000000000000B0430000002A
:1003E000000001011C436F6D706173730000000019
:1003F000000000000000000000B00000000000004D
:1004000001011D52656C2E20436F6D706173730086
:1004100000000000000000B000000000000001002B
:100420001E547261696E696E6720436F6D702E0095
:1004300000000000002000000000000001001F5428
:100440007261696E696E6720416C746974000000A6
:10045000000000200000000000000100000000007B
:10046000000000000000000000000000000000008C
:10047000000000000000000000008C1ABC2F1124B6
:100480001FBECFEFD8E0DEBFCDBF11E0A0E0B1E0EE
:10049000E2E1F6E702C005900D92A239B107D9F763
:1004A00025E0A2E9B1E001C01D92AD31B207E1F74C
:1004B00012E0CEE3D2E004C02197FE010E948C3509
:1004C000CD33D107C9F70E949F1B0C94FC3A0C94C2
:1004D0000000EF92FF92A091A804B091A904109798
:1004E00001F1E82FF0E0E557FB4F94A1E090AA045A
:1004F000F090AB049E151F04A4F485E0989FA00D16
:10050000B11D11244D935D936D937C93139794A12A
:10051000E091A804F091A904989FE00DF11D112429
:100520002483FF90EF900895CF93DF938091D304BD
:100530009091D404DC01ED91FC910280F381E02DD7
:1005400040E06EEF09958091F504882311F1C5EF25
:10055000D4E08091D3049091D4046991DC01ED91B1
:10056000FC910280F381E02D41E00995B5E0C531B1
:10057000DB0779F78091D3049091D404DC01ED91ED
:10058000FC910280F381E02D40E06FEFDF91CF918D
:100590000994C0E2D0E08091D3049091D404DC01AE
:1005A000ED91FC910280F381E02D41E060E009953E
:1005B000219789F7DFCF91E090936A0380938C03B2
:1005C00010926B0310928D03089590913D038091DA
:1005D0003C032FEF3FEF981748F4E92FF0E0E45E7B
:1005E000FC4F208130E09F5F90933D03C901089547
:1005F00090913D0380913C032FEF3FEF981748F413
:10060000E92FF0E0E45EFC4F208130E09F5F9093A3
:100610003D03C901089580913C0390913D03891BDE
:10062000990B0895CF92DF92EF92FF921092DF0321
:100630006091E9037091EA038091EB039091EC03E0
:100640000E94C63128E23BE64EE65EE40E941E317F
:100650006B017C016091E7037091E80390E080E01A
:100660000E94C6319B01AC01C701B6010E94363021
:100670002091ED0321119058FF90EF90DF90CF90E3
:100680000895CF92DF92EF92FF921092DF03609174
:10069000E2037091E3038091E4039091E5030E94EB
:1006A000C63128E23BE64EE65EE40E941E316B0155
:1006B0007C016091E0037091E10390E080E00E9492
:1006C000C6319B01AC01C701B6010E9436302091B2
:1006D000E60321119058FF90EF90DF90CF9008959E
:1006E00090E0FC01EE53FD4F2491FC01E255FD4FDB
:1006F0003491FC01E656FD4FE491EE23C9F022232C
:1007000039F0233001F1A8F4213019F1223029F118
:10071000F0E0EE0FFF1FE057FD4FA591B4918FB7AA
:10072000F894EC91611126C030953E233C938FBF25
:1007300008952730A9F02830C9F0243049F7809176
:1007400080008F7D03C0809180008F778093800030
:10075000DFCF84B58F7784BDDBCF84B58F7DFBCFB2
:100760008091B0008F778093B000D2CF8091B0009D
:100770008F7DF9CF3E2BDACFCF93DF9390E0FC0152
:10078000E255FD4F249186569D4FFC0184918823AC
:10079000D1F090E0880F991FFC01EA57FD4FA59119
:1007A000B491FC01E057FD4FC591D491623071F4D2
:1007B0009FB7F8943C91822F809583238C93E88196
:1007C0002E2B28839FBFDF91CF9108958FB7F89488
:1007D000EC912E2B2C938FBFF6CF3FB7F8948091DE
:1007E000C0029091C102A091C202B091C30226B58D
:1007F000A89B05C02F3F19F00196A11DB11D3FBF59
:10080000BA2FA92F982F8827BC01CD01620F711D27
:10081000811D911D43E0660F771F881F991F4A9520
:10082000D1F708958F929F92AF92BF92CF92DF92AD
:10083000EF92FF924B015C010E94ED036B017C0182
:100840000E94ED036C197D098E099F09683E734073
:1008500081059105A8F321E0821A9108A108B10849
:1008600088EEC80E83E0D81EE11CF11C81149104AF
:10087000A104B10429F7FF90EF90DF90CF90BF90D3
:10088000AF909F908F9008952FB7F8946091BC021D
:100890007091BD028091BE029091BF022FBF08955A
:1008A00008950895AF92BF92CF92DF92EF92FF9298
:1008B0000F931F93CF93DF936C017B018B01040F88
:1008C000151FEB015E01AE18BF08C017D10759F024
:1008D0006991D601ED91FC910190F081E02DC60166
:1008E0000995892B79F7C501DF91CF911F910F9160
:1008F000FF90EF90DF90CF90BF90AF900895509110
:10090000770240917602842F90E0252F30E0541733
:1009100018F4821B930B08958C5B9F4FFACF509174
:100920007A0240917902852F90E0242F30E054170D
:1009300018F0821B930B0895805B9F4FFACF809134
:100940007A02E09179028E1751F0EF5FE03508F0FE
:10095000E0E0F0E0EE5DFD4F808190E008958FEFE4
:100960009FEF089580917A0290917902891769F03A
:100970009F5F903508F090E0E92FF0E0EE5DFD4FCD
:1009800080819093790290E008958FEF9FEF089512
:10099000CF93DF93EC018A859B85AC85BD858E83E3
:1009A0009F83A887B9870E9444046A837B838C83D2
:1009B0009D8381E089838883DF91CF910895CF93D0
:1009C000DF93EC018E819F81A885B9858A839B8303
:1009D000AC83BD830E9444046A877B878C879D8794
:1009E00081E089838883DF91CF9108952091B501BB
:1009F000260F3327331F21323105ECF42091640395
:100A0000FC0190E080E0243069F082E00895A0913C
:100A1000B5012191AC014B565E4FA40FB52FB11D0E
:100A20002C930196861798F38091B501680F609317
:100A3000B50180E0089581E008951092640381E09B
:100A40008093630310923E0361E082E10E94700391
:100A500061E083E10E947003E9EBF0E080818E7F2A
:100A6000808380818D7F808380E28093B80085E4DD
:100A70008093BC000895CF93DF9391E0909394010D
:100A80008823B9F0C091B800D091BA008091BC0021
:100A90008A7B8093BC0060E082E10E94700360E08A
:100AA00083E10E9470030E941D05D093BA00C09399
:100AB000B800DF91CF910895CF92DF92EF92FF922D
:100AC0000F931F93CF93DF93D0918D0381E0D132A9
:100AD00008F09CC0C0918C030E94ED036B017C0167
:100AE0008091640381116CC082E08093640381E093
:100AF000809363038FEF8093620310926103D0931E
:100B00006003ACE6B3E0E0E4F3E080E0D8138DC02E
:100B100010923F0380913F03CC0FC82BC0933F033B
:100B200080913E03813009F084C010923E030E9400
:100B3000ED036B017C0180913F038093BB008091AA
:100B4000660390916703A0916803B0916903892BB4
:100B50008A2B8B2BA1F00E94ED030091660310916C
:100B6000670320916803309169036C197D098E0930
:100B70009F09061717072807390708F442C0809114
:100B8000BC0083FDD8CF85EC8093BC000E94ED03B0
:100B90006B017C0180916403823009F44CC0809128
:100BA00062038F3F09F469C080916203803209F4C7
:100BB00066C080916203803309F463C084E026C07C
:100BC0008091660390916703A0916803B0916903D7
:100BD000892B8A2B8B2B09F483CF0E94ED03009184
:100BE00066031091670320916803309169036C19C3
:100BF0007D098E099F09061717072807390708F08E
:100C00006FCF809165030E943B0585E010926B03D6
:100C100010928D0310926A03DF91CF911F910F9173
:100C2000FF90EF90DF90CF9008959D9191938F5F0B
:100C30006DCF85EEA9CF8091660390916703A09157
:100C40006803B0916903892B8A2B8B2B09F4A2CFFF
:100C50000E94ED03009166031091670320916803E1
:100C6000309169036C197D098E099F0906171707D2
:100C70002807390708F08ECFC4CF80E0C7CF82E0C5
:100C8000C5CF83E0C3CFCF92DF92EF92FF920F9355
:100C90001F93CF93DF93D82FC62F613208F098C0EF
:100CA0000E94ED036B017C018091640381116BC094
:100CB00081E080936403809363039FEF90936203CA
:100CC000109261039C0F9093600380933F03809187
:100CD0003F03DD0FD82BD0933F0380913E0381303B
:100CE00009F078C010923E030E94ED036B017C0175
:100CF00080913F038093BB008091660390916703CE
:100D0000A0916803B0916903892B8A2B8B2BA1F0EA
:100D10000E94ED0300916603109167032091680320
:100D2000309169036C197D098E099F090617170711
:100D30002807390708F448C08091BC0083FDD8CF4C
:100D400085EC8093BC000E94ED036B017C018091D7
:100D50006403813009F440C0809161038C1710F462
:100D6000C0916103E0E4F3E0ACE1B3E080E08C1318
:100D700055C08C2FDF91CF911F910F91FF90EF9075
:100D8000DF90CF9008958091660390916703A091C2
:100D90006803B0916903892B8A2B8B2B09F484CFCC
:100DA0000E94ED0300916603109167032091680390
:100DB000309169036C197D098E099F090617170781
:100DC0002807390708F070CF809165030E943B0522
:100DD000C0E0CFCF85EEB5CF8091660390916703D9
:100DE000A0916803B0916903892B8A2B8B2B09F49E
:100DF000AECF0E94ED03009166031091670320912E
:100E00006803309169036C197D098E099F090617E3
:100E100017072807390708F09ACFD6CF91919D93ED
:100E20008F5FA5CF0895E0913D0380913C03E817C3
:100E300030F4F0E0E45EFC4F808190E008958FEFA5
:100E40009FEF0895CF92DF92EF92FF920F931F933F
:100E5000CF93DF937C01CB018A0120916A03222387
:100E600089F0EB016B01C40ED51ECC15DD0569F0D0
:100E70006991D701ED91FC910190F081E02DC701BE
:100E80000995F3CF642F0E94F604C801DF91CF913A
:100E90001F910F91FF90EF90DF90CF900895CF9327
:100EA000DF931F92CDB7DEB7698320916A032223B7
:100EB000F9F020918D03203258F021E030E0FC0160
:100EC0003383228390E080E00F90DF91CF910895EB
:100ED00080916B03E82FF0E0E459FC4F99819083F7
:100EE0008F5F80936B0380938D0381E090E0ECCF64
:100EF00061E0CE0101960E94F604F7CF0F931F9395
:100F0000CF93DF93082F162FC4EAD3E08C8D0E9475
:100F1000DB02602F8EE893E00E944F07612F8EE87E
:100F200093E00E944F070E945C05888FDF91CF916C
:100F30001F910F9108950F931F93CF93DF93082F65
:100F4000162FC4EAD3E08B8D0E94DB02602F8EE85F
:100F500093E00E944F07612F8EE893E00E944F07B5
:100F60000E945C05888FDF91CF911F910F910895AA
:100F70002091BD033091BE032330310511F40C9450
:100F80007E070C949B0790E080E00895CF93DF9359
:100F9000F894DC01AA57BF4F2C912034F8F470E08C
:100FA00030E020E0442311F020E031E0FC01EE5776
:100FB000FF4FC081D181622B732B798368832C9181
:100FC0002F5F2C93208131812E5F3F4F2E173F07DB
:100FD00018F09C012E5F3F4F31832083FC01E057C6
:100FE000FF4F8081811108C081E080838091C10022
:100FF0008F7688628093C1007894DF91CF910895B5
:10100000FC01E157FF4F208140E02223F9F0F894E2
:10101000A0919201B0919301A357BF4F0D90BC9145
:10102000A02D4C9120812150208332972081318145
:101030002F5F3F4FBC0165577F4F2617370718F0CA
:101040009C0129573F4F318320837894842F089542
:101050000895809178028111FCCF089580917702E4
:101060008F5F843408F080E0909176029817E1F366
:101070002FB7F89490917802992359F0E82FF0E077
:10108000E852FE4F6083809377022FBF81E090E0AB
:10109000089581E08093780260931D0210921C02F3
:1010A00082E086BB80916F00826080936F008091A8
:1010B00080008F7B80688093800080918400909175
:1010C000850040969093890080938800DECFCF936F
:1010D000DF93C82FD62F0E94DB026D2F8EE893E09E
:1010E0000E944F070E945C0581110EC061E08C2FA9
:1010F0000E94430610923D0380933C03882321F015
:10110000DF91CF910C94F8028FEF9FEFDF91CF9199
:1011100008951F93CF93DF9387E70E94DB0260E07F
:101120008EE893E00E944F070E945C0587E70E94CB
:10113000DB0263E087E70E94430610923D03809341
:101140003C03811101C0FFCF0E94F802182F0E94BA
:10115000F802C82F0E94F802D82F0E945C056C2F5D
:1011600070E090E080E0982F872F762F6627812B04
:101170006D2BDF91CF911F910895CF93DF93EC01F9
:101180001092C0008CE08093C10086E38093C2007F
:101190001092C50082E38093C40062E080E00E9468
:1011A000BC0362E081E00E94BC03FE01329680E84D
:1011B000DF011D928A95E9F7DE01AE57BF4F119608
:1011C000FC93EE931296ED93FC93EC57FF4F108235
:1011D000319684E0DF011D928A95E9F7DE01A5577B
:1011E000BF4F1196FC93EE931296ED93FC933896B5
:1011F000108231961082D0939301C0939201DF91B7
:10120000CF9108950C9427309F92AF92BF92CF92C6
:10121000DF92EF92FF920F931F93CF93DF935C01C6
:101220007B018B01D0E0C0E0F80191908F01650156
:10123000CC0EDD1EC6010E941F30981621F0692DCC
:10124000C6010E9427302196C430D10569F7C70135
:10125000DF91CF911F910F91FF90EF90DF90CF9092
:10126000BF90AF909F900895CF93DF9300D000D0B0
:10127000CDB7DEB719821A821B821C82BE016F5F56
:101280007F4F8AE190E00E94040919821A821B8232
:101290001C82BE016F5F7F4F8EE190E00E940409C7
:1012A0000F900F900F900F90DF91CF9108950C94B5
:1012B0001F30EF92FF921F93CF93DF93CDB7DEB72E
:1012C0006E970FB6F894DEBF0FBECDBF1092AB0481
:1012D0001092AA0486ED92E09093A7048093A6044E
:1012E000EFEAF4E080E2DF011D928A95E9F710E071
:1012F000F12CE12C6091A6047091A7046E0D7F1D66
:101300004EE150E0CE0101960E940130E981EE23CA
:10131000A9F0E03220F4F0E0E557FB4F14A38091F0
:10132000AA049091AB0401969093AB048093AA0415
:10133000BEE1EB0EF11C1F5F1032E1F66E960FB6A8
:10134000F894DEBF0FBECDBFDF91CF911F91FF900C
:10135000EF900895CF93C82F8091AA049091AB0489
:10136000892B11F40E945909EC2FF0E0E557FB4F4F
:1013700024A1822F90E04091AA045091AB048417DD
:1013800095079CF433E0959587953A95E1F7FC0134
:10139000E153FB4F277081E090E001C0880F2A9550
:1013A000EAF7809590818923808310928F041092B0
:1013B000AE041092AC04CF910895EF92FF920F9378
:1013C0001F93CF93DF93CDB7DEB76E970FB6F89428
:1013D000DEBF0FBECDBF8C017B012EE1269FC00179
:1013E000279F900D11246091A6047091A704680FA7
:1013F000791F4EE150E0CE0101960E9401308D8DA3
:10140000D8015F968C935F97898112968C9325E023
:101410002E9DC0012F9D900D1124A091A804B09184
:10142000A904A80FB91F4D915D916D917C91F801B0
:101430004383548365837683E091A804F091A904E3
:10144000E80FF91F8481D80118968C93A801475F93
:101450005F4F9E012E5F3F4FDA0180E0F9019191CD
:101460009F01992329F0833119F08F5F9D93F6CF67
:10147000D8015D968C93DE015696FA01E80FF11DB6
:1014800090E02D91222339F0382F390F333118F4A1
:101490009F5F2193F6CFD8015E969C935E97108252
:1014A0008E8D8130C9F08230D9F0F801878D863079
:1014B000D8F4843038F58823E1F08130F9F06E9665
:1014C0000FB6F894DEBF0FBECDBFDF91CF911F9155
:1014D0000F91FF90EF90089580E2F80180A3E5CF8F
:1014E00080E490968C93E1CF8850823040F785E07D
:1014F00006C082E0D80191968C93E1CF83E0F80199
:1015000081A3DDCF84E0F6CF8F929F92AF92BF92FE
:10151000EF92FF920F931F93CF93DF93CDB7DEB778
:10152000A2970FB6F894DEBF0FBECDBF811147C0A2
:101530001092D7041092DD041091A504812F880F1A
:10154000880F880F8093DE04412F50E061E974E03A
:101550008FED94E00E94F237165F8EE78093D504FA
:101560008FE28093D6048091D7049EEF910F892B50
:101570008093D70489E08093D80484EA8093D904C7
:10158000809117058093DA04809118058093DB041D
:101590001092DC04E12FF0E0A7EDB4E092E080E0EF
:1015A00037E0911708F0A1C12D91822728E087FF2D
:1015B0009AC1880F83272150D1F79F5FF2CF2091E6
:1015C000AA043091AB04982F96959217130611F048
:1015D0000CF06CC080FD6AC010E000E088248A94A2
:1015E000982C54018091AA049091AB040817190714
:1015F0000CF077C12091AE04622F70E01B828C82C8
:101600009D82AE82BF821E8E1F8E18A219A21AA2C0
:10161000FB0133E0F595E7953A95E1F7E153FB4F90
:10162000808190E0277002C0959587952A95E2F712
:1016300081708887882321F0CE0101960E94DD0900
:101640008091AE048F5F8093AE042091AA04309104
:10165000AB048217130614F01092AE048885882319
:1016600011F11092D7048B818093DD048E8D68E098
:10167000869F900111248F8D822B8093DE0480E061
:101680001AE0180FEAE0F0E0EC0FFD1FE80FF11D83
:101690009081992309F461CF8F5FE12FF0E0EB5245
:1016A000FB4F9083EDCF0F5F1F4F9CCF80E4809363
:1016B000D704F12CE12C18E088248A94982C54014A
:1016C0002091AC04622F70E01B828C829D82AE82DE
:1016D000BF821E8E1F8E18A219A21AA2FB0183E0E0
:1016E000F595E7958A95E1F7E153FB4F808190E00E
:1016F000277002C0959587952A95E2F781708887B3
:10170000882321F0CE0101960E94DD098885882377
:1017100009F46DC08091AD0469850E942B3591114B
:1017200066C0212F30E08AA190E04B81403100F16A
:101730000296820F931F4E970CF00FCF2B523B4F08
:1017400088A18F70D9018C9382E0810F1F5FE12FF8
:10175000F0E0EB52FB4F408398A1943009F476C03F
:10176000D8F49923B1F1913009F45CC010E03EC087
:101770000196820F931F4E970CF0EFCE81E0810F00
:101780002B523B4F98A19F70B0E14B9FA0011124B9
:10179000942BF9019083E0CF983009F470C0993010
:1017A00009F488C0953011F76C815D814E819F816D
:1017B000282F30E0F901EB52FB4F6083F901EA5228
:1017C000FB4F508329523B4F9078942BD9019C9327
:1017D00054C02C819F81E82FF0E0EB52FB4F9078B2
:1017E0002F71922B29A1922B908311E0180F8091D9
:1017F000AC048F5F8093AC042091AA043091AB04B9
:10180000821713063CF01092AC048091AD048F5FF8
:101810008093AD04BFEFEB1AFB0AE216F3060CF45B
:101820004FCF9BCE3C819D812F81482F50E0FA0104
:10183000EB52FB4F30834A525B4F9F712078922BC3
:1018400029A1922BDA019C9312E0D0CF6C813D81CB
:101850009E812F81482F50E0FA01EB52FB4F6083AD
:10186000FA01EA52FB4F308349525B4F9F71207857
:10187000922B29A1922BFA01908313E0B7CF6C81B0
:101880005D814E819F81282F30E0F901EB52FB4FA3
:101890006083F901EA52FB4F5083F901E952FB4F93
:1018A000408328523B4F9F7949A1942BF9019083A3
:1018B00014E09CCF6C815D814E819F81282F30E0A8
:1018C000F901EB52FB4F6083F901EA52FB4F508361
:1018D000F901E952FB4F408328523B4FD9019C93B9
:1018E000E7CF10E03ACE880F66CEEB52FB4F8083F5
:1018F0008091D3049091D404DC01ED91FC9102809D
:10190000F381E02D40E06EE7099501E01017A0F0AB
:101910008091D3049091D404A02FB0E0AB52BB4F80
:10192000FC0120813181F9012281338141E06C91F8
:10193000F90109950F5FEACFA2960FB6F894DEBFC2
:101940000FBECDBFDF91CF911F910F91FF90EF9010
:10195000BF90AF909F908F9008952F923F924F929B
:101960005F926F927F928F929F92AF92BF92CF922F
:10197000DF92EF92FF920F931F93CF93DF93CDB738
:10198000DEB7A0970FB6F894DEBF0FBECDBF1C0127
:101990000E9444040091CC021091CD022091CE020D
:1019A0003091CF02061717072807390708F096C4A9
:1019B0008091D2029091D302A091D402B091D5022D
:1019C0000196A11DB11D8093D2029093D302A093E2
:1019D000D402B093D50284369105A105B10561F515
:1019E0001092D10220E836EE45EC57E46091FE02F9
:1019F0007091FF0280910003909101030E941E31BB
:101A00002BEA3CED42E45EE30E948C339B01AC0187
:101A100060E070E080E89FE30E94353020E03AE229
:101A20004DE257E40E941F336093DA027093DB02A9
:101A30008093DC029093DD028091DE029091DF02C0
:101A40008130910509F020C40E9489086D8B7E8B3E
:101A50008F8B988F6093F2027093F3028093F4025D
:101A60009093F5028091EE029091EF02B0E0A0E039
:101A7000BA2FA92F982F88274090F6025090F7028E
:101A80006090F8027090F902481A590A6A0A7B0AB3
:101A90006091F0027091F10290E080E0A301920168
:101AA0000E94FD35122F3D834983B52FF62FE72F76
:101AB000F82E092FA0E00E948B3684F421503109C2
:101AC00040485F4F6F4F7F4F8F4F9F4F122F3D8387
:101AD0004983B52FF62FE72FF82E092F212F3D81AF
:101AE00049815B2F6F2F7E2F8F2D902F07E10E9452
:101AF00050362053384F4F4F5F4F29833A834B83E3
:101B00005C83109208031092090310920A0310924A
:101B10000B033091D0023D833323E9F049815A8190
:101B20006B817C81403D574061057105A4F4A301A0
:101B30009201C301B2010E941B352FEF3FEF4FEF1F
:101B40005FE70E946D3520930803309309034093AB
:101B50000A0350930B038091080390910903A0910D
:101B60000A03B0910B0329813A814B815C81281BC8
:101B7000390B4A0B5B0BDA01C90180930203909386
:101B80000303A0930403B09305036091EC027091EA
:101B9000ED0290E080E0A30192010E94FD35122F3A
:101BA0003A874987B52FF62FE72FF82E092FA0E0A7
:101BB0000E948B365CF4AFE70E947636122F3A878C
:101BC0004987B52FF62FE72FF82E092F212F3A85B9
:101BD00049855B2F6F2F7E2F8F2D902F07E00E945E
:101BE000503649014A875987B62FA72FF82FE92F7A
:101BF000A090E802B090E902950140E050E060E07A
:101C000070E080E090E000E10E94373659016A01FF
:101C10007B018C0194014A8559856B2F7A2F8F2F78
:101C20009E2F0E946D3629873A874B875C876D8788
:101C30007E878F87988B6091EA027091EB0290E02B
:101C400080E0A30192010E94FD35122F3A8B498B4F
:101C5000B52FF62FE72FF82E092FA0E00E948B3624
:101C600084F421503F4F4F4F5F4F6F4F7F4F8F4F47
:101C70009F4F122F3A8B498BB52FF62FE72FF82E57
:101C8000092F212F3A8949895B2F6F2F7E2F8F2DA6
:101C9000902F08E00E94503649014A8B598BB62F8D
:101CA000A72FF82FE92FA090E602B090E702D12CE1
:101CB000C12C9501A60160E070E080E090E00FE0AB
:101CC0000E94373659016A017B018C0194014A89CF
:101CD00059896B2F7A2F8F2F9E2F0E946D36298B5B
:101CE000F32FE42F852E6A8B7B8B982E9C8B3D8166
:101CF000332309F434C110920C0310920D03109297
:101D00000E0310920F031092100310921103109201
:101D100012031092130310921403109215031092E1
:101D200016031092170310921803109219031092C1
:101D30001A0310921B0349815A816B817C81403DBB
:101D400087E05807610571050CF0C5C0CB01BA01E9
:101D5000605D7740810991099B01AC010E941B35B0
:101D60009B01AC01A5E0B0E00E9492357B018C01A3
:101D700015950795F794E7942B013C01770C4408DF
:101D8000542C3201E0920C03F0920D0300930E03E9
:101D900010930F03409210034092110340921203DC
:101DA000409213039B01AC0162E05595479537952E
:101DB00027956A95D1F72D833E834F8358872093CB
:101DC0001403309315034093160350931703409266
:101DD00018034092190340921A0340921B03498151
:101DE0005A816B817C8144328AEF58078FEF6807F4
:101DF00078070CF070C0CB01BA0164527A4F8F4F54
:101E00009F4F9B01AC010E941B3569837A838B83B2
:101E10009C83A7E0B0E09B01AC010E9492355B017E
:101E20006C01DD0CAA08BA2C65019B01AC016A2D7E
:101E30007A2D8A2D9A2D57016801E42CF42C042D5B
:101E4000142D0E946D3620930C0330930D034093A4
:101E50000E0350930F03609310037093110380934C
:101E6000120390931303ABE0B0E029813A814B81D8
:101E70005C810E9492359B01AC0155954795379541
:101E8000279529833A834B835C836B017C01FF0C8C
:101E9000CC08DC2C760129813A814B815C816C2D48
:101EA0007C2D8C2D9C2DAD80BE80CF80D884E42CE1
:101EB000F42C0E946D362093140330931503409345
:101EC00016035093170360931803709319038093BC
:101ED0001A0390931B0329853A854B855C856D8594
:101EE0007E858F859889A0900C03B0900D03C090DB
:101EF0000E03D0900F03E0901003F09011030091B7
:101F00001203109113030E94823629873A874B8768
:101F10005C876D877E878F87988B29893F2F4E2F0F
:101F2000582D6A897B89892D9C89A0901403B090D3
:101F30001503C0901603D0901703E0901803F0909B
:101F4000190300911A0310911B030E948236298BFA
:101F5000F32FE42F852E6A8B7B8B982E9C8B6D89BB
:101F60007E898F89988DAB01BC0180E090E0DC0117
:101F7000498F5A8F6B8F7C8F8D8F9E8FAF8FB8A3B9
:101F8000A988BF2ECE2ED82CEA88FB88092D1C8963
:101F90009A01AB0160E070E080E090E00E94A5351E
:101FA000122F3D834983B52FF62FE72FF82E092FE7
:101FB000A0E00E948B3684F421503109404E5F4FDF
:101FC0006F4F7F4F8F4F9F4F122F3D834983B52F08
:101FD000F62FE72FF82E092F212F3D8149815B2F06
:101FE0006F2F7E2F8F2D902F05E10E945036A984F0
:101FF000BA84CB84DC84ED84FE840F8518890E942A
:102000008236122F3D834983B52FF62FE72FF82E06
:10201000092FA0E00E948B3684F4215030484F4FA6
:102020005F4F6F4F7F4F8F4F9F4F122F3D834983DD
:10203000B52FF62FE72FF82E092F212F3D8149814B
:102040005B2F6F2F7E2F8F2D902F0FE00E94503629
:10205000B901CA012093FA027093FB024093FC027B
:102060009093FD020E94C8316B017C01AC019B0181
:102070006091FE027091FF02809100039091010334
:102080000E9435302091D6023091D7024091D8027B
:102090005091D9020E941F33A70196010E94363049
:1020A0006093FE027093FF028093000390930103FC
:1020B0000E9444040091C8021091C9022091CA02F2
:1020C0003091CB024B015C01801A910AA20AB30A3B
:1020D00020E836EE45EC57E46091FE027091FF0275
:1020E00080910003909101030E941E312BEA3CED88
:1020F00042E45EE30E948C339B01AC0160E070E03F
:1021000080E89FE30E94353020E03AE24DE257E458
:102110000E941F3320E030E048EC52E40E941F335D
:102120006B017C018091D102882341F0C092C402EE
:10213000D092C502E092C602F092C7022091C4027A
:102140003091C5024091C6025091C702C701B60145
:102150000E9435302B013C01C501B4010E94C631FB
:102160009B01AC0160E070E08AE794E40E941E31BC
:102170009B01AC01C301B2010E941F334B015C0102
:102180006091E0027091E102072E000C880B990B20
:102190000E94C831A50194010E9435302091E202CD
:1021A0003091E3024091E4025091E5020E941F3316
:1021B000A50194010E9436300E9490317093E10293
:1021C0006093E002C092C402D092C502E092C602BF
:1021D000F092C7020E9444046093C8027093C9023F
:1021E0008093CA029093CB0271E07D838091DE02DE
:1021F0009091DF028215930509F01D8280910703FB
:1022000089832114310409F451C03092DF022092F5
:10221000DE0292E02916310409F044C0805B898314
:1022200087E70E94DB0269818EE893E00E944F07F6
:102230000E945C050E94440420910603620F711DF8
:10224000811D911D6093CC027093CD028093CE02CC
:102250009093CF028D81A0960FB6F894DEBF0FBE8B
:10226000CDBFDF91CF911F910F91FF90EF90DF9045
:10227000CF90BF90AF909F908F907F906F905F9026
:102280004F903F902F900895029709F0ADCF0E9494
:1022900089086093F6027093F7028093F802909396
:1022A000F902A2CFA981A05CA983BACF8091D20202
:1022B00080FD0AC082E090E09093DF028093DE020E
:1022C000B981B05BB983ACCF81E090E09093DF023D
:1022D0008093DE022981205C2983A2CF1D82BACFA0
:1022E00082E090E00E94AD0C811107C061E070E0D7
:1022F00080E090E00E941204F3CF6091F6027091AA
:10230000F7028091F8029091F90208954F925F923E
:102310006F927F92AF92BF92CF92DF92EF92FF9235
:102320000F931F93CF93DF9300D000D0CDB7DEB7CC
:10233000082FA62E69017A01AE014F5F5F4FC701DA
:10234000B9010E94EB322B013C0169817A818B81BA
:102350009C819F770E949731B62E172F2AE939E981
:1023600049E15FE3C301B2010E941F3320E030E581
:1023700043EC57E40E941F339F770E9497313B0143
:10238000117070E0A11070E2172B20E030E0A9017D
:10239000C701B6010E94143170E087FD70E4712B13
:1023A0002AE0A3016B2D802F0F900F900F900F90BC
:1023B000DF91CF911F910F91FF90EF90DF90CF9021
:1023C000BF90AF907F906F905F904F900C94690298
:1023D0004F925F926F927F928F929F92AF92BF9235
:1023E000CF92DF92EF92FF92CF93DF9300D000D095
:1023F00000D0CDB7DEB79E838D83DC014D905D901C
:102400006D907C90139714968D909D90AD90BC909C
:10241000179718968D919D910D90BC91A02D898351
:102420009A83AB83BC83A3019201C301B2010E94D2
:102430001F336B017C01A5019401C501B4010E9409
:102440001F339B01AC01C701B6010E9436306B01FE
:102450007C0129813A814B815C81CA01B9010E94CA
:102460001F339B01AC01C701B6010E9436300E94A8
:10247000EA336B017C01AC019B01C301B2010E94F4
:102480001E31ED81FE816083718382839383A70176
:102490009601C501B4010E941E31AD81BE81149622
:1024A0006D937D938D939C931797A70196016981F6
:1024B0007A818B819C810E941E31ED81FE81608733
:1024C00071878287938726960FB6F894DEBF0FBE7A
:1024D000CDBFDF91CF91FF90EF90DF90CF90BF9075
:1024E000AF909F908F907F906F905F904F900895E6
:1024F0004F925F926F927F928F929F92AF92BF9214
:10250000CF92DF92EF92FF92CF93DF93CDB7DEB7FA
:10251000AA970FB6F894DEBF0FBECDBF498F5A8F72
:102520006B8F7C8F8D8F9E8F6091B6037091B703F8
:10253000072E000C880B990BC090B003D090B1030C
:102540000D2C000CEE08FF086C0D7D1D8E1D9F1DCF
:1025500022E0C22ED12CE12CF12CA70196010E9481
:102560006D358091AA039091AB03092E000CAA0B44
:10257000BB0B4C015D01821A930AA40AB50A8F8E27
:1025800098A2A9A2BAA26091B8037091B903072ECC
:10259000000C880B990B8090B2039090B303092C28
:1025A000000CAA08BB08680D791D8A1D9B1DA70198
:1025B00096010E946D358091AC039091AD03092E78
:1025C000000CAA0BBB0B4C015D01821A930AA40AF2
:1025D000B50A8BA29CA2ADA2BEA26091BA03709173
:1025E000BB03072E000C880B990B8090B4039090CE
:1025F000B503092C000CAA08BB08680D791D8A1DBB
:102600009B1DA70196010E946D35C090AE03D0902E
:10261000AF030D2C000CEE08FF08C21AD30AE40A1F
:10262000F50A4090A8035090A903052C000C6608F9
:1026300077088091A6039091A7034C01990FAA08EF
:10264000BB088FA298A6A9A6BAA62BA13CA14DA112
:102650005EA1C301B2010E941B354B015C01A701C1
:1026600096016FA178A589A59AA50E941B35A501A1
:102670009401261B370B480B590BCA01B9010E9464
:10268000C8316D877E878F87988B8090A403909048
:10269000A503092C000CAA08BB08A7019601C501D7
:1026A000B4010E941B356B017C012F8D38A149A11B
:1026B0005AA1C301B2010E941B35A7019601261B36
:1026C000370B480B590BCA01B9010E94C831698BFD
:1026D0007A8B8B8B9C8B2F8D38A149A15AA16FA12E
:1026E00078A589A59AA50E941B356B017C012BA1B9
:1026F0003CA14DA15EA1C501B4010E941B3546015C
:102700005701861A970AA80AB90AC501B4010E949E
:10271000C8316D8B7E8B8F8B988FCE010D960E946A
:10272000E8116091A6037091A703072E000C880B97
:10273000990B0E94C8316B017C018D889E88AF88FF
:10274000B88C8F8E98A2A9A2BAA26091A8037091AA
:10275000A903072E000C880B990B0E94C8312B018E
:102760003C0189889A88AB88BC888BA29CA2ADA2C8
:10277000BEA22F8D38A149A15AA1C701B6010E945E
:102780001F334B015C012BA13CA14DA15EA1C301F4
:10279000B2010E941F339B01AC01C501B4010E942C
:1027A000353069837A838B839C838D849E84AF8448
:1027B000B8888FA298A6A9A6BAA66091A403709122
:1027C000A503072E000C880B990B0E94C8314B0102
:1027D0005C012FA138A549A55AA5C301B2010E94E9
:1027E0001F332B013C01A50194016F8D78A189A1B4
:1027F0009AA10E941F339B01AC01C301B2010E9448
:1028000035306D837E838F839887A50194016BA1FA
:102810007CA18DA19EA10E941F334B015C012FA1C1
:1028200038A549A55AA5C701B6010E941F339B01CF
:10283000AC01C501B4010E94353069877A878B8766
:102840009C87CE0101960E94E811698D7A8D072E32
:10285000000C880B990B0E94C8312B013C016B8D39
:102860007C8D072E000C880B990B0E94C8314B0100
:102870005C016D8D7E8D072E000C880B990B0E94DC
:10288000C8316B017C0129813A814B815C81C30194
:10289000B2010E941F336F8F78A389A39AA32D8161
:1028A0003E814F815885C501B4010E941F339B01B1
:1028B000AC016F8D78A189A19AA10E9436306F8FEB
:1028C00078A389A39AA329853A854B855C85C7019E
:1028D000B6010E941F339B01AC016F8D78A189A1C5
:1028E0009AA10E9436306F8F78A389A39AA32D8571
:1028F0003E854F855889C301B2010E941F332B01C9
:102900003C0129893A894B895C89C501B4010E943F
:102910001F339B01AC01C301B2010E9436304B0151
:102920005C012D893E894F89588DC701B6010E94EF
:102930001F339B01AC01C501B4010E9436302F8DBD
:1029400038A149A15AA10E94B53020E030E044E30B
:1029500053E40E941F332BED3FE049E450E40E9412
:102960001E316B017C0120E030E0A9010E9414318E
:1029700087FF0AC020E030E044EB53E4C701B60112
:102980000E9436306B017C01C701B601AA960FB6D2
:10299000F894DEBF0FBECDBFDF91CF91FF90EF90D7
:1029A000DF90CF90BF90AF909F908F907F906F906F
:1029B0005F904F9008954F925F926F927F928F92A7
:1029C0009F92AF92BF92CF92DF92EF92FF920F93BE
:1029D0001F93CF93DF93CDB7DEB760970FB6F89410
:1029E000DEBF0FBECDBF69837A838B839C83CA0110
:1029F000B9012701A60195010E94353025E33AEF80
:102A00004EE85CE30E941F336B017C010E94DC33C3
:102A10006D877E878F87988BC701B6010E94193119
:102A20006D837E838F83988725E33AEF4EE85CE3DE
:102A300069817A818B819C810E941F334B015C01EB
:102A400025E33AEF4EE85CE3C801B2010E941F3370
:102A50002B013C01C501B4010E94DC3369837A83F8
:102A60008B839C83C501B4010E9419314B015C0129
:102A7000C301B2010E94DC3369877A878B879C8708
:102A8000C301B2010E9419316B017C0129853A858D
:102A90004B855C85C501B4010E941F332B013C01AD
:102AA000A701960169817A818B819C810E941F33E5
:102AB0002D813E814F8158850E941F339B01AC01BF
:102AC000C301B2010E9435309B01AC010E941F334B
:102AD0002B013C01A70196016D857E858F85988924
:102AE0000E941F339B01AC010E941F33A30192017E
:102AF0000E9436300E94EA332B013C01A701960167
:102B0000C501B4010E941F332D813E814F8158853C
:102B10000E941F334B015C0129853A854B855C85FA
:102B200069817A818B819C810E941F339B01AC015A
:102B3000C501B4010E9436309B01AC01C301B20152
:102B40000E94B53026E73BE742EC5AE40E941F336F
:102B500060960FB6F894DEBF0FBECDBFDF91CF9168
:102B60001F910F91FF90EF90DF90CF90BF90AF90AB
:102B70009F908F907F906F905F904F90089585ED1C
:102B80008093BC008091660390916703A0916803D5
:102B9000B09169030796A11DB11D23E0B695A795D5
:102BA000979587952A95D1F72091BC0024FD03C005
:102BB00010926403089540916603509167036091F9
:102BC000680370916903452B462B472B69F30097E7
:102BD000A105B10541F025E12A95F1F70000019723
:102BE000A109B109E1CF809165030C943B051F92C7
:102BF0000F920FB60F9211242F933F938F939F93B1
:102C0000AF93BF938091BC029091BD02A091BE0290
:102C1000B091BF023091BB0226E0230F2D3758F54B
:102C20000296A11DB11D2093BB028093BC0290931C
:102C3000BD02A093BE02B093BF028091C0029091EA
:102C4000C102A091C202B091C3020196A11DB11DA3
:102C50008093C0029093C102A093C202B093C302BA
:102C6000BF91AF919F918F913F912F910F900FBE88
:102C70000F901F90189529E8230F0396A11DB11DF1
:102C8000D2CF1F920F920FB60F9211242F938F93D2
:102C90009F93EF93FF9380916F008B7F80936F00E2
:102CA000809181008F7B8093810080917B022091B5
:102CB0002102205890912002893020F49695922B81
:102CC0008F5FFACF9093200280917A028F5F8035D8
:102CD00008F080E020917902281739F0E82FF0E021
:102CE000EE5DFD4F908380937A0210927B0280917B
:102CF00081008F7B8093810010922102FF91EF91E0
:102D00009F918F912F910F900FBE0F901F9018954C
:102D10001F920F920FB60F9211242F933F934F9350
:102D20005F936F937F938F939F93AF93BF93EF9333
:102D3000FF9380918600909187004091210220911D
:102D400081004423F1F12F7B209381001092210216
:102D500030917B0231113CC0411122C020917C0294
:102D600030917D02280F391F30938B0020938A0009
:102D700024E026BB20916F00246020936F002091F7
:102D80007E0230917F02820F931F36952795280F80
:102D9000391F30931F0220931E0281E080937B0233
:102DA000FF91EF91BF91AF919F918F917F916F9123
:102DB0005F914F913F912F910F900FBE0F901F90F9
:102DC000189520642093810020E820932102C0CF31
:102DD00040911E0250911F0260917E0270917F020D
:102DE000DB01A095B095E091210220912002841B87
:102DF000950BA817B90768F126952E2B460F571F7C
:102E00003F5F861B970B3930A0F3209320028091FF
:102E10006F008B7F80936F0080917A028F5F803587
:102E200008F080E090917902981749F0E82FF0E0DF
:102E300090912002EE5DFD4F908380937A02809105
:102E400081008F7B809381001092210210927B027F
:102E5000A7CF2093200250931F0240931E0230936D
:102E60007B029ECF1F920F920FB60F9211242F93C9
:102E70003F934F935F936F937F938F939F93EF93C2
:102E8000FF932091780260911D02809188009091BB
:102E9000890040917E0250917F0230911C022A30BD
:102EA00070F5840F951F762F7170293009F471E049
:102EB00066952F5F371799F3309180007723E1F003
:102EC000306C3093800090938900809388007093D9
:102ED0001C0260931D0220937802FF91EF919F9155
:102EE0008F917F916F915F914F913F912F910F90B3
:102EF0000FBE0F901F9018953F7B3068E2CF309146
:102F00007702E09176023E1319C02A3051F42BE08B
:102F100020937802840F951F9093890080938800F6
:102F2000DCCF10927802809180008F7380938000B4
:102F300080916F008D7F80936F00CFCFEF5FE4347F
:102F400008F0E0E0E0937602F0E0E852FE4F3081D6
:102F500030931D0210921C02309180003F7B30683C
:102F6000309380002A3071F420917E0230917F02EC
:102F7000820F931F909389008093880081E0809353
:102F80007802ABCF80918400909185004096F2CF7B
:102F90001F920F920FB60F9211242F933F934F93CE
:102FA0005F936F937F938F939F93AF93BF93EF93B1
:102FB000FF938091B900887F803609F44AC0F0F50C
:102FC000883209F4A7C018F5803109F49BC0B8F421
:102FD000882309F4F9C0883009F494C0FF91EF9177
:102FE000BF91AF919F918F917F916F915F914F9121
:102FF0003F912F910F900FBE0F901F901895883121
:1030000009F488C0803251F78093620314C0803481
:1030100009F49DC040F48033B9F38833F9F6809306
:10302000620385ECB0C0803509F485C0883509F4A9
:1030300096C0883499F60E94BF15D0CF883909F41C
:103040008CC038F5883729F050F4883611F0803775
:1030500029F683E0809364031092D70157C0883823
:1030600009F47BC0803919F0803809F0B7CF80911E
:10307000D701803208F071C0E091D70181E08E0F56
:103080008093D7018091BB00F0E0E954FE4F80832C
:103090003DC0803B39F0E0F4803A09F479C0883AC9
:1030A00009F09CCF84E0809364031092B6011092E3
:1030B000B501E0917202F091730209958091B5011A
:1030C00081110FC081E08093B5011092950109C074
:1030D000803C09F4A6CF883C09F4A3CF883B09F0D3
:1030E0007DCFE091B60181E08E0F8093B601F0E0D4
:1030F000EB56FE4F80818093BB009091B60180918A
:10310000B50129C080913F038093BB0085EC80937B
:10311000BC0064CF9091610380916003981758F5CB
:10312000E091610381E08E0F80936103F0E0E05C49
:10313000FC4F8081E9CFE091610381E08E0F8093A5
:1031400061038091BB00F0E0E05CFC4F80839091D4
:103150006103809160039817C8F285E8D8CFE091A9
:10316000610381E08E0F809361038091BB00F0E0EA
:10317000E05CFC4F80838091630381115CCF81E030
:1031800080933E0384EA8093BC001092640326CFB0
:1031900085EC8093BC00109264038091D70180324B
:1031A00030F4E091D701F0E0E954FE4F10826091D5
:1031B000D70170E0E0917402F091750287EB91E025
:1031C00009951092D7010ACF1092620334CF1F9253
:1031D0000F920FB60F9211242F933F938F939F93CB
:1031E000AF93BF93EF93FF938091C600803FF1F0C0
:1031F000982F9F70D9F42091920130919301F90199
:10320000E557FF4FA081B1818C93D901A157BF4FE2
:103210008C918F5F8C938081918101968E179F078F
:1032200018F0C90189579F4F91838083FF91EF91D7
:10323000BF91AF919F918F913F912F910F900FBEB2
:103240000F901F9018951F920F920FB60F92112496
:103250002F933F934F935F938F939F93AF93BF931E
:10326000EF93FF938091920190919301FC01EA57B3
:10327000FF4F20812223C9F18C579F4FDC01ED9134
:10328000FC91208131818091C10030FF2CC0816090
:103290008093C1002093C600209192013091930148
:1032A000F901EA57FF4F80818150808332978081F6
:1032B00091810296A9014E575F4F8417950710F030
:1032C000C901029691838083FF91EF91BF91AF91E5
:1032D0009F918F915F914F913F912F910F900FBED2
:1032E0000F901F9018958E7FD3CF8091C1008F7D56
:1032F00080648093C100E0919201F0919301E057C6
:10330000FF4F1082E1CF1F920F920FB60F92112440
:103310002F933F938F939F93EF93FF93E1ECF0E014
:103320008081877B80698083809192019091930155
:103330009C0129573F4FFC01E557FF4F3183208304
:1033400032963183208381579F4FFC011082FF9179
:10335000EF919F918F913F912F910F900FBE0F9002
:103360001F9018952F923F924F925F926F927F928B
:103370008F929F92AF92BF92CF92DF92EF92FF9285
:103380000F931F93CF93DF93D82FC92F8B010E94E8
:10339000DA2F24E630E040E050E00E944B3549014E
:1033A0009B01AC0160E876E988E990E00E941B355A
:1033B0006B017C01F80191828082ED2FFC2F21911D
:1033C000822F022E000C990BC0970A97C0F32E3261
:1033D00039F51F0180E8882E86E9982E88E9A82E05
:1033E000B12C9AE0492E512C612C712CF101C19124
:1033F0001F010C2E000CDD0BE097CA30D10580F4C4
:10340000C501B401A30192010E944B3549015A0143
:10341000DE010E949D35C60ED71EE81EF91EE6CFBE
:10342000A5E0B0E0A70196010E9492356F5F7F4F43
:103430008F4F9F4F23E030E040E050E00E944B353B
:10344000F80122833383448355831682DF91CF9121
:103450001F910F91FF90EF90DF90CF90BF90AF90B2
:103460009F908F907F906F905F904F903F902F90A4
:1034700008951F93CF93DF93EC0118811D3209F457
:103480002196CE010E94DA2F9B01AC01A4E6B0E0A8
:103490000E949235AB01BC01FE012991822F022EC0
:1034A000000C990BC0970A97B8F32E3231F5818141
:1034B000082E000C990BC0978A309105F0F4AAE011
:1034C000A89F9001A99F300D1124C901330FAA0BA9
:1034D000BB0B480F591F6A1F7B1F8281082E000CEF
:1034E000990BC0978A30910540F4092E000CAA0B65
:1034F000BB0B480F591F6A1F7B1F1D3239F4709593
:103500006095509541955F4F6F4F7F4FCB01BA014A
:10351000DF91CF911F910895CF92DF92EF92FF92AA
:10352000EEE8F3E01382128288EEC82E83E0D82EF4
:10353000E12CF12CC482D582E682F7828FE391E000
:1035400091838083EBE8F4E010821182128213826F
:10355000148286E98583128E148E138E168E158E34
:1035600010A2178E11A281E082A313A21092D4049C
:103570001092D304109215051092160586E78093D9
:10358000170582E380931805168244E050E06FEF40
:1035900070E08FEC94E00E94FB37EFEAF4E080E209
:1035A000DF011D928A95E9F7EEEDF3E010821182BA
:1035B0001382128214821582168217821086128656
:1035C000118613861486158616861786118A108A28
:1035D000128A138A148A158A168A108E178A118EF7
:1035E000128E138E148E158E12A213A214A215A27F
:1035F00016A217A210AA11AA12AA13AA14AA15AAEF
:1036000016AE17AE109222041092230410922404D6
:103610001092250410922A0410922B041092300468
:103620001092310410923204109233041092380434
:103630001092390410923E0410923F0410924004FC
:1036400010924104109246041092470410924C04C8
:1036500010924D0410924E0410924F041092540494
:103660001092550410925A0410925B0410925C045C
:1036700010925D04109262041092630482E08093C1
:1036800073041092740410927504109276041092D0
:1036900078041092770410927A04109279041092B0
:1036A0007B0410927C0410927D0410927E04109290
:1036B0007F04109280041092810410928204109270
:1036C0008304109284041092850410928604109250
:1036D0008704109288041092890410928A04109230
:1036E0006404E2EDF3E013821282C482D582E682A2
:1036F000F78281E591E09183808386E0E5E1F1E066
:10370000A6EBB3E001900D928A95E1F786E0EBE13C
:10371000F1E0A0EBB3E001900D928A95E1F7E4EAC5
:10372000F3E084E090E0928F818F14A613A615A693
:1037300010929A03FF90EF90DF90CF900895CF936F
:10374000DF93CDB7DEB7C456D1090FB6F894DEBF0C
:103750000FBECDBF789484B5826084BD84B581608E
:1037600084BD85B5826085BD85B5816085BD80914C
:103770006E00816080936E001092810080918100C4
:1037800082608093810080918100816080938100BC
:10379000809180008160809380008091B10084607E
:1037A0008093B1008091B00081608093B0008091DF
:1037B0007A00846080937A0080917A00826080939E
:1037C0007A0080917A008E7F80937A0080917A00CF
:1037D000806880937A001092C10080919A038111D1
:1037E00083C410923D0310923C0310926B0310921D
:1037F0008D030E941D0580E594E0909373028093F1
:10380000720281E594E0909375028093740287E7D9
:103810000E94DB020E945C05811170C410926B0350
:1038200010928D030E941D0587E70E94DB026EE166
:103830008EE893E00E944F070E945C058AE0809327
:10384000060388E08093070364E670E080E090E080
:103850000E941204E6EECE2EE2E0DE2E12EA87E7A8
:103860000E94DB02612F8EE893E00E944F070E94C6
:103870005C0587E70E94DB0262E087E70E9443065F
:1038800010923D0380933C03811101C0FFCF0E9441
:10389000F802B82E0E94F802082F0E945C05FB2C4B
:1038A000E12CC701802BD6018D939D936D011E5F86
:1038B0001E3AA9F61092DF021092DE0286E696E624
:1038C000A6E6BFE38093D6029093D702A093D802D6
:1038D000B093D902E2E3F0E02D96FFAFEEAF2D9763
:1038E00081E090E00E94AD0C811107C061E070E0C2
:1038F00080E090E00E941204F3CFE090F202F0909A
:10390000F3020091F4021091F5026796ECAEFDAE61
:103910000EAF1FAF67970E9470112B013C01809181
:10392000EE029091EF02B0E0A0E0BA2FA92F982FFD
:103930008827481A590A6A0A7B0A6091EC0270913A
:10394000ED0290E080E0A30192010E94FD35F22E8D
:10395000032F142FB52FF62FE72FD82EE92EA0E036
:103960000E948B365CF4AFE70E947636F22E032F6E
:10397000142FB52FF62FE72FD82EE92E2F2D302F0D
:10398000412F5B2F6F2F7E2F8D2D9E2D07E00E94E4
:10399000503619014A01B62FA72FF82FE92FA09012
:1039A000E802B090E902950140E050E060E070E08C
:1039B00080E090E000E10E94373659016A017B0106
:1039C0008C019101A4016B2F7A2F8F2F9E2F0E94C3
:1039D0006D3668962FAF689769963FAF69976A967C
:1039E0004FAF6A976B965FAF6B976C966FAF6C97A4
:1039F0006D967FAF6D976E968FAF6E976F969FAFF8
:103A00006F976091EA027091EB0290E080E0A30171
:103A100092010E94FD35F22E032F142FB52FF62FA1
:103A2000E72FD82EE92EA0E00E948B3684F4215097
:103A30003F4F4F4F5F4F6F4F7F4F8F4F9F4FF22E34
:103A4000032F142FB52FF62FE72FD82EE92E2F2D69
:103A5000302F412F5B2F6F2F7E2F8D2D9E2D08E055
:103A60000E94503619014A01B62FA72FF82FE92FCF
:103A7000A090E602B090E702D12CC12C9501A601DE
:103A800060E070E080E090E00FE00E94373659017E
:103A90006A017B018C019101A4016B2F7A2F8F2F7A
:103AA0009E2F0E946D36322E232EA0964FAFA097E8
:103AB000A1965FAFA197A2966FAFA297A3967FAF93
:103AC000A397A4968FAFA497A5969FAFA597609153
:103AD000F0027091F10290E080E0A30192010E9457
:103AE000FD35F22E032F142FB52FF62FE72FD82EEA
:103AF000E92EA0E00E948B3684F421503109404821
:103B00005F4F6F4F7F4F8F4F9F4FF22E032F142F1A
:103B1000B52FF62FE72FD82EE92E2F2D302F412F3E
:103B20005B2F6F2F7E2F8D2D9E2D07E10E9450362B
:103B300049015A019A0184010053184F2F4F3F4FFA
:103B400023960CAF1DAF2EAF3FAF239710920C03FF
:103B500010920D0310920E0310920F031092100397
:103B60001092110310921203109213031092140377
:103B70001092150310921603109217031092180357
:103B80001092190310921A0310921B03003D174064
:103B9000210531050CF0C5C0A5019401C501B40192
:103BA0000E941B359B01AC01A5E0B0E00E9492355C
:103BB0008B019C0135952795179507950BAB1CAB91
:103BC0002DAB3EAB2B013C01770C4408542C320149
:103BD00000930C0310930D0320930E0330930F03F7
:103BE000409210034092110340921203409213033B
:103BF0009B01AC0162E055954795379527956A95ED
:103C0000D1F72BAF3CAF4DAF5EAF20931403309391
:103C100015034093160350931703409218034092E4
:103C2000190340921A0340921B0323960CAD1DAD5D
:103C30002EAD3FAD239704321A4F2F4F3F4F0CF05C
:103C400070C0C501B4016455724F8F4F9F4F9B01E7
:103C5000AC010E941B3523966CAF7DAF8EAF9FAF3A
:103C60002397A7E0B0E09B01AC010E9492354B0185
:103C70005C01BB0C8808982C54019B01AC01682D99
:103C8000782D882D982DABA8BCA8CDA8DEA8E42C53
:103C9000F42C042D142D0E946D3620930C033093C8
:103CA0000D0340930E0350930F0360931003709322
:103CB00011038093120390931303ABE0B0E02396BB
:103CC0002CAD3DAD4EAD5FAD23970E9492354B01BB
:103CD0005C01B594A794979487946B017C01FF0CC9
:103CE000CC08DC2C76019401A5016C2D7C2D8C2D4B
:103CF0009C2DABACBCACCDACDEACE42CF42C0E9467
:103D00006D3620931403309315034093160350939C
:103D10001703609318037093190380931A03909309
:103D20001B03232D322DA0964FADA097A1965FAD1A
:103D3000A197A2966FADA297A3967FADA397A496E5
:103D40008FADA497A5969FADA597A0901403B090B2
:103D50001503C0901603D0901703E0901803F0905D
:103D6000190300911A0310911B030E948236679673
:103D7000ECACFDAC0EAD1FAD679757016801E12CAF
:103D8000F12C00E010E00E94A535F22E032F142F35
:103D9000B52FF62FE72FD82EE92EA0E00E948B3604
:103DA00084F421503109404E5F4F6F4F7F4F8F4F4A
:103DB0009F4FF22E032F142FB52FF62FE72FD82E5B
:103DC000E92E2F2D302F412F5B2F6F2F7E2F8D2D22
:103DD0009E2D05E10E94503639014A01B62FA72FCA
:103DE000F82FE92F68962FAD689769963FAD6997D0
:103DF0006A964FAD6A976B965FAD6B976C966FAD99
:103E00006C976D967FAD6D976E968FAD6E976F9632
:103E10009FAD6F97A0900C03B0900D03C0900E0360
:103E2000D0900F03E0901003F09011030091120363
:103E3000109113030E94823659016A017B018C01A3
:103E40009301A4016B2F7A2F8F2F9E2F0E94823611
:103E5000F22E032F142FB52FF62FE72FD82EE92E91
:103E6000A0E00E948B3684F4215030484F4F5F4FC2
:103E70006F4F7F4F8F4F9F4FF22E032F142FB52F71
:103E8000F62FE72FD82EE92E2F2D302F412F5B2F25
:103E90006F2F7E2F8D2D9E2D0FE00E945036B90181
:103EA000CA010E94C8316093FE027093FF028093A2
:103EB0000003909301032D960EAD1FAD2D97015079
:103EC00011092D961FAF0EAF2D97012B09F008CDCC
:103ED0000E9470116093F6027093F7028093F802CB
:103EE0009093F9021092E1021092E00286E696E6C3
:103EF000A6E6BFE38093E2029093E302A093E4027C
:103F0000B093E5020E9470114B015C018091EE02BA
:103F10009091EF02B0E0A0E0BA2FA92F982F882748
:103F2000881A990AAA0ABB0A6091F0027091F102FC
:103F300090E080E0A50194010E94FD35F22E032F50
:103F4000142FB52FF62FE72FD82EE92EA0E00E94D0
:103F50008B3684F42150310940485F4F6F4F7F4FBB
:103F60008F4F9F4FF22E032F142FB52FF62FE72FD1
:103F7000D82EE92E2F2D302F412F5B2F6F2F7E2F24
:103F80008D2D9E2D07E10E9450362BAB3CAB4DABE7
:103F90005EAB6FAB78AF89AF9AAFCBA8DCA8EDA8CA
:103FA000FEA810EDC10E17E0D11EE11CF11C10920D
:103FB00008031092090310920A0310920B0320EDDC
:103FC000C21627E0D206E104F104A4F4A50194018D
:103FD000C501B4010E941B352FEF3FEF4FEF5FE7A4
:103FE0000E946D35209308033093090340930A0320
:103FF00050930B038091080390910903A0910A0349
:10400000B0910B0397018601081B190B2A0B3B0B80
:10401000C901B8010E94C83120E030E048EC52E408
:104020000E941E310E94903160930203709303033B
:10403000809304039093050320E836EE45EC57E4A3
:104040006091FE027091FF02809100039091010344
:104050000E941E312BEA3CED42E45EE30E948C3369
:104060009B01AC0160E070E080E89FE30E94353086
:1040700020E03AE24DE257E40E941F336093DA02F7
:104080007093DB028093DC029093DD021092D002E9
:104090001092D2021092D3021092D4021092D50242
:1040A00081E08093D1028AE08093060388E08093C8
:1040B00007038FE892ECA5E7BFE38093E2029093B9
:1040C000E302A093E402B093E5028FE195E8ABE64A
:1040D000BFE38093D6029093D702A093D802B09307
:1040E000D90283E080939A0380919A03833009F484
:1040F000F2C108F0CEC1813008F0DDC181E090E06E
:104100000E9457098F3F11F08093050182E090E0F3
:104110000E9457098F3F31F091E0811101C090E07A
:104120009093060189E090E00E9457098F3F09F4BF
:1041300084C091E0811101C090E09093AA028AE0CE
:1041400090E00E94570991E0811101C090E09093A6
:10415000A8026FE070E08DE10E9467088934910544
:1041600011F40C94782F6FE070E08EE10E946708E4
:104170008934910511F00C94572F83E090E09093CF
:10418000BE038093BD038EE18093C0038093BF0381
:1041900088E090E09093C6038093C50389E090E0A7
:1041A0009093C4038093C3038AE090E09093CA0382
:1041B0008093C9038BE090E09093C8038093C7037A
:1041C0008CE090E09093CE038093CD038DE090E05F
:1041D0009093CC038093CB038091BD039091BE0359
:1041E0008330910509F011C260E081E20E94B807B6
:1041F00067E580E20E94B80764E684E20E94B8079F
:1042000060E285E20E94B80760E086E20E94B8079B
:1042100086E0E1E2F1E0A6EBB3E001900D928A9531
:10422000E1F786E0E7E2F1E0A0EBB3E001900D9268
:104230008A95E1F781E08093A9028CE090E00E94EA
:1042400057098F3FA1F0682F70E090E080E00E9456
:10425000C63120E030E048EC52E40E941E31609309
:104260009B0370939C0380939D0390939E038EE029
:1042700090E00E9457098F3F11F080939F038FE0D9
:1042800090E00E945709182F8F3FA9F180E190E03C
:104290000E945709C12ED12CF12CE12CFC2CEE24CC
:1042A000DD24CC2490E0B0E0A0E05C0199248824D7
:1042B0008C0C9D1CAE1CBF1C81E190E00E94570934
:1042C00090E0B0E0A0E0CC24D82EE92EFA2EC80C65
:1042D000D91CEA1CFB1C82E190E00E945709C80E21
:1042E000D11CE11CF11CC092A003D092A103E0926A
:1042F000A203F092A30310926F001092800081E855
:104300008093810081E493E090937F0280937E020A
:1043100089E19EE190937D0280937C0262E088E0D7
:104320000E94BC0361E089E00E94700361E089E0C3
:104330000E94BC0310927B0210927A0210927902C2
:1043400010927802109277021092760280E286BB79
:1043500080936F0080919A03811103C086E00E94D0
:10436000AA0980919A03833019F49BE490939004F6
:1043700090910501913011F0811106C08DE00E94ED
:10438000AA098EE00E94AA098091050181110CC042
:1043900081E00E94AA0982E00E94AA0983E00E94AB
:1043A000AA0987E00E94AA098091050181110DC028
:1043B00080919A03811109C084E00E94AA0985E0D6
:1043C0000E94AA098FE10E94AA098091AA02811184
:1043D00006C08CE10E94AA098DE10E94AA09809181
:1043E000A802811106C08EE10E94AA098FE10E94F5
:1043F000AA0986E78093170582E3809318058091C8
:10440000A504811189C1E5EDF4E080E2DF011D9290
:104410008A95E9F740E250E060E270E085EF94E0D1
:104420000E94FB3743E150E06FE571E081E994E0E1
:104430000E94123888E08093A5048091AA0490918C
:10444000AB04892B11F40E9459090091AA04109120
:10445000AB048FEF9FEF0A39B9E11B0748F425E061
:10446000209FC001219F900D1124009709F4EAC0FC
:104470000E94BA36FC014FEF5FEFBA0101501109FB
:1044800017FDE3C0408351836283738314823596A2
:10449000F5CF843009F032CE8DEC9CECACE4BFE378
:1044A00080939B0390939C03A0939D03B0939E03E2
:1044B00010929F0323CE8AE999E9A9E5BFE380938F
:1044C0009B0390939C03A0939D03B0939E0385E070
:1044D00080939F0313CE4DEC5CEC6CE47FE3409340
:1044E0009B0350939C0360939D0370939E03809362
:1044F0009F038DEC9BE8A1E0B0E08093A003909334
:10450000A103A093A203B093A303F8CD6FE070E0E2
:104510008EE10E946708CC9711F00C94722F21E075
:1045200030E082E090E00EC06FE070E08EE10E942B
:10453000670831E020E0CC9709F030E0832F922F1C
:1045400030E020E09093BE038093BD03813091055D
:1045500069F1029779F189E12130310509F088E1AB
:104560008093BF038EE18093C00383E090E090933B
:10457000C4038093C30384E090E09093C6038093C8
:10458000C50385E090E09093C8038093C70386E05D
:1045900090E09093CA038093C90387E090E09093E2
:1045A000CC038093CB0388E090E02AC088E12130DF
:1045B000310509F489E18093BF038EE18093C00344
:1045C00083E090E09093C4038093C30384E090E081
:1045D0009093C6038093C50387E090E09093C8034F
:1045E0008093C70388E090E09093CA038093C90347
:1045F00085E090E09093CC038093CB0386E090E03D
:104600009093CE038093CD03E7CD0297A9F468E0A1
:1046100083E20E949B0767E480E20E949B076CE0B4
:1046200080E00E947E0760E281E00E947E0760E0F9
:1046300082E00E947E07ECCD60E083E20E949B074F
:1046400067E2EACF81E090E013CF8093A8049093D3
:10465000A90481E990E00E94BA3621E9FC01119297
:104660002A95E9F721E331E0DC012D933C93909307
:10467000D4048093D3040E94BD0810928F0410923A
:10468000AE041092AC040E9444046B017C01B0EDB6
:10469000CB0EB7E0DB1EE11CF11C8091A6049091CB
:1046A000A704892B61F10E9444046C157D058E05D9
:1046B0009F0528F504E010E00E94940266E970E08E
:1046C00080E090E00E94120401501109A9F710E067
:1046D00000E08091AA049091AB0480179107ECF25E
:1046E000802F880F0E94840A0E94940266E970E07D
:1046F00080E090E00E9412040F5F1F4FEACF80918C
:10470000D3049091D404DC01ED91FC910480F581F7
:10471000E02D09958111F3CFFE01B296F8ABEFA71A
:104720008E010F5E1F4F1AAB09AB9E012F5F3F4FEB
:1047300019010E9444040091B7021091B80220911F
:10474000B9023091BA02601B710B820B930B653B6F
:1047500071058105910508F422C180919A0388238F
:1047600009F413C1833009F0D0C080919B0390916C
:104770009C03A0919D03B0919E038093E2029093CD
:10478000E302A093E402B093E5026091020370910A
:10479000030380910403909105030E94C83120E037
:1047A00030E048EC52E40E941E3160930B0170939C
:1047B0000C0180930D0190930E016091FE027091A7
:1047C000FF0280910003909101030E949031609359
:1047D0000701709308018093090190930A010E94D8
:1047E000C8316B017C018091050181112EC060915F
:1047F000A0037091A1038091A2039091A3030E9452
:10480000C8319B01AC01C701B6010E941E312BEAE1
:104810003CED42E45EE30E948C339B01AC0160E01E
:1048200070E080E89FE30E94353020E03AE24DE2FC
:1048300057E40E941F330E9490316093B30270933B
:10484000B4028093B5029093B60220E836EE45ECB0
:1048500057E4C701B6010E941E312BEA3CED42E449
:104860005EE30E948C339B01AC0160E070E080E865
:104870009FE30E94353020E03AE24DE257E40E9487
:104880001F332091DA023091DB024091DC0250911B
:10489000DD020E94353020E030E040E251E40E9429
:1048A0001F330E9490316093AF027093B0028093E7
:1048B000B1029093B2022091E0023091E1027901BD
:1048C000330F000B110B2796ECAEFDAE0EAF1FAFF2
:1048D0002797643171058105910559F06D32710595
:1048E0008105910531F0663471058105910509F066
:1048F00044C201E010E020E030E00093AB021093EE
:10490000AC022093AD023093AE020E944404809129
:104910009F03482F50E070E060E02796ECACFDACC0
:104920000EAD1FAD27974E155F05600771070CF0A0
:104930002DC2E41AF50A060B170BB801A70125E0F2
:1049400086E00E9469024091070150910801609140
:10495000090170910A012FE08DE00E94690220E0B8
:1049600030E040E251E460910B0170910C018091C4
:104970000D0190910E010E941F330E949031AB01F6
:10498000BC012FE08EE00E9469020E944404609303
:10499000B7027093B8028093B9029093BA028091E3
:1049A000AA02882309F4FAC08091A902882309F495
:1049B000F5C08091BF030E94DB0268EA8EE893E0B5
:1049C0000E944F070E945C058093BC0366E08091C3
:1049D000BF030E944306F82E10923D0380933C03D0
:1049E0000E9444048B018091CF039091D00325E075
:1049F0002F1508F4E9C10097D1F30E944404601B0D
:104A0000710B8091CF039091D0038617970758F7C9
:104A100081E08093D1038091C0030E94DB028091EA
:104A2000BD039091BE036091C3037091C4030397CB
:104A300029F46091C5037091C60360688EE893E025
:104A40000E944F070E945C058093BC0366E0809142
:104A5000C0030E944306F82E10923D0380933C034E
:104A60000E9444048B018091CF039091D00335E0E4
:104A70003F1508F4E8C10097D1F30E944404601B7D
:104A8000710B8091CF039091D0038617970758F749
:104A900081E08093D1038091BD039091BE03039781
:104AA00009F020C241E04BA31CA21EA21DA218A621
:104AB0001FA250E060E07EA180E098A50E947812DD
:104AC0004B015C0120E030E040E85FEB60910101C8
:104AD0007091020180910301909104010E941431B0
:104AE000811108C08092010190920201A0920301FD
:104AF000B092040120910101309102014091030123
:104B000050910401C501B4010E9435306B017C0154
:104B100020E030E0A9010E94143187FF0AC020E0A4
:104B200030E044EB53E4C701B6010E9436306B011C
:104B30007C0120E030E040E251E4C501B4010E9474
:104B40001F330E949031AB01BC0125E08CE10E9433
:104B50006902C701B6010E949031AB01BC0125E09A
:104B60008DE10E9469028091A8028823B9F0C701F3
:104B7000B6010E949031CB016AE570E00E943735A2
:104B800041E050E060E070E0181619061CF440E0C7
:104B900050E0BA0121E08EE10E9469028091050196
:104BA000882309F47AC482ED93E00E948F04892B54
:104BB00009F482C382ED93E00E94B204182F809121
:104BC0007B0490917C04A0917D04B0917E040196B9
:104BD000A11DB11D80937B0490937C04A0937D0460
:104BE000B0937E04143209F445C3E0917504153284
:104BF0000CF085C11A3019F01D3009F049C3EF30AF
:104C000008F0FCC1F0E0EC59FB4F10820091630406
:104C1000002309F4F5C120916404822F022E000CB8
:104C2000990B3FEB320F363008F075C1C79782956C
:104C3000807F90916504292F092E000C330B4FEBD8
:104C4000490F463008F06FC127533109820F909108
:104C500062048913C0C18091870490918804A09157
:104C60008904B0918A040196A11DB11D8093870427
:104C700090938804A0938904B0938A048091760469
:104C8000882399F080917F0490918004A091810401
:104C9000B09182040196A11DB11D80937F04909371
:104CA0008004A0938104B0938204F0907304FF20E9
:104CB00009F442C141E0F41234C080E094E00E9463
:104CC000DF048EE094E00E94DF0480917604882364
:104CD00041F187E0EEEEF3E0A0EEB3E001900D923B
:104CE0008A95E1F787E0E5EFF3E0A7EEB3E0019006
:104CF0000D928A95E1F70E9444046093FC0370933F
:104D0000FD038093FE039093FF03F092DF03F09284
:104D1000DE038CE194E00E94C8048AE294E00E94E1
:104D2000C804E0907904F0907A04DD24D394E1146F
:104D3000F10411F40C94882FE0917904F0917A0435
:104D400066A177A1D70196968D919C910E94023819
:104D5000892B11F00C94882FB701C70140960E944F
:104D60000B380E944404F70160A371A382A393A3AC
:104D7000D5A2D4A2E2A4F3A4DACF1092AB0210928F
:104D8000AC021092AD021092AE02BFCD90E09195B0
:104D900081959109092E000CAA0BBB0B27960CAD2F
:104DA0001DAD2EAD3FAD279740E050E0BA0108178A
:104DB00019072A073B070CF0C2CDB901A801481B0F
:104DC000590B6A0B7B0BBBCD0E94F802E82E0E94A8
:104DD000F802D82E0E94F802082F0E94F802F82E3E
:104DE0000E94F802182F0E94F8022F96DFAE2F972C
:104DF0002E961FAE2E972F962EAD3FAD2F972E29B4
:104E00003093A5032093A4036196FFAE619760964B
:104E10001FAE609761962EAD3FAD6197202B30930A
:104E2000A7032093A60363968FAF639762961FAE86
:104E3000629763968EAD9FAD6397812B9093A90384
:104E40008093A803E8CD8091BD039091BE030397A2
:104E500019F50E94F802C82E0E94F802082F0E943D
:104E6000F802D82E0E94F802182F0E94F802E82EAD
:104E70000E94F802F82E902F8C2D9093AB03809314
:104E8000AA03912F8D2D9093AD038093AC03F092E4
:104E9000AF03E092AE03FFCD0E94F802082F0E94FC
:104EA000F802C82E8091BD039091BE03892B69F44E
:104EB0000E94F802182F0E94F802D82E0E94F802D1
:104EC000F82E0E94F802E82ED6CF0E94F802F82EA3
:104ED0000E94F802E82E0E94F802182F0E94F802A1
:104EE000D82EC9CF1AA619A66FEF6BA76CA71EA65E
:104EF0001DA640E05AA57FEF80E09EA5DFCD1A32C7
:104F000009F47DCE1C3209F0C3C18091620481276F
:104F10008093620474CE2156263018F48755910987
:104F200086CEC09784CE9156963018F42755310915
:104F30008DCE205331098ACE8EE094E00E94DF04AA
:104F400080917604882329F187E0EEEEF3E0A0EE6D
:104F5000B3E001900D928A95E1F787E0E5EFF3E089
:104F6000A7EEB3E001900D928A95E1F70E94440408
:104F70006093FC037093FD038093FE039093FF0303
:104F800081E08093DF038093DE0388E394E00E9456
:104F9000C8048091500490915104A0915204B091A2
:104FA000530480934C0490934D04A0934E04B0930B
:104FB0004F040E9444046093480470934904809312
:104FC0004A0490934B0481E0809347048093460405
:104FD00084E594E0A4CE8091830490918404A09110
:104FE0008504B09186040196A11DB11D80938304B0
:104FF00090938404A0938504B093860400E088C74E
:1050000090917404911145C068E671E084E694E0E3
:105010000E940238892B41F06EE671E084E694E04C
:105020000E940238892B21F481E08093730412C01E
:1050300064E771E084E694E00E940238892B41F035
:105040006AE771E084E694E00E940238892BF9F463
:1050500010927304809177049091780490937A046D
:1050600080937904E0907904F0907A04E114F104DB
:1050700029F264E674E0D70196968D919C910E9486
:10508000023897FF3EC7F70182A593A5E7CF82E0DC
:10509000CCCFE0917304E23009F448C080916404FD
:1050A000882309F443C000E2E09FF0011124E92BBA
:1050B0003197E932F10508F039C0EF59F74D0C94FA
:1050C0008C358A28CD28D428DB28DE280C29132902
:1050D00020292D29962896289628962896289628BD
:1050E00096289628962896289628962896289628D0
:1050F00096289628962896289628962896289628C0
:1051000096288A28C728CD28D428DB28DE28E52839
:10511000F228FF2884E694E00E94391A6093140470
:10512000709315048093160490931704E09079040B
:10513000F0907A0400917404E114F10409F45ECF54
:10514000E0917904F0917A0466A177A1D70196964F
:105150008D919C910E940238892B09F04FCFF70165
:1051600020A531A5802F90E0821793070CF446CF3D
:105170002817390739F440E150E064E674E0C701CC
:105180000E941238D7019A96ED90FC90D3CF91E00F
:10519000813409F445C090E043C06EEE73E084E6CC
:1051A00094E00E94B219C2CF91E0833509F090E0FB
:1051B0009093F403BBCF65EF73E0F1CF91E08735B7
:1051C00009F090E09093FB03B1CF84E694E00E9455
:1051D000391A6093260470932704809328049093CF
:1051E0002904A4CF84E694E00E94391A6093340421
:1051F00070933504809336049093370497CF84E6F8
:1052000094E00E94DA2F6093060470930704809361
:105210000804909309048ACF91E081330CF4BBCF4A
:105220009093760483CF84E694E00E94DA2F609313
:10523000500470935104809352049093530476CF9A
:1052400084E694E00E94391A60935E0470935F04D0
:10525000809360049093610469CF84E694E00E9497
:10526000391A6093420470934304809344049093EA
:1052700045045CCF1092750410927404109262047D
:1052800082E08093730410926304109276044FC6F8
:10529000EE3040F481E08E0F80937504F0E0EC591D
:1052A000FB4F108380916304811141C68091620499
:1052B0001827109362043BC68091DE03882309F40B
:1052C000FEC10E9444040091FC031091FD03209153
:1052D000FE033091FF03601B710B820B930B603D4B
:1052E00077408105910508F0EAC10E9441039B01C6
:1052F000AC0160E081E00E9486110E9412039B01D4
:10530000AC0161E082E00E94861110923904609144
:105310003E0470913F0480914004909141040E94AA
:10532000C83120E030E048EC52E40E941E310E9477
:1053300090316BAB7CAB8DAB9EAB6093B302709343
:10534000B4028093B5029093B60210921D0460914E
:1053500022047091230480912404909125040E94DA
:10536000C8316B017C0121EA32EB43E05FE30E942C
:105370001F3320E030E048EC52E40E941E3120E070
:1053800030E040EF51E40E94DE321AE018160CF4CF
:1053900013E026E53EE04DEE5FE3C701B6010E9453
:1053A0001F3320E030E048EC52E40E941E310E949E
:1053B0009031AB01BC01212F83E00E9469028091F2
:1053C000A6029091A70210919A03883BEBE09E07FA
:1053D0000CF09EC101969093A7028093A6020E94B2
:1053E00041036B017C01C092A202D092A302E09221
:1053F000A402F092A5020E94120360939E02709391
:105400009F028093A0029093A102C0929A02D09230
:105410009B02E0929C02F0929D0260939602709330
:1054200097028093980290939902109239046091A8
:105430003E0470913F0480914004909141040E9489
:10544000C83120E030E048EC52E40E941E310E9456
:1054500090316093920270939302809394029093A0
:10546000950210928E0210928F021092900210926A
:105470009102111108C060938A0270938B0280938D
:105480008C0290938D022FE02B964CAD5DAD6EADEE
:105490007FAD2B9787E00E9469024091AF02509147
:1054A000B0026091B1027091B20225E084E00E94E6
:1054B00069024091B3025091B4026091B5027091BB
:1054C000B6022FE085E00E9469024091AB02509144
:1054D000AC026091AD027091AE0221E08FE10E94BA
:1054E000690280919A03833009F04FC090E080E018
:1054F0000E94AD0C0E944404AB01BC018091860265
:1055000090918702A0918802B09189020A96A11D0C
:10551000B11D84179507A607B707B8F50091E002FB
:105520001091E10210921D046091220470912304F5
:1055300080912404909125040E94C83121EA32EB25
:1055400043E05FE30E941F3320E030E048EC52E488
:105550000E941E3120E030E040EF51E40E94DE3234
:1055600021E018160CF425E0A801110F660B770B4B
:1055700086E00E9469020E94440460938602709350
:10558000870280938802909389028091D30490913E
:10559000D404DC01ED91FC910480F581E02D0995A6
:1055A000082F811104C0809100018823B9F10E9465
:1055B0004404C0908202D0908302E0908402F09074
:1055C00085026C157D058E059F0540F10E944404FF
:1055D00068537F4F8F4F9F4F609382027093830277
:1055E000809384029093850211E0D12CC12C52E16A
:1055F000752E003E09F0AEC180918002909181022B
:105600008B3091053CF40196909381028093800247
:1056100010930001809100018111AEC1809190042E
:10562000C0908B04D0908C04E0908D04F0908E0498
:10563000C80ED11CE11CF11C0E9444046C157D05B0
:105640008E059F0508F473C40E94440460938B0484
:1056500070938C0480938D0490938E0400911605B2
:10566000002309F4C6C38091D3049091D404DC01D3
:10567000ED91FC910280F381E02D40E06EE7099509
:105680008091D3049091D404DC01ED91FC910280CF
:10569000F381E02D41E061E909958091D304909177
:1056A000D404DC01ED91FC910280F381E02D41E016
:1056B00061E30995109216050E94940238C420E017
:1056C00030E0A90160E081E00E94861120E030E036
:1056D000A90161E082E00E94861180919A038823EB
:1056E00009F427C11092B3021092B4021092B502CD
:1056F0001092B6022AE040E050E0BA0183E00E9436
:1057000069022B961CAE1DAE1EAE1FAE2B97BBCEF4
:1057100011111CC080918A0290918B02A0918C0281
:10572000B0918D022BA93CA94DA95EA9281B390B6C
:105730004A0B5B0BAAE0B0E00E9492356093AF0287
:105740007093B0028093B1029093B202A0909E0237
:10575000B0909F02C090A002D090A102E090A2025F
:10576000F090A3020091A4021091A502EBAEFCAE52
:105770000DAF1EAF0E9412032B013C010E9441039A
:10578000EBACFCAC0DAD1EADA30192010E94DB148D
:105790000E9497312B966CAF7DAF8EAF9FAF2B974A
:1057A000909006016091AF027091B0028091B102B9
:1057B0009091B2029920A1F12AE030E040E050E05F
:1057C0000E946D35CA01B9010E94C8316B017C018C
:1057D0002B966CAD7DAD8EAD9FAD2B970E94C631E3
:1057E0002B013C01A7019601C701B6010E941F339E
:1057F0006B017C01A3019201C301B2010E941F331E
:105800009B01AC01C701B6010E9436300E94EA3309
:105810000E9497312B966CAF7DAF8EAF9FAF2B97C9
:10582000A0909602B0909702C0909802D0909902F2
:10583000E0909A02F0909B0200919C0210919D02D0
:10584000EBAEFCAE0DAF1EAF0E9412032B013C016C
:105850000E944103EBACFCAC0DAD1EADA301920167
:105860000E94DB142B013C019920B1F1809192023E
:1058700090919302A0919402B09195020BA91CA95A
:105880002DA93EA9081B190B2A0B3B0BC901B80116
:105890000E94C8319B01AC010E941F334B015C0187
:1058A000A3019201C301B2010E941F339B01AC010D
:1058B000C501B4010E9436300E94EA332B013C013D
:1058C0002BA93CA94DA95EA9209392023093930283
:1058D000409394025093950260918E0270918F02D2
:1058E00080919002909191020E94C631A301920191
:1058F0000E9436300E94973160938E0270938F021F
:1059000080939002909391020E94410360939A02C7
:1059100070939B0280939C0290939D020E941203BD
:1059200060939602709397028093980290939902E5
:10593000AACD1092AF021092B0021092B102109252
:10594000B2021092AB021092AC021092AD02109211
:10595000AE02C8CE003709F038C080918002909125
:105960008102181619060CF055CE0197909381020A
:1059700080938002109300011A8A1982809180021C
:1059800090918102789EB001799E700D112462552C
:105990007E4F40E150E0CE0142960E940130E091FE
:1059A0008002F0918102EA30F10508F0ADC1E552C4
:1059B000F34D0C948C35352E842E3D2E482E562ECC
:1059C000B92E5F2EAD2EDE2EE72E003D09F0B9C2B6
:1059D00080918002909181028530910509F44BC03D
:1059E00064F4029709F014CE80910501882309F42C
:1059F0000FCE8150809305010BCE8630910561F06A
:105A0000079709F005CE80919F03843608F000CEF9
:105A10008F5F80939F03FCCD80909B0390909C03AD
:105A2000A0909D03B0909E0320E030E040E85FE34B
:105A3000C501B4010E94143187FFEACD20E030E0B7
:105A400048EC52E4C501B4010E941F3320E030E06D
:105A500040E85FE30E94363020E030E048EC52E45A
:105A60000E941E3160939B0370939C0380939D035F
:105A700090939E03CDCD8091A0039091A103A0911E
:105A8000A203B091A3038D3EE9ED9E07E1E0AE07CE
:105A9000B1050CF0BDCD8C599F4FAF4FBF4F8093D8
:105AA000A0039093A103A093A203B093A303B0CD4E
:105AB0000E943409F601099580910501823008F0B1
:105AC000A7CD8F5F97CF8091060181278093060134
:105AD0009FCD80909B0390909C03A0909D03B090DD
