:100000000C94E9020C9411030C9411030C94110349
:100010000C9411030C9411030C9411030C94110310
:100020000C9411030C9411030C9411030C94110300
:100030000C9411030C9411030C9411030C941103F0
:100040000C948E160C9411030C94F7170C942E1824
:100050000C9484180C9411030C9411030C94110348
:100060000C94D8160C941103084AD73B3BCE016E72
:1000700084BCBFFDC12F3D6C74319ABD56833DDAFF
:100080003D00C77F11BED9E4BB4C3E916BAAAABE0E
:10009000000000803F07634236B79BD8A71A396833
:1000A0005618AEBAAB558C1D3CB7CC5763BD6DED41
:1000B000FD753EF6177231BF000000803F0800005A
:1000C00000BE922449123EABAAAA2ABECDCCCC4C8B
:1000D0003E00000080BEABAAAAAA3E00000000BFFE
:1000E000000000803F0000000000084178D3BB43BF
:1000F00087D1133D190E3CC3BD4282AD2B3E68EC47
:100100008276BED98FE1A93E4C80EFFFBE01C4FFCD
:100110007F3F0000000000002044697361626C654D
:10012000640020456E61626C656400002053746158
:100130007274757000204175746F00000000204DCE
:10014000616E75616C00002044697361626C656466
:1001500000000000000000204174746F50696C6F53
:1001600074203435000000204174746F50696C6F46
:1001700074203930000000204174746F50696C6F36
:10018000742031383000002041504D322E35203956
:1001900030412F35305600204143533731322D3016
:1001A00035000000000000204143533731322D322A
:1001B00030000000000000204143533731322D331E
:1001C00030000000000000204143533735382D3502
:1001D00030420000000000204143533735382D31B4
:1001E00030304200000000204143533735382D3174
:1001F00035304200000000204143533735382D325E
:1002000030304200000000204143533735382D354F
:1002100030550000000000204143533735382D3160
:1002200030305500000000204143533735382D3120
:1002300035305500000000204143533735382D320A
:100240003030550000000020756E6B6E6F776E00C9
:1002500020424D50323830000020424D4532383077
:100260000000204D53353631310000204C505300F2
:100270000000000056657273696F6E2056322E348E
:100280000000000000566172696F475053205365AB
:100290006E736F720000005265736574206F66663E
:1002A000736574000000000000507265737375720E
:1002B000652073656E736F723A00005365614C651B
:1002C00076656C2050726573732E3A000056617229
:1002D000696F20736D6F6F7468696E673A000056BE
:1002E0006172696F20646561647A6F6E653A0000BF
:1002F000004D61696E2064726976653A0000000005
:1003000000000043617061636974792072657365F0
:10031000743A00000052783120766F6C7461676522
:100320003A00000000000052783220766F6C746151
:1003300067653A000000000000436F6D70617373E1
:100340003A00000000000000000000547261696E75
:10035000696E67204D6F64653A0000000053617656
:100360006520616E64207265737461727400004C64
:100370006F61642064656661756C747300000000D1
:100380000000000008000201000003040700000054
:10039000000000000000000000250028002B0000E5
:1003A000000000240027002A0004040404040404BC
:1003B0000402020202020203030303030301020414
:1003C00008102040800102040810200102040810D7
:1003D000200452656C2E20416C746974000000008A
:1003E0000000000000006D00000000000004010596
:1003F0004162732E20416C7469740000000000009B
:10040000000000006D0000000000000400065661BE
:1004100072696F6D65746572000000000000000075
:1004200000006D2F730000000004020D416972206E
:1004300070726573732E0000000000000000000061
:100440006850610000000004020E54656D702E00BB
:100450000000000000000000000000000000B043A9
:10046000000000000001010F48756D69646974792E
:10047000000000000000000000000000257248009D
:10048000000000010110566F6C7461676500000088
:100490000000000000000000000056000000000006
:1004A0000001011143757272656E74000000000056
:1004B00000000000000000004100000000000001FA
:1004C00001124361706163697479000000000000EB
:1004D0000000000000006D416800000000040013EF
:1004E000506F7765720000000000000000000000FF
:1004F00000000000570000000000000400145278C3
:100500003120566F6C7461676500000000000000C8
:100510000000560000000000000102155278322051
:10052000566F6C74616765000000000000000000F9
:100530005600000000000001021C436F6D706173E3
:100540007300000000000000000000000000B00088
:10055000000000000001011D52656C2E20436F6DEC
:10056000706173730000000000000000B000000024
:1005700000000001001E547261696E696E672043BD
:100580006F6D702E000000000000200000000000D1
:100590000001001F547261696E696E6720416C74BE
:1005A000697400000000000020000000000000014D
:1005B000000000000000000000000000000000003B
:1005C000000000000000000000000000000000002B
:1005D000B31811241FBECFEFD8E0DEBFCDBF11E0AE
:1005E000A0E0B1E0E4E2F2E702C005900D92A43988
:1005F000B107D9F724E0A4E9B1E001C01D92A3340A
:10060000B207E1F712E0C9EED2E004C02197FE0183
:100610000E940433C83ED107C9F70E942D190C94DB
:1006200010390C94000091E09093BB028093DD029E
:100630001092BC021092DE02089590918E02809179
:100640008D022FEF3FEF981748F4E92FF0E0E359C0
:10065000FD4F208130E09F5F90938E02C901089585
:1006600090918E0280918D022FEF3FEF981748F402
:10067000E92FF0E0E359FD4F208130E09F5F909338
:100680008E02C9010895089508952091750330914F
:1006900076032115310581F0E82FF0E0E25AFC4F96
:1006A000858DE4E08E9FC0011124280F391FF901C8
:1006B0004083518362837383089580918D0290916A
:1006C0008E02891B990B0895862720E1829FB00135
:1006D00011248627482F50E0292F382FCA0164E0C3
:1006E000959587956A95E1F728273927CA0173E020
:1006F000880F991F7A95E1F7822793270895CF9362
:10070000DF9390E0FC01E354FC4F249187559C4F0C
:10071000FC0184918823C1F090E0880F991FFC01AF
:10072000E156FC4FC591D491FC01EB56FC4FA591CD
:10073000B4919FB7F8943881822F80958323888362
:10074000EC91E22BEC939FBFDF91CF91089590E065
:10075000FC01EF57FC4F2491FC01E354FC4F349112
:10076000FC01E755FC4FE491EE23C9F0222339F058
:10077000233001F1A8F4213019F1223029F1F0E001
:10078000EE0FFF1FEB56FC4FA591B4918FB7F89475
:10079000EC91611126C030953E233C938FBF0895A4
:1007A0002730A9F02830C9F0243049F78091800023
:1007B0008F7D03C0809180008F7780938000DFCF92
:1007C00084B58F7784BDDBCF84B58F7DFBCF8091DF
:1007D000B0008F778093B000D2CF8091B0008F7D32
:1007E000F9CF3E2BDACF8E50806480937C008091CD
:1007F0007A00806480937A0080917A0086FDFCCF35
:10080000809178009091790008953FB7F894809195
:100810000D0290910E02A0910F02B091100226B528
:10082000A89B05C02F3F19F00196A11DB11D3FBF28
:10083000BA2FA92F982F8827BC01CD01620F711DF7
:10084000811D911D43E0660F771F881F991F4A95F0
:10085000D1F708958F929F92AF92BF92CF92DF927D
:10086000EF92FF924B015C010E9405046B017C0139
:100870000E9405046C197D098E099F09683E73402A
:1008800081059105A8F321E0821A9108A108B10819
:1008900088EEC80E83E0D81EE11CF11C811491047F
:1008A000A104B10429F7FF90EF90DF90CF90BF90A3
:1008B000AF909F908F9008952FB7F89460910902A0
:1008C00070910A0280910B0290910C022FBF089543
:1008D0002091B701260F3327331F21323105ECF465
:1008E0002091B502FC0190E080E0243069F082E0C4
:1008F0000895A091B7012191AC0149565E4FA40F14
:10090000B52FB11D2C930196861798F38091B701EE
:10091000680F6093B70180E0089581E00895109218
:10092000B50281E08093B40210928F0261E082E10F
:100930000E94A70361E083E10E94A703E9EBF0E0D6
:1009400080818E7F808380818D7F808380E2809311
:10095000B80085E48093BC00089510928E02109236
:100960008D021092BC021092DE020E948F0483E47A
:1009700093E090936C0280936B0284E493E09093F5
:100980006A02809369020895CF93DF9391E0909378
:1009900096018823B9F0C091B800D091BA00809137
:1009A000BC008A7B8093BC0060E082E10E94A703C8
:1009B00060E083E10E94A7030E948F04D093BA00F5
:1009C000C093B800DF91CF910895CF92DF92EF925C
:1009D000FF920F931F93CF93DF93D091DE0281E0BC
:1009E000D13208F09CC0C091DD020E9405046B0169
:1009F0007C018091B50281116CC082E08093B502C8
:100A000081E08093B4028FEF8093B3021092B20220
:100A1000D093B102ADEBB2E0E1E9F2E080E0D813AF
:100A20008DC01092900280919002CC0FC82BC09381
:100A3000900280918F02813009F084C010928F0261
:100A40000E9405046B017C01809190028093BB00A1
:100A50008091B7029091B802A091B902B091BA0208
:100A6000892B8A2B8B2BA1F00E9405040091B702E1
:100A70001091B8022091B9023091BA026C197D0927
:100A80008E099F09061717072807390708F442C07F
:100A90008091BC0083FDD8CF85EC8093BC000E9480
:100AA00005046B017C018091B502823009F44CC0D1
:100AB0008091B3028F3F09F469C08091B302803204
:100AC00009F466C08091B302803309F463C084E006
:100AD00026C08091B7029091B802A091B902B0915E
:100AE000BA02892B8A2B8B2B09F483CF0E94050431
:100AF0000091B7021091B8022091B9023091BA0268
:100B00006C197D098E099F090617170728073907F1
:100B100008F06FCF8091B6020E94C40485E0109265
:100B2000BC021092DE021092BB02DF91CF911F91A6
:100B30000F91FF90EF90DF90CF9008959D9191934A
:100B40008F5F6DCF85EEA9CF8091B7029091B802EB
:100B5000A091B902B091BA02892B8A2B8B2B09F490
:100B6000A2CF0E9405040091B7021091B802209113
:100B7000B9023091BA026C197D098E099F090617D6
:100B800017072807390708F08ECFC4CF80E0C7CFFA
:100B900082E0C5CF83E0C3CFCF92DF92EF92FF9286
:100BA0000F931F93CF93DF93D82FC62F613208F096
:100BB00098C00E9405046B017C018091B5028111EF
:100BC0006BC081E08093B5028093B4029FEF909355
:100BD000B3021092B2029C0F9093B10280939002E4
:100BE00080919002DD0FD82BD093900280918F02DC
:100BF000813009F078C010928F020E9405046B01C9
:100C00007C01809190028093BB008091B70290910B
:100C1000B802A091B902B091BA02892B8A2B8B2B12
:100C2000A1F00E9405040091B7021091B802209132
:100C3000B9023091BA026C197D098E099F09061715
:100C400017072807390708F448C08091BC0083FDC6
:100C5000D8CF85EC8093BC000E9405046B017C0119
:100C60008091B502813009F440C08091B2028C17A6
:100C700010F4C091B202E1E9F2E0ADE6B2E080E04A
:100C80008C1355C08C2FDF91CF911F910F91FF9046
:100C9000EF90DF90CF9008958091B7029091B802C5
:100CA000A091B902B091BA02892B8A2B8B2B09F43F
:100CB00084CF0E9405040091B7021091B8022091E0
:100CC000B9023091BA026C197D098E099F09061785
:100CD00017072807390708F070CF8091B6020E94E5
:100CE000C404C0E0CFCF85EEB5CF8091B70290911C
:100CF000B802A091B902B091BA02892B8A2B8B2B32
:100D000009F4AECF0E9405040091B7021091B80219
:100D10002091B9023091BA026C197D098E099F09A0
:100D2000061717072807390708F09ACFD6CF9191F1
:100D30009D938F5FA5CF0895E0918E0280918D02E3
:100D4000E81730F4F0E0E359FD4F808190E008951A
:100D50008FEF9FEF0895CF92DF92EF92FF920F9364
:100D60001F93CF93DF937C01CB018A012091BB02BB
:100D7000222389F0EB016B01C40ED51ECC15DD05D5
:100D800069F06991D701ED91FC910190F081E02D1E
:100D9000C7010995F3CF642F0E946804C801DF9151
:100DA000CF911F910F91FF90EF90DF90CF9008951A
:100DB000CF93DF931F92CDB7DEB769832091BB023B
:100DC0002223F9F02091DE02203258F021E030E0B9
:100DD000FC013383228390E080E00F90DF91CF917C
:100DE00008958091BC02E82FF0E0E354FD4F998113
:100DF00090838F5F8093BC028093DE0281E090E05D
:100E0000ECCF61E0CE0101960E946804F7CFCF934A
:100E1000DF93D82FC62F809130030E9413036D2FCC
:100E20008FED92E00E94D8066C2F8FED92E00E9429
:100E3000D806DF91CF910C94E5040F931F93CF93C5
:100E4000DF93082F162FC5EFD2E08C8D0E9413037D
:100E5000602F8FED92E00E94D806612F8FED92E017
:100E60000E94D8060E94E504888FDF91CF911F91E0
:100E70000F9108950F931F93CF93DF93082F162F91
:100E8000C5EFD2E08B8D0E941303602F8FED92E0AF
:100E90000E94D806612F8FED92E00E94D8060E9432
:100EA000E504888FDF91CF911F910F9108952091D4
:100EB0000E0330910F032330310511F40C941D07FC
:100EC0000C943A07682F8FED92E00C94D806CF93DC
:100ED000C82F809125030E94130380E290E00E94B6
:100EE00062076C2F8FED92E00E94D806CF910C9490
:100EF000E50490E080E00895CF92DF92EF92FF92B8
:100F00000F931F93CF93DF939C01EA01F89450E075
:100F10006C0186E4C80ED11CF901EE5BFF4F89011C
:100F20000E5F1F4F852F90E08C179D07D8F4D601D8
:100F30004C914034C0F4E080F180860F971FDC01B3
:100F40008C91D7018C93D6018C918F5F8C9380818B
:100F5000918101968E179F0708F0C80191838083C5
:100F60005F5FE0CFCE01F901E457FF4F20812111EF
:100F700008C021E020832091C1002F7628622093B1
:100F8000C1007894DF91CF911F910F91FF90EF9066
:100F9000DF90CF900895FC01E557FF4F208140E09E
:100FA0002223F9F0F894A0919401B0919501A757EC
:100FB000BF4F0D90BC91A02D4C91208121502083DA
:100FC0003297208131812F5F3F4FBC0169577F4F9E
:100FD0002617370718F09C01295B3F4F3183208388
:100FE0007894842F90E00895CF93DF93EC011092D2
:100FF000C00080E98093C10086E08093C200109217
:10100000C50083E08093C40080E00E947F0381E0FC
:101010000E947F03CE010296FE01EE5BFF4F91839B
:101020008083329691838083329610828B5B9F4FB0
:10103000EF5BFF4F9183808332969183808332965A
:10104000108231961082D0939501C0939401DF9164
:10105000CF91089585579F4FFC01208181E090E05A
:10106000211102C090E080E008958091F701853061
:1010700010F4815008958550833010F085E0089574
:1010800084E00895CF93C82F862F0E94F303BC01FC
:10109000990F880B990B0E947B2F20E030E040E8ED
:1010A0005AE30E94AD3020E030E44CE955E40E9460
:1010B000AD3024E0C29FF0011124E45DFE4F208199
:1010C0003181428153810E94AD300E943D2FCF91EA
:1010D00008951F93CF93DF9387E70E94130360E087
:1010E0008FED92E00E94D8060E94E50487E70E94F7
:1010F000130363E087E70E94CC0510928E02809371
:101100008D02811101C0FFCF0E943003182F0E9471
:101110003003C82F0E943003D82F0E94E5046C2FA3
:1011200070E090E080E0982F872F762F6627812B44
:101130006D2BDF91CF911F9108950E94CC051092E5
:101140008E0280938D0208951F93CF93DF93182F03
:10115000C0E3D3E088810E941303612F8FED92E0FA
:101160000E94D8060E94E50461E088810E949D08E3
:101170000E943003DF91CF911F9108951F93CF9369
:10118000DF93182FC0E3D3E088810E941303612FFF
:101190008FED92E00E94D8060E94E50462E088810B
:1011A0000E949D080E943003C82F0E94300320E057
:1011B000822B9C2BDF91CF911F9108950E94BE0836
:1011C0009827892798270895CF93DF9366EB80EEC1
:1011D0000E94070764E670E080E090E00E942A0425
:1011E00088E80E94DE0890933B0380933A038AE8E4
:1011F0000E94DE0890933D0380933C038CE80E949C
:10120000DE0890933F0380933E038EE80E94DE0841
:10121000909341038093400380E90E94DE089093FD
:1012200043038093420382E90E94DE0890934503C2
:101230008093440384E90E94DE08909347038093DF
:10124000460386E90E94DE08909349038093480391
:1012500088E90E94DE0890934B0380934A038AE951
:101260000E94DE0890934D0380934C038CE90E940A
:10127000DE0890934F0380934E038EE90E94DE08B0
:101280009093510380935003809131038230F1F5A4
:1012900081EA0E94A4088093520381EE0E94DE0836
:1012A000909354038093530383EE0E94A408809389
:1012B000550384EE0E94A408C82F85EE0E94A4085E
:1012C00090E1C99F900111248F70282B3093570310
:1012D0002093560386EE0E94A408C82F85EE0E9434
:1012E000A40890E1C99FE001112490E024E09595C5
:1012F00087952A95E1F78C2B9D2B9093590380932A
:10130000580387EE0E94A40880935A0389ED8093C6
:101310005C0380915D038F71806280935D03809197
:101320005B03807C806280935B0380913103823019
:1013300021F461E082EF0E94070780915B03682F30
:10134000677090E2699FB0011124282F2695269599
:101350002695277098E0299F90011124622B87FB26
:10136000882780F9682B85EF0E94070780915C032E
:10137000682F677090E2699FB0011124282F26958D
:1013800026952695277098E0299F90011124622BBD
:101390008295869586958370682B84EFDF91CF9137
:1013A0000C940707809330030E94AD0480ED0E94E7
:1013B000A408883529F0803661F01092310305C009
:1013C00081E0809331030E94E4088091310390E032
:1013D000089582E0F6CF8F929F92AF92BF92CF9204
:1013E000DF92EF92FF92CF93DF93F82EC0E3D3E02A
:1013F00088810E9413036F2D8FED92E00E94D80622
:101400000E94E50463E088810E949D080E943003E9
:10141000092E000CAA0BBB0B8824982EA92EBA2EDD
:101420000E943003092E000CAA0BBB0B6C017D013E
:10143000C828D928EA28FB28FE2CED2CDC2CCC244B
:101440000E943003BC01990F880B990B6C297D29F0
:101450008E299F29DF91CF91FF90EF90DF90CF9061
:10146000BF90AF909F908F9008958F929F92AF9270
:10147000BF92CF92DF92EF92FF920F931F938AEF6A
:101480000E94EB09E0E3F3E00285138530E020E001
:10149000C72ED82EE92EFF24E7FCFA94C01AD10AF1
:1014A000E20AF30A57E095958795779567955A95DF
:1014B000D1F7000F111F221F331F4B015C01801A4F
:1014C000910AA20AB30AA5019401A485B5850E94D8
:1014D00015334B015C01BBE0B594A79497948794B6
:1014E000BA95D1F7A7019601C701B6010E94C13292
:1014F0009B01AC011CE055954795379527951A95AA
:10150000D1F7A685B7850E9415339B01AC010EE08B
:1015100055954795379527950A95D1F7280D391D8B
:101520004A1D5B1D2683378340875187A5E0B0E0C5
:101530000E940A3360587F4F8F4F9F4F672F782F3D
:10154000892F992787FD9A950E947B2F20E030E014
:1015500048EC52E40E94CB2E1F910F91FF90EF9028
:10156000DF90CF90BF90AF909F908F9008952F9273
:101570003F924F925F926F927F928F929F92AF9223
:10158000BF92CF92DF92EF92FF920F931F93CF9370
:10159000DF93CDB7DEB76B970FB6F894DEBF0FBE03
:1015A000CDBF0E94350A87EF0E94EB096E8B7F8BBF
:1015B000888F998F8091360390913703A0913803DB
:1015C000B09139036C017D01FF0CCC08DC2C760155
:1015D0009C01AD016C2D7C2D8C2D9C2D345F4140E8
:1015E0005109610971098109910929873A874B8756
:1015F000652E762E872E982E9B8F5901C42ED52EC0
:10160000E62EF72E082F192F0E941D33322E232E7F
:10161000488B598B6A8B7B8B8C8B9D8B30914303D2
:1016200020914203932F990F990B492F592F692F1E
:10163000792F892F0E941D330CE00E948634298364
:101640003C874A8F5D876E877F87582E492E309161
:10165000450320914403932F990F990BA32CB22C8F
:10166000C888D988EA88FB880C891D89492F592F99
:10167000692F792F892F0E941D3308E00E949F3423
:10168000A980BC84CA8CDD84EE84FF84052D142DD2
:101690000E94BC3470588F4F9F4FE0914003F091EF
:1016A00041035F01D12CC12CE12CF12C8701E9838E
:1016B000BA82CB82DC82ED82FE820F831887C12C36
:1016C000D12CE12CF12C00E010E00E941D3301E24E
:1016D0000E949F342A8F532E49835C876D877E87B3
:1016E0008F87492EA0E00E94DA3409F436C1309188
:1016F0004B0320914A03932F990F990BA32CB22CE3
:10170000C888D988EA88FB880C891D89492F592FF8
:10171000692F792F892F0E941D331901488B598B0E
:101720006A8B7B8B8C8B9D8B309149032091480376
:10173000932F990F990BA984BA84CB84D62CE72CCC
:10174000F82C092D1B8D492F592F692F792F892F9F
:101750000E941D3301E10E9486345101C888D98856
:10176000EA88FB880C891D890E94BC3459016A01F2
:101770007B01382E192F4E895F89688D798D84E021
:1017800075956795579547958A95D1F780E090E0D4
:10179000A0E1B0E0841B950BA60BB70B3C014D01FB
:1017A000990C6608762C43019C01AD01662D762DBF
:1017B000862D962D0FE10E948634722E832E942E54
:1017C0005987B62FA72FF82FE92F30914703209183
:1017D0004603932F990F990B492F592F692F792F72
:1017E000892F03E20E948634032D0E94BC345901E4
:1017F0006A017B018C01272D382D492D59856B2FCE
:101800007A2F8F2F9E2F0E94D134E5E3AE2EFCE07D
:10181000BF2EC12CD12CE12CF12C00E010E00E9455
:101820001D33AA8CB52CC980DC84ED84FE840F8521
:10183000142D0E94B1332F873E8749875A876B87C3
:1018400079838C879D870DE00E949F34922E832E92
:10185000742E652E562E472E382E292E3091510388
:1018600020915003932F990F990BA92CB82CC72CBA
:10187000D62CE52CF42C032D122D492F592F692F2E
:10188000792F892F0E941D330E941D3309E10E9488
:101890009F34AF84BE84C984DA84EB84F9800C85DC
:1018A0001D850E94BC3419012A013B014C01309175
:1018B0004F0320914E03932F990F990B492F592FC6
:1018C000692F792F892F0E941D3303E10E949F34D5
:1018D00059016A017B018C019101A201B301C4018C
:1018E0000E94BC3408E00E949F3459016A017B01C8
:1018F000E82F192F30914D0320914C03932F990F0E
:10190000990B492F592F692F792F892F04E00E94B5
:1019100086340E2F0E94BC340E94732F20E030E0EA
:1019200040E85BE30E94AD306B960FB6F894DEBFE3
:101930000FBECDBFDF91CF911F910F91FF90EF9020
:10194000DF90CF90BF90AF909F908F907F906F90DF
:101950005F904F903F902F90089560E070E0CB0132
:10196000E3CFCF93DF93C82FD62F0E9413036D2FA1
:101970008FED92E00E94D8060E94E50481110EC00E
:1019800061E08C2F0E949D0890918D0280918E02C3
:10199000981721F0DF91CF910C9430038FEF9FEFD8
:1019A000DF91CF910895CF93C82F0E9413038FE04A
:1019B00090E00E9462070E94E50461E08C2F0E9483
:1019C0009D0890918D0280918E02981719F0CF9109
:1019D0000C9430038FEF9FEFCF910895CF92DF9259
:1019E000FF920F931F93CF93DF93CDB7DEB76E9720
:1019F0000FB6F894DEBF0FBECDBF8C01DC015A9646
:101A00001C921E92599781ED93E056969C938E936B
:101A10005597F8017D9680E2DF011D928A95E9F7DE
:101A2000F12CD12CC12CF801658976896C0D7D1DB6
:101A30004EE150E0CE0101960E94C82DE981EE23CF
:101A4000B9F0E03220F4E00FF12FF11DF58ED8014E
:101A500059968D919C915A9701965A969C938E9384
:101A60005997BEE1CB0ED11CF394E0E2FE12DBCF1E
:101A70006E960FB6F894DEBF0FBECDBFDF91CF914B
:101A80001F910F91FF90DF90CF900895CF93C82FB3
:101A90008091770390917803892B21F48EE593E070
:101AA0000E94EE0CEC2FF0E0E25AFC4F258DE22F65
:101AB000F0E083E0F595E7958A95E1F7E25AFC4F6F
:101AC000277081E090E001C0880F2A95EAF78095A1
:101AD00095AD892385AF10927A0310927903CF9147
:101AE0000895EF92FF920F931F93CF93DF93CDB79B
:101AF000DEB76E970FB6F894DEBF0FBECDBF8C0178
:101B00007B012EE1269FC001279F900D112460913B
:101B1000730370917403680F791F4EE150E0CE019A
:101B200001960E94C82D8D8DD8015E968C935E978C
:101B3000898112968C93EE0CFF1CEE0CFF1C809199
:101B4000750390917603E80EF91EF701808191816B
:101B5000A281B381F80183839483A583B683A8010E
:101B6000485F5F4F9E012E5F3F4FDA0180E0F90131
:101B700091919F01992329F0833119F08F5F9D93F3
:101B8000F6CFD8015C968C93DE015696FA01E80FE9
:101B9000F11D90E02D91222339F0382F390F333188
:101BA00018F49F5F2193F6CFD8015D969C935D97C3
:101BB00010828E8D8130C9F08230D9F0F801868D87
:101BC0008630D8F4843038F58823E1F08130F9F09C
:101BD0006E960FB6F894DEBF0FBECDBFDF91CF91EA
:101BE0001F910F91FF90EF90089580E2F801878F89
:101BF000E5CF80E45F968C93E1CF8850823040F748
:101C000085E006C082E0D80190968C93E1CF83E016
:101C1000F80180A3DDCF84E0F6CF2F923F924F9260
:101C20005F926F927F928F929F92AF92BF92CF926C
:101C3000DF92EF92FF920F931F93CF93DF93CDB775
:101C4000DEB7A0970FB6F894DEBF0FBECDBF1C0164
:101C50000E945C040091190210911A0220911B024B
:101C600030911C02061717072807390708F096C499
:101C700080911F0290912002A0912102B091220236
:101C80000196A11DB11D80931F0290932002A09385
:101C90002102B093220284369105A105B10561F5B8
:101CA00010921E0220E836EE45EC57E460914B029C
:101CB00070914C0280914D0290914E020E94CB2E69
:101CC0002BEA3CED42E45EE30E941A319B01AC0139
:101CD00060E070E080E89FE30E94E72D20E03AE2B8
:101CE0004DE257E40E94AD306093270270932802C2
:101CF0008093290290932A0280912B0290912C02CA
:101D00008130910509F020C40E9469086D8B7E8B9B
:101D10008F8B988F60933F027093400280934102B3
:101D20009093420280913B0290913C02B0E0A0E08F
:101D3000BA2FA92F982F8827409043025090440231
:101D40006090450270904602481A590A6A0A7B0A56
:101D500060913D0270913E0290E080E0A30192010B
:101D60000E947533122F3D834983B52FF62FE72F3D
:101D7000F82E092FA0E00E94DA3484F421503109B2
:101D800040485F4F6F4F7F4F8F4F9F4F122F3D83C4
:101D90004983B52FF62FE72FF82E092F212F3D81EC
:101DA00049815B2F6F2F7E2F8F2D902F07E10E948F
:101DB0009F342053384F4F4F5F4F29833A834B83D3
:101DC0005C831092550210925602109257021092A4
:101DD000580230911D023D833323E9F049815A8135
:101DE0006B817C81403D574061057105A4F4A301DE
:101DF0009201C301B2010E94C1322FEF3FEF4FEFBA
:101E00005FE70E94E53220935502309356024093DB
:101E10005702509358028091550290915602A0911A
:101E20005702B091580229813A814B815C81281B6D
:101E3000390B4A0B5B0BDA01C90180934F02909377
:101E40005002A0935102B0935202609139027091F6
:101E50003A0290E080E0A30192010E947533122FB4
:101E60003A874987B52FF62FE72FF82E092FA0E0E4
:101E70000E94DA345CF4AFE70E94C534122F3A872F
:101E80004987B52FF62FE72FF82E092F212F3A85F6
:101E900049855B2F6F2F7E2F8F2D902F07E00E949B
:101EA0009F3449014A875987B62FA72FF82FE92F6A
:101EB000A0903502B0903602950140E050E060E01D
:101EC00070E080E090E000E10E94863459016A01F0
:101ED0007B018C0194014A8559856B2F7A2F8F2FB6
:101EE0009E2F0E94BC3429873A874B875C876D8779
:101EF0007E878F87988B609137027091380290E0CF
:101F000080E0A30192010E947533122F3A8B498B16
:101F1000B52FF62FE72FF82E092FA0E00E94DA3414
:101F200084F421503F4F4F4F5F4F6F4F7F4F8F4F84
:101F30009F4F122F3A8B498BB52FF62FE72FF82E94
:101F4000092F212F3A8949895B2F6F2F7E2F8F2DE3
:101F5000902F08E00E949F3449014A8B598BB62F7D
:101F6000A72FF82FE92FA0903302B0903402D12C84
:101F7000C12C9501A60160E070E080E090E00FE0E8
:101F80000E94863459016A017B018C0194014A89BF
:101F900059896B2F7A2F8F2F9E2F0E94BC34298B4B
:101FA000F32FE42F852E6A8B7B8B982E9C8B3D81A3
:101FB000332309F434C11092590210925A0210923C
:101FC0005B0210925C0210925D0210925E0210920F
:101FD0005F021092600210926102109262021092EF
:101FE00063021092640210926502109266021092CF
:101FF00067021092680249815A816B817C81403D61
:1020000087E05807610571050CF0C5C0CB01BA0126
:10201000605D7740810991099B01AC010E94C1324A
:102020009B01AC01A5E0B0E00E940A337B018C016A
:1020300015950795F794E7942B013C01770C44081C
:10204000542C3201E0925902F0925A0200935B0242
:1020500010935C0240925D0240925E0240925F02E9
:10206000409260029B01AC0162E05595479537951F
:1020700027956A95D1F72D833E834F835887209308
:102080006102309362024093630250936402409273
:10209000650240926602409267024092680249815E
:1020A0005A816B817C8144328AEF58078FEF680731
:1020B00078070CF070C0CB01BA0164527A4F8F4F91
:1020C0009F4F9B01AC010E94C13269837A838B834D
:1020D0009C83A7E0B0E09B01AC010E940A335B0146
:1020E0006C01DD0CAA08BA2C65019B01AC016A2DBC
:1020F0007A2D8A2D9A2D57016801E42CF42C042D99
:10210000142D0E94BC342093590230935A024093FC
:102110005B0250935C0260935D0270935E02809359
:102120005F0290936002ABE0B0E029813A814B817D
:102130005C810E940A339B01AC0155954795379508
:10214000279529833A834B835C836B017C01FF0CC9
:10215000CC08DC2C760129813A814B815C816C2D85
:102160007C2D8C2D9C2DAD80BE80CF80D884E42C1E
:10217000F42C0E94BC34209361023093620240939D
:1021800063025093640260936502709366028093C9
:1021900067029093680229853A854B855C856D8539
:1021A0007E858F859889A0905902B0905A02C09080
:1021B0005B02D0905C02E0905D02F0905E020091C4
:1021C0005F02109160020E94D13429873A874B87C1
:1021D0005C876D877E878F87988B29893F2F4E2F4D
:1021E000582D6A897B89892D9C89A0906102B090C5
:1021F0006202C0906302D0906402E0906502F090A9
:10220000660200916702109168020E94D134298B06
:10221000F32FE42F852E6A8B7B8B982E9C8B6D89F8
:102220007E898F89988DAB01BC0180E090E0DC0154
:10223000498F5A8F6B8F7C8F8D8F9E8FAF8FB8A3F6
:10224000A988BF2ECE2ED82CEA88FB88092D1C89A0
:102250009A01AB0160E070E080E090E00E941D33E5
:10226000122F3D834983B52FF62FE72FF82E092F24
:10227000A0E00E94DA3484F421503109404E5F4FCF
:102280006F4F7F4F8F4F9F4F122F3D834983B52F45
:10229000F62FE72FF82E092F212F3D8149815B2F43
:1022A0006F2F7E2F8F2D902F05E10E949F34A984E0
:1022B000BA84CB84DC84ED84FE840F8518890E9467
:1022C000D134122F3D834983B52FF62FE72FF82EF7
:1022D000092FA0E00E94DA3484F4215030484F4F97
:1022E0005F4F6F4F7F4F8F4F9F4F122F3D8349831B
:1022F000B52FF62FE72FF82E092F212F3D81498189
:102300005B2F6F2F7E2F8F2D902F0FE00E949F3419
:10231000B901CA01209347027093480240934902D1
:1023200090934A020E947B2F6B017C01AC019B01C0
:1023300060914B0270914C0280914D0290914E023F
:102340000E94E72D20912302309124024091250222
:10235000509126020E94AD30A70196010E94E82DFF
:1023600060934B0270934C0280934D0290934E0207
:102370000E945C0400911502109116022091170230
:10238000309118024B015C01801A910AA20AB30A2B
:1023900020E836EE45EC57E460914B0270914C0218
:1023A00080914D0290914E020E94CB2E2BEA3CED83
:1023B00042E45EE30E941A319B01AC0160E070E0F0
:1023C00080E89FE30E94E72D20E03AE24DE257E4E7
:1023D0000E94AD3020E030E048EC52E40E94AD3085
:1023E0006B017C0180911E02882341F0C092110292
:1023F000D0921202E0921302F09214022091110284
:10240000309112024091130250911402C701B6019B
:102410000E94E72D2B013C01C501B4010E94792FD8
:102420009B01AC0160E070E08AE794E40E94CB2E4F
:102430009B01AC01C301B2010E94AD304B015C01B4
:1024400060912D0270912E02072E000C880B990BC3
:102450000E947B2FA50194010E94E72D20912F025D
:102460003091300240913102509132020E94AD30E1
:10247000A50194010E94E82D0E943D2F70932E0229
:1024800060932D02C0921102D0921202E0921302C8
:10249000F09214020E945C0460931502709316027D
:1024A000809317029093180271E07D8380912B0234
:1024B00090912C028215930509F01D82809154029F
:1024C00089832114310409F451C030922C022092E6
:1024D0002B0292E02916310409F044C0805B898305
:1024E00087E70E94130369818FED92E00E94D8066E
:1024F0000E94E5040E945C0420915302620F711D4A
:10250000811D911D6093190270931A0280931B0222
:1025100090931C028D81A0960FB6F894DEBF0FBE7B
:10252000CDBFDF91CF911F910F91FF90EF90DF9082
:10253000CF90BF90AF909F908F907F906F905F9063
:102540004F903F902F900895029709F0ADCF0E94D1
:10255000690860934302709344028093450290930C
:102560004602A2CFA981A05CA983BACF80911F02A5
:1025700080FD0AC082E090E090932C0280932B02B1
:10258000B981B05BB983ACCF81E090E090932C022D
:1025900080932B022981205C2983A2CF1D82BACF90
:1025A00082E090E00E940D0E811107C061E070E0B2
:1025B00080E090E00E942A04F3CF60914302709182
:1025C0004402809145029091460208954F925F9295
:1025D0006F927F928F929F92AF92BF92CF92DF9233
:1025E000EF92FF92CF93DF9300D000D000D0CDB711
:1025F000DEB79E838D83DC014D905D906D907C9065
:10260000139714968D909D90AD90BC901797189647
:102610008D919D910D90BC91A02D89839A83AB8360
:10262000BC83A3019201C301B2010E94AD306B01D2
:102630007C01A5019401C501B4010E94AD309B014C
:10264000AC01C701B6010E94E82D6B017C01298114
:102650003A814B815C81CA01B9010E94AD309B0176
:10266000AC01C701B6010E94E82D0E9470316B01D8
:102670007C01AC019B01C301B2010E94CB2EED8114
:10268000FE816083718382839383A7019601C501D4
:10269000B4010E94CB2EAD81BE8114966D937D93C3
:1026A0008D939C931797A701960169817A818B81FD
:1026B0009C810E94CB2EED81FE816087718782878D
:1026C000938726960FB6F894DEBF0FBECDBFDF917D
:1026D000CF91FF90EF90DF90CF90BF90AF909F9001
:1026E0008F907F906F905F904F9008954F925F9280
:1026F0006F927F928F929F92AF92BF92CF92DF9212
:10270000EF92FF92CF93DF93CDB7DEB7AA970FB6C4
:10271000F894DEBF0FBECDBF498F5A8F6B8F7C8F71
:102720008D8F9E8F6091070370910803072E000C18
:10273000880B990BC0900103D09002030D2C000C64
:10274000EE08FF086C0D7D1D8E1D9F1D22E0C22E20
:10275000D12CE12CF12CA70196010E94E532809149
:10276000FB029091FC02092E000CAA0BBB0B4C0142
:102770005D01821A930AA40AB50A8F8E98A2A9A2B3
:10278000BAA26091090370910A03072E000C880B0E
:10279000990B8090030390900403092C000CAA0865
:1027A000BB08680D791D8A1D9B1DA70196010E941B
:1027B000E5328091FD029091FE02092E000CAA0BD9
:1027C000BB0B4C015D01821A930AA40AB50A8BA2C5
:1027D0009CA2ADA2BEA260910B0370910C03072EC8
:1027E000000C880B990B8090050390900603092C30
:1027F000000CAA08BB08680D791D8A1D9B1DA70146
:1028000096010E94E532C090FF02D09000030D2C8B
:10281000000CEE08FF08C21AD30AE40AF50A409039
:10282000F9025090FA02052C000C66087708809196
:10283000F7029091F8024C01990FAA08BB088FA2E9
:1028400098A6A9A6BAA62BA13CA14DA15EA1C30141
:10285000B2010E94C1324B015C01A70196016FA138
:1028600078A589A59AA50E94C132A5019401261BCD
:10287000370B480B590BCA01B9010E947B2F6D879A
:102880007E878F87988B8090F5029090F602092CB6
:10289000000CAA08BB08A7019601C501B4010E945B
:1028A000C1326B017C012F8D38A149A15AA1C3010E
:1028B000B2010E94C132A7019601261B370B480BBB
:1028C000590BCA01B9010E947B2F698B7A8B8B8BC4
:1028D0009C8B2F8D38A149A15AA16FA178A589A5FC
:1028E0009AA50E94C1326B017C012BA13CA14DA194
:1028F0005EA1C501B4010E94C13246015701861A8A
:10290000970AA80AB90AC501B4010E947B2F6D8BF2
:102910007E8B8F8B988FCE010D960E94E612609170
:10292000F7027091F802072E000C880B990B0E9499
:102930007B2F6B017C018D889E88AF88B88C8F8E31
:1029400098A2A9A2BAA26091F9027091FA02072E88
:10295000000C880B990B0E947B2F2B013C0189886E
:102960009A88AB88BC888BA29CA2ADA2BEA22F8DF8
:1029700038A149A15AA1C701B6010E94AD304B014F
:102980005C012BA13CA14DA15EA1C301B2010E943B
:10299000AD309B01AC01C501B4010E94E72D6983F4
:1029A0007A838B839C838D849E84AF84B8888FA226
:1029B00098A6A9A6BAA66091F5027091F602072E14
:1029C000000C880B990B0E947B2F4B015C012FA1FF
:1029D00038A549A55AA5C301B2010E94AD302B010B
:1029E0003C01A50194016F8D78A189A19AA10E9453
:1029F000AD309B01AC01C301B2010E94E72D6D8394
:102A00007E838F839887A50194016BA17CA18DA102
:102A10009EA10E94AD304B015C012FA138A549A5B4
:102A20005AA5C701B6010E94AD309B01AC01C5019A
:102A3000B4010E94E72D69877A878B879C87CE0136
:102A400001960E94E612698D7A8D072E000C880B84
:102A5000990B0E947B2F2B013C016B8D7C8D072EE7
:102A6000000C880B990B0E947B2F4B015C016D8D34
:102A70007E8D072E000C880B990B0E947B2F6B011B
:102A80007C0129813A814B815C81C301B2010E94A2
:102A9000AD306F8F78A389A39AA32D813E814F819A
:102AA0005885C501B4010E94AD309B01AC016F8D0A
:102AB00078A189A19AA10E94E82D6F8F78A389A39C
:102AC0009AA329853A854B855C85C701B6010E948A
:102AD000AD309B01AC016F8D78A189A19AA10E94B4
:102AE000E82D6F8F78A389A39AA32D853E854F8506
:102AF0005889C301B2010E94AD302B013C012989E4
:102B00003A894B895C89C501B4010E94AD309B01B3
:102B1000AC01C301B2010E94E82D4B015C012D897B
:102B20003E894F89588DC701B6010E94AD309B0187
:102B3000AC01C501B4010E94E82D2F8D38A149A137
:102B40005AA10E94672E20E030E044E353E40E9443
:102B5000AD302BED3FE049E450E40E94CB2E6B01F9
:102B60007C0120E030E0A9010E94C62E87FF0AC048
:102B700020E030E044EB53E4C701B6010E94E82DA9
:102B80006B017C01C701B601AA960FB6F894DEBFAF
:102B90000FBECDBFDF91CF91FF90EF90DF90CF9030
:102BA000BF90AF909F908F907F906F905F904F906D
:102BB000089585ED8093BC008091B7029091B80292
:102BC000A091B902B091BA020796A11DB11D23E0F0
:102BD000B695A795979587952A95D1F72091BC0032
:102BE00024FD03C01092B50208954091B7025091A0
:102BF000B8026091B9027091BA02452B462B472B5F
:102C000069F30097A105B10541F025E12A95F1F797
:102C100000000197A109B109E1CF8091B6020C949F
:102C2000C404CF92DF92EF92FF920F931F93CF9342
:102C3000DF93EB017B0124E0E20EF11C8B016C01C0
:102C4000C61AD70AC601800F911F0E94D12DF80124
:102C500081938F01EE15FF05A9F7CE01DF91CF918A
:102C60001F910F91FF90EF90DF90CF9008950C94FB
:102C7000D12D9F92AF92BF92CF92DF92EF92FF92AF
:102C80000F931F93CF93DF935C017B018B01D0E007
:102C9000C0E0F80191908F016501CC0EDD1EC601E8
:102CA0000E94D12D981621F0692DC6010E94D92DC0
:102CB0002196C430D10569F7C701DF91CF911F91EB
:102CC0000F91FF90EF90DF90CF90BF90AF909F90CB
:102CD0000895CF93DF9300D000D0CDB7DEB719822F
:102CE0001A821B821C82BE016F5F7F4F8AE190E0D7
:102CF0000E94391619821A821B821C82BE016F5FE4
:102D00007F4F8EE190E00E9439160F900F900F9048
:102D10000F90DF91CF9108950C94D92D1F920F92AF
:102D20000FB60F9211242F933F938F939F93AF93DE
:102D3000BF938091090290910A02A0910B02B09179
:102D40000C023091080226E0230F2D3758F5029629
:102D5000A11DB11D209308028093090290930A02DD
:102D6000A0930B02B0930C0280910D0290910E0281
:102D7000A0910F02B09110020196A11DB11D809388
:102D80000D0290930E02A0930F02B0931002BF9118
:102D9000AF919F918F913F912F910F900FBE0F9008
:102DA0001F90189529E8230F0396A11DB11DD2CFBE
:102DB0001F920F920FB60F9211242F933F934F93B0
:102DC0005F936F937F938F939F93AF93BF93EF9393
:102DD000FF938091B900887F803609F44AC0F0F5EE
:102DE000883209F4A7C018F5803109F49BC0B8F403
:102DF000882309F4F9C0883009F494C0FF91EF9159
:102E0000BF91AF919F918F917F916F915F914F9102
:102E10003F912F910F900FBE0F901F901895883102
:102E200009F488C0803251F78093B30214C0803413
:102E300009F49DC040F48033B9F38833F9F68093E8
:102E4000B30285ECB0C0803509F485C0883509F43B
:102E500096C0883499F60E94D915D0CF883909F4E4
:102E60008CC038F5883729F050F4883611F0803757
:102E700029F683E08093B5021092D90157C08838B3
:102E800009F47BC0803919F0803809F0B7CF809100
:102E9000D901803208F071C0E091D90181E08E0F34
:102EA0008093D9018091BB00F0E0E754FE4F80830E
:102EB0003DC0803B39F0E0F4803A09F479C0883AAB
:102EC00009F09CCF84E08093B5021092B801109273
:102ED000B701E0916B02F0916C0209958091B70106
:102EE00081110FC081E08093B7011092970109C052
:102EF000803C09F4A6CF883C09F4A3CF883B09F0B5
:102F00007DCFE091B80181E08E0F8093B801F0E0B1
:102F1000E956FE4F80818093BB009091B80180916B
:102F2000B70129C0809190028093BB0085EC80930B
:102F3000BC0064CF9091B2028091B102981758F50D
:102F4000E091B20281E08E0F8093B202F0E0EF5682
:102F5000FD4F8081E9CFE091B20281E08E0F809336
:102F6000B2028091BB00F0E0EF56FD4F808390915C
:102F7000B2028091B1029817C8F285E8D8CFE091EB
:102F8000B20281E08E0F8093B2028091BB00F0E02C
:102F9000EF56FD4F80838091B40281115CCF81E0B8
:102FA00080938F0284EA8093BC001092B50226CFF2
:102FB00085EC8093BC001092B5028091D9018032DB
:102FC00030F4E091D901F0E0E754FE4F10826091B7
:102FD000D90170E0E0916902F0916A0289EB91E019
:102FE00009951092D9010ACF1092B30234CF1F92E3
:102FF0000F920FB60F9211242F933F938F939F93AD
:10300000AF93BF93EF93FF9320919401309195017B
:10301000F901E957FF4FA081B1818091C6008C93DF
:10302000D901A557BF4F8C918F5F8C93808191817F
:1030300001968E179F0718F0C901895B9F4F9183F6
:103040008083FF91EF91BF91AF919F918F913F91BD
:103050002F910F900FBE0F901F9018951F920F92F7
:103060000FB60F9211242F933F934F935F938F933B
:103070009F93AF93BF93EF93FF93809194019091AF
:103080009501FC01EA5BFF4F2081222379F18C5BE3
:103090009F4FDC01ED91FC9180818093C6002091CF
:1030A000940130919501F901EA5BFF4F80818150D5
:1030B00080833297808191810196A9014E5B5F4F99
:1030C0008417950710F0C901029691838083FF91C0
:1030D000EF91BF91AF919F918F915F914F913F91F0
:1030E0002F910F900FBE0F901F9018958091C100E7
:1030F0008F7D80648093C100E0919401F0919501EF
:10310000E457FF4F1082E3CF1F920F920FB60F923A
:1031100011242F933F938F939F93EF93FF93E1ECB1
:10312000F0E08081877B8069808380919401909119
:1031300095019C01295B3F4FFC01E957FF4F31830B
:10314000208332963183208385579F4FFC01108264
:10315000FF91EF919F918F913F912F910F900FBE13
:103160000F901F901895EFEDF2E01382128288EE17
:1031700093E0A0E0B0E084839583A683B7838BE6D9
:1031800091E091838083EEE5F3E0148A168A158A34
:10319000108E178A128E118E138E148E86E78093EE
:1031A0009F0382E38093A003108244E050E06FEF1E
:1031B00070E08BE993E00E945936EBE7F3E080E2A0
:1031C000DF011D928A95E9F71092A2031092A103E4
:1031D0001092A3031092EB031092EC031092ED03F4
:1031E00010923E041092A5031092A4031092A6031D
:1031F0001092A7031092A8031092A9031092AA0399
:10320000EEEEF3E080E3DF011D928A95E9F7E3E259
:10321000F3E082E090E0918380838DE5828386E015
:10322000E4E1F1E0A7E0B3E001900D928A95E1F7C7
:1032300086E0EAE1F1E0A1E0B3E001900D928A9529
:10324000E1F7E5EFF2E084E090E0928F818F14A641
:1032500013A615A61092EB020895CF93DF93CDB776
:10326000DEB7CC56D1090FB6F894DEBF0FBECDBF86
:10327000789484B5826084BD84B5816084BD85B551
:10328000826085BD85B5816085BD80916E0081605D
:1032900080936E0010928100809181008260809303
:1032A0008100809181008160809381008091800005
:1032B0008160809380008091B10084608093B10030
:1032C0008091B00081608093B00080917A0084602A
:1032D00080937A0080917A00826080937A00809156
:1032E0007A008E7F80937A0080917A008068809344
:1032F0007A001092C10086E70E94D2098093EB0207
:10330000811105C087E70E94D2098093EB0280916A
:10331000EB02811141C08DE5809325030E94D30CFF
:103320008D3B910509F0ABC081E090E090932403C0
:10333000809323038091230390912403009709F441
:10334000B2C0019709F0C9C084E290E090932903CC
:103350008093280385E290E090932B0380932A03C7
:1033600080E390E090932D0380932C0381E390E021
:1033700090932F0380932E030E94AD04809123032A
:10338000909124038130910509F0A2C080EB0E9446
:10339000670784E08093EB028091EB02833009F4AD
:1033A0002FC508F00BC5813008F01AC583E090E006
:1033B0000E9437168F3F11F08093F70184E090E070
:1033C0000E9437168F3F31F08F57990B9093F6017B
:1033D0008093F50185E090E00E9437168F3F11F051
:1033E0008093050186E090E00E9437168F3F31F010
:1033F00091E0811101C090E09093E80187E090E0B6
:103400000E9437168F3F31F091E0811101C090E0AA
:103410009093E70189E090E00E9437168F3F11F406
:103420000C94BE2C91E0811101C090E09093E601D4
:103430008AE090E00E94371691E0811101C090E08F
:103440009093E4016FE070E08DE10E94B10C89344B
:10345000910511F40C945D2C6FE070E08EE10E94F8
:10346000B10C8934910511F00C943D2C83E090E06F
:1034700090930F0380930E038EE10C94642C8B3B8E
:10348000910561F08CE5809325030E94D30C8D3B60
:10349000910509F449CF8B3B9105F9F4109224036F
:1034A0001092230347CF83E290E090932903809307
:1034B000280384E290E090932B0380932A0385E213
:1034C00090E090932D0380932C0386E290E050CF00
:1034D000892B09F05ECF80EE5ACF0E94AD0487E7BA
:1034E0000E9413030E94E504811156CF0E94AD048F
:1034F00087E70E9413038EE190E00E9462070E941A
:10350000E5048AE08093530288E08093540264E6E5
:1035100070E080E090E00E942A04E3E3CE2EE2E037
:10352000DE2E12EA87E70E941303612F8FED92E0EF
:103530000E94D8060E94E50487E70E94130362E018
:1035400087E70E94CC0510928E0280938D02811134
:1035500001C0FFCF0E943003B82E0E943003082F15
:103560000E94E504FB2CE12CC701802BD6018D9332
:103570009D936D011E5F1E3AA9F610922C021092C7
:103580002B0286E696E6A6E6BFE38093230290939D
:103590002402A0932502B0932602E2E3F0E06196B4
:1035A000FFAFEEAF619781E090E00E940D0E8111B8
:1035B00007C061E070E080E090E00E942A04F3CF51
:1035C000C0903F02D0904002E0904102F090420251
:1035D0006F96CCAEDDAEEEAEFFAE6F970E94D0120E
:1035E0002B013C0180913B0290913C02B0E0A0E0B5
:1035F000BA2FA92F982F8827481A590A6A0A7B0AD6
:103600006091390270913A0290E080E0A30192014A
:103610000E947533F22E032F142FB52FF62FE72FAC
:10362000D82EE92EA0E00E94DA345CF4AFE70E94C5
:10363000C534F22E032F142FB52FF62FE72FD82ED7
:10364000E92E2F2D302F412F5B2F6F2F7E2F8D2DA9
:103650009E2D07E00E949F3419014A01B62FA72F23
:10366000F82FE92FA0903502B0903602950140E086
:1036700050E060E070E080E090E000E10E9486347D
:1036800059016A017B018C019101A4016B2F7A2FF2
:103690008F2F9E2F0E94BC34A0962FAFA097A1968B
:1036A0003FAFA197A2964FAFA297A3965FAFA39704
:1036B000A4966FAFA497A5967FAFA597A6968FAF58
:1036C000A697A7969FAFA79760913702709138028F
:1036D00090E080E0A30192010E947533F22E032F47
:1036E000142FB52FF62FE72FD82EE92EA0E00E9439
:1036F000DA3484F421503F4F4F4F5F4F6F4F7F4F6D
:103700008F4F9F4FF22E032F142FB52FF62FE72F39
:10371000D82EE92E2F2D302F412F5B2F6F2F7E2F8C
:103720008D2D9E2D08E00E949F3419014A01B62F6D
:10373000A72FF82FE92FA0903302B0903402D12C9C
:10374000C12C9501A60160E070E080E090E00FE000
:103750000E94863459016A017B018C019101A40108
:103760006B2F7A2F8F2F9E2F0E94BC34322E232E48
:10377000A8964FAFA897A9965FAFA997AA966FAFE3
:10378000AA97AB967FAFAB97AC968FAFAC97AD9641
:103790009FAFAD9760913D0270913E0290E080E056
:1037A000A30192010E947533F22E032F142FB52F1F
:1037B000F62FE72FD82EE92EA0E00E94DA3484F409
:1037C0002150310940485F4F6F4F7F4F8F4F9F4FC0
:1037D000F22E032F142FB52FF62FE72FD82EE92E18
:1037E0002F2D302F412F5B2F6F2F7E2F8D2D9E2D54
:1037F00007E10E949F3449015A019A018401005354
:10380000184F2F4F3F4F2B960CAF1DAF2EAF3FAF32
:103810002B971092590210925A0210925B0210924A
:103820005C0210925D0210925E0210925F02109292
:103830006002109261021092620210926302109272
:103840006402109265021092660210926702109252
:103850006802003D1740210531050CF0D7C0A501D5
:103860009401C501B4010E94C1329B01AC01A5E0E5
:10387000B0E00E940A338B019C013595279517957E
:10388000079523960CAF1DAF2EAF3FAF23972B01AB
:103890003C01770C4408542C3201009359021093D8
:1038A0005A0220935B0230935C0240925D02409288
:1038B0005E0240925F02409260029B01AC0162E0B6
:1038C00055954795379527956A95D1F727962CAF4B
:1038D0003DAF4EAF5FAF27972093610230936202F6
:1038E00040936302509364024092650240926602E4
:1038F00040926702409268022B960CAD1DAD2EAD32
:103900003FAD2B9704321A4F2F4F3F4F0CF07EC024
:10391000C501B4016455724F8F4F9F4F9B01AC019D
:103920000E94C1322B966CAF7DAF8EAF9FAF2B97AD
:10393000A7E0B0E09B01AC010E940A334B015C019F
:10394000BB0C8808982C54019B01AC01682D782D84
:10395000882D982DAFAC2196BFAC21972296CFAC85
:1039600022972396DFAC2397E42CF42C042D142DFE
:103970000E94BC342093590230935A0240935B0258
:1039800050935C0260935D0270935E0280935F02CD
:1039900090936002ABE0B0E02B962CAD3DAD4EAD08
:1039A0005FAD2B970E940A334B015C01B594A7943D
:1039B000979487946B017C01FF0CCC08DC2C76017A
:1039C0009401A5016C2D7C2D8C2D9C2D2496AFACE3
:1039D00024972596BFAC25972696CFAC2697279699
:1039E000DFAC2797E42CF42C0E94BC3420936102B6
:1039F00030936202409363025093640260936502C5
:103A0000709366028093670290936802232D322D93
:103A1000A8964FADA897A9965FADA997AA966FAD46
:103A2000AA97AB967FADAB97AC968FADAC97AD96A2
:103A30009FADAD97A0906102B0906202C09063020A
:103A4000D0906402E0906502F090660200916702F7
:103A5000109168020E94D1346F96CCACDDACEEAC14
:103A6000FFAC6F9756016701E12CF12C00E010E0EC
:103A70000E941D33F22E032F142FB52FF62FE72FA0
:103A8000D82EE92EA0E00E94DA3484F421503109C6
:103A9000404E5F4F6F4F7F4F8F4F9F4FF22E032F40
:103AA000142FB52FF62FE72FD82EE92E2F2D302FDC
:103AB000412F5B2F6F2F7E2F8D2D9E2D05E10E94B4
:103AC0009F3439014A01B62FA72FF82FE92FA0966E
:103AD0002FADA097A1963FADA197A2964FADA2970B
:103AE000A3965FADA397A4966FADA497A5967FAD5F
:103AF000A597A6968FADA697A7969FADA797A090DE
:103B00005902B0905A02C0905B02D0905C02E090E3
:103B10005D02F0905E0200915F02109160020E94CF
:103B2000D13459016A017B018C019301A4016B2FEF
:103B30007A2F8F2F9E2F0E94D134F22E032F142F15
:103B4000B52FF62FE72FD82EE92EA0E00E94DA3409
:103B500084F4215030484F4F5F4F6F4F7F4F8F4F4E
:103B60009F4FF22E032F142FB52FF62FE72FD82EAD
:103B7000E92E2F2D302F412F5B2F6F2F7E2F8D2D74
:103B80009E2D0FE00E949F34B901CA010E947B2F35
:103B900060934B0270934C0280934D0290934E02BF
:103BA00061960EAD1FAD61970150110961961FAF6F
:103BB0000EAF6197012B09F0F6CC0E94D0126093F2
:103BC0004302709344028093450290934602109200
:103BD0002E0210922D0286E696E6A6E6BFE38093BB
:103BE0002F0290933002A0933102B09332020E94D0
:103BF000D0126B017C0180913B0290913C02B0E0BD
:103C0000A0E0BA2FA92F982F8827C81AD90AEA0A44
:103C1000FB0A60913D0270913E0290E080E0A701B6
:103C200096010E947533B22E032F142FB52FF62F55
:103C3000E72F982EA92EA0E00E94DA3484F42150B8
:103C4000310940485F4F6F4F7F4F8F4F9F4FB22ECC
:103C5000032F142FB52FF62FE72F982EA92E2B2DDB
:103C6000302F412F5B2F6F2F7E2F892D9A2D07E14B
:103C70000E949F3429013A0110ED410E17E0511EB8
:103C8000611C711C1092550210925602109257023C
:103C90001092580220ED421627E05206610471048A
:103CA000A4F4A7019601C701B6010E94C1322FEF0B
:103CB0003FEF4FEF5FE70E94E532209355023093CC
:103CC00056024093570250935802809155029091AA
:103CD0005602A0915702B091580273016201C81AAE
:103CE000D90AEA0AFB0AC701B6010E947B2F20E02D
:103CF00030E048EC52E40E94CB2E0E943D2F6093AE
:103D00004F0270935002809351029093520220E828
:103D100036EE45EC57E460914B0270914C02809175
:103D20004D0290914E020E94CB2E2BEA3CED42E4D4
:103D30005EE30E941A319B01AC0160E070E080E814
:103D40009FE30E94E72D20E03AE24DE257E40E9413
:103D5000AD306093270270932802809329029093DC
:103D60002A0210921D0210921F021092200210923D
:103D700021021092220281E080931E028AE0809349
:103D8000530288E0809354028FE892ECA5E7BFE3EA
:103D900080932F0290933002A0933102B0933202AD
:103DA0008FE195E8ABE6BFE3809323029093240272
:103DB000A0932502B093260283E0ECCA843009F078
:103DC000F5CA8DEC9CECACE4BFE38093EC029093DD
:103DD000ED02A093EE02B093EF021092F002E6CA59
:103DE0008AE999E9A9E5BFE38093EC029093ED029B
:103DF000A093EE02B093EF0285E08093F002D6CA62
:103E00004DEC5CEC6CE47FE34093EC025093ED02EC
:103E10006093EE027093EF028093F0028DEC9BE8CA
:103E2000A1E0B0E08093F1029093F202A093F3023C
:103E3000B093F402BBCA6FE070E08EE10E94B10C57
:103E4000CC9711F00C94572C21E030E082E090E008
:103E50000EC06FE070E08EE10E94B10C31E020E016
:103E6000CC9709F030E0832F922F30E020E0909340
:103E70000F0380930E038130910569F1029779F168
:103E800089E12130310509F088E1809310038EE14A
:103E90008093110383E090E09093150380931403C3
:103EA00084E090E0909317038093160385E090E000
:103EB000909319038093180386E090E090931B037E
:103EC00080931A0387E090E090931D0380931C0376
:103ED00088E090E02AC088E12130310509F489E1C9
:103EE000809310038EE18093110383E090E0909320
:103EF00015038093140384E090E09093170380935C
:103F0000160387E090E0909319038093180388E0EC
:103F100090E090931B0380931A0385E090E09093C8
:103F20001D0380931C0386E090E090931F03809311
:103F30001E030C948C2C0297B1F468E083E20E947B
:103F40003A0767E480E20E943A076CE080E00E9452
:103F50001D0760E281E00E941D0760E082E00E9490
:103F60001D070C94A92C60E083E20E943A0767E2E7
:103F7000E9CF10910501112311F40C943B2D6DEE46
:103F800071E08AE190E00E941116113011F00C945A
:103F90003B2D0E9435086FE00E9442086B017C01B6
:103FA000BE016F5F7F4F8EE190E00E941116C70146
:103FB000B6010E947B2F20E030E04AE754E40E94E3
:103FC000CB2E6B017C012CE53FE842E85FE3698181
:103FD0007A818B819C810E94AD309B01AC01C7012D
:103FE000B6010E94A03087FF02C00C943B2D1092B6
:103FF000ED011092EE011092EF011092F0010C947D
:104000003B2D81E090E00C94982D80937503909364
:10401000760310927A03109279038DE890E00E9463
:104020002B352DE8DC011D922A95E9F720E531E0DA
:10403000FC01318320839093A2038093A10306E0C7
:1040400010E020E030E048E458EE61E070E00E94CB
:10405000F4071092A5031092A4031092A6031092E5
:10406000A7031092A8031092A9031092AA0310921A
:10407000A3038E010F5F1F4F312C212C0E945C0483
:10408000C0900402D0900502E0900602F090070272
:104090006C197D098E099F09653B710581059105A4
:1040A00008F435C3F090EB02FF2009F414C2F3E0EA
:1040B000FF1609F407C144E0C42EFC1409F4F7C448
:1040C0000E94B70A0E943D2F60930601709307017A
:1040D00080930801909309010E94B70A0E94350A53
:1040E00060930A0170930B0180930C0190930D0172
:1040F00032E0F312B3C10E94350A8DEF0E94BE0870
:10410000B0E0A0E0811540E89407A105B10509F4ED
:104110004BC5409036035090370360903803709041
:1041200039035CE2551A51E0650A71086C017D01A2
:10413000AEE0CC0CDD1CEE1CFF1CAA95D1F78091E3
:10414000560390915703092E000CAA0BBB0B24E1D8
:10415000880F991FAA1FBB1F2A95D1F7C81AD90A21
:10416000EA0AFB0AA0915803B0915903A3019201F6
:104170000E941533C61AD70AE80AF90A80E4D80E55
:10418000E11CF11C6FE0F594E794D794C7946A950D
:10419000D1F7A0915503B0E00E940A334B015C01B6
:1041A0007BE0B594A794979487947A95D1F790E89B
:1041B000990EA11CB11CA0915A030A2E000CBB0B36
:1041C0000E941533EAE09595879577956795EA956E
:1041D000D1F7A50194010E94C1329B01AC01FAE024
:1041E0005595479537952795FA95D1F7405E5F4FDE
:1041F000A0915303B09154030E941533705E8F4F0A
:104200009F4FAEE09595879577956795AA95D1F7DD
:10421000A70196010E94C1326B017C01BFE0959518
:10422000879577956795BA95D1F79B01AC010E9468
:10423000C1329B01AC0187E055954795379527958D
:104240008A95D1F7A0915203B0E00E940A3324E08E
:1042500095958795779567952A95D1F7C61AD70AC8
:10426000E80AF90AF7FE03C0C12CD12C7601A1E0BF
:10427000CA16D104E104A9E1FA062CF0C12CD12C14
:10428000E12CF9E1FF2EC701B601ECE09595879589
:1042900077956795EA95D1F70E947B2F20E030E073
:1042A00040E85AE30E94AD3020E030E040E251E4C3
:1042B0000E94AD300E943D2FAB01BC018FE00E94F7
:1042C0004503CCC08091EC029091ED02A091EE02EA
:1042D000B091EF0280932F0290933002A0933102AD
:1042E000B093320260914F0270915002809151025E
:1042F000909152020E947B2F20E030E048EC52E483
:104300000E94CB2E60930A0170930B0180930C01E5
:1043100090930D0160914B0270914C0280914D027F
:1043200090914E020E943D2F609306017093070109
:1043300080930801909309010E947B2F6B017C01FF
:104340006091F1027091F2028091F3029091F40277
:104350000E947B2F9B01AC01C701B6010E94CB2EAE
:104360002BEA3CED42E45EE30E941A319B01AC0172
:1043700060E070E080E89FE30E94E72D20E03AE2F1
:104380004DE257E40E94AD300E943D2F6093000241
:1043900070930102809302029093030220E836EEAC
:1043A00045EC57E4C701B6010E94CB2E2BEA3CED49
:1043B00042E45EE30E941A319B01AC0160E070E0D0
:1043C00080E89FE30E94E72D20E03AE24DE257E4C7
:1043D0000E94AD302091270230912802409129029D
:1043E00050912A020E94E72D20E030E040E251E4A3
:1043F0000E94AD300E943D2F6093FC017093FD013F
:104400008093FE019093FF0120912D0230912E02A6
:104410006901330FEE08FF082F96CCAEDDAEEEAE8D
:10442000FFAE2F97643171058105910559F06D320A
:1044300071058105910531F066347105810591059D
:1044400009F02CC381E090E0A0E0B0E08093F80197
:104450009093F901A093FA01B093FB010E945C04D0
:104460008091F002482F50E070E060E02F96CCACD5
:10447000DDACEEACFFAC2F974C155D056E057F05EE
:104480000CF097C3C41AD50AE60AF70AB701A601C9
:1044900086E00E944503409106015091070160911A
:1044A0000801709109018DE00E94450320E030E091
:1044B00040E251E460910A0170910B0180910C017E
:1044C00090910D010E94AD300E943D2FAB01BC01C7
:1044D0008EE00E9445030E945C0460930402709386
:1044E00005028093060290930702F090F701FF20E7
:1044F00009F4E7C00E9435086FE00E9442080E945C
:104500007B2F20E030E04AE754E40E94CB2E698301
:104510007A838B839C8320E030E040E251E40E9468
:10452000AD300E943D2FAB01BC0180E10E944503EC
:1045300034E070E060E03F1538F44BE068E572E08D
:104540004F1510F064EC79E0C090F501D090F601C1
:10455000C60ED71E8EE00E94F303BC01990F880B94
:10456000990B0E947B2F20E030E040E85AE30E9444
:10457000AD3020E030E44CE955E40E94AD304B0111
:104580005C01B60190E080E00E94792F9B01AC01B4
:10459000C501B4010E94E72D4B015C01EF2DF0E055
:1045A000E95AFE4F608170E090E080E00E947B2F2E
:1045B0009B01AC01C501B4010E94CB2E6B017C01B3
:1045C000C092F101D092F201E092F301F092F40175
:1045D00020E030E040E251E40E94AD300E943D2FE7
:1045E000AB01BC0181E10E9445032FEF3FEF4FE992
:1045F00051E4C701B6010E94CB2E2091ED0130910C
:10460000EE014091EF015091F0010E94E82D60937E
:10461000ED017093EE018093EF019093F0010E9401
:104620003D2FAB01BC0182E10E9445038091050151
:10463000882391F10E945C048090E9019090EA0146
:10464000A090EB01B090EC01681979098A099B09E7
:104650006131774281059105F8F020E030E040E0DB
:1046600050E4C701B6010E94C62E18165CF06DEE2C
:1046700071E08AE190E00E943916B8018EE190E085
:104680000E9439160E945C046093E9017093EA016C
:104690008093EB019093EC0129813A814B815C81FD
:1046A0006091F1017091F2018091F3019091F40118
:1046B0000E94AD300E943D2FAB01BC0183E10E94FE
:1046C00045038091E801882379F060E186E00E944B
:1046D00042082AE030E040E050E00E94E532BA01B2
:1046E000A90184E10E9445038091E701882379F0C4
:1046F00061E187E00E9442082AE030E040E050E0BB
:104700000E94E532BA01A90185E10E94450380912A
:10471000E601882309F4F6C08091E501882309F4B5
:10472000F1C0809110030E94130388EA90E00E9478
:1047300062070E94E50480930D0366E080911003F8
:104740000E949D080E945C047B0180918D029091E3
:104750008E02891B990B2091200330912103863012
:1047600091050CF044C221153105C9F30E945C0487
:104770006E197F0980912003909121038617970776
:1047800020F781E080932203809111030E9413039C
:1047900080910E0390910F03039709F067C28091F7
:1047A00016039091170380680E9462070E94E50437
:1047B00080930D0366E0809111030E949D080E9482
:1047C0005C047B0180918D0290918E02891B990B74
:1047D0002091200330912103863091050CF04BC2CB
:1047E00021153105C9F30E945C046E197F0980917F
:1047F0002003909121038617970720F781E080938B
:10480000220380910E0390910F03039709F083C256
:1048100081E0482F8BAB1CAA1EAA1DAA18AE1FAAA6
:1048200050E060E07EA980E098AD0E9476134B01D5
:104830005C0120E030E040E85FEB609101017091A5
:10484000020180910301909104010E94C62E811102
:1048500008C08092010190920201A0920301B092DF
:104860000401209101013091020140910301509116
:104870000401C501B4010E94E72D6B017C0120E019
:1048800030E0A9010E94C62E87FF0AC020E030E078
:1048900044EB53E4C701B6010E94E82D6B017C0193
:1048A00020E030E040E251E4C501B4010E94AD30A7
:1048B0000E943D2FAB01BC018CE10E944503C70162
:1048C000B6010E943D2FAB01BC018DE10E94450362
:1048D0008091E4018823B1F0C701B6010E943D2F09
:1048E000CB016AE570E00E94D13241E050E060E027
:1048F00070E0181619061CF440E050E0BA018EE191
:104900000E9445034091FC015091FD016091FE0120
:104910007091FF0184E00E94450340910002509194
:104920000102609102027091030285E00E9445033A
:104930004091F8015091F9016091FA017091FB01E9
:104940008FE10E9445038091EB02833069F590E08E
:1049500080E00E940D0E0E945C04AB01BC018091BE
:10496000E0019091E101A091E201B091E3010A968A
:10497000A11DB11D84179507A607B707A8F440919C
:104980002D0250912E02052E000C660B770B86E04F
:104990000E9445030E945C046093E0017093E10172
:1049A0008093E2019093E301E090EB031092EB031C
:1049B000E11004C0809100018823B1F10E945C04E1
:1049C0008090DC019090DD01A090DE01B090DF01CD
:1049D000681579058A059B0538F10E945C046853C7
:1049E0007F4F8F4F9F4F6093DC017093DD01809369
:1049F000DE019093DF01FF24F39452E1752E80EEE7
:104A0000E81297C18091DA019091DB018D30910518
:104A10003CF401969093DB018093DA01F09200015F
:104A200080910001811197C181ED482E83E0582EBD
:104A30008091A1039091A203DC01ED91FC9104808F
:104A4000F581E02D0995892B09F40DC78091A1030B
:104A50009091A203DC01ED91FC910680F781E02D9D
:104A600009952091A4033091A5032115310509F082
:104A70001BC49C012D53310922303105C8F621E0B9
:104A800030E03093A5032093A4038E33910509F001
:104A900020E02093A6038093AB03CACF1092F801C5
:104AA0001092F9011092FA011092FB01D7CC80917B
:104AB00025030E94130388EA90E00E9462070E9487
:104AC000E50463E0809125030E949D080E94300365
:104AD000F82E0E943003E82E0E943003682F880FC2
:104AE000770B880B990BCB01772766276396EFAE80
:104AF000639762961FAE629763962EAD3FAD639744
:104B00004901B12CA12C622B79298A299B296F2973
:104B10000E947B2F20E030E040E859E30E94AD3056
:104B20000E943D2F60930601709307018093080156
:104B300090930901809125030E9413038BEA90E072
:104B40000E9462070E94E50462E0809125030E94B2
:104B50009D080E943003F82E0E94300365968FAFA7
:104B6000659764961FAE649765966EAD7FAD659749
:104B70006F29072E000C880B990B0E947B2F20E0D9
:104B800030E040EF53E40E94CB2E20E030E04AE2D8
:104B900052E40E94E82D60930A0170930B01809308
:104BA0000C0190930D015ACC60E070E080EC9FE71F
:104BB0007BCB90E0919581959109092E000CAA0B71
:104BC000BB0B2F962CAD3DAD4EAD5FAD2F9728178B
:104BD00039074A075B073CF4BA01A901481B590B86
:104BE0006A0B7B0B55CC40E050E0BA0151CC0E94DF
:104BF0003003C82E0E943003B82E0E943003E82EE6
:104C00000E943003D82E0E943003F82E0E943003F9
:104C10006796BFAE679766961FAE669767962EAD8E
:104C20003FAD67972C293093F6022093F5026996E1
:104C3000DFAE699768961FAE689769962EAD3FAD57
:104C400069972E293093F8022093F7026B968FAF65
:104C50006B976A961FAE6A976B968EAD9FAD6B97FA
:104C60008F299093FA028093F9028ECD80911403DC
:104C70009091150399CD80910E0390910F030397A6
:104C800021F50E943003A82E0E943003D82E0E94E6
:104C90003003B82E0E943003E82E0E943003C82E45
:104CA0000E943003F82E9D2D8A2D9093FC02809354
:104CB000FB029E2D8B2D9093FE028093FD02DF2C34
:104CC000D0920003C092FF029CCD0E943003D82EE8
:104CD0000E943003A82E80910E0390910F03892B20
:104CE00069F40E943003E82E0E943003B82E0E941F
:104CF0003003F82E0E943003C82ED5CF0E94300317
:104D0000F82E0E943003C82E0E943003E82E0E9425
:104D10003003B82EC8CF1AAE19AE8FEF682F8BAF05
:104D20008CAF1EAE1DAE40E05AAD7FEF80E09EAD71
:104D30007CCD90E7E9123AC08091DA019091DB01D5
:104D4000181619060CF06CCE01979093DB01809336
:104D5000DA01F09200011AA219828091DA01909191
:104D6000DB01789EB001799E700D11246B577D4F49
:104D700040E150E0CE0182960E94C82DE091DA0118
:104D8000F091DB01EC30F10508F0F2C1E653F94D8A
:104D90000C9404338028B8288828EF289328E32827
:104DA00014291D292B2934293B294229A0EDEA1277
:104DB000D0C68091DA019091DB018530910509F42C
:104DC00046C0B4F58330910509F44AC0049709F050
:104DD00025CE8090EC029090ED02A090EE02B09073
:104DE000EF0220E030E040E85FE3C501B4010E943B
:104DF000C62E87FF13CE20E030E048EC52E4C50118
:104E0000B4010E94AD3020E030E040E85FE30E9452
:104E1000E82D20E030E048EC52E40E94CB2E609375
:104E2000EC027093ED028093EE029093EF02F6CDC8
:104E30008630910591F1079709F0F0CD8091050139
:104E4000882309F4EBCD815080930501E7CD809153
:104E5000F002843608F0E2CD8F5F8093F002DECD61
:104E60008091F1029091F202A091F302B091F402CC
:104E70008D3EE9ED9E07E1E0AE07B1050CF0CECD29
:104E80008C599F4FAF4FBF4F8093F1029093F20226
:104E9000A093F302B093F402C1CD8091F70188236F
:104EA00009F4BCCD81508093F701B8CD0E946916FA
:104EB000E091F701EE2381F1F0E0E95AFE4F6081C5
:104EC00070E090E080E00E947B2F2091F101309112
:104ED000F2014091F3015091F4010E94AD304B0179
:104EE0005C016091F5017091F601072E000C880BB2
:104EF000990B0E947B2F9B01AC01C501B4010E945C
:104F0000E82D0E943D2F6093F5017093F6016158E2
:104F100084E090E00E948C16F10109958090EC02EB
:104F20009090ED02A090EE02B090EF0220E030E011
:104F3000A901C501B4010E94A03018160CF06ECD75
:104F400020E030E048EC52E4C501B4010E94AD30ED
:104F500020E030E040E85FE30E94E72D5ACF8091E7
:104F6000F002882309F45ACD815077CF8091F10265
:104F70009091F202A091F302B091F402853691056E
:104F8000A105B1050CF44ACD84569109A109B109D6
:104F90007BCF8091F7018F3008F040CD8F5F83CFBA
:104FA00080910501823008F039CD8F5F4DCF80911F
:104FB000E8018F258093E80131CD8091E7018F25AD
:104FC0008093E7012BCD8091E6018F258093E60148
:104FD00025CD8091E4018F258093E4011FCD609160
:104FE000F70183E090E00E948C166091050185E056
:104FF00090E00E948C166091E80186E090E00E94AB
:105000008C166091E70187E090E00E948C16609119
:10501000E60189E090E00E948C168091E601811102
:1050200002C01092E4016091E4018AE090E00E94E5
:105030008C1620E030E048EC52E46091EC02709174
:10504000ED028091EE029091EF020E94AD300E943D
:105050003D2F8CE090E00E948C166091F0028EE073
:1050600090E00E948C166091F1027091F2028091A2
:10507000F3029091F402692F7727882799278FE010
:1050800090E00E948C166091F1027091F202809182
:10509000F3029091F402BC01992777FD9095892F36
:1050A00080E190E00E948C166091F1027091F20212
:1050B0008091F3029091F402672F782F892F99271E
:1050C00087FD9A9581E190E00E948C166091F10233
:1050D00082E190E00E948C16F1010995D12CC12C3F
:1050E0006FEFC6010E948C16FFEFCF1ADF0A22E392
:1050F000C216D104A9F70E946916F10109958ECC58
:1051000040E150E064E772E0C8010E94C82D30C061
:105110006091EB02F9E06F9FB0011124695B7D4F54
:1051200040E150E0F1CF8091EB02882309F467CC95
:1051300020E030E048EC52E46091EC027091ED0226
:105140008091EE029091EF020E94AD300E943D2FBF
:105150007F936F9382E891E09F938F931F930F93B8
:105160000E946F360F900F900F900F900F900F903E
:10517000DE019296EEE1F4E09E012E5C3F4F80E06E
:1051800040E29D91992309F489C0811187C09083E1
:1051900031962A173B07A9F7DE011196EEE2F4E0FB
:1051A0009E012F5E3F4F80E040E29D91992309F4DC
:1051B00078C0811176C0908331962A173B07A9F7F2
:1051C0001092000131CC8091EB02882309F417CCB6
:1051D0008091F0021F928F9389E891E0BDCF80917A
:1051E000EB02882309F40BCC6091F1027091F2027A
:1051F0008091F3029091F40224E630E040E050E028
:105200000E94E5325F934F933F932F9380E991E0A3
:105210009F938F931F930F930E946F360FB6F8944E
:10522000DEBF0FBECDBFA4CF6091F70130E1639F19
:10523000B0011124695B7E4F73CF8091F701882301
:1052400009F4DDCB6091050149E0649FB0011124B0
:10525000645D7E4F65CF6091E8015AE0659FB001C3
:105260001124685E7E4F5CCF6091E7018AE0689F01
:10527000B0011124F6CF6091E6019AE0699FB00178
:105280001124EFCF8091E601882309F4B8CB609117
:10529000E401AAE06A9FB0011124E3CF408381E0DA
:1052A00077CF408381E088CF21303105A9F49C017C
:1052B0002D7F2130310519F522E030E03093A50330
:1052C0002093A40321E08130910509F020E0209390
:1052D000A7038093AC03ACCB22303105A9F4E3E003
:1052E000F0E0F093A503E093A4038093A8038093D8
:1052F000AD0393E09093A903813408F499CB109205
:10530000A5031092A40394CB2330310509F090CB70
:10531000E091A903EE24E394EE0EE092A903F0E0FD
:10532000E555FC4F80838091A803E81281CBBBEA4E
:105330006B2EB3E07B2E4301B12CA12C90E080E0DA
:10534000F12C6701F2E0CF1AD108AC14BD044CF483
:10535000D4016D914D010E946403BFEFAB1ABB0AEB
:10536000F4CFF701E655FC4F2081F601E555FC4FDF
:1053700030812327322723278217930709F0BFCFD5
:105380008091AE038093AA038091AF039091A6030E
:105390009923D1F08133C1F48091B0038695809335
:1053A000ED03E1EBF3E030E020E090E0281739076F
:1053B0003CF44191519154AF43AF2F5F3F4FF6CF33
:1053C00081E08093EC039BCF8A3309F008C280917F
:1053D000A703882309F493CF8091A30391E0980F4A
:1053E0009093A303811144C01092B2031092B803AA
:1053F000F09072038F2D880F880F880F8093B90368
:105400004F2D50E06EE573E08AEB93E00E9450363A
:10541000E9E0FE0E8FE28093B1038091B2039FEF2B
:105420009F0D892B8093B20389E08093B30384EAB4
:105430008093B40380919F038093B5038091A00370
:105440008093B6031092B703E2EBF3E091E080E0C3
:105450009F1508F079C12191822728E087FF72C14A
:10546000880F37E0C32E8C252150C1F79F5FF0CF06
:105470002091770330917803982F96959217130611
:1054800011F00CF06CC080FD6AC0F12CE12C809111
:10549000770390917803E816F9060CF051C120913A
:1054A0007A03622F70E01B828FEF9FEFDC018C8309
:1054B0009D83AE83BF831D8E1E8E1F8E18A219A2E0
:1054C000FB01A3E0F595E795AA95E1F7E25AFC4FB9
:1054D00085AD90E0277002C0959587952A95E2F7F3
:1054E00081708887882319F0C8010E94710D80910E
:1054F0007A038F5F80937A0320917703309178034A
:105500008217130614F010927A038885882319F104
:105510001092B2038B818093B8038D8D98E0899FA0
:10552000900111248E8D822B8093B90380E079E065
:10553000F72EF80EE9E0F0E0EC0FFD1FE80FF11D8B
:105540009081992309F466CF8F5FEF2DF0E0EF543F
:10555000FC4F9083ECCFAFEFEA1AFA0A98CF80E4C1
:105560008093B20350E4C52ED12C67E0F62E209133
:105570007903622F70E01B828FEF9FEFDC018C8339
:105580009D83AE83BF831D8E1E8E1F8E18A219A20F
:10559000FB0143E0F595E7954A95E1F7E25AFC4FA8
:1055A00085AD90E0277002C0959587952A95E2F722
:1055B00081708887882319F0C8010E94710D80913D
:1055C00079038F5F8093790320917703309178037B
:1055D0008217130614F0109279038885882309F442
:1055E000ACC08C819D81AE81BF818F3FEFEF9E0764
:1055F000AE07BE0709F4A1C0EF2DF0E0EF54FC4F59
:1056000061E06F0D2B817F8D472F4F702031C8F0E7
:105610004083E62FF0E0EF54FC4F208362E06F0DF3
:1056200049A150E0262F30E0F901EF54FC4F7430CF
:1056300009F450C068F4772309F17130E9F180E092
:1056400025C050E1259F90011124242B2083E8CF11
:10565000783009F451C0793009F461C0753079F7B8
:105660008083F901EE54FC4F90832D543C4F7B2FE7
:105670007078872F8A2BD9018C933CC02B2F2078F0
:105680008F71822B98A1892B808381E0F62EF80EF2
:10569000FFEFCF1ADF0A8091770390917803C81645
:1056A000D9060CF0B7CE8AE190E0841B950BF81672
:1056B00019060CF45CCFAECE80832E543C4F792F6C
:1056C0007F718B2F8078872B98A1892BD9018C93A0
:1056D00082E0DCCF8083F901EE54FC4F90832D549F
:1056E0003C4F7A2F7F718B2F8078872B98A1892B45
:1056F000F901808383E0CACF8083F901EE54FC4F27
:105700009083F901ED54FC4FA0832C543C4F8B2F18
:105710008F7998A1892BF901808384E0B7CF8083AA
:10572000F901EE54FC4F9083F901ED54FC4FA08336
:105730002C543C4FF901B083F0CF50E040E0A8CFAB
:10574000F12C68CE880F90CEEF2DF0E0EF54FC4F97
:10575000808329E02F0D2093A9038BE38093AB0373
:1057600081E08093AC032093AD038091AA038093E2
:10577000AE038AE38093AF03F394F092B003B12CAD
:10578000A12C80E090E0E22EF12C670122E0C21A09
:10579000D108AC14BD044CF4D3016D913D010E94BD
:1057A0006403BFEFAB1ABB0AF4CFF601E555FC4F1B
:1057B0008083F701E655FC4F90838091A10390917F
:1057C000A203DC01ED91FC910280F381E02DA701A1
:1057D0006BEA73E0099581E080933E0490CD8B33B2
:1057E00009F08DCD8091A703882309F488CD80919D
:1057F000B103803FA9F18093EB0398E29093A90352
:105800008BE38093AB0321E02093AC039093AD0333
:105810008093AF0380E28093B003EEE1F4E0A1EB6C
:10582000B3E001900D928A95E1F780E090E0F301FA
:1058300061913F010E94640346145704C1F78093AD
:10584000D1039093D2038091A1039091A203DC0134
:10585000ED91FC910280F381E02D48E250E0B8CF59
:105860001092EB03CACF80E090E0892B11F40C94E6
:105870003E200E9400000C943E2060E270E089E12E
:105880000E94B10C019611F00C941B1F60E270E0B5
:1058900088E10E94B10C019611F00C94291F10921E
:1058A000E60160E089E090E00E948C1667C021E08C
:1058B00030E090E080E00C94371F83E090E090931C
:1058C0000F0380930E038DE18093110380931003E7
:1058D00088E090E0909317038093160389E090E0AE
:1058E00090931503809314038AE090E090931B0338
:1058F00080931A038BE090E0909319038093180330
:105900008CE090E090931F0380931E038DE090E065
:1059100090931D0380931C0380910E0390910F03BD
:105920008330910511F00C949B1F60E081E20E948E
:10593000570767E580E20E94570764E684E20E9409
:10594000570760E285E20E94570760E086E20E9406
:10595000570786E0E0E2F1E0A7E0B3E001900D92A6
:105960008A95E1F786E0E6E2F1E0A1E0B3E001909C
:105970000D928A95E1F781E08093E5018CE090E05B
:105980000E9437168F3FA1F0682F70E090E080E012
:105990000E94792F20E030E048EC52E40E94CB2EA8
:1059A0006093EC027093ED028093EE029093EF020D
:1059B0008EE090E00E9437168F3F11F08093F00246
:1059C0008FE090E00E943716182F8F3FA9F180E1F9
:1059D00090E00E943716C12ED12CF12CE12CFC2C2A
:1059E000EE24DD24CC2490E0B0E0A0E05C0199241A
:1059F00088248C0C9D1CAE1CBF1C81E190E00E9491
:105A0000371690E0B0E0A0E0CC24D82EE92EFA2E94
:105A1000C80CD91CEA1CFB1C82E190E00E943716DE
:105A2000C80ED11CE11CF11CC092F102D092F2020E
:105A3000E092F302F092F4028091EB02811103C034
:105A400086E00E94460D8091EB02823019F08FE0D3
:105A50000E94460D8091F70181110C94B91F80E1DD
:105A60000E94460D81E10E94460D82E10E94460D92
:105A700083E10E94460D8091E801811103C084E119
:105A80000E94460D8091E701811103C085E10E94CB
:105A9000460D8091E601811106C08CE10E94460D01
:105AA0008DE10E94460D8091E401811106C08EE1D6
:105AB0000E94460D8FE10E94460D86E780939F036A
:105AC00082E38093A00340E250E060E270E08EE168
:105AD00094E00E9459368091720381110C940D203C
