:100000000C94FB020C9423030C9423030C94230301
:100010000C9423030C9423030C9423030C942303C8
:100020000C9423030C9423030C9423030C942303B8
:100030000C9423030C9423030C9423030C942303A8
:100040000C9401190C9423030C946A1A0C94A61AAC
:100050000C94061B0C9423030C9423030C9423038D
:100060000C944B190C942303084AD73B3BCE016EEA
:1000700084BCBFFDC12F3D6C74319ABD56833DDAFF
:100080003D00C77F11BED9E4BB4C3E916BAAAABE0E
:10009000000000803F08000000BE922449123EABE1
:1000A000AAAA2ABECDCCCC4C3E00000080BEABAA92
:1000B000AAAA3E00000000BF000000803F00000030
:1000C0000000084178D3BB4387D1133D190E3CC3D0
:1000D000BD4282AD2B3E68EC8276BED98FE1A93E4F
:1000E0004C80EFFFBE01C4FF7F3F0000000000070F
:1000F000634236B79BD8A71A39685618AEBAAB55C3
:100100008C1D3CB7CC5763BD6DEDFD753EF6177287
:1001100031BF000000803F0020537461727475701D
:1001200000204175746F00000000204D616E756104
:100130006C00002044697361626C6564000000001B
:10014000000000204174746F50696C6F7420343566
:10015000000000204174746F50696C6F7420393056
:10016000000000204174746F50696C6F7420313846
:100170003000002041504D322E35203930412F358E
:10018000305600204143533731322D3035000000C6
:10019000000000204143533731322D32300000003F
:1001A000000000204143533731322D33300000002E
:1001B000000000204143533735382D3530420000D0
:1001C000000000204143533735382D313030420094
:1001D000000000204143533735382D31353042007F
:1001E000000000204143533735382D323030420073
:1001F000000000204143533735382D35305500007D
:10020000000000204143533735382D313030550040
:10021000000000204143533735382D31353055002B
:10022000000000204143533735382D32303055001F
:100230000000002044697361626C65640000204125
:100240006972207370656564002047505300000098
:10025000000000002044697361626C656400204501
:100260006E61626C6564000020756E6B6E6F776EF8
:100270000020424D50323830000020424D45323887
:10028000300000204D53353631310000204C5053A2
:10029000000000000056657273696F6E2056322EA2
:1002A000340000000000566172696F4750532053BC
:1002B000656E736F7200005265736574206F6666B9
:1002C0007365740000000000507265737375726589
:1002D0002073656E736F723A00566172696F207396
:1002E0006D6F6F7468696E673A00566172696F204E
:1002F000646561647A6F6E653A00004169722073CB
:10030000706565643A000000000000005445432019
:100310006D6F64653A00000000000000004D6169E7
:100320006E2064726976653A000000000000436147
:100330007061636974792072657365743A00005264
:10034000783120766F6C746167653A0000000000B8
:1003500052783220766F6C746167653A0000000055
:10036000004578742E2054656D703A00000000003E
:100370000000436F6D7061737300000000000000A7
:100380000000005361766520616E642072657374AD
:10039000617274004C6F61642064656661756C7491
:1003A00073000000000000000800020100000304C8
:1003B00007000000000000000000000000250028E9
:1003C000002B0000000000240027002A0004040481
:1003D00004040404040202020202020303030303EE
:1003E00003010204081020408001020408102001CB
:1003F00002040810200452656C2E20416C7469744C
:10040000000000000000000000006D00000000007F
:10041000000401054162732E20416C746974000070
:1004200000000000000000006D000000000000045B
:100430000006566172696F6D657465720000000098
:100440000000000000006D2F730000000004020D8A
:100450004169722070726573732E00000000000005
:10046000000000006850610000000004020E5465A6
:100470006D702E0000000000000000000000000071
:100480000000B043000000000001010F48756D69D5
:1004900064697479000000000000000000000000A2
:1004A00025724800000000010110566F6C746167EE
:1004B0006500000000000000000000000000560081
:1004C000000000000001011143757272656E740036
:1004D00000000000000000000000000041000000DB
:1004E00000000001011243617061636974790000CA
:1004F000000000000000000000006D4168000000E6
:1005000000040013506F77657200000000000000C7
:100510000000000000000000570000000000000480
:10052000001452783120566F6C74616765000000CA
:10053000000000000000560000000000000102154D
:1005400052783220566F6C746167650000000000BD
:10055000000000005600000000000001021645786F
:10056000742E2054656D7000000000000000000033
:100570000000B04300000000000101174169722033
:10058000737065656400000000000000000000005A
:100590006B6D2F6800000001001C436F6D7061736C
:1005A0007300000000000000000000000000B00028
:1005B000000000000001011D52656C2E20436F6D8C
:1005C000706173730000000000000000B0000000C4
:1005D0000000000101000000000000000000000019
:1005E000000000000000000000000000000000000B
:1005F00000000000351B11241FBECFEFD8E0DEBF86
:10060000CDBF11E0A0E0B1E0E8E8F3E702C005905B
:100610000D92A638B107D9F723E0A6E8B1E001C0F2
:100620001D92AE3EB207E1F712E0CBEFD2E004C07C
:100630002197FE010E94B433CA3FD107C9F70E9437
:100640009D1B0C94C2390C94000091E09093BD0264
:100650008093DF021092BE021092E0020895909102
:10066000900280918F022FEF3FEF981748F4E92F07
:10067000F0E0E159FD4F208130E09F5F90939002C0
:10068000C90108959091900280918F022FEF3FEF62
:10069000981748F4E92FF0E0E159FD4F208130E050
:1006A0009F5F90939002C901089508950895EF9275
:1006B000FF92A0917903B0917A03109701F1E82F8E
:1006C000F0E0E45AFC4F94A1E0907B03F0907C03AF
:1006D0009E151F04A4F485E0989FA00DB11D112460
:1006E0004D935D936D937C93139794A1E09179035F
:1006F000F0917A03989FE00DF11D11242483FF905F
:10070000EF900895CF93DF938091A4039091A50378
:10071000DC01ED91FC910280F381E02D40E06EEF71
:1007200009958091C603882311F1C6ECD3E080912E
:10073000A4039091A5036991DC01ED91FC910280E5
:10074000F381E02D41E00995B3E0C63EDB0779F780
:100750008091A4039091A503DC01ED91FC910280AE
:10076000F381E02D40E06FEFDF91CF910994C0E27B
:10077000D0E08091A4039091A503DC01ED91FC9160
:100780000280F381E02D41E060E00995219789F72F
:10079000DFCF80918F0290919002891B990B089571
:1007A000CF93DF9390E0FC01EF51FC4F24918353F2
:1007B0009C4FFC0184918823C1F090E0880F991F21
:1007C000FC01ED53FC4FC591D491FC01E754FC4F63
:1007D000A591B4919FB7F8943881822F8095832397
:1007E0008883EC91E22BEC939FBFDF91CF9108952A
:1007F00090E0FC01EB55FC4F2491FC01EF51FC4FC4
:100800003491FC01E353FC4FE491EE23C9F0222321
:1008100039F0233001F1A8F4213019F1223029F107
:10082000F0E0EE0FFF1FE754FC4FA591B4918FB796
:10083000F894EC91611126C030953E233C938FBF14
:1008400008952730A9F02830C9F0243049F7809165
:1008500080008F7D03C0809180008F77809380001F
:10086000DFCF84B58F7784BDDBCF84B58F7DFBCFA1
:100870008091B0008F778093B000D2CF8091B0008C
:100880008F7DF9CF3E2BDACF8E50806480937C0031
:1008900080917A00806480937A0080917A0086FD4E
:1008A000FCCF809178009091790008953FB7F8943B
:1008B00080910F0290911002A0911102B09112024A
:1008C00026B5A89B05C02F3F19F00196A11DB11DAB
:1008D0003FBFBA2FA92F982F8827BC01CD01620FE7
:1008E000711D811D911D43E0660F771F881F991FA1
:1008F0004A95D1F708958F929F92AF92BF92CF926F
:10090000DF92EF92FF924B015C010E9456046B0153
:100910007C010E9456046C197D098E099F09683E6E
:10092000734081059105A8F321E0821A9108A1087E
:10093000B10888EEC80E83E0D81EE11CF11C8114BA
:100940009104A104B10429F7FF90EF90DF90CF90BC
:10095000BF90AF909F908F9008952FB7F8946091BB
:100960000B0270910C0280910D0290910E022FBF2C
:1009700008952091A901260F3327331F2132310515
:10098000ECF42091B702FC0190E080E0243069F0A3
:1009900082E00895A091A9012191AC0147575E4FD3
:1009A000A40FB52FB11D2C930196861798F3809153
:1009B000A901680F6093A90180E0089581E008957E
:1009C0001092B70281E08093B6021092910261E02A
:1009D00082E10E94F80361E083E10E94F803E9EB01
:1009E000F0E080818E7F808380818D7F808380E2B4
:1009F0008093B80085E48093BC0008951092900223
:100A000010928F021092BE021092E0020E94E00447
:100A100085E593E090936E0280936D0286E593E006
:100A200090936C0280936B020895CF93DF9391E0D3
:100A3000909388018823B9F0C091B800D091BA0092
:100A40008091BC008A7B8093BC0060E082E10E94C0
:100A5000F80360E083E10E94F8030E94E004D09371
:100A6000BA00C093B800DF91CF910895CF92DF9282
:100A7000EF92FF920F931F93CF93DF93D091E002F9
:100A800081E0D13208F09CC0C091DF020E94560480
:100A90006B017C018091B70281116CC082E0809370
:100AA000B70281E08093B6028FEF8093B502109277
:100AB000B402D093B302AFEBB2E0E3E9F2E080E03E
:100AC000D8138DC01092920280919202CC0FC82B45
:100AD000C093920280919102813009F084C01092FB
:100AE00091020E9456046B017C01809192028093D6
:100AF000BB008091B9029091BA02A091BB02B09163
:100B0000BC02892B8A2B8B2BA1F00E9456040091EA
:100B1000B9021091BA022091BB023091BC026C194B
:100B20007D098E099F09061717072807390708F45A
:100B300042C08091BC0083FDD8CF85EC8093BC007F
:100B40000E9456046B017C018091B702823009F447
:100B50004CC08091B5028F3F09F469C08091B50205
:100B6000803209F466C08091B502803309F463C015
:100B700084E026C08091B9029091BA02A091BB0294
:100B8000B091BC02892B8A2B8B2B09F483CF0E9456
:100B900056040091B9021091BA022091BB02309123
:100BA000BC026C197D098E099F09061717072807D3
:100BB000390708F06FCF8091B8020E94150585E0D3
:100BC0001092BE021092E0021092BD02DF91CF910E
:100BD0001F910F91FF90EF90DF90CF9008959D911E
:100BE00091938F5F6DCF85EEA9CF8091B9029091DF
:100BF000BA02A091BB02B091BC02892B8A2B8B2B2D
:100C000009F4A2CF0E9456040091B9021091BA02D1
:100C10002091BB023091BC026C197D098E099F099D
:100C2000061717072807390708F08ECFC4CF80E0D2
:100C3000C7CF82E0C5CF83E0C3CFCF92DF92EF92E0
:100C4000FF920F931F93CF93DF93D82FC62F61325C
:100C500008F098C00E9456046B017C018091B70295
:100C600081116BC081E08093B7028093B6029FEF41
:100C70009093B5021092B4029C0F9093B3028093AC
:100C8000920280919202DD0FD82BD0939202809134
:100C90009102813009F078C0109291020E945604AE
:100CA0006B017C01809192028093BB008091B9021C
:100CB0009091BA02A091BB02B091BC02892B8A2B01
:100CC0008B2BA1F00E9456040091B9021091BA0238
:100CD0002091BB023091BC026C197D098E099F09DD
:100CE000061717072807390708F448C08091BC0089
:100CF00083FDD8CF85EC8093BC000E9456046B0125
:100D00007C018091B702813009F440C08091B40227
:100D10008C1710F4C091B402E3E9F2E0AFE6B2E060
:100D200080E08C1355C08C2FDF91CF911F910F91D4
:100D3000FF90EF90DF90CF9008958091B90290914D
:100D4000BA02A091BB02B091BC02892B8A2B8B2BDB
:100D500009F484CF0E9456040091B9021091BA029E
:100D60002091BB023091BC026C197D098E099F094C
:100D7000061717072807390708F070CF8091B802C7
:100D80000E941505C0E0CFCF85EEB5CF8091B902A6
:100D90009091BA02A091BB02B091BC02892B8A2B20
:100DA0008B2B09F4AECF0E9456040091B90210912A
:100DB000BA022091BB023091BC026C197D098E09E8
:100DC0009F09061717072807390708F09ACFD6CFCB
:100DD00091919D938F5FA5CF0895E09190028091AE
:100DE0008F02E81730F4F0E0E159FD4F808190E088
:100DF00008958FEF9FEF0895CF92DF92EF92FF92C9
:100E00000F931F93CF93DF937C01CB018A01209135
:100E1000BD02222389F0EB016B01C40ED51ECC1557
:100E2000DD0569F06991D701ED91FC910190F081A8
:100E3000E02DC7010995F3CF642F0E94B904C801C2
:100E4000DF91CF911F910F91FF90EF90DF90CF90A6
:100E50000895CF93DF931F92CDB7DEB769832091BA
:100E6000BD022223F9F02091E002203258F021E067
:100E700030E0FC013383228390E080E00F90DF912B
:100E8000CF9108958091BE02E82FF0E0E154FD4F2C
:100E9000998190838F5F8093BE028093E00281E00E
:100EA00090E0ECCF61E0CE0101960E94B904F7CF4B
:100EB000CF93DF93D82FC62F80912E030E94250356
:100EC0006D2F81EE92E00E9429076C2F81EE92E057
:100ED0000E942907DF91CF910C9436050F931F9341
:100EE000CF93DF93082F162FC3EFD2E08C8D0E9493
:100EF0002503602F81EE92E00E942907612F81EE89
:100F000092E00E9429070E943605888FDF91CF91D9
:100F10001F910F9108950F931F93CF93DF93082F85
:100F2000162FC3EFD2E08B8D0E942503602F81EE38
:100F300092E00E942907612F81EE92E00E9429072A
:100F40000E943605888FDF91CF911F910F910895F0
:100F500020910C0330910D032330310511F40C94D2
:100F60006E070C948B07682F81EE92E00C94290792
:100F7000CF93C82F809123030E94250380E290E045
:100F80000E94B3076C2F81EE92E00E942907CF9157
:100F90000C94360590E080E00895CF93DF93F894A9
:100FA000DC01AA57BF4F2C912034F8F470E030E0F8
:100FB00020E0442311F020E031E0FC01EE57FF4F28
:100FC000C081D181622B732B798368832C912F5F31
:100FD0002C93208131812E5F3F4F2E173F0718F051
:100FE0009C012E5F3F4F31832083FC01E057FF4F70
:100FF0008081811108C081E080838091C1008F765B
:1010000088628093C1007894DF91CF910895FC01AC
:10101000E157FF4F208140E02223F9F0F894A0919E
:101020008601B0918701A357BF4F0D90BC91A02DB1
:101030004C912081215020833297208131812F5F74
:101040003F4FBC0165577F4F2617370718F09C01AB
:1010500029573F4F318320837894842F0895089532
:101060008091E901853010F48150089585508330D6
:1010700010F085E0089584E00895CF93C82F862F5F
:101080000E944404BC01990F880B990B0E943330D5
:1010900020E030E040E85AE30E94B53120E030E43F
:1010A0004CE955E40E94B53124E0C29FF0011124BF
:1010B000E05EFE4F20813181428153810E94B53133
:1010C0000E94F52FCF910895CF93DF93EC011092FA
:1010D000C0008CE08093C10086E38093C200109230
:1010E000C50082E38093C40080E00E94D00381E0C9
:1010F0000E94D003FE01329680E8DF011D928A959E
:10110000E9F7DE01AE57BF4F1196FC93EE931296AE
:10111000ED93FC93EC57FF4F1082319684E0DF0192
:101120001D928A95E9F7DE01A557BF4F1196FC93F2
:10113000EE931296ED93FC933896108231961082BE
:10114000D0938701C0938601DF91CF9108950E94CB
:101150001D061092900280938F0208951F93CF93E3
:10116000DF93182FCEE2D3E088810E942503612F00
:1011700081EE92E00E9429070E94360561E0888195
:101180000E94A7080E944203DF91CF911F9108950A
:101190001F93CF93DF93182FCEE2D3E088810E9474
:1011A0002503612F81EE92E00E9429070E943605F7
:1011B00062E088810E94A7080E944203C82F0E9413
:1011C000420320E0822B9C2BDF91CF911F91089549
:1011D0000E94C8089827892798270895CF93DF93FE
:1011E00066EB80EE0E94580764E670E080E090E0D5
:1011F0000E947B0488E80E94E8089093390380935A
:1012000038038AE80E94E80890933B0380933A03EE
:101210008CE80E94E80890933D0380933C038EE89D
:101220000E94E80890933F0380933E0380E90E9468
:10123000E808909341038093400382E90E94E80804
:10124000909343038093420384E90E94E8089093BB
:1012500045038093440386E90E94E808909347037E
:101260008093460388E90E94E8089093490380939D
:1012700048038AE90E94E80890934B0380934A034D
:101280008CE90E94E80890934D0380934C038EE90B
:101290000E94E80890934F0380934E0380912F03A0
:1012A0008230F1F581EA0E94AE088093500381EE0E
:1012B0000E94E808909352038093510383EE0E94AA
:1012C000AE088093530384EE0E94AE08C82F85EECB
:1012D0000E94AE0890E1C99F900111248F70282BC5
:1012E000309355032093540386EE0E94AE08C82F16
:1012F00085EE0E94AE0890E1C99FE001112490E0C4
:1013000024E0959587952A95E1F78C2B9D2B90935A
:1013100057038093560387EE0E94AE0880935803CC
:1013200089ED80935A0380915B038F718062809373
:101330005B0380915903807C806280935903809184
:101340002F03823021F461E082EF0E9458078091E0
:101350005903682F677090E2699FB0011124282F0C
:10136000269526952695277098E0299F90011124AF
:10137000622B87FB882780F9682B85EF0E9458072E
:1013800080915A03682F677090E2699FB001112421
:10139000282F269526952695277098E0299F90015D
:1013A0001124622B8295869586958370682B84EF35
:1013B000DF91CF910C94580780932E030E94FE0476
:1013C00080ED0E94AE08883529F0803661F01092D9
:1013D0002F0305C081E080932F030E94EE088091C7
:1013E0002F0390E0089582E0F6CF8F929F92AF9204
:1013F000BF92CF92DF92EF92FF92CF93DF93F82EBE
:10140000CEE2D3E088810E9425036F2D81EE92E029
:101410000E9429070E94360563E088810E94A70880
:101420000E944203092E000CAA0BBB0B8824982EA5
:10143000A92EBA2E0E944203092E000CAA0BBB0B48
:101440006C017D01C828D928EA28FB28FE2CED2C48
:10145000DC2CCC240E944203BC01990F880B990B11
:101460006C297D298E299F29DF91CF91FF90EF90E4
:10147000DF90CF90BF90AF909F908F9008958F9204
:101480009F92AF92BF92CF92DF92EF92FF920F9313
:101490001F938AEF0E94F509EEE2F3E002851385BF
:1014A00030E020E0C72ED82EE92EFF24E7FCFA9486
:1014B000C01AD10AE20AF30A57E095958795779505
:1014C00067955A95D1F7000F111F221F331F4B014B
:1014D0005C01801A910AA20AB30AA5019401A485AD
:1014E000B5850E94C5334B015C01BBE0B594A79460
:1014F00097948794BA95D1F7A7019601C701B601D1
:101500000E9479339B01AC011CE0559547953795B6
:1015100027951A95D1F7A685B7850E94C5339B01FB
:10152000AC010EE055954795379527950A95D1F76B
:10153000280D391D4A1D5B1D26833783408751873F
:10154000A5E0B0E00E94BA3360587F4F8F4F9F4FA5
:10155000672F782F892F992787FD9A950E9433301E
:1015600020E030E048EC52E40E94832F1F910F915D
:10157000FF90EF90DF90CF90BF90AF909F908F90B3
:1015800008952F923F924F925F926F927F928F9227
:101590009F92AF92BF92CF92DF92EF92FF920F9302
:1015A0001F93CF93DF93CDB7DEB76B970FB6F89449
:1015B000DEBF0FBECDBF0E943F0A87EF0E94F50934
:1015C0006E8B7F8B888F998F809134039091350338
:1015D000A0913603B09137036C017D01FF0CCC085C
:1015E000DC2C76019C01AD016C2D7C2D8C2D9C2D6D
:1015F000345F4140510961097109810991092987C5
:101600003A874B87652E762E872E982E9B8F590111
:10161000C42ED52EE62EF72E082F192F0E94CD337B
:10162000322E232E488B598B6A8B7B8B8C8B9D8B18
:101630003091410320914003932F990F990B492F2B
:10164000592F692F792F892F0E94CD330CE00E94EA
:10165000363529833C874A8F5D876E877F87582E72
:10166000492E3091430320914203932F990F990BF8
:10167000A32CB22CC888D988EA88FB880C891D89DC
:10168000492F592F692F792F892F0E94CD3308E0D8
:101690000E944F35A980BC84CA8CDD84EE84FF840F
:1016A000052D142D0E946C3570588F4F9F4FE0917F
:1016B0003E03F0913F035F01D12CC12CE12CF12CB2
:1016C0008701E983BA82CB82DC82ED82FE820F83BE
:1016D0001887C12CD12CE12CF12C00E010E00E94E5
:1016E000CD3301E20E944F352A8F532E49835C8708
:1016F0006D877E878F87492EA0E00E948A3509F486
:1017000036C13091490320914803932F990F990BCB
:10171000A32CB22CC888D988EA88FB880C891D893B
:10172000492F592F692F792F892F0E94CD33190105
:10173000488B598B6A8B7B8B8C8B9D8B30914703AD
:1017400020914603932F990F990BA984BA84CB84D7
:10175000D62CE72CF82C092D1B8D492F592F692FDA
:10176000792F892F0E94CD3301E10E943635510136
:10177000C888D988EA88FB880C891D890E946C3545
:1017800059016A017B01382E192F4E895F89688DB6
:10179000798D84E075956795579547958A95D1F72A
:1017A00080E090E0A0E1B0E0841B950BA60BB70BA6
:1017B0003C014D01990C6608762C43019C01AD015A
:1017C000662D762D862D962D0FE10E943635722ED0
:1017D000832E942E5987B62FA72FF82FE92F3091FB
:1017E000450320914403932F990F990B492F592FAB
:1017F000692F792F892F03E20E943635032D0E942D
:101800006C3559016A017B018C01272D382D492D3A
:1018100059856B2F7A2F8F2F9E2F0E948135E5E3FC
:10182000AE2EFCE0BF2EC12CD12CE12CF12C00E01F
:1018300010E00E94CD33AA8CB52CC980DC84ED84E5
:10184000FE840F85142D0E9461342F873E874987BF
:101850005A876B8779838C879D870DE00E944F356F
:10186000922E832E742E652E562E472E382E292E1C
:1018700030914F0320914E03932F990F990BA92C70
:10188000B82CC72CD62CE52CF42C032D122D492F67
:10189000592F692F792F892F0E94CD330E94CD3384
:1018A00009E10E944F35AF84BE84C984DA84EB8499
:1018B000F9800C851D850E946C3519012A013B01B8
:1018C0004C0130914D0320914C03932F990F990BAC
:1018D000492F592F692F792F892F0E94CD3303E18A
:1018E0000E944F3559016A017B018C019101A201CF
:1018F000B301C4010E946C3508E00E944F355901C4
:101900006A017B01E82F192F30914B0320914A0384
:10191000932F990F990B492F592F692F792F892FC1
:1019200004E00E9436350E2F0E946C350E942B3049
:1019300020E030E040E85BE30E94B5316B960FB6E3
:10194000F894DEBF0FBECDBFDF91CF911F910F91F5
:10195000FF90EF90DF90CF90BF90AF909F908F90CF
:101960007F906F905F904F903F902F90089560E030
:1019700070E0CB01E3CFCF93DF93C82FD62F0E9427
:1019800025036D2F81EE92E00E9429070E94360503
:1019900081110EC061E08C2F0E94A70890918F02E8
:1019A00080919002981721F0DF91CF910C9442031F
:1019B0008FEF9FEFDF91CF910895CF93C82F0E94B3
:1019C00025038FE090E00E94B3070E94360561E096
:1019D0008C2F0E94A70890918F02809190029817F7
:1019E00019F0CF910C9442038FEF9FEFCF910895A0
:1019F0001F93CF93DF9387E70E94250360E081EE7A
:101A000092E00E9429070E94360587E70E9425037D
:101A100063E087E70E941D061092900280938F0278
:101A2000811101C0FFCF0E944203182F0E94420380
:101A3000C82F0E944203D82F0E9436056C2F70E0F9
:101A400090E080E0982F872F762F6627812B6D2BD3
:101A5000DF91CF911F910895EF92FF921F93CF9343
:101A6000DF93CDB7DEB76E970FB6F894DEBF0FBE2B
:101A7000CDBF10927C0310927B0385EF93E090938F
:101A8000780380937703E0E8F3E080E2DF011D92C2
:101A90008A95E9F710E0F12CE12C609177037091C1
:101AA00078036E0D7F1D4EE150E0CE0101960E943D
:101AB000802EE981EE23A9F0E03220F4F0E0E45A30
:101AC000FC4F14A380917B0390917C03019690932B
:101AD0007C0380937B03BEE1EB0EF11C1F5F103291
:101AE000E1F66E960FB6F894DEBF0FBECDBFDF9164
:101AF000CF911F91FF90EF900895CF93C82F8091C1
:101B00007B0390917C03892B11F40E942C0DEC2F08
:101B1000F0E0E45AFC4F24A1822F90E040917B0337
:101B200050917C03841795079CF433E09595879535
:101B30003A95E1F7FC01E056FC4F277081E090E018
:101B400001C0880F2A95EAF78095908189238083C8
:101B50001092600310927F0310927D03CF9108953D
:101B6000EF92FF920F931F93CF93DF93CDB7DEB722
:101B70006E970FB6F894DEBF0FBECDBF8C017B0110
:101B80002EE1269FC001279F900D112460917703BD
:101B900070917803680F791F4EE150E0CE010196F5
:101BA0000E94802E8D8DD8015F968C935F978981DE
:101BB00012968C9325E02E9DC0012F9D900D11242F
:101BC000A0917903B0917A03A80FB91F4D915D914F
:101BD0006D917C91F8014383548365837683E09112
:101BE0007903F0917A03E80FF91F8481D8011896E0
:101BF0008C93A801475F5F4F9E012E5F3F4FDA0134
:101C000080E0F90191919F01992329F0833119F026
:101C10008F5F9D93F6CFD8015D968C93DE0156962B
:101C2000FA01E80FF11D90E02D91222339F0382FB1
:101C3000390F333118F49F5F2193F6CFD8015E96A8
:101C40009C935E9710828E8D8130C9F08230D9F0DE
:101C5000F801878D8630D8F4843038F58823E1F098
:101C60008130F9F06E960FB6F894DEBF0FBECDBF8F
:101C7000DF91CF911F910F91FF90EF90089580E237
:101C8000F80180A3E5CF80E490968C93E1CF885053
:101C9000823040F785E006C082E0D80191968C93AF
:101CA000E1CF83E0F80181A3DDCF84E0F6CF8F920E
:101CB0009F92AF92BF92EF92FF920F931F93CF9399
:101CC000DF93CDB7DEB7A2970FB6F894DEBF0FBE95
:101CD000CDBF811147C01092A8031092AE0310919E
:101CE0007603812F880F880F880F8093AF03412FD1
:101CF00050E062E673E080EB93E00E94FF36165FEF
:101D00008EE78093A6038FE28093A7038091A803B8
:101D10009EEF910F892B8093A80389E08093A903FC
:101D200084EA8093AA038091E8038093AB038091B7
:101D3000E9038093AC031092AD03E12FF0E0A8EA31
:101D4000B3E092E080E037E0911708F0A1C12D9157
:101D5000822728E087FF9AC1880F83272150D1F777
:101D60009F5FF2CF20917B0330917C03982F969553
:101D70009217130611F00CF06CC080FD6AC010E0E1
:101D800000E088248A94982C540180917B039091E0
:101D90007C03081719070CF077C120917F03622F8D
:101DA00070E01B828C829D82AE82BF821E8E1F8E4F
:101DB00018A219A21AA2FB0133E0F595E7953A950E
:101DC000E1F7E056FC4F808190E0277002C09595C6
:101DD00087952A95E2F781708887882321F0CE01C4
:101DE00001960E94B00D80917F038F5F80937F03E7
:101DF00020917B0330917C038217130614F010921C
:101E00007F038885882311F11092A8038B8180932A
:101E1000AE038E8D68E0869F900111248F8D822BFA
:101E20008093AF0380E01AE0180FEAE0F0E0EC0FD7
:101E3000FD1FE80FF11D9081992309F461CF8F5F99
:101E4000E12FF0E0EA55FC4F9083EDCF0F5F1F4F7D
:101E50009CCF80E48093A803F12CE12C18E0882427
:101E60008A94982C540120917D03622F70E01B828C
:101E70008C829D82AE82BF821E8E1F8E18A219A2F6
:101E80001AA2FB0183E0F595E7958A95E1F7E05604
:101E9000FC4F808190E0277002C0959587952A9528
:101EA000E2F781708887882321F0CE0101960E9495
:101EB000B00D8885882309F46DC080917E03698503
:101EC0000E948933911166C0212F30E08AA190E0F1
:101ED0004B81403100F10296820F931F4E970CF018
:101EE0000FCF2A553C4F88A18F70D9018C9382E087
:101EF000810F1F5FE12FF0E0EA55FC4F408398A16E
:101F0000943009F476C0D8F49923B1F1913009F4F2
:101F10005CC010E03EC00196820F931F4E970CF0FC
:101F2000EFCE81E0810F2A553C4F98A19F70B0E120
:101F30004B9FA0011124942BF9019083E0CF98309E
:101F400009F470C0993009F488C0953011F76C819C
:101F50005D814E819F81282F30E0F901EA55FC4FC9
:101F60006083F901E955FC4F508328553C4F907828
:101F7000942BD9019C9354C02C819F81E82FF0E0D1
:101F8000EA55FC4F90782F71922B29A1922B9083C8
:101F900011E0180F80917D038F5F80937D03209166
:101FA0007B0330917C03821713063CF010927D0373
:101FB00080917E038F5F80937E03BFEFEB1AFB0A55
:101FC000E216F3060CF44FCF9BCE3C819D812F810E
:101FD000482F50E0FA01EA55FC4F308349555C4FD9
:101FE0009F712078922B29A1922BDA019C9312E009
:101FF000D0CF6C813D819E812F81482F50E0FA0126
:10200000EA55FC4F6083FA01E955FC4F308348558F
:102010005C4F9F712078922B29A1922BFA0190831B
:1020200013E0B7CF6C815D814E819F81282F30E016
:10203000F901EA55FC4F6083F901E955FC4F5083E3
:10204000F901E855FC4F408327553C4F9F7949A142
:10205000942BF901908314E09CCF6C815D814E81BB
:102060009F81282F30E0F901EA55FC4F6083F90188
:10207000E955FC4F5083F901E855FC4F4083275543
:102080003C4FD9019C93E7CF10E03ACE880F66CE43
:10209000EA55FC4F80838091A4039091A503DC0155
:1020A000ED91FC910280F381E02D40E06EE709950F
:1020B00001E01017A0F08091A4039091A503A02F38
:1020C000B0E0AA55BC4FFC0120813181F901228189
:1020D000338141E06C91F90109950F5FEACFA29637
:1020E0000FB6F894DEBF0FBECDBFDF91CF911F9129
:1020F0000F91FF90EF90BF90AF909F908F900895B9
:102100002F923F924F925F926F927F928F929F9207
:10211000AF92BF92CF92DF92EF92FF920F931F93F5
:10212000CF93DF93CDB7DEB7A0970FB6F894DEBF9D
:102130000FBECDBF1C010E94AD0400911B02109187
:102140001C0220911D0230911E0206171707280756
:10215000390708F096C48091210290912202A09143
:102160002302B09124020196A11DB11D809321028A
:1021700090932202A0932302B09324028436910507
:10218000A105B10561F51092200220E836EE45EC7C
:1021900057E460914D0270914E0280914F029091F0
:1021A00050020E94832F2BEA3CED42E45EE30E9442
:1021B00022329B01AC0160E070E080E89FE30E9466
:1021C0009F2E20E03AE24DE257E40E94B531609341
:1021D000290270932A0280932B0290932C02809103
:1021E0002D0290912E028130910509F020C40E94A9
:1021F000F80C6D8B7E8B8F8B988F60934102709360
:102200004202809343029093440280913D02909158
:102210003E02B0E0A0E0BA2FA92F982F8827409067
:102220004502509046026090470270904802481A5A
:10223000590A6A0A7B0A60913F027091400290E05D
:1022400080E0A30192010E942534122F3D8349832F
:10225000B52FF62FE72FF82E092FA0E00E948A3520
:1022600084F42150310940485F4F6F4F7F4F8F4FAB
:102270009F4F122F3D834983B52FF62FE72FF82E5E
:10228000092F212F3D8149815B2F6F2F7E2F8F2DAD
:10229000902F07E10E944F352053384F4F4F5F4F2B
:1022A00029833A834B835C83109257021092580221
:1022B0001092590210925A0230911F023D8333232B
:1022C000E9F049815A816B817C81403D574061052D
:1022D0007105A4F4A3019201C301B2010E947933F4
:1022E0002FEF3FEF4FEF5FE70E94953320935702A8
:1022F000309358024093590250935A0280915702EA
:1023000090915802A0915902B0915A0229813A81C4
:102310004B815C81281B390B4A0B5B0BDA01C9012D
:102320008093510290935202A0935302B0935402AF
:1023300060913B0270913C0290E080E0A301920129
:102340000E942534122F3A874987B52FF62FE72FA1
:10235000F82E092FA0E00E948A355CF4AFE70E94B6
:102360007535122F3A874987B52FF62FE72FF82EAC
:10237000092F212F3A8549855B2F6F2F7E2F8F2DB7
:10238000902F07E00E944F3549014A875987B62FA1
:10239000A72FF82FE92FA0903702B09038029501AF
:1023A00040E050E060E070E080E090E000E10E94FA
:1023B000363559016A017B018C0194014A855985A2
:1023C0006B2F7A2F8F2F9E2F0E946C3529873A878B
:1023D0004B875C876D877E878F87988B60913902EA
:1023E00070913A0290E080E0A30192010E942534AE
:1023F000122F3A8B498BB52FF62FE72FF82E092F86
:10240000A0E00E948A3584F421503F4F4F4F5F4F28
:102410006F4F7F4F8F4F9F4F122F3A8B498BB52FA6
:10242000F62FE72FF82E092F212F3A8949895B2FA4
:102430006F2F7E2F8F2D902F08E00E944F3549017E
:102440004A8B598BB62FA72FF82FE92FA090350272
:10245000B0903602D12CC12C9501A60160E070E04D
:1024600080E090E00FE00E94363559016A017B015F
:102470008C0194014A8959896B2F7A2F8F2F9E2FB7
:102480000E946C35298BF32FE42F852E6A8B7B8B72
:10249000982E9C8B3D81332309F434C110925B024A
:1024A00010925C0210925D0210925E0210925F0226
:1024B0001092600210926102109262021092630206
:1024C00010926402109265021092660210926702E6
:1024D000109268021092690210926A0249815A8130
:1024E0006B817C81403D87E05807610571050CF0E8
:1024F000C5C0CB01BA01605D7740810991099B019C
:10250000AC010E9479339B01AC01A5E0B0E00E94D0
:10251000BA337B018C0115950795F794E7942B014D
:102520003C01770C4408542C3201E0925B02F0929B
:102530005C0200935D0210935E0240925F02409243
:10254000600240926102409262029B01AC0162E033
:1025500055954795379527956A95D1F72D833E83F5
:102560004F8358872093630230936402409365023F
:10257000509366024092670240926802409269025C
:1025800040926A0249815A816B817C8144328AEF90
:1025900058078FEF680778070CF070C0CB01BA01BD
:1025A00064527A4F8F4F9F4F9B01AC010E94793349
:1025B00069837A838B839C83A7E0B0E09B01AC01A5
:1025C0000E94BA335B016C01DD0CAA08BA2C6501CC
:1025D0009B01AC016A2D7A2D8A2D9A2D5701680135
:1025E000E42CF42C042D142D0E946C3520935B02F6
:1025F00030935C0240935D0250935E0260935F02F1
:10260000709360028093610290936202ABE0B0E04D
:1026100029813A814B815C810E94BA339B01AC01D4
:10262000559547953795279529833A834B835C8346
:102630006B017C01FF0CCC08DC2C760129813A81EE
:102640004B815C816C2D7C2D8C2D9C2DAD80BE80B2
:10265000CF80D884E42CF42C0E946C352093630244
:102660003093640240936502509366026093670260
:10267000709368028093690290936A0229853A8573
:102680004B855C856D857E858F859889A0905B02E2
:10269000B0905C02C0905D02D0905E02E0905F025C
:1026A000F090600200916102109162020E948135F7
:1026B00029873A874B875C876D877E878F87988BC2
:1026C00029893F2F4E2F582D6A897B89892D9C8916
:1026D000A0906302B0906402C0906502D090660240
:1026E000E0906702F09068020091690210916A021E
:1026F0000E948135298BF32FE42F852E6A8B7B8BEB
:10270000982E9C8B6D897E898F89988DAB01BC0139
:1027100080E090E0DC01498F5A8F6B8F7C8F8D8F2A
:102720009E8FAF8FB8A3A988BF2ECE2ED82CEA8853
:10273000FB88092D1C899A01AB0160E070E080E004
:1027400090E00E94CD33122F3D834983B52FF62FA1
:10275000E72FF82E092FA0E00E948A3584F421503B
:102760003109404E5F4F6F4F7F4F8F4F9F4F122F5A
:102770003D834983B52FF62FE72FF82E092F212F00
:102780003D8149815B2F6F2F7E2F8F2D902F05E18B
:102790000E944F35A984BA84CB84DC84ED84FE8406
:1027A0000F8518890E948135122F3D834983B52FEB
:1027B000F62FE72FF82E092FA0E00E948A3584F427
:1027C000215030484F4F5F4F6F4F7F4F8F4F9F4F7C
:1027D000122F3D834983B52FF62FE72FF82E092FAF
:1027E000212F3D8149815B2F6F2F7E2F8F2D902FC1
:1027F0000FE00E944F35B901CA012093490270933E
:102800004A0240934B0290934C020E9433306B017A
:102810007C01AC019B0160914D0270914E02809150
:102820004F02909150020E949F2E209125023091DC
:10283000260240912702509128020E94B531A7013B
:1028400096010E94A02E60934D0270934E028093D9
:102850004F02909350020E94AD0400911702109114
:1028600018022091190230911A024B015C01801A62
:10287000910AA20AB30A20E836EE45EC57E46091CB
:102880004D0270914E0280914F02909150020E9431
:10289000832F2BEA3CED42E45EE30E9422329B014F
:1028A000AC0160E070E080E89FE30E949F2E20E092
:1028B0003AE24DE257E40E94B53120E030E048ECC6
:1028C00052E40E94B5316B017C0180912002882383
:1028D00041F0C0921302D0921402E0921502F092DD
:1028E000160220911302309114024091150250916A
:1028F0001602C701B6010E949F2E2B013C01C501A3
:10290000B4010E9431309B01AC0160E070E08AE7C5
:1029100094E40E94832F9B01AC01C301B2010E9489
:10292000B5314B015C0160912F0270913002072E8E
:10293000000C880B990B0E943330A50194010E9472
:102940009F2E2091310230913202409133025091FA
:1029500034020E94B531A50194010E94A02E0E946C
:10296000F52F7093300260932F02C0921302D09221
:102970001402E0921502F09216020E94AD046093D8
:102980001702709318028093190290931A0271E053
:102990007D8380912D0290912E028215930509F07E
:1029A0001D828091560289832114310409F451C09B
:1029B00030922E0220922D0292E02916310409F065
:1029C00044C0805B898387E70E942503698181EE8B
:1029D00092E00E9429070E9436050E94AD042091D2
:1029E0005502620F711D811D911D60931B02709332
:1029F0001C0280931D0290931E028D81A0960FB63B
:102A0000F894DEBF0FBECDBFDF91CF911F910F9124
:102A1000FF90EF90DF90CF90BF90AF909F908F90FE
:102A20007F906F905F904F903F902F900895029706
:102A300009F0ADCF0E94F80C6093450270934602F6
:102A40008093470290934802A2CFA981A05CA983FA
:102A5000BACF8091210280FD0AC082E090E090937D
:102A60002E0280932D02B981B05BB983ACCF81E097
:102A700090E090932E0280932D022981205C29837F
:102A8000A2CF1D82BACF82E090E00E948010811117
:102A900007C061E070E080E090E00E947B04F3CF2B
:102AA00060914502709146028091470290914802E0
:102AB00008954F925F926F927F928F929F92AF9202
:102AC000BF92CF92DF92EF92FF92CF93DF9300D02D
:102AD00000D000D0CDB7DEB79E838D83DC014D9052
:102AE0005D906D907C90139714968D909D90AD9015
:102AF000BC90179718968D919D910D90BC91A02D2B
:102B000089839A83AB83BC83A3019201C301B20181
:102B10000E94B5316B017C01A5019401C501B4018E
:102B20000E94B5319B01AC01C701B6010E94A02EE5
:102B30006B017C0129813A814B815C81CA01B90119
:102B40000E94B5319B01AC01C701B6010E94A02EC5
:102B50000E9478326B017C01AC019B01C301B20180
:102B60000E94832FED81FE81608371838283938332
:102B7000A7019601C501B4010E94832FAD81BE81DA
:102B800014966D937D938D939C931797A70196014F
:102B900069817A818B819C810E94832FED81FE81E6
:102BA000608771878287938726960FB6F894DEBF79
:102BB0000FBECDBFDF91CF91FF90EF90DF90CF9010
:102BC000BF90AF909F908F907F906F905F904F904D
:102BD00008954F925F926F927F928F929F92AF92E1
:102BE000BF92CF92DF92EF92FF92CF93DF93CDB758
:102BF000DEB7AA970FB6F894DEBF0FBECDBF498FE0
:102C00005A8F6B8F7C8F8D8F9E8F60910503709193
:102C10000603072E000C880B990BC090FF02D09082
:102C200000030D2C000CEE08FF086C0D7D1D8E1DA1
:102C30009F1D22E0C22ED12CE12CF12CA701960180
:102C40000E9495338091F9029091FA02092E000CAE
:102C5000AA0BBB0B4C015D01821A930AA40AB50AA8
:102C60008F8E98A2A9A2BAA260910703709108035F
:102C7000072E000C880B990B8090010390900203A3
:102C8000092C000CAA08BB08680D791D8A1D9B1D24
:102C9000A70196010E9495338091FB029091FC025E
:102CA000092E000CAA0BBB0B4C015D01821A930A82
:102CB000A40AB50A8BA29CA2ADA2BEA26091090390
:102CC00070910A03072E000C880B990B8090030368
:102CD00090900403092C000CAA08BB08680D791D0C
:102CE0008A1D9B1DA70196010E949533C090FD028D
:102CF000D090FE020D2C000CEE08FF08C21AD30A79
:102D0000E40AF50A4090F7025090F802052C000CF6
:102D1000660877088091F5029091F6024C01990FB0
:102D2000AA08BB088FA298A6A9A6BAA62BA13CA167
:102D30004DA15EA1C301B2010E9479334B015C0138
:102D4000A70196016FA178A589A59AA50E9479335C
:102D5000A5019401261B370B480B590BCA01B90179
:102D60000E9433306D877E878F87988B8090F30227
:102D70009090F402092C000CAA08BB08A701960148
:102D8000C501B4010E9479336B017C012F8D38A1FC
:102D900049A15AA1C301B2010E947933A70196014A
:102DA000261B370B480B590BCA01B9010E9433305F
:102DB000698B7A8B8B8B9C8B2F8D38A149A15AA163
:102DC0006FA178A589A59AA50E9479336B017C0132
:102DD0002BA13CA14DA15EA1C501B4010E94793394
:102DE00046015701861A970AA80AB90AC501B40113
:102DF0000E9433306D8B7E8B8F8B988FCE010D961A
:102E00000E9459156091F5027091F602072E000C90
:102E1000880B990B0E9433306B017C018D889E8852
:102E2000AF88B88C8F8E98A2A9A2BAA26091F7023F
:102E30007091F802072E000C880B990B0E9433301A
:102E40002B013C0189889A88AB88BC888BA29CA204
:102E5000ADA2BEA22F8D38A149A15AA1C701B601CA
:102E60000E94B5314B015C012BA13CA14DA15EA19B
:102E7000C301B2010E94B5319B01AC01C501B4018F
:102E80000E949F2E69837A838B839C838D849E848A
:102E9000AF84B8888FA298A6A9A6BAA66091F302BB
:102EA0007091F402072E000C880B990B0E943330AE
:102EB0004B015C012FA138A549A55AA5C301B20158
:102EC0000E94B5312B013C01A50194016F8D78A1C1
:102ED00089A19AA10E94B5319B01AC01C301B20145
:102EE0000E949F2E6D837E838F839887A501940116
:102EF0006BA17CA18DA19EA10E94B5314B015C010B
:102F00002FA138A549A55AA5C701B6010E94B53120
:102F10009B01AC01C501B4010E949F2E69877A878D
:102F20008B879C87CE0101960E945915698D7A8DF9
:102F3000072E000C880B990B0E9433302B013C01AB
:102F40006B8D7C8D072E000C880B990B0E94333003
:102F50004B015C016D8D7E8D072E000C880B990B4B
:102F60000E9433306B017C0129813A814B815C8165
:102F7000C301B2010E94B5316F8F78A389A39AA3D0
:102F80002D813E814F815885C501B4010E94B53124
:102F90009B01AC016F8D78A189A19AA10E94A02EFE
:102FA0006F8F78A389A39AA329853A854B855C8581
:102FB000C701B6010E94B5319B01AC016F8D78A1AC
:102FC00089A19AA10E94A02E6F8F78A389A39AA3AA
:102FD0002D853E854F855889C301B2010E94B531C8
:102FE0002B013C0129893A894B895C89C501B401CF
:102FF0000E94B5319B01AC01C301B2010E94A02E19
:103000004B015C012D893E894F89588DC701B6015E
:103010000E94B5319B01AC01C501B4010E94A02EF4
:103020002F8D38A149A15AA10E941F2F20E030E026
:1030300044E353E40E94B5312BED3FE049E450E412
:103040000E94832F6B017C0120E030E0A9010E94E7
:103050007E2F87FF0AC020E030E044EB53E4C70135
:10306000B6010E94A02E6B017C01C701B601AA9691
:103070000FB6F894DEBF0FBECDBFDF91CF91FF90AA
:10308000EF90DF90CF90BF90AF909F908F907F9008
:103090006F905F904F90089585ED8093BC00809174
:1030A000B9029091BA02A091BB02B091BC020796FE
:1030B000A11DB11D23E0B695A795979587952A95F3
:1030C000D1F72091BC0024FD03C01092B7020895EF
:1030D0004091B9025091BA026091BB027091BC025A
:1030E000452B462B472B69F30097A105B10541F00D
:1030F00025E12A95F1F700000197A109B109E1CF77
:103100008091B8020C941505CF92DF92EF92FF9256
:103110000F931F93CF93DF93EB017B0124E0E20E2B
:10312000F11C8B016C01C61AD70AC601800F911FD2
:103130000E94892EF80181938F01EE15FF05A9F7F2
:10314000CE01DF91CF911F910F91FF90EF90DF9013
:10315000CF9008950C94892E9F92AF92BF92CF92F8
:10316000DF92EF92FF920F931F93CF93DF935C0157
:103170007B018B01D0E0C0E0F80191908F016501E7
:10318000CC0EDD1EC6010E94892E981621F0692DF5
:10319000C6010E94912E2196C430D10569F7C7015E
:1031A000DF91CF911F910F91FF90EF90DF90CF9023
:1031B000BF90AF909F900895CF93DF9300D000D041
:1031C000CDB7DEB719821A821B821C82BE016F5FE7
:1031D0007F4F85E190E00E94AC1819821A821B8211
:1031E0001C82BE016F5F7F4F89E190E00E94AC18A6
:1031F0000F900F900F900F90DF91CF9108950C9446
:10320000912E1F920F920FB60F9211242F933F937E
:103210008F939F93AF93BF9380910B0290910C0279
:10322000A0910D02B0910E0230910A0226E0230F08
:103230002D3758F50296A11DB11D20930A028093E7
:103240000B0290930C02A0930D02B0930E0280919A
:103250000F0290911002A0911102B09112020196FA
:10326000A11DB11D80930F0290931002A093110233
:10327000B0931202BF91AF919F918F913F912F9187
:103280000F900FBE0F901F90189529E8230F0396FB
:10329000A11DB11DD2CF1F920F920FB60F92112414
:1032A0002F933F934F935F936F937F938F939F934E
:1032B000AF93BF93EF93FF938091B900887F8036DF
:1032C00009F44AC0F0F5883209F4A7C018F5803136
:1032D00009F49BC0B8F4882309F4F9C0883009F4D4
:1032E00094C0FF91EF91BF91AF919F918F917F918A
:1032F0006F915F914F913F912F910F900FBE0F9063
:103300001F901895883109F488C0803251F7809356
:10331000B50214C0803409F49DC040F48033B9F381
:103320008833F9F68093B50285ECB0C0803509F496
:1033300085C0883509F496C0883499F60E944C18E7
:10334000D0CF883909F48CC038F5883729F050F48B
:10335000883611F0803729F683E08093B702109207
:10336000CB0157C0883809F47BC0803919F0803808
:1033700009F0B7CF8091CB01803208F071C0E091A5
:10338000CB0181E08E0F8093CB018091BB00F0E0F8
:10339000E555FE4F80833DC0803B39F0E0F4803A34
:1033A00009F479C0883A09F09CCF84E08093B70291
:1033B0001092AA011092A901E0916D02F0916E02A3
:1033C00009958091A90181110FC081E08093A90125
:1033D0001092890109C0803C09F4A6CF883C09F409
:1033E000A3CF883B09F07DCFE091AA0181E08E0F49
:1033F0008093AA01F0E0E757FE4F80818093BB00E5
:103400009091AA018091A90129C080919202809394
:10341000BB0085EC8093BC0064CF9091B402809196
:10342000B302981758F5E091B40281E08E0F8093B3
:10343000B402F0E0ED56FD4F8081E9CFE091B40297
:1034400081E08E0F8093B4028091BB00F0E0ED56D6
:10345000FD4F80839091B4028091B3029817C8F217
:1034600085E8D8CFE091B40281E08E0F8093B4025A
:103470008091BB00F0E0ED56FD4F80838091B60255
:1034800081115CCF81E08093910284EA8093BC003B
:103490001092B70226CF85EC8093BC001092B70241
:1034A0008091CB01803230F4E091CB01F0E0E55522
:1034B000FE4F10826091CB0170E0E0916B02F091C1
:1034C0006C028BEA91E009951092CB010ACF109221
:1034D000B50234CF1F920F920FB60F9211242F9383
:1034E0003F938F939F93AF93BF93EF93FF938091FD
:1034F000C600803FF1F0982F9F70D9F4209186018B
:1035000030918701F901E557FF4FA081B1818C937C
:10351000D901A157BF4F8C918F5F8C93808191818E
:1035200001968E179F0718F0C90189579F4F918305
:103530008083FF91EF91BF91AF919F918F913F91C8
:103540002F910F900FBE0F901F9018951F920F9202
:103550000FB60F9211242F933F934F935F938F9346
:103560009F93AF93BF93EF93FF93809186019091C8
:103570008701FC01EA57FF4F20812223C9F18C57B4
:103580009F4FDC01ED91FC91208131818091C10040
:1035900030FF2CC081608093C1002093C600209131
:1035A000860130918701F901EA57FF4F80818150F0
:1035B00080833297808191810296A9014E575F4F97
:1035C0008417950710F0C901029691838083FF91BB
:1035D000EF91BF91AF919F918F915F914F913F91EB
:1035E0002F910F900FBE0F901F9018958E7FD3CF05
:1035F0008091C1008F7D80648093C100E09186013D
:10360000F0918701E057FF4F1082E1CF1F920F9298
:103610000FB60F9211242F933F938F939F93EF93A5
:10362000FF93E1ECF0E08081877B8069808380916B
:103630008601909187019C0129573F4FFC01E55776
:10364000FF4F3183208332963183208381579F4FF0
:10365000FC011082FF91EF919F918F913F912F91EB
:103660000F900FBE0F901F901895E1EEF2E01382BD
:10367000128288EE93E0A0E0B0E084839583A68375
:10368000B78381E691E091838083ECE5F3E01082DB
:10369000118212821382148286E98583128E148E1F
:1036A000138E168E158E10A2178E11A281E082A3A2
:1036B00013A21092A5031092A4031092E603109295
:1036C000E70386E78093E80382E38093E9031682A9
:1036D00044E050E06FEF70E080EA93E00E9408372A
:1036E000E0E8F3E080E2DF011D928A95E9F7E1E28C
:1036F000F3E082E090E0918380838DE5828386E031
:10370000E4E1F1E0A5E0B3E001900D928A95E1F7E4
:1037100086E0EAE1F1E0AFEFB2E001900D928A9528
:10372000E1F7E3EFF2E084E090E0928F818F14A65E
:1037300013A615A61092ED020895CF93DF93CDB78F
:10374000DEB7C056D1090FB6F894DEBF0FBECDBFAD
:10375000789484B5826084BD84B5816084BD85B56C
:10376000826085BD85B5816085BD80916E00816078
:1037700080936E001092810080918100826080931E
:103780008100809181008160809381008091800020
:103790008160809380008091B10084608093B1004B
:1037A0008091B00081608093B00080917A00846045
:1037B00080937A0080917A00826080937A00809171
:1037C0007A008E7F80937A0080917A00806880935F
:1037D0007A001092C10086E70E94DC098093ED0216
:1037E000811105C087E70E94DC098093ED0280917A
:1037F000ED02811141C08DE5809323030E94DD0C11
:103800008D3B910509F0ADC081E090E090932203DB
:10381000809321038091210390912203009709F462
:10382000B4C0019709F0CBC084E290E090932703E5
:103830008093260385E290E09093290380932803E8
:1038400080E390E090932B0380932A0381E390E040
:1038500090932D0380932C030E94FE0480912103FA
:10386000909122038130910509F0A4C080EB0E9461
:10387000B80784E08093ED028091ED02833009F473
:103880001FC508F0FBC4813008F00AC583E090E052
:103890000E94AA188F3F11F08093E90184E090E024
:1038A0000E94AA188F3F31F08F57990B9093E8012F
:1038B0008093E70185E090E00E94AA188F3F11F005
:1038C0008093050186E090E00E94AA188F3F31F0B6
:1038D00091E0811101C090E09093DA0187E090E0DF
:1038E0000E94AA188F3F31F091E0811101C090E051
:1038F0009093D90188E090E00E94AA188F3F31F0A0
:1039000091E0811101C090E09093D80189E090E0AE
:103910000E94AA188F3F11F40C94102E91E081118F
:1039200001C090E09093D7016FE070E08DE10E94BC
:10393000BB0C8934910511F40C94AF2D6FE070E04D
:103940008EE10E94BB0C8934910511F00C948F2DEF
:1039500083E090E090930D0380930C038EE10C9430
:10396000B62D8B3B910561F08CE5809323030E947B
:10397000DD0C8D3B910509F447CF8B3B9105F9F4A4
:10398000109222031092210345CF83E290E090939E
:1039900027038093260384E290E090932903809389
:1039A000280385E290E090932B0380932A0386E21C
:1039B00090E04ECF892B09F05CCF80EE58CF0E946B
:1039C000FE0487E70E9425030E943605811154CF2B
:1039D0000E94FE0487E70E9425038EE190E00E948A
:1039E000B3070E9436058AE08093550288E08093F1
:1039F000560264E670E080E090E00E947B04E5E31C
:103A0000CE2EE2E0DE2E12EA87E70E942503612F28
:103A100081EE92E00E9429070E94360587E70E9406
:103A2000250362E087E70E941D06109290028093B2
:103A30008F02811101C0FFCF0E944203B82E0E9465
:103A40004203082F0E943605FB2CE12CC701802B76
:103A5000D6018D939D936D011E5F1E3AA9F61092BB
:103A60002E0210922D0286E696E6A6E6BFE380932C
:103A7000250290932602A0932702B0932802E2E346
:103A8000F0E02596FFAFEEAF259781E090E00E9431
:103A90008010811107C061E070E080E090E00E943A
:103AA0007B04F3CFC0904102D0904202E0904302E9
:103AB000F09044026396CCAEDDAEEEAEFFAE6397FF
:103AC0000E9443152B013C0180913D0290913E02E2
:103AD000B0E0A0E0BA2FA92F982F8827481A590ADA
:103AE0006A0A7B0A60913B0270913C0290E080E0A0
:103AF000A30192010E942534F22E032F142FB52F1B
:103B0000F62FE72FD82EE92EA0E00E948A355CF42C
:103B1000AFE70E947535F22E032F142FB52FF62F25
:103B2000E72FD82EE92E2F2D302F412F5B2F6F2F0F
:103B30007E2F8D2D9E2D07E00E944F3519014A01E1
:103B4000B62FA72FF82FE92FA0903702B090380298
:103B5000950140E050E060E070E080E090E000E13E
:103B60000E94363559016A017B018C019101A40143
:103B70006B2F7A2F8F2F9E2F0E946C3564962FAF5C
:103B8000649765963FAF659766964FAF6697679661
:103B90005FAF679768966FAF689769967FAF6997D1
:103BA0006A968FAF6A976B969FAF6B976091390259
:103BB00070913A0290E080E0A30192010E942534C6
:103BC000F22E032F142FB52FF62FE72FD82EE92E24
:103BD000A0E00E948A3584F421503F4F4F4F5F4F41
:103BE0006F4F7F4F8F4F9F4FF22E032F142FB52F04
:103BF000F62FE72FD82EE92E2F2D302F412F5B2FB8
:103C00006F2F7E2F8D2D9E2D08E00E944F351901BC
:103C10004A01B62FA72FF82FE92FA0903502B090B8
:103C20003602D12CC12C9501A60160E070E080E045
:103C300090E00FE00E94363559016A017B018C014A
:103C40009101A4016B2F7A2F8F2F9E2F0E946C352C
:103C5000322E232E6C964FAF6C976D965FAF6D979B
:103C60006E966FAF6E976F967FAF6F97A0968FAF80
:103C7000A097A1969FAFA19760913F0270914002DB
:103C800090E080E0A30192010E942534F22E032FE0
:103C9000142FB52FF62FE72FD82EE92EA0E00E9483
:103CA0008A3584F42150310940485F4F6F4F7F4F70
:103CB0008F4F9F4FF22E032F142FB52FF62FE72F84
:103CC000D82EE92E2F2D302F412F5B2F6F2F7E2FD7
:103CD0008D2D9E2D07E10E944F3549015A019A0111
:103CE00084010053184F2F4F3F4F23960CAF1DAF49
:103CF0002EAF3FAF239710925B0210925C0210929E
:103D00005D0210925E0210925F02109260021092A9
:103D10006102109262021092630210926402109289
:103D20006502109266021092670210926802109269
:103D3000690210926A02003D1740210531050CF01E
:103D4000C5C0A5019401C501B4010E9479339B014E
:103D5000AC01A5E0B0E00E94BA338B019C0135951F
:103D60002795179507950BAB1CAB2DAB3EAB2B01E5
:103D70003C01770C4408542C320100935B021093F1
:103D80005C0220935D0230935E0240925F0240929B
:103D9000600240926102409262029B01AC0162E0CB
:103DA00055954795379527956A95D1F72FAB38AF3D
:103DB00049AF5AAF20936302309364024093650287
:103DC00050936602409267024092680240926902F4
:103DD00040926A0223960CAD1DAD2EAD3FAD2397E8
:103DE00004321A4F2F4F3F4F0CF070C0C501B40181
:103DF0006455724F8F4F9F4F9B01AC010E947933E6
:103E000023966CAF7DAF8EAF9FAF2397A7E0B0E056
:103E10009B01AC010E94BA334B015C01BB0C8808CA
:103E2000982C54019B01AC01682D782D882D982D7C
:103E3000ABA8BCA8CDA8DEA8E42CF42C042D142D2E
:103E40000E946C3520935B0230935C0240935D02CC
:103E500050935E0260935F027093600280936102F0
:103E600090936202ABE0B0E023962CAD3DAD4EAD39
:103E70005FAD23970E94BA334B015C01B594A794C0
:103E8000979487946B017C01FF0CCC08DC2C7601A5
:103E90009401A5016C2D7C2D8C2D9C2DAFA8B8AC68
:103EA000C9ACDAACE42CF42C0E946C35209363028C
:103EB00030936402409365025093660260936702F8
:103EC000709368028093690290936A02232D322DC9
:103ED0006C964FAD6C976D965FAD6D976E966FADAE
:103EE0006E976F967FAD6F97A0968FADA097A196B6
:103EF0009FADA197A0906302B0906402C09065024C
:103F0000D0906602E0906702F0906802009169022A
:103F100010916A020E9481356396CCACDDACEEACA8
:103F2000FFAC639756016701E12CF12C00E010E033
:103F30000E94CD33F22E032F142FB52FF62FE72F2B
:103F4000D82EE92EA0E00E948A3584F42150310950
:103F5000404E5F4F6F4F7F4F8F4F9F4FF22E032F7B
:103F6000142FB52FF62FE72FD82EE92E2F2D302F17
:103F7000412F5B2F6F2F7E2F8D2D9E2D05E10E94EF
:103F80004F3539014A01B62FA72FF82FE92F649634
:103F90002FAD649765963FAD659766964FAD669772
:103FA00067965FAD679768966FAD689769967FADC6
:103FB00069976A968FAD6A976B969FAD6B97A09045
:103FC0005B02B0905C02C0905D02D0905E02E09017
:103FD0005F02F090600200916102109162020E9403
:103FE000813559016A017B018C019301A4016B2F7A
:103FF0007A2F8F2F9E2F0E948135F22E032F142FA0
:10400000B52FF62FE72FD82EE92EA0E00E948A3593
:1040100084F4215030484F4F5F4F6F4F7F4F8F4F89
:104020009F4FF22E032F142FB52FF62FE72FD82EE8
:10403000E92E2F2D302F412F5B2F6F2F7E2F8D2DAF
:104040009E2D0FE00E944F35B901CA010E94333006
:1040500060934D0270934E0280934F0290935002F2
:1040600025960EAD1FAD25970150110925961FAF5E
:104070000EAF2597012B09F008CD0E9443156093E0
:104080004502709346028093470290934802109233
:10409000300210922F0286E696E6A6E6BFE38093F2
:1040A000310290933202A0933302B09334020E9403
:1040B00043156B017C0180913D0290913E02B0E07E
:1040C000A0E0BA2FA92F982F8827C81AD90AEA0A80
:1040D000FB0A60913F027091400290E080E0A701EE
:1040E00096010E942534B22E032F142FB52FF62FE0
:1040F000E72F982EA92EA0E00E948A3584F4215043
:10410000310940485F4F6F4F7F4F8F4F9F4FB22E07
:10411000032F142FB52FF62FE72F982EA92E2B2D16
:10412000302F412F5B2F6F2F7E2F892D9A2D07E186
:104130000E944F3529013A0110ED410E17E0511E42
:10414000611C711C10925702109258021092590271
:1041500010925A0220ED421627E0520661047104C3
:10416000A4F4A7019601C701B6010E9479332FEF8D
:104170003FEF4FEF5FE70E94953320935702309354
:1041800058024093590250935A02809157029091DD
:104190005802A0915902B0915A0273016201C81AE3
:1041A000D90AEA0AFB0AC701B6010E94333020E0AF
:1041B00030E048EC52E40E94832F0E94F52F609378
:1041C000510270935202809353029093540220E85C
:1041D00036EE45EC57E460914D0270914E028091AD
:1041E0004F02909150020E94832F2BEA3CED42E453
:1041F0005EE30E9422329B01AC0160E070E080E847
:104200009FE30E949F2E20E03AE24DE257E40E9495
:10421000B5316093290270932A0280932B02909308
:104220002C0210921F021092210210922202109270
:1042300023021092240281E0809320028AE080937E
:10424000550288E0809356028FE892ECA5E7BFE321
:104250008093310290933202A0933302B0933402E0
:104260008FE195E8ABE6BFE38093250290932602A9
:10427000A0932702B093280283E0FCCA843009F09F
:1042800005CB8DEC9CECACE4BFE38093EE02909305
:10429000EF02A093F002B093F1021092F202F6CA7C
:1042A0008AE999E9A9E5BFE38093EE029093EF02D2
:1042B000A093F002B093F10285E08093F202E6CA87
:1042C0004DEC5CEC6CE47FE34093EE025093EF0224
:1042D0006093F0027093F102F0CF6FE070E08EE136
:1042E0000E94BB0CCC9711F00C94A92D21E030E07A
:1042F00082E090E00EC06FE070E08EE10E94BB0CA7
:1043000031E020E0CC9709F030E0832F922F30E0AD
:1043100020E090930D0380930C038130910569F1A7
:10432000029779F189E12130310509F088E1809324
:104330000E038EE180930F0383E090E090931303CC
:104340008093120384E090E090931503809314030C
:1043500085E090E0909317038093160386E090E049
:10436000909319038093180387E090E090931B03C8
:1043700080931A0388E090E02AC088E1213031055B
:1043800009F489E180930E038EE180930F0383E0AB
:1043900090E0909313038093120384E090E0909355
:1043A00015038093140387E090E0909317038093A4
:1043B000160388E090E0909319038093180385E03A
:1043C00090E090931B0380931A0386E090E0909313
:1043D0001D0380931C030C94DE2D0297B1F468E05A
:1043E00083E20E948B0767E480E20E948B076CE007
:1043F00080E00E946E0760E281E00E946E0760E04C
:1044000082E00E946E070C94FB2D60E083E20E9424
:104410008B0767E2E9CF823011F00C945D2E80911A
:104420000502811103C087E10E947D0D8091E901A1
:1044300081117BC080E10E947D0D81E10E947D0D94
:1044400082E10E947D0D83E10E947D0D8091DA0161
:10445000811103C084E10E947D0D8091D9018111F9
:1044600003C085E10E947D0D8091D801811103C0B8
:1044700086E10E947D0D8091D701811106C08CE1FB
:104480000E947D0D8DE10E947D0D86E78093E803FB
:1044900082E38093E903809176038111F3C0E6EA19
:1044A000F3E080E2DF011D928A95E9F740E250E0F7
:1044B00060E270E086EC93E00E94083743E150E050
:1044C0006FE671E082E693E00E940F3788E0809308
:1044D000760380917B0390917C03892B11F40E94D9
:1044E0002C0D00917B0310917C038FEF9FEF0A3915
:1044F000B9E11B0748F425E0209FC001219F900DE2
:104500001124009709F454C00E94C735FC014FEFF5
:104510005FEFBA010150110917FD4DC0408351836F
:104520006283738314823596F5CF109105011123B0
:1045300009F48CCF6FED71E085E190E00E94841862
:10454000113009F083CF0E9430086FE00E943D08CF
:104550006B017C01BE016F5F7F4F89E190E00E949B
:104560008418C701B6010E94333020E030E04AE7EA
:1045700054E40E94832F6B017C012CE53FE842E864
:104580005FE369817A818B819C810E94B5319B01B7
:10459000AC01C701B6010E94583187FD57CF109278
:1045A000DF011092E0011092E1011092E2014ECF82
:1045B00081E090E0A9CF8093790390937A0381E919
:1045C00090E00E94C73521E9FC0111922A95E9F794
:1045D00024E431E0DC012D933C939093A503809378
:1045E000A4030E9464081092600310927F0310924B
:1045F0007D030E94AD046B017C01B0EDCB0EB7E0F2
:10460000DB1EE11CF11C8091770390917803892BCC
:1046100061F10E94AD046C157D058E059F0528F59E
:1046200004E010E00E94820366E970E080E090E020
:104630000E947B0401501109A9F710E000E080916D
:104640007B0390917C0380179107ECF2802F880FF9
:104650000E94570E0E94820366E970E080E090E0BD
:104660000E947B040F5F1F4FEACF8091A4039091BB
:10467000A503DC01ED91FC910480F581E02D099505
:104680008111F3CF312C212C8E010F5F1F4FFE01C2
:10469000B296F8ABEFA79E012F5E3F4F3AAB29AB26
:1046A0000E94AD04C0900602D0900702E09008027C
:1046B000F0900902CBAADCAAEDAAFEAA6C197D092A
:1046C0008E099F09653B71058105910508F461C458
:1046D00080910502882309F4B5C085E10E94440455
:1046E0006C01E0900302F090040260910A01709165
:1046F0000B0180910C0190910D010E9433304B0110
:104700005C01B601CE14DF040CF4B7016E197F0909
:10471000072E000C880B990B0E94333020E030E00C
:1047200040E85AE30E94B53120E030E44CE955E41A
:104730000E94B531A50194010E94A02EA50194010B
:104740000E949F2E9B01AC010E94A02E6B017C0158
:1047500020EC36E44DEE5CE3C501B4010E94B531B6
:104760004B015C012BE734E948E853E46091060112
:104770007091070180910801909109010E94A02E7B
:1047800029E038E045E051E40E94B5319B01AC01DD
:10479000C501B4010E94832F9B01AC01C701B60182
:1047A0000E94832F0E9478326B017C018090FF0170
:1047B00090900002A0900102B0900202AC019B0117
:1047C000C501B4010E949F2E20E030E040E05FE38D
:1047D0000E94B531A70196010E94A02E6B017C01B9
:1047E0008091FE018130B1F4C092FA01D092FB01B8
:1047F000E092FC01F092FD01A5019401C701B60110
:104800000E949F2E6093F6017093F7018093F80148
:104810009093F901C092FF01D0920002E092010250
:10482000F092020226E636E646E650E4C701B601FB
:104830000E94B5310E94F52FAB01BC012AE087E14F
:104840000E945703F090ED02FF2009F42CC253E0C0
:10485000D52EFD1409F407C144E0E42EFE1409F43A
:1048600060C50E94C10A0E94F52F60930A017093EF
:104870000B0180930C0190930D010E94C10A0E94CC
:104880003F0A60930601709307018093080190939B
:10489000090152E0F51271C10E943F0A8DEF0E949A
:1048A000C8086C01F12CE12CC11480E8D806E104A1
:1048B000F10409F4B3C5409034035090350360907F
:1048C0003603709037039CE2591A91E0690A710827
:1048D0004EE0CC0CDD1CEE1CFF1C4A95D1F78091FC
:1048E000540390915503092E000CAA0BBB0B54E105
:1048F000880F991FAA1FBB1F5A95D1F7C81AD90A4A
:10490000EA0AFB0AA0915603B0915703A301920152
:104910000E94C533C61AD70AE80AF90AA0E4DA0EDB
:10492000E11CF11C6FE0F594E794D794C7946A9565
:10493000D1F7A0915303B0E00E94BA334B015C0160
:104940007BE0B594A794979487947A95D1F7B0E8D3
:104950009B0EA11CB11CA09158030A2E000CBB0B8E
:104960000E94C533EAE09595879577956795EA9516
:10497000D1F7A50194010E9479339B01AC01FAE0C3
:104980005595479537952795FA95D1F7405E5F4F36
:10499000A0915103B09152030E94C533705E8F4FB6
:1049A0009F4FAEE09595879577956795AA95D1F736
:1049B000A70196010E9479336B017C01BFE09595B8
:1049C000879577956795BA95D1F79B01AC010E94C1
:1049D00079339B01AC0187E055954795379527952D
:1049E0008A95D1F7A0915003B0E00E94BA3324E039
:1049F00095958795779567952A95D1F7C61AD70A21
:104A0000E80AF90AF7FE03C0C12CD12C7601E1E0D7
:104A1000CE16D104E104E9E1FE062CF0C12CD12C24
:104A2000E12C39E1F32EC701B6012CE0959587956D
:104A3000779567952A95D1F70E94333020E030E0D2
:104A400040E85AE30E94B53120E030E040E251E412
:104A50000E94B5310E94F52FAB01BC012FE08FE021
:104A60000E9457038AC08091EE029091EF02A091BC
:104A7000F002B091F1028093310290933202A09340
:104A80003302B093340260915102709152028091CE
:104A90005302909154020E94333020E030E048EC01
:104AA00052E40E94832F6093060170930701809364
:104AB00008019093090160914D0270914E0280911E
:104AC0004F02909150020E94F52F60930A0170935B
:104AD0000B0180930C0190930D010E94333020E86C
:104AE00036EE45EC57E40E94832F2BEA3CED42E47E
:104AF0005EE30E9422329B01AC0160E070E080E83E
:104B00009FE30E949F2E20E03AE24DE257E40E948C
:104B1000B5316B017C010E94F52F6093F201709317
:104B2000F3018093F4019093F501209129023091D3
:104B30002A0240912B0250912C02C701B6010E941B
:104B40009F2E20E030E040E251E40E94B5310E9407
:104B5000F52F6093EE017093EF018093F001909335
:104B6000F10180912F02909130029C01990F440B2A
:104B7000550B2BAF3CAF4DAF5EAF0E94AD04209103
:104B8000FE01213081F4CBA8DCA8EDA8FEA86C19A9
:104B90007D098E099F096093EA017093EB01809370
:104BA000EC019093ED01C090EA01D090EB01E09010
:104BB000EC01F090ED01D701C6010197A109B109FF
:104BC000873B9B40A105B10590F520E038E44FE11B
:104BD00056E46091FA017091FB018091FC01909183
:104BE000FD010E94B5312091F6013091F70140910D
:104BF000F8015091F9010E94B5314B015C01C701E8
:104C0000B6010E9431309B01AC01C501B4010E9484
:104C1000832F0E94F52FCBACDCACEDACFEACC60E06
:104C2000D71EE81EF91ECBAEDCAEEDAEFEAE809117
:104C3000F202482F50E070E060E0CBACDCACEDACB1
:104C4000FEAC4C155D056E057F050CF0ECC3C41A77
:104C5000D50AE60AF70AB701A60125E086E00E9418
:104C6000570340910A0150910B0160910C01709122
:104C70000D012FE08DE00E94570320E030E040E27C
:104C800051E46091060170910701809108019091B3
:104C900009010E94B5310E94F52FAB01BC012FE044
:104CA0008EE00E9457030E94AD0460930602709349
:104CB00007028093080290930902F090E901FF2017
:104CC00009F4EBC00E9430086FE00E943D080E948A
:104CD000333020E030E04AE754E40E94832F6983B8
:104CE0007A838B839C8320E030E040E251E40E9491
:104CF000B5310E94F52FAB01BC0125E080E10E9497
:104D0000570334E070E060E03F1538F44BE068E5AD
:104D100072E04F1510F064EC79E0C090E701D0909C
:104D2000E801C60ED71E8EE00E944404BC01990F14
:104D3000880B990B0E94333020E030E040E85AE3C2
:104D40000E94B53120E030E44CE955E40E94B531D1
:104D50004B015C01B60190E080E00E9431309B0184
:104D6000AC01C501B4010E949F2E4B015C01EF2DE7
:104D7000F0E0E35BFE4F608170E090E080E00E9435
:104D800033309B01AC01C501B4010E94832F6B013C
:104D90007C01C092E301D092E401E092E501F0923F
:104DA000E60120E030E040E251E40E94B5310E948B
:104DB000F52FAB01BC0125E081E10E9457032FEFE5
:104DC0003FEF4FE951E4C701B6010E94832F2091C4
:104DD000DF013091E0014091E1015091E2010E9438
:104DE000A02E6093DF017093E0018093E101909326
:104DF000E2010E94F52FAB01BC012FE082E10E948D
:104E0000570380910501882391F10E94AD048090A1
:104E1000DB019090DC01A090DD01B090DE0168190B
:104E200079098A099B096131774281059105F8F07A
:104E300020E030E040E050E4C701B6010E947E2F40
:104E400018165CF06FED71E085E190E00E94AC18FF
:104E5000B80189E190E00E94AC180E94AD04609313
:104E6000DB017093DC018093DD019093DE012981E9
:104E70003A814B815C816091E3017091E401809102
:104E8000E5019091E6010E94B5310E94F52FAB013A
:104E9000BC012FE083E10E9457038091DA0188234F
:104EA00081F060E186E00E943D082AE030E040E0C9
:104EB00050E00E949533BA01A9012AE084E10E94E2
:104EC00057038091D901882381F061E187E00E9436
:104ED0003D082AE030E040E050E00E949533BA01FE
:104EE000A9012AE085E10E9457038091D801882317
:104EF00009F44FC084E10E944404BC01990F880B5F
:104F0000990B0E9433309B01AC0160E070EC8FE79D
:104F100094E40E94832F20E030E040E85FE30E94A9
:104F20009F2E9B01AC0160E070E48CE196E40E944E
:104F3000832F20E030E44CE156E40E94832F0E944E
:104F40006D3120E030EE46E755E40E94832F2FE0DC
:104F50003FEC4BE55BE30E94A02E9B01AC0160E0BF
:104F600070E080E89FE30E94832F29E939EF47E84A
:104F700053E40E949F2E20E030E040E251E40E9482
:104F8000B5310E94F52FAB01BC012FE086E10E94F4
:104F900057038091D701882309F4DAC08091D601A4
:104FA000882309F4D5C080910E030E94250388EA66
:104FB00090E00E94B3070E94360580930B0366E0E1
:104FC00080910E030E94A7080E94AD047B0180918E
:104FD0008F0290919002891B990B20911E033091B2
:104FE0001F03863091050CF03AC221153105C9F333
:104FF0000E94AD046E197F0980911E0390911F03DA
:105000008617970720F781E08093200380910F0394
:105010000E94250380910C0390910D03039709F0E2
:105020005DC2809114039091150380680E94B307BC
:105030000E94360580930B0366E080910F030E9467
:10504000A7080E94AD047B0180918F02909190028D
:10505000891B990B20911E0330911F038630910507
:105060000CF041C221153105C9F30E94AD046E193F
:105070007F0980911E0390911F038617970720F7E1
:1050800081E08093200380910C0390910D0303979E
:1050900009F079C281E0482F8BA31CA21EA21DA299
:1050A00018A61FA250E060E07EA180E098A50E94B3
:1050B000E9156B017C0120E030E040E85FEB609196
:1050C00001017091020180910301909104010E94FD
:1050D0007E2F811108C0C0920101D0920201E0929E
:1050E0000301F09204018090010190900201A090D0
:1050F0000301B0900401A5019401C701B6010E940B
:105100009F2E6B017C0120E030E0A9010E947E2FE0
:1051100087FF0AC020E030E044EB53E4C701B6014A
:105120000E94A02E6B017C01C501B4010E94F52FE5
:10513000AB01BC0125E08CE10E945703C701B60119
:105140000E94F52FAB01BC0125E08DE10E945703C1
:105150004091EE015091EF016091F0017091F101E9
:1051600025E084E00E9457034091F2015091F30141
:105170006091F4017091F5012FE085E00E945703E2
:105180008091ED02833071F590E080E00E94801004
:105190000E94AD04AB01BC018091D2019091D3017A
:1051A000A091D401B091D5010A96A11DB11D84171B
:1051B0009507A607B707B0F440912F02509130022F
:1051C000052E000C660B770B21E086E00E9457034A
:1051D0000E94AD046093D2017093D3018093D401F7
:1051E0009093D5018091A4039091A503DC01ED91EA
:1051F000FC910480F581E02D0995E82E811104C011
:10520000809100018823B1F10E94AD048090CE010D
:105210009090CF01A090D001B090D1016815790590
:105220008A059B0538F10E94AD0468537F4F8F4F6C
:105230009F4F6093CE017093CF018093D0019093E4
:10524000D101FF24F39481E1782EB0EEEB12A9C1D5
:105250008091CC019091CD018E3091053CF4019666
:105260009093CD018093CC01F092000180910001D8
:105270008111A9C180916103C0905C03D0905D034E
:10528000E0905E03F0905F03C80ED11CE11CF11C9E
:105290000E94AD046C157D058E059F05D0F10E941E
:1052A000AD0460935C0370935D0380935E03909301
:1052B0005F03C090E703CC2009F4D2C38091A4031C
:1052C0009091A503DC01ED91FC910280F381E02D2A
:1052D00040E06EE709958091A4039091A503DC015D
:1052E000ED91FC910280F381E02D41E061E90995A7
:1052F0008091A4039091A503DC01ED91FC910280C3
:10530000F381E02D41E061E309951092E7030E94EB
:10531000820380E090E0892B09F4C2C90E9400005A
:10532000B3C9809123030E94250388EA90E00E947C
:10533000B3070E94360563E0809123030E94A7080B
:105340000E944203F82E0E944203E82E0E9442036C
:10535000682F880F770B880B990BCB01772766276F
:105360002796EFAE279726961FAE269727964EAD27
:105370005FAD27974A01B12CA12C642B79298A298A
:105380009B296F290E94333020E030E040E859E348
:105390000E94B5310E94F52F60930A0170930B01B2
:1053A00080930C0190930D01809123030E942503AB
:1053B0008BEA90E00E94B3070E94360562E080917C
:1053C00023030E94A7080E944203F82E0E94420372
:1053D00029968FAF299728961FAE289729966EADEC
:1053E0007FAD29976F29072E000C880B990B0E941F
:1053F000333020E030E040EF53E40E94832F20E080
:1054000030E04AE252E40E94A02E609306017093BD
:1054100007018093080190930901AFCB60E070E031
:1054200080EC9FE711CB90E0919581959109092E31
:10543000000CAA0BBB0B2BAD3CAD4DAD5EAD2817E0
:1054400039074A075B073CF4BA01A901481B590B0D
:105450006A0B7B0B02CC40E050E0BA01FECB0E940D
:105460004203C82E0E944203B82E0E944203E82E37
:105470000E944203D82E0E944203F82E0E9442034B
:105480002B96BFAE2B972A961FAE2A972B962EAD42
:105490003FAD2B972C293093F4022093F3022D96E5
:1054A000DFAE2D972C961FAE2C972D962EAD3FADCF
:1054B0002D972E293093F6022093F5022F968FAF69
:1054C0002F972E961FAE2E972F968EAD9FAD2F97AE
:1054D0008F299093F8028093F70298CD8091120360
:1054E00090911303A3CD80910C0390910D0303972A
:1054F00021F50E944203A82E0E944203D82E0E944A
:105500004203B82E0E944203E82E0E944203C82E96
:105510000E944203F82E9D2D8A2D9093FA028093CB
:10552000F9029E2D8B2D9093FC028093FB02DF2CC1
:10553000D092FE02C092FD02A6CD0E944203D82E58
:105540000E944203A82E80910C0390910D03892B99
:1055500069F40E944203E82E0E944203B82E0E9482
:105560004203F82E0E944203C82ED5CF0E94420368
:10557000F82E0E944203C82E0E944203E82E0E9489
:105580004203B82EC8CF1AA619A68FEF682F8BA793
:105590008CA71EA61DA640E05AA57FEF80E09EA521
:1055A00086CDE0E7EE123BC08091CC019091CD0119
:1055B000181619060CF05ACE01979093CD018093DE
:1055C000CC01F09200011A8A19828091CC0190914D
:1055D000CD01789EB001799E700D11246A557D4FE2
:1055E00040E150E0CE0142960E94802EE091CC0135
:1055F000F091CD01ED30F10508F0B2C1EE5FF44D50
:105600000C94B433782CB02C802C8B2CD92CE52C1A
:10561000EE2CF72C002D0E2D152D1C2D232DF0ED2D
:10562000EF1250C38091CC019091CD01853091054E
:1056300009F451C07CF483309105F1F0049709F02E
:1056400013CE8091F202843608F00ECE8F5F8093E5
:10565000F2020ACE8730910509F44FC00CF444C021
:10566000089709F001CE80910501882309F4FCCD4B
:10567000815080930501F8CD8090EE029090EF026A
:10568000A090F002B090F10220E030E040E85FE34B
:10569000C501B4010E947E2F87FFE6CD20E030E0F7
:1056A00048EC52E4C501B4010E94B53120E030E07D
:1056B00040E85FE30E94A02E20E030E048EC52E496
:1056C0000E94832F6093EE027093EF028093F002AA
:1056D0009093F102C9CD80910502882309F4C4CDCD
:1056E000815080930502C0CD8091FE01882309F48A
:1056F000BBCD81508093FE01B7CD8091E901882315
:1057000009F4B2CD81508093E901AECD0E94DC183E
:10571000E091E901EE2381F1F0E0E35BFE4F60816F
:1057200070E090E080E00E9433302091E3013091FE
:10573000E4014091E5015091E6010E94B5314B0131
:105740005C016091E7017091E801072E000C880B65
:10575000990B0E9433309B01AC01C501B4010E943A
:10576000A02E0E94F52F6093E7017093E801615825
:1057700084E090E00E94FF18F10109958090EE020C
:105780009090EF02A090F002B090F10220E030E0A3
:10579000A901C501B4010E94583118160CF064CD5E
:1057A00020E030E048EC52E4C501B4010E94B5317C
:1057B00020E030E040E85FE30E949F2E7DCF8091A3
:1057C000F202882309F450CD815041CF8091050227
:1057D00081114ACDF092050247CD8091FE018230C1
:1057E00008F042CD8F5F86CF8091E9018F3008F0BD
:1057F0003BCD8F5F88CF80910501823008F034CD9A
:105800008F5F37CF8091DA018F258093DA012CCD1D
:105810008091D9018F258093D90126CD8091D8011F
:105820008F258093D80120CD8091D7018F2580933B
:10583000D7011ACD6091E90183E090E00E94FF1842
:105840006091050185E090E00E94FF186091DA0107
:1058500086E090E00E94FF186091D90187E090E017
:105860000E94FF186091D80188E090E00E94FF1824
:105870006091D70189E090E00E94FF1820E030E0BD
:1058800048EC52E46091EE027091EF028091F002D8
:105890009091F1020E94B5310E94F52F8BE090E0CB
:1058A0000E94FF186091F2028DE090E00E94FF18C4
:1058B000609105028EE090E00E94FF186091FE0169
:1058C0008FE090E00E94FF18F1010995D12CC12CC6
:1058D0006FEFC6010E94FF18FFEFCF1ADF0A22E325
:1058E000C216D104A9F70E94DC18F1010995BCCCBD
:1058F00040E150E065E972E0C8010E94802E30C0AE
:105900006091ED02F9E06F9FB001112468597D4F5D
:1059100040E150E0F1CF8091ED02882309F495CC6D
:1059200020E030E048EC52E46091EE027091EF022A
:105930008091F0029091F1020E94B5310E94F52F02
:105940007F936F9388E791E09F938F931F930F93BB
:105950000E941E370F900F900F900F900F900F9096
:10596000DE015296E6ECF3E080E020E29D9199237F
:1059700009F470C081116EC090833196CFA4D8A86D
:10598000CA16DB0699F7DE011196E6EDF3E080E03A
:1059900020E29D91992309F460C081115EC090833B
:1059A0003196E9A8FAA8EA16FB0699F710920001C9
:1059B00061CC8091ED02882309F447CC8091F202FA
:1059C0001F928F938FE791E0BFCF609105022AE08D
:1059D000629FB00111246C5A7D4F9ACF6091FE01F5
:1059E0003BE0639FB00111246D5C7D4F91CF6091CE
:1059F000E90140E1649FB00111246D5C7E4F88CFC6
:105A00008091E901882309F420CC6091050159E0D7
:105A1000659FB0011124685E7E4F7ACF6091DA01F4
:105A20008AE0689FB0011124D6CF6091D9019AE035
:105A3000699FB0011124CFCF6091D801AAE06A9F7D
:105A4000B0011124C8CF6091D701BAE06B9FB001BB
:105A50001124C1CF208381E090CF208381E0A0CFAB
:105A6000D090E603DD2009F44AC0ED2C0D2C000C8B
:105A7000FF08C7010E94F036892BF1F1C7010E948F
:105A8000F736D82E8091A4039091A503DC01ED9107
:105A9000FC910280F381E02D40E06EE70995809152
:105AA000A4039091A503DC01ED91FC910280F381A8
:105AB000E02D41E062E009958091A4039091A50357
:105AC000DC01ED91FC910280F381E02D63E2C110D5
:105AD00001C062E241E009958091A4039091A50381
