:100000000C94FB020C9423030C9423030C94230301
:100010000C9423030C9423030C9423030C942303C8
:100020000C9423030C9423030C9423030C942303B8
:100030000C9423030C9423030C9423030C942303A8
:100040000C94A0160C9423030C9409180C944018DB
:100050000C9496180C9423030C9423030C94230300
:100060000C94EA160C942303084AD73B3BCE016E4E
:1000700084BCBFFDC12F3D6C74319ABD56833DDAFF
:100080003D00C77F11BED9E4BB4C3E916BAAAABE0E
:10009000000000803F08000000BE922449123EABE1
:1000A000AAAA2ABECDCCCC4C3E00000080BEABAA92
:1000B000AAAA3E00000000BF000000803F00000030
:1000C0000000084178D3BB4387D1133D190E3CC3D0
:1000D000BD4282AD2B3E68EC8276BED98FE1A93E4F
:1000E0004C80EFFFBE01C4FF7F3F0000000000070F
:1000F000634236B79BD8A71A39685618AEBAAB55C3
:100100008C1D3CB7CC5763BD6DEDFD753EF6177287
:1001100031BF000000803F0020537461727475701D
:1001200000204175746F00000000204D616E756104
:100130006C00002044697361626C6564000000001B
:10014000000000204174746F50696C6F7420343566
:10015000000000204174746F50696C6F7420393056
:10016000000000204174746F50696C6F7420313846
:100170003000002041504D322E35203930412F358E
:10018000305600204143533731322D3035000000C6
:10019000000000204143533731322D32300000003F
:1001A000000000204143533731322D33300000002E
:1001B000000000204143533735382D3530420000D0
:1001C000000000204143533735382D313030420094
:1001D000000000204143533735382D31353042007F
:1001E000000000204143533735382D323030420073
:1001F000000000204143533735382D35305500007D
:10020000000000204143533735382D313030550040
:10021000000000204143533735382D31353055002B
:10022000000000204143533735382D32303055001F
:100230000000002044697361626C65640000204125
:100240006972207370656564002047505300000098
:10025000000000002044697361626C656400204501
:100260006E61626C6564000020756E6B6E6F776EF8
:100270000020424D50323830000020424D45323887
:10028000300000204D53353631310000204C5053A2
:10029000000000000056657273696F6E2056322EA2
:1002A000340000000000566172696F4750532053BC
:1002B000656E736F7200005265736574206F6666B9
:1002C0007365740000000000507265737375726589
:1002D0002073656E736F723A00566172696F207396
:1002E0006D6F6F7468696E673A00566172696F204E
:1002F000646561647A6F6E653A00004169722073CB
:10030000706565643A000000000000005445432019
:100310006D6F64653A00000000000000004D6169E7
:100320006E2064726976653A000000000000436147
:100330007061636974792072657365743A00005264
:10034000783120766F6C746167653A0000000000B8
:1003500052783220766F6C746167653A0000000055
:10036000004578742E2054656D703A00000000003E
:100370000000436F6D7061737300000000000000A7
:100380000000005361766520616E642072657374AD
:10039000617274004C6F61642064656661756C7491
:1003A00073000000000000000800020100000304C8
:1003B00007000000000000000000000000250028E9
:1003C000002B0000000000240027002A0004040481
:1003D00004040404040202020202020303030303EE
:1003E00003010204081020408001020408102001CB
:1003F00002040810200452656C2E20416C7469744C
:10040000000000000000000000006D00000000007F
:10041000000401054162732E20416C746974000070
:1004200000000000000000006D000000000000045B
:100430000006566172696F6D657465720000000098
:100440000000000000006D2F730000000004020D8A
:100450004169722070726573732E00000000000005
:10046000000000006850610000000004020E5465A6
:100470006D702E0000000000000000000000000071
:100480000000B043000000000001010F48756D69D5
:1004900064697479000000000000000000000000A2
:1004A00025724800000000010110566F6C746167EE
:1004B0006500000000000000000000000000560081
:1004C000000000000001011143757272656E740036
:1004D00000000000000000000000000041000000DB
:1004E00000000001011243617061636974790000CA
:1004F000000000000000000000006D4168000000E6
:1005000000040013506F77657200000000000000C7
:100510000000000000000000570000000000000480
:10052000001452783120566F6C74616765000000CA
:10053000000000000000560000000000000102154D
:1005400052783220566F6C746167650000000000BD
:10055000000000005600000000000001021645786F
:10056000742E2054656D7000000000000000000033
:100570000000B04300000000000101174169722033
:10058000737065656400000000000000000000005A
:100590006B6D2F6800000001001C436F6D7061736C
:1005A0007300000000000000000000000000B00028
:1005B000000000000001011D52656C2E20436F6D8C
:1005C000706173730000000000000000B0000000C4
:1005D0000000000101000000000000000000000019
:1005E000000000000000000000000000000000000B
:1005F00000000000C51811241FBECFEFD8E0DEBFF9
:10060000CDBF11E0A0E0B1E0E0EFF2E702C005905D
:100610000D92A438B107D9F724E0A4E8B1E001C0F5
:100620001D92AF33B207E1F712E0CBEFD2E004C086
:100630002197FE010E947E33CA3FD107C9F70E946D
:100640003F190C9476390C94000091E09093BB0212
:100650008093DD021092BC021092DE020895909108
:100660008E0280918D022FEF3FEF981748F4E92F0B
:10067000F0E0E359FD4F208130E09F5F90938E02C0
:10068000C901089590918E0280918D022FEF3FEF66
:10069000981748F4E92FF0E0E359FD4F208130E04E
:1006A0009F5F90938E02C901089508950895209147
:1006B0007103309172032115310581F0E82FF0E0CC
:1006C000E65AFC4F858DE4E08E9FC0011124280F6F
:1006D000391FF901408351836283738308958091A8
:1006E0008D0290918E02891B990B0895862720E137
:1006F000829FB00111248627482F50E0292F382FE0
:10070000CA0164E0959587956A95E1F7282739270E
:10071000CA0173E0880F991F7A95E1F78227932722
:100720000895CF93DF9390E0FC01EF51FC4F2491AB
:1007300083539C4FFC0184918823C1F090E0880F83
:10074000991FFC01ED53FC4FC591D491FC01E75476
:10075000FC4FA591B4919FB7F8943881822F809572
:1007600083238883EC91E22BEC939FBFDF91CF91A1
:10077000089590E0FC01EB55FC4F2491FC01EF51F2
:10078000FC4F3491FC01E353FC4FE491EE23C9F09C
:10079000222339F0233001F1A8F4213019F122305D
:1007A00029F1F0E0EE0FFF1FE754FC4FA591B49143
:1007B0008FB7F894EC91611126C030953E233C939D
:1007C0008FBF08952730A9F02830C9F0243049F7A9
:1007D000809180008F7D03C0809180008F7780930F
:1007E0008000DFCF84B58F7784BDDBCF84B58F7D6C
:1007F000FBCF8091B0008F778093B000D2CF8091F3
:10080000B0008F7DF9CF3E2BDACF8E50806480937D
:100810007C0080917A00806480937A0080917A00D5
:1008200086FDFCCF809178009091790008953FB7C4
:10083000F89480910D0290910E02A0910F02B09158
:10084000100226B5A89B05C02F3F19F00196A11DE7
:10085000B11D3FBFBA2FA92F982F8827BC01CD010A
:10086000620F711D811D911D42E0660F771F881F69
:10087000991F4A95D1F708958F929F92AF92BF9298
:10088000CF92DF92EF92FF924B015C010E9417041E
:100890006B017C010E9417046C197D098E099F0968
:1008A000683E734081059105A8F321E0821A910802
:1008B000A108B10888EEC80E83E0D81EE11CF11C27
:1008C00081149104A104B10429F7FF90EF90DF9007
:1008D000CF90BF90AF909F908F9008952FB7F894CE
:1008E0006091090270910A0280910B0290910C02B2
:1008F0002FBF08952091A701260F3327331F2132E0
:100900003105ECF42091B502FC0190E080E0243048
:1009100069F082E00895A091A7012191AC014957A7
:100920005E4FA40FB52FB11D2C930196861798F337
:100930008091A701680F6093A70180E0089581E08E
:1009400008951092B50281E08093B40210928F0254
:1009500061E082E10E94B90361E083E10E94B90392
:10096000E9EBF0E080818E7F808380818D7F8083C2
:1009700088E48093B80085E48093BC0008951092C9
:100980008E0210928D021092BC021092DE020E9422
:10099000A10485E593E090936C0280936B0286E559
:1009A00093E090936A02809369020895CF93DF9356
:1009B00091E0909386018823B9F0C091B800D0915E
:1009C000BA008091BC008A7B8093BC0060E082E129
:1009D0000E94B90360E083E10E94B9030E94A10470
:1009E000D093BA00C093B800DF91CF910895CF9211
:1009F000DF92EF92FF920F931F93CF93DF93D091EB
:100A0000DE0281E0D13208F09CC0C091DD020E947C
:100A100017046B017C018091B50281116CC082E0EA
:100A20008093B50281E08093B4028FEF8093B3028C
:100A30001092B202D093B102ADEBB2E0E1E9F2E084
:100A400080E0D8138DC01092900280919002CC0F5C
:100A5000C82BC093900280918F02813009F084C02E
:100A600010928F020E9417046B017C01809190020A
:100A70008093BB008091B7029091B802A091B90217
:100A8000B091BA02892B8A2B8B2BA1F00E941704FC
:100A90000091B7021091B8022091B9023091BA02C8
:100AA0006C197D098E099F09061717072807390752
:100AB00008F442C08091BC0083FDD8CF85EC8093C0
:100AC000BC000E9417046B017C018091B50282304A
:100AD00009F44CC08091B3028F3F09F469C0809142
:100AE000B302803209F466C08091B302803309F406
:100AF00063C084E026C08091B7029091B802A091B3
:100B0000B902B091BA02892B8A2B8B2B09F483CFBF
:100B10000E9417040091B7021091B8022091B90207
:100B20003091BA026C197D098E099F0906171707C3
:100B30002807390708F06FCF8091B6020E94D604CB
:100B400085E01092BC021092DE021092BB02DF918F
:100B5000CF911F910F91FF90EF90DF90CF9008956C
:100B60009D9191938F5F6DCF85EEA9CF8091B70254
:100B70009091B802A091B902B091BA02892B8A2B48
:100B80008B2B09F4A2CF0E9417040091B702109199
:100B9000B8022091B9023091BA026C197D098E0910
:100BA0009F09061717072807390708F08ECFC4CF0B
:100BB00080E0C7CF82E0C5CF83E0C3CFCF92DF9282
:100BC000EF92FF920F931F93CF93DF93D82FC62FEF
:100BD000613208F098C00E9417046B017C0180917B
:100BE000B50281116BC081E08093B5028093B4029D
:100BF0009FEF9093B3021092B2029C0F9093B102B8
:100C00008093900280919002DD0FD82BD0939002B8
:100C100080918F02813009F078C010928F020E947B
:100C200017046B017C01809190028093BB0080913E
:100C3000B7029091B802A091B902B091BA02892B83
:100C40008A2B8B2BA1F00E9417040091B702109100
:100C5000B8022091B9023091BA026C197D098E094F
:100C60009F09061717072807390708F448C080911D
:100C7000BC0083FDD8CF85EC8093BC000E94170494
:100C80006B017C018091B502813009F440C08091F4
:100C9000B2028C1710F4C091B202E1E9F2E0ADE6C5
:100CA000B2E080E08C1355C08C2FDF91CF911F9163
:100CB0000F91FF90EF90DF90CF9008958091B70251
:100CC0009091B802A091B902B091BA02892B8A2BF7
:100CD0008B2B09F484CF0E9417040091B702109166
:100CE000B8022091B9023091BA026C197D098E09BF
:100CF0009F09061717072807390708F070CF80915A
:100D0000B6020E94D604C0E0CFCF85EEB5CF809169
:100D1000B7029091B802A091B902B091BA02892BA2
:100D20008A2B8B2B09F4AECF0E9417040091B702D7
:100D30001091B8022091B9023091BA026C197D0964
:100D40008E099F09061717072807390708F09ACF59
:100D5000D6CF91919D938F5FA5CF0895E0918E029C
:100D600080918D02E81730F4F0E0E359FD4F808167
:100D700090E008958FEF9FEF0895CF92DF92EF926A
:100D8000FF920F931F93CF93DF937C01CB018A01D6
:100D90002091BB02222389F0EB016B01C40ED51E0A
:100DA000CC15DD0569F06991D701ED91FC910190B9
:100DB000F081E02DC7010995F3CF642F0E947A04DA
:100DC000C801DF91CF911F910F91FF90EF90DF90BD
:100DD000CF900895CF93DF931F92CDB7DEB769838D
:100DE0002091BB022223F9F02091DE02203258F03C
:100DF00021E030E0FC013383228390E080E00F901B
:100E0000DF91CF9108958091BC02E82FF0E0E35488
:100E1000FD4F998190838F5F8093BC028093DE02A7
:100E200081E090E0ECCF61E0CE0101960E947A046F
:100E3000F7CFCF93DF93D82FC62F80912C030E943A
:100E400025036D2F8FED92E00E94EA066C2F8FED47
:100E500092E00E94EA06DF91CF910C94F7040F9381
:100E60001F93CF93DF93082F162FC1EFD2E08C8D05
:100E70000E942503602F8FED92E00E94EA06612F09
:100E80008FED92E00E94EA060E94F704888FDF91BE
:100E9000CF911F910F9108950F931F93CF93DF93DD
:100EA000082F162FC1EFD2E08B8D0E942503602FF3
:100EB0008FED92E00E94EA06612F8FED92E00E9492
:100EC000EA060E94F704888FDF91CF911F910F915E
:100ED000089520910A0330910B032330310511F45A
:100EE0000C942F070C944C07682F8FED92E00C9414
:100EF000EA06CF93C82F809121030E94250380E248
:100F000090E00E9474076C2F8FED92E00E94EA0639
:100F1000CF910C94F70490E080E00895CF92DF9297
:100F2000EF92FF920F931F93CF93DF939C01EA01FF
:100F3000F89450E06C0186E4C80ED11CF901EE5B18
:100F4000FF4F89010E5F1F4F852F90E08C179D0783
:100F5000D8F4D6014C914034C0F4E080F180860F83
:100F6000971FDC018C91D7018C93D6018C918F5FF8
:100F70008C938081918101968E179F0708F0C8019C
:100F8000918380835F5FE0CFCE01F901E457FF4F8B
:100F90002081211108C021E020832091C1002F76FB
:100FA00028622093C1007894DF91CF911F910F9117
:100FB000FF90EF90DF90CF900895FC01E557FF4F31
:100FC000208140E02223F9F0F894A0918401B091AF
:100FD0008501A757BF4F0D90BC91A02D4C9120814A
:100FE000215020833297208131812F5F3F4FBC01F8
:100FF00069577F4F2617370718F09C01295B3F4F31
:10100000318320837894842F90E00895CF93DF93E9
:10101000EC011092C00080E98093C10086E08093CB
:10102000C2001092C50087E08093C40080E00E9457
:10103000910381E00E949103CE010296FE01EE5BD6
:10104000FF4F918380833296918380833296108202
:101050008B5B9F4FEF5BFF4F918380833296918331
:1010600080833296108231961082D0938501C0938E
:101070008401DF91CF91089585579F4FFC01208116
:1010800081E090E0211102C090E080E0089580911D
:10109000E701853010F4815008958550833010F0B9
:1010A00085E0089584E00895CF93C82F862F0E948D
:1010B0000504BC01990F880B990B0E94093020E0B0
:1010C00030E040E85AE30E948B3120E030E44CE904
:1010D00055E40E948B3124E0C29FF0011124E05EB0
:1010E000FE4F20813181428153810E948B310E94C9
:1010F000CB2FCF9108950E94DE0510928E0280932F
:101100008D0208951F93CF93DF93182FCCE2D3E085
:1011100088810E942503612F8FED92E00E94EA06EC
:101120000E94F70461E088810E947B080E944203CC
:10113000DF91CF911F9108951F93CF93DF93182FC5
:10114000CCE2D3E088810E942503612F8FED92E0ED
:101150000E94EA060E94F70462E088810E947B08F0
:101160000E944203C82F0E94420320E0822B9C2B46
:10117000DF91CF911F9108950E949C08982789279D
:1011800098270895CF93DF9366EB80EE0E941907AE
:1011900064E670E080E090E00E943C0488E80E94F1
:1011A000BC0890933703809336038AE80E94BC08FA
:1011B00090933903809338038CE80E94BC08909385
:1011C0003B0380933A038EE80E94BC0890933D0352
:1011D00080933C0380E90E94BC0890933F03809376
:1011E0003E0382E90E94BC08909341038093400330
:1011F00084E90E94BC08909343038093420386E9EC
:101200000E94BC08909345038093440388E90E94A0
:10121000BC0890934703809346038AE90E94BC0868
:1012200090934903809348038CE90E94BC089093F3
:101230004B0380934A038EE90E94BC0890934D03B0
:1012400080934C0380912D038230F1F581EA0E9456
:10125000820880934E0381EE0E94BC089093500355
:1012600080934F0383EE0E9482088093510384EEA3
:101270000E948208C82F85EE0E94820890E1C99FD3
:10128000900111248F70282B309353032093520325
:1012900086EE0E948208C82F85EE0E94820890E1A7
:1012A000C99FE001112490E024E0959587952A9547
:1012B000E1F78C2B9D2B909355038093540387EE7D
:1012C0000E9482088093560389ED80935803809191
:1012D00059038F7180628093590380915703807CFA
:1012E00080628093570380912D03823021F461E066
:1012F00082EF0E94190780915703682F677090E270
:10130000699FB0011124282F2695269526952770D0
:1013100098E0299F90011124622B87FB882780F990
:10132000682B85EF0E94190780915803682F67701A
:1013300090E2699FB0011124282F269526952695C5
:10134000277098E0299F90011124622B8295869541
:1013500086958370682B84EFDF91CF910C941907E9
:1013600080932C030E94BF0480ED0E948208883580
:1013700029F0803661F010922D0305C081E0809342
:101380002D030E94C20880912D0390E0089582E011
:10139000F6CF8F929F92AF92BF92CF92DF92EF9251
:1013A000FF92CF93DF93F82ECCE2D3E088810E94A6
:1013B00025036F2D8FED92E00E94EA060E94F7044C
:1013C00063E088810E947B080E944203092E000C82
:1013D000AA0BBB0B8824982EA92EBA2E0E9442037A
:1013E000092E000CAA0BBB0B6C017D01C828D92863
:1013F000EA28FB28FE2CED2CDC2CCC240E94420396
:10140000BC01990F880B990B6C297D298E299F2986
:10141000DF91CF91FF90EF90DF90CF90BF90AF9092
:101420009F908F9008958F929F92AF92BF92CF928C
:10143000DF92EF92FF920F931F938AEF0E94C909E8
:10144000ECE2F3E00285138530E020E0C72ED82ED1
:10145000E92EFF24E7FCFA94C01AD10AE20AF30A43
:1014600057E095958795779567955A95D1F7000F31
:10147000111F221F331F4B015C01801A910AA20A1F
:10148000B30AA5019401A485B5850E948F334B0151
:101490005C01BBE0B594A79497948794BA95D1F773
:1014A000A7019601C701B6010E944F339B01AC0111
:1014B0001CE055954795379527951A95D1F7A68540
:1014C000B7850E948F339B01AC010EE0559547957F
:1014D000379527950A95D1F7280D391D4A1D5B1DB3
:1014E0002683378340875187A5E0B0E00E9484338C
:1014F00060587F4F8F4F9F4F672F782F892F9927E5
:1015000087FD9A950E94093020E030E048EC52E4D3
:101510000E94592F1F910F91FF90EF90DF90CF9075
:10152000BF90AF909F908F9008952F923F924F92CF
:101530005F926F927F928F929F92AF92BF92CF9263
:10154000DF92EF92FF920F931F93CF93DF93CDB76C
:10155000DEB76B970FB6F894DEBF0FBECDBF0E940B
:10156000130A87EF0E94C9096E8B7F8B888F998F32
:101570008091320390913303A0913403B0913503ED
:101580006C017D01FF0CCC08DC2C76019C01AD01C7
:101590006C2D7C2D8C2D9C2D345F414051096109AF
:1015A00071098109910929873A874B87652E762E23
:1015B000872E982E9B8F5901C42ED52EE62EF72EFE
:1015C000082F192F0E949733322E232E488B598BC8
:1015D0006A8B7B8B8C8B9D8B30913F0320913E03DC
:1015E000932F990F990B492F592F692F792F892FF5
:1015F0000E9497330CE00E94003529833C874A8F74
:101600005D876E877F87582E492E30914103209148
:101610004003932F990F990BA32CB22CC888D9881B
:10162000EA88FB880C891D89492F592F692F792F4A
:10163000892F0E94973308E00E941935A980BC8445
:10164000CA8CDD84EE84FF84052D142D0E9436356E
:1016500070588F4F9F4FE0913C03F0913D035F0125
:10166000D12CC12CE12CF12C8701E983BA82CB82E9
:10167000DC82ED82FE820F831887C12CD12CE12CF5
:10168000F12C00E010E00E94973301E20E9419352E
:101690002A8F532E49835C876D877E878F87492EDB
:1016A000A0E00E94543509F436C1309147032091DF
:1016B0004603932F990F990BA32CB22CC888D98875
:1016C000EA88FB880C891D89492F592F692F792FAA
:1016D000892F0E9497331901488B598B6A8B7B8B1A
:1016E0008C8B9D8B3091450320914403932F990F50
:1016F000990BA984BA84CB84D62CE72CF82C092D1D
:101700001B8D492F592F692F792F892F0E949733CD
:1017100001E10E9400355101C888D988EA88FB8818
:101720000C891D890E94363559016A017B01382ECA
:10173000192F4E895F89688D798D84E0759567953D
:10174000579547958A95D1F780E090E0A0E1B0E009
:10175000841B950BA60BB70B3C014D01990C660839
:10176000762C43019C01AD01662D762D862D962D9C
:101770000FE10E940035722E832E942E5987B62FCA
:10178000A72FF82FE92F3091430320914203932F85
:10179000990F990B492F592F692F792F892F03E220
:1017A0000E940035032D0E94363559016A017B01E4
:1017B0008C01272D382D492D59856B2F7A2F8F2F8E
:1017C0009E2F0E944B35E5E3AE2EFCE0BF2EC12CD0
:1017D000D12CE12CF12C00E010E00E949733AA8C70
:1017E000B52CC980DC84ED84FE840F85142D0E9405
:1017F0002B342F873E8749875A876B8779838C875D
:101800009D870DE00E941935922E832E742E652E31
:10181000562E472E382E292E30914D0320914C0301
:10182000932F990F990BA92CB82CC72CD62CE52CEB
:10183000F42C032D122D492F592F692F792F892F21
:101840000E9497330E94973309E10E941935AF84B3
:10185000BE84C984DA84EB84F9800C851D850E94DE
:10186000363519012A013B014C0130914B0320917F
:101870004A03932F990F990B492F592F692F792FCD
:10188000892F0E94973303E10E94193559016A019B
:101890007B018C019101A201B301C4010E94363584
:1018A00008E00E94193559016A017B01E82F192FC0
:1018B0003091490320914803932F990F990B492F99
:1018C000592F692F792F892F04E00E9400350E2FA0
:1018D0000E9436350E94013020E030E040E85BE3B2
:1018E0000E948B316B960FB6F894DEBF0FBECDBF52
:1018F000DF91CF911F910F91FF90EF90DF90CF90EC
:10190000BF90AF909F908F907F906F905F904F901F
:101910003F902F90089560E070E0CB01E3CFCF932C
:10192000DF93C82FD62F0E9425036D2F8FED92E0F5
:101930000E94EA060E94F70481110EC061E08C2F1C
:101940000E947B0890918D0280918E02981721F061
:10195000DF91CF910C9442038FEF9FEFDF91CF91F6
:101960000895CF93C82F0E9425038FE090E00E9436
:1019700074070E94F70461E08C2F0E947B0890910D
:101980008D0280918E02981719F0CF910C9442032A
:101990008FEF9FEFCF9108951F93CF93DF9387E74A
:1019A0000E94250360E08FED92E00E94EA060E940B
:1019B000F70487E70E94250363E087E70E94DE05BE
:1019C00010928E0280938D02811101C0FFCF0E9480
:1019D0004203182F0E944203C82F0E944203D82FAF
:1019E0000E94F7046C2F70E090E080E0982F872F22
:1019F000762F6627812B6D2BDF91CF911F91089554
:101A0000CF92DF92FF920F931F93CF93DF93CDB7C7
:101A1000DEB76E970FB6F894DEBF0FBECDBF8C0158
:101A2000DC015A961C921E92599785EF93E05696C8
:101A30009C938E935597F8017D9680E2DF011D926D
:101A40008A95E9F7F12CD12CC12CF80165897689AA
:101A50006C0D7D1D4EE150E0CE0101960E94562E88
:101A6000E981EE23B9F0E03220F4E00FF12FF11D0F
:101A7000F58ED80159968D919C915A9701965A9658
:101A80009C938E935997BEE1CB0ED11CF394E0E268
:101A9000FE12DBCF6E960FB6F894DEBF0FBECDBF41
:101AA000DF91CF911F910F91FF90DF90CF9008951C
:101AB000CF93C82F8091730390917403892B21F4E5
:101AC0008AE593E00E94000DEC2FF0E0E65AFC4F0F
:101AD000258DE22FF0E083E0F595E7958A95E1F713
:101AE000E65AFC4F277081E090E001C0880F2A95EC
:101AF000EAF7809595AD892385AF10927603109211
:101B00007503CF910895EF92FF920F931F93CF9398
:101B1000DF93CDB7DEB76E970FB6F894DEBF0FBE7A
:101B2000CDBF8C017B012EE1269FC001279F900D28
:101B3000112460916F0370917003680F791F4EE15B
:101B400050E0CE0101960E94562E8D8DD8015E96F2
:101B50008C935E97898112968C93EE0CFF1CEE0C91
:101B6000FF1C8091710390917203E80EF91EF7013A
:101B700080819181A281B381F80183839483A583BD
:101B8000B683A801485F5F4F9E012E5F3F4FDA0189
:101B900080E0F90191919F01992329F0833119F097
:101BA0008F5F9D93F6CFD8015C968C93DE0156969D
:101BB000FA01E80FF11D90E02D91222339F0382F22
:101BC000390F333118F49F5F2193F6CFD8015D961A
:101BD0009C935D9710828E8D8130C9F08230D9F050
:101BE000F801868D8630D8F4843038F58823E1F00A
:101BF0008130F9F06E960FB6F894DEBF0FBECDBF00
:101C0000DF91CF911F910F91FF90EF90089580E2A7
:101C1000F801878FE5CF80E45F968C93E1CF885001
:101C2000823040F785E006C082E0D80190968C9320
:101C3000E1CF83E0F80180A3DDCF84E0F6CF2F92DF
:101C40003F924F925F926F927F928F929F92AF924C
:101C5000BF92CF92DF92EF92FF920F931F93CF9399
:101C6000DF93CDB7DEB7A0970FB6F894DEBF0FBEF7
:101C7000CDBF1C010E946E040091190210911A023E
:101C800020911B0230911C020617170728073907FD
:101C900008F096C480911F0290912002A091210229
:101CA000B09122020196A11DB11D80931F02909355
:101CB0002002A0932102B093220284369105A1054F
:101CC000B10561F510921E0220E836EE45EC57E4AE
:101CD00060914B0270914C0280914D0290914E02A6
:101CE0000E94592F2BEA3CED42E45EE30E94F8315A
:101CF0009B01AC0160E070E080E89FE30E94752EDC
:101D000020E03AE24DE257E40E948B3160932702D3
:101D1000709328028093290290932A0280912B02CB
:101D200090912C028130910509F020C40E94CC0CC6
:101D30006D8B7E8B8F8B988F60933F0270934002E8
:101D4000809341029093420280913B0290913C0229
:101D5000B0E0A0E0BA2FA92F982F88274090430227
:101D6000509044026090450270904602481A590A09
:101D70006A0A7B0A60913D0270913E0290E080E029
:101D8000A30192010E94EF33122F3D834983B52FA7
:101D9000F62FE72FF82E092FA0E00E94543584F487
:101DA0002150310940485F4F6F4F7F4F8F4F9F4FFA
:101DB000122F3D834983B52FF62FE72FF82E092FD9
:101DC000212F3D8149815B2F6F2F7E2F8F2D902FEB
:101DD00007E10E9419352053384F4F4F5F4F298339
:101DE0003A834B835C8310925502109256021092F4
:101DF00057021092580230911D023D833323E9F0BF
:101E000049815A816B817C81403D57406105710554
:101E1000A4F4A3019201C301B2010E944F332FEF3A
:101E20003FEF4FEF5FE70E945F33209355023093FF
:101E30005602409357025093580280915502909158
:101E40005602A0915702B091580229813A814B81E4
:101E50005C81281B390B4A0B5B0BDA01C9018093AB
:101E60004F0290935002A0935102B093520260919E
:101E7000390270913A0290E080E0A30192010E9441
:101E8000EF33122F3A874987B52FF62FE72FF82E19
:101E9000092FA0E00E9454355CF4AFE70E943F3563
:101EA000122F3A874987B52FF62FE72FF82E092FE3
:101EB000212F3A8549855B2F6F2F7E2F8F2D902FF5
:101EC00007E00E94193549014A875987B62FA72F85
:101ED000F82FE92FA0903502B0903602950140E02E
:101EE00050E060E070E080E090E000E10E940035AA
:101EF00059016A017B018C0194014A8559856B2F38
:101F00007A2F8F2F9E2F0E94363529873A874B874D
:101F10005C876D877E878F87988B60913702709181
:101F2000380290E080E0A30192010E94EF33122F6B
:101F30003A8B498BB52FF62FE72FF82E092FA0E00B
:101F40000E94543584F421503F4F4F4F5F4F6F4FE5
:101F50007F4F8F4F9F4F122F3A8B498BB52FF62F04
:101F6000E72FF82E092F212F3A8949895B2F6F2FF0
:101F70007E2F8F2D902F08E00E94193549014A8B42
:101F8000598BB62FA72FF82FE92FA0903302B090CE
:101F90003402D12CC12C9501A60160E070E080E0F4
:101FA00090E00FE00E94003559016A017B018C012D
:101FB00094014A8959896B2F7A2F8F2F9E2F0E9467
:101FC0003635298BF32FE42F852E6A8B7B8B982E49
:101FD0009C8B3D81332309F434C110925902109235
:101FE0005A0210925B0210925C0210925D021092F3
:101FF0005E0210925F0210926002109261021092D3
:1020000062021092630210926402109265021092B2
:102010006602109267021092680249815A816B81B0
:102020007C81403D87E05807610571050CF0C5C013
:10203000CB01BA01605D7740810991099B01AC0138
:102040000E944F339B01AC01A5E0B0E00E948433B5
:102050007B018C0115950795F794E7942B013C01C2
:10206000770C4408542C3201E0925902F0925A0243
:1020700000935B0210935C0240925D0240925E020C
:1020800040925F02409260029B01AC0162E0559574
:102090004795379527956A95D1F72D833E834F83D2
:1020A00058872093610230936202409363025093F9
:1020B000640240926502409266024092670240923A
:1020C000680249815A816B817C8144328AEF5807CA
:1020D0008FEF680778070CF070C0CB01BA0164522B
:1020E0007A4F8F4F9F4F9B01AC010E944F33698302
:1020F0007A838B839C83A7E0B0E09B01AC010E94B4
:1021000084335B016C01DD0CAA08BA2C65019B01CC
:10211000AC016A2D7A2D8A2D9A2D57016801E42C85
:10212000F42C042D142D0E9436352093590230933F
:102130005A0240935B0250935C0260935D0270937D
:102140005E0280935F0290936002ABE0B0E0298171
:102150003A814B815C810E9484339B01AC0155958F
:1021600047953795279529833A834B835C836B0189
:102170007C01FF0CCC08DC2C760129813A814B8153
:102180005C816C2D7C2D8C2D9C2DAD80BE80CF80F4
:10219000D884E42CF42C0E943635209361023093CD
:1021A00062024093630250936402609365027093ED
:1021B0006602809367029093680229853A854B8571
:1021C0005C856D857E858F859889A0905902B09039
:1021D0005A02C0905B02D0905C02E0905D02F090E9
:1021E0005E0200915F02109160020E944B352987C8
:1021F0003A874B875C876D877E878F87988B298985
:102200003F2F4E2F582D6A897B89892D9C89A0905C
:102210006102B0906202C0906302D0906402E090CC
:102220006502F090660200916702109168020E94B8
:102230004B35298BF32FE42F852E6A8B7B8B982EC1
:102240009C8B6D897E898F89988DAB01BC0180E064
:1022500090E0DC01498F5A8F6B8F7C8F8D8F9E8F22
:10226000AF8FB8A3A988BF2ECE2ED82CEA88FB88C2
:10227000092D1C899A01AB0160E070E080E090E0DC
:102280000E949733122F3D834983B52FF62FE72FF6
:10229000F82E092FA0E00E94543584F42150310912
:1022A000404E5F4F6F4F7F4F8F4F9F4F122F3D8399
:1022B0004983B52FF62FE72FF82E092F212F3D81C7
:1022C00049815B2F6F2F7E2F8F2D902F05E10E946C
:1022D0001935A984BA84CB84DC84ED84FE840F850F
:1022E00018890E944B35122F3D834983B52FF62F55
:1022F000E72FF82E092FA0E00E94543584F42150D6
:1023000030484F4F5F4F6F4F7F4F8F4F9F4F122F70
:102310003D834983B52FF62FE72FF82E092F212F64
:102320003D8149815B2F6F2F7E2F8F2D902F0FE0E6
:102330000E941935B901CA012093470270934802DF
:102340004093490290934A020E9409306B017C013C
:10235000AC019B0160914B0270914C0280914D0247
:1023600090914E020E94752E2091230230912402FA
:1023700040912502509126020E948B31A7019601BF
:102380000E94762E60934B0270934C0280934D0214
:1023900090934E020E946E04009115021091160255
:1023A00020911702309118024B015C01801A910AAA
:1023B000A20AB30A20E836EE45EC57E460914B02DE
:1023C00070914C0280914D0290914E020E94592FC3
:1023D0002BEA3CED42E45EE30E94F8319B01AC0144
:1023E00060E070E080E89FE30E94752E20E03AE212
:1023F0004DE257E40E948B3120E030E048EC52E49B
:102400000E948B316B017C0180911E02882341F078
:10241000C0921102D0921202E0921302F0921402C2
:102420002091110230911202409113025091140236
:10243000C701B6010E94752E2B013C01C501B401F4
:102440000E9407309B01AC0160E070E08AE794E4F1
:102450000E94592F9B01AC01C301B2010E948B3134
:102460004B015C0160912D0270912E02072E000C31
:10247000880B990B0E940930A50194010E94752ECA
:1024800020912F023091300240913102509132025E
:102490000E948B31A50194010E94762E0E94CB2FC1
:1024A00070932E0260932D02C0921102D0921202FC
:1024B000E0921302F09214020E946E0460931502DF
:1024C00070931602809317029093180271E07D8337
:1024D00080912B0290912C028215930509F01D82A8
:1024E0008091540289832114310409F451C030923F
:1024F0002C0220922B0292E02916310409F044C0EC
:10250000805B898387E70E94250369818FED92E0D4
:102510000E94EA060E94F7040E946E042091530272
:10252000620F711D811D911D6093190270931A0233
:1025300080931B0290931C028D81A0960FB6F89495
:10254000DEBF0FBECDBFDF91CF911F910F91FF90E6
:10255000EF90DF90CF90BF90AF909F908F907F9043
:102560006F905F904F903F902F900895029709F0E1
:10257000ADCF0E94CC0C60934302709344028093D1
:10258000450290934602A2CFA981A05CA983BACF4D
:1025900080911F0280FD0AC082E090E090932C029F
:1025A00080932B02B981B05BB983ACCF81E090E01E
:1025B00090932C0280932B022981205C2983A2CF47
:1025C0001D82BACF82E090E00E941F0E811107C0E9
:1025D00061E070E080E090E00E943C04F3CF609105
:1025E0004302709144028091450290914602089501
:1025F0004F925F926F927F928F929F92AF92BF9213
:10260000CF92DF92EF92FF92CF93DF9300D000D072
:1026100000D0CDB7DEB79E838D83DC014D905D90F9
:102620006D907C90139714968D909D90AD90BC907A
:10263000179718968D919D910D90BC91A02D89832F
:102640009A83AB83BC83A3019201C301B2010E94B0
:102650008B316B017C01A5019401C501B4010E947D
:102660008B319B01AC01C701B6010E94762E6B0134
:102670007C0129813A814B815C81CA01B9010E94A8
:102680008B319B01AC01C701B6010E94762E0E94DE
:102690004E326B017C01AC019B01C301B2010E946F
:1026A000592FED81FE816083718382839383A7011B
:1026B0009601C501B4010E94592FAD81BE811496C7
:1026C0006D937D938D939C931797A70196016981D4
:1026D0007A818B819C810E94592FED81FE816087D8
:1026E00071878287938726960FB6F894DEBF0FBE58
:1026F000CDBFDF91CF91FF90EF90DF90CF90BF9053
:10270000AF909F908F907F906F905F904F900895C3
:102710004F925F926F927F928F929F92AF92BF92F1
:10272000CF92DF92EF92FF92CF93DF93CDB7DEB7D8
:10273000AA970FB6F894DEBF0FBECDBF498F5A8F50
:102740006B8F7C8F8D8F9E8F60910303709104033C
:10275000072E000C880B990BC090FD02D090FE0252
:102760000D2C000CEE08FF086C0D7D1D8E1D9F1DAD
:1027700022E0C22ED12CE12CF12CA70196010E945F
:102780005F338091F7029091F802092E000CAA0B9A
:10279000BB0B4C015D01821A930AA40AB50A8F8E05
:1027A00098A2A9A2BAA26091050370910603072E10
:1027B000000C880B990B8090FF0290900003092C6D
:1027C000000CAA08BB08680D791D8A1D9B1DA70176
:1027D00096010E945F338091F9029091FA02092ECE
:1027E000000CAA0BBB0B4C015D01821A930AA40AD0
:1027F000B50A8BA29CA2ADA2BEA260910703709104
:102800000803072E000C880B990B80900103909011
:102810000203092C000CAA08BB08680D791D8A1D4B
:102820009B1DA70196010E945F33C090FB02D090D0
:10283000FC020D2C000CEE08FF08C21AD30AE40AB1
:10284000F50A4090F5025090F602052C000C66083F
:1028500077088091F3029091F4024C01990FAA0835
:10286000BB088FA298A6A9A6BAA62BA13CA14DA1F0
:102870005EA1C301B2010E944F334B015C01A7016D
:1028800096016FA178A589A59AA50E944F33A5014D
:102890009401261B370B480B590BCA01B9010E9442
:1028A00009306D877E878F87988B8090F10290909A
:1028B000F202092C000CAA08BB08A7019601C50169
:1028C000B4010E944F336B017C012F8D38A149A1C7
:1028D0005AA1C301B2010E944F33A7019601261BE2
:1028E000370B480B590BCA01B9010E940930698B9B
:1028F0007A8B8B8B9C8B2F8D38A149A15AA16FA10C
:1029000078A589A59AA50E944F336B017C012BA164
:102910003CA14DA15EA1C501B4010E944F33460107
:102920005701861A970AA80AB90AC501B4010E947C
:1029300009306D8B7E8B8F8B988FCE010D960E9408
:10294000F8126091F3027091F402072E000C880BCC
:10295000990B0E9409306B017C018D889E88AF889D
:10296000B88C8F8E98A2A9A2BAA26091F50270913C
:10297000F602072E000C880B990B0E9409302B01E0
:102980003C0189889A88AB88BC888BA29CA2ADA2A6
:10299000BEA22F8D38A149A15AA1C701B6010E943C
:1029A0008B314B015C012BA13CA14DA15EA1C30168
:1029B000B2010E948B319B01AC01C501B4010E94A0
:1029C000752E69837A838B839C838D849E84AF84E8
:1029D000B8888FA298A6A9A6BAA66091F1027091B4
:1029E000F202072E000C880B990B0E9409304B0154
:1029F0005C012FA138A549A55AA5C301B2010E94C7
:102A00008B312B013C01A50194016F8D78A189A127
:102A10009AA10E948B319B01AC01C301B2010E94BB
:102A2000752E6D837E838F839887A50194016BA19A
:102A30007CA18DA19EA10E948B314B015C012FA135
:102A400038A549A55AA5C701B6010E948B319B0143
:102A5000AC01C501B4010E94752E69877A878B8706
:102A60009C87CE0101960E94F812698D7A8D072EFF
:102A7000000C880B990B0E9409302B013C016B8DD7
:102A80007C8D072E000C880B990B0E9409304B019E
:102A90005C016D8D7E8D072E000C880B990B0E94BA
:102AA00009306B017C0129813A814B815C81C30132
:102AB000B2010E948B316F8F78A389A39AA32D81D5
:102AC0003E814F815885C501B4010E948B319B0125
:102AD000AC016F8D78A189A19AA10E94762E6F8F8B
:102AE00078A389A39AA329853A854B855C85C7017C
:102AF000B6010E948B319B01AC016F8D78A189A139
:102B00009AA10E94762E6F8F78A389A39AA32D8510
:102B10003E854F855889C301B2010E948B312B013C
:102B20003C0129893A894B895C89C501B4010E941D
:102B30008B319B01AC01C301B2010E94762E4B0187
:102B40005C012D893E894F89588DC701B6010E94CD
:102B50008B319B01AC01C501B4010E94762E2F8DF3
:102B600038A149A15AA10E94F52E20E030E044E3AB
:102B700053E40E948B312BED3FE049E450E40E9486
:102B8000592F6B017C0120E030E0A9010E94542FF5
:102B900087FF0AC020E030E044EB53E4C701B601F0
:102BA0000E94762E6B017C01C701B601AA960FB672
:102BB000F894DEBF0FBECDBFDF91CF91FF90EF90B5
:102BC000DF90CF90BF90AF909F908F907F906F904D
:102BD0005F904F90089585ED8093BC008091B7027F
:102BE0009091B802A091B902B091BA020796A11DC6
:102BF000B11D23E0B695A795979587952A95D1F7AE
:102C00002091BC0024FD03C01092B50208954091AC
:102C1000B7025091B8026091B9027091BA02452B87
:102C2000462B472B69F30097A105B10541F02AE235
:102C30002A95F1F700C00197A109B109E1CF809170
:102C4000B6020C94D604CF92DF92EF92FF920F93CC
:102C50001F93CF93DF93EB017B0124E0E20EF11C85
:102C60008B016C01C61AD70AC601800F911F0E9402
:102C70005F2EF80181938F01EE15FF05A9F7CE01B4
:102C8000DF91CF911F910F91FF90EF90DF90CF9048
:102C900008950C945F2E9F92AF92BF92CF92DF92D5
:102CA000EF92FF920F931F93CF93DF935C017B0111
:102CB0008B01D0E0C0E0F80191908F016501CC0E4E
:102CC000DD1EC6010E945F2E981621F0692DC601F7
:102CD0000E94672E2196C430D10569F7C701DF91A4
:102CE000CF911F910F91FF90EF90DF90CF90BF9009
:102CF000AF909F900895CF93DF9300D000D0CDB7D1
:102D0000DEB719821A821B821C82BE016F5F7F4F61
:102D100085E190E00E944B1619821A821B821C8268
:102D2000BE016F5F7F4F89E190E00E944B160F90CC
:102D30000F900F900F90DF91CF9108950C94672E14
:102D40001F920F920FB60F9211242F933F938F93E0
:102D50009F93AF93BF938091090290910A02A09133
:102D60000B02B0910C023091080223E0230F2D37A3
:102D700058F50196A11DB11D209308028093090208
:102D800090930A02A0930B02B0930C0280910D0263
:102D900090910E02A0910F02B09110020196A11D18
:102DA000B11D80930D0290930E02A0930F02B09379
:102DB0001002BF91AF919F918F913F912F910F90F2
:102DC0000FBE0F901F90189526E8230F0296A11DA5
:102DD000B11DD2CF1F920F920FB60F9211242F93D5
:102DE0003F934F935F936F937F938F939F93AF9393
:102DF000BF93EF93FF938091B900887F803609F4E9
:102E00004AC0F0F5883209F4A7C018F5803109F4FA
:102E10009BC0B8F4882309F4F9C0883009F494C041
:102E2000FF91EF91BF91AF919F918F917F916F91A2
:102E30005F914F913F912F910F900FBE0F901F9078
:102E40001895883109F488C0803251F78093B30215
:102E500014C0803409F49DC040F48033B9F3883342
:102E6000F9F68093B30285ECB0C0803509F485C0D3
:102E7000883509F496C0883499F60E94EB15D0CFB6
:102E8000883909F48CC038F5883729F050F4883631
:102E900011F0803729F683E08093B5021092C901C2
:102EA00057C0883809F47BC0803919F0803809F0A0
:102EB000B7CF8091C901803208F071C0E091C9019B
:102EC00081E08E0F8093C9018091BB00F0E0E7554F
:102ED000FE4F80833DC0803B39F0E0F4803A09F436
:102EE00079C0883A09F09CCF84E08093B5021092B3
:102EF000A8011092A701E0916B02F0916C02099574
:102F00008091A70181110FC081E08093A7011092E9
:102F1000870109C0803C09F4A6CF883C09F4A3CFFF
:102F2000883B09F07DCFE091A80181E08E0F80936E
:102F3000A801F0E0E957FE4F80818093BB0090919B
:102F4000A8018091A70129C0809190028093BB00C5
:102F500085EC8093BC0064CF9091B2028091B10265
:102F6000981758F5E091B20281E08E0F8093B2027B
:102F7000F0E0EF56FD4F8081E9CFE091B20281E0B1
:102F80008E0F8093B2028091BB00F0E0EF56FD4FB0
:102F900080839091B2028091B1029817C8F285E8BF
:102FA000D8CFE091B20281E08E0F8093B20280917F
:102FB000BB00F0E0EF56FD4F80838091B402811199
:102FC0005CCF81E080938F0284EA8093BC001092F2
:102FD000B50226CF85EC8093BC001092B50280919B
:102FE000C901803230F4E091C901F0E0E755FE4FAD
:102FF00010826091C90170E0E0916902F0916A026B
:1030000089EA91E009951092C9010ACF1092B302A2
:1030100034CF1F920F920FB60F9211242F933F932C
:103020008F939F93AF93BF93EF93FF93209184016E
:1030300030918501F901E957FF4FA081B18180915D
:10304000C6008C93D901A557BF4F8C918F5F8C938D
:103050008081918101968E179F0718F0C901895BC5
:103060009F4F91838083FF91EF91BF91AF919F918B
:103070008F913F912F910F900FBE0F901F90189539
:103080001F920F920FB60F9211242F933F934F93DD
:103090005F938F939F93AF93BF93EF93FF93809131
:1030A000840190918501FC01EA5BFF4F208122237E
:1030B00079F18C5B9F4FDC01ED91FC9180818093D5
:1030C000C6002091840130918501F901EA5BFF4F30
:1030D0008081815080833297808191810196A901FE
:1030E0004E5B5F4F8417950710F0C90102969183DC
:1030F0008083FF91EF91BF91AF919F918F915F91ED
:103100004F913F912F910F900FBE0F901F901895E8
:103110008091C1008F7D80648093C100E091840123
:10312000F0918501E457FF4F1082E3CF1F920F9279
:103130000FB60F9211242F933F938F939F93EF938A
:10314000FF93E1ECF0E08081877B80698083809150
:103150008401909185019C01295B3F4FFC01E95757
:10316000FF4F3183208332963183208385579F4FD1
:10317000FC011082FF91EF919F918F913F912F91D0
:103180000F900FBE0F901F901895EFEDF2E0138295
:10319000128288EE93E0A0E0B0E084839583A6835A
:1031A000B7838FE591E091838083EAE5F3E0148AA9
:1031B000168A158A108E178A128E118E138E148E0F
:1031C00086E780939B0382E380939C03108244E014
:1031D00050E06FEF70E087E993E00E94BF36E7E7C9
:1031E000F3E080E2DF011D928A95E9F710929E03D9
:1031F00010929D0310929F031092E7031092E80330
:103200001092E90310923A041092A1031092A003C5
:103210001092A2031092A3031092A4031092A5038C
:103220001092A603EAEEF3E080E3DF011D928A9597
:10323000E9F7EFE1F3E082E090E0918380838DE5B0
:10324000828386E0E4E1F1E0A3E0B3E001900D9237
:103250008A95E1F786E0EAE1F1E0ADEFB2E00190B6
:103260000D928A95E1F7E1EFF2E084E090E0928F31
:10327000818F14A613A615A61092EB020895CF9382
:10328000DF93CDB7DEB7CC56D1090FB6F894DEBFC9
:103290000FBECDBF789484B5826084BD84B5816053
:1032A00084BD85B5826085BD85B5816085BD809111
:1032B0006E00816080936E00109281008091810089
:1032C0008260809381008091810081608093810081
:1032D000809180008160809380008091B100846043
:1032E0008093B1008091B00081608093B0008091A4
:1032F0007A00846080937A0080917A008260809363
:103300007A0080917A00816080937A0080917A00BF
:10331000806880937A001092C10086E70E94B0090D
:103320008093EB02811105C087E70E94B00980936A
:10333000EB028091EB02811141C08DE58093210366
:103340000E94B10C8D3B910509F0ADC081E090E089
:103350009093200380931F0380911F03909120037B
:10336000009709F4B4C0019709F0CBC084E290E063
:10337000909325038093240385E290E090932703A4
:103380008093260380E390E09093290380932803A1
:1033900081E390E090932B0380932A030E94BF0463
:1033A00080911F03909120038130910509F0A4C002
:1033B00080EB0E94790784E08093EB028091EB021E
:1033C000833009F431C508F00DC5813008F01CC503
:1033D00083E090E00E9449168F3F11F08093E7014F
:1033E00084E090E00E9449168F3F31F08F57990B8F
:1033F0009093E6018093E50185E090E00E944916F4
:103400008F3F11F08093050186E090E00E944916FD
:103410008F3F31F091E0811101C090E09093D8018D
:1034200087E090E00E9449168F3F31F091E08111D2
:1034300001C090E09093D70188E090E00E94491687
:103440008F3F31F091E0811101C090E09093D6015F
:1034500089E090E00E9449168F3F11F40C94682D8A
:1034600091E0811101C090E09093D5016FE070E090
:103470008DE10E948F0C8934910511F40C94072D75
:103480006FE070E08EE10E948F0C8934910511F09D
:103490000C94E72C83E090E090930B0380930A0355
:1034A0008EE10C940E2D8B3B910561F08CE58093A1
:1034B00021030E94B10C8D3B910509F447CF8B3B52
:1034C0009105F9F41092200310921F0345CF83E277
:1034D00090E0909325038093240384E290E09093FE
:1034E00027038093260385E290E09093290380933D
:1034F000280386E290E04ECF892B09F05CCF80EE66
:1035000058CF0E94BF0487E70E9425030E94F7045A
:10351000811154CF0E94BF0487E70E9425038EE1EA
:1035200090E00E9474070E94F7048AE0809353029F
:1035300088E08093540264E670E080E090E00E94AE
:103540003C04E3E3CE2EE2E0DE2E12EA87E70E949F
:103550002503612F8FED92E00E94EA060E94F70496
:1035600087E70E94250362E087E70E94DE0510924C
:103570008E0280938D02811101C0FFCF0E94420311
:10358000B82E0E944203082F0E94F704FB2CE12C66
:10359000C701802BD6018D939D936D011E5F1E3A4E
:1035A000A9F610922C0210922B0286E696E6A6E669
:1035B000BFE38093230290932402A0932502B0934B
:1035C0002602E2E3F0E06196FFAFEEAF619781E0A3
:1035D00090E00E941F0E811107C061E070E080E062
:1035E00090E00E943C04F3CFC0903F02D090400294
:1035F000E0904102F09042026F96CCAEDDAEEEAEAE
:10360000FFAE6F970E94E2122B013C0180913B02BA
:1036100090913C02B0E0A0E0BA2FA92F982F882704
:10362000481A590A6A0A7B0A6091390270913A0273
:1036300090E080E0A30192010E94EF33F22E032F6D
:10364000142FB52FF62FE72FD82EE92EA0E00E94D9
:1036500054355CF4AFE70E943F35F22E032F142F50
:10366000B52FF62FE72FD82EE92E2F2D302F412FF3
:103670005B2F6F2F7E2F8D2D9E2D07E00E94193519
:1036800019014A01B62FA72FF82FE92FA090350274
:10369000B0903602950140E050E060E070E080E0DC
:1036A00090E000E10E94003559016A017B018C0124
:1036B0009101A4016B2F7A2F8F2F9E2F0E943635F8
:1036C000A0962FAFA097A1963FAFA197A2964FAF1C
:1036D000A297A3965FAFA397A4966FAFA497A59662
:1036E0007FAFA597A6968FAFA697A7969FAFA797F0
:1036F000609137027091380290E080E0A30192015E
:103700000E94EF33F22E032F142FB52FF62FE72F41
:10371000D82EE92EA0E00E94543584F421503F4F6A
:103720004F4F5F4F6F4F7F4F8F4F9F4FF22E032FA3
:10373000142FB52FF62FE72FD82EE92E2F2D302F4F
:10374000412F5B2F6F2F7E2F8D2D9E2D08E00E9425
:10375000193519014A01B62FA72FF82FE92FA0908C
:103760003302B0903402D12CC12C9501A60160E047
:1037700070E080E090E00FE00E94003559016A019E
:103780007B018C019101A4016B2F7A2F8F2F9E2F2B
:103790000E943635322E232EA8964FAFA897A996B1
:1037A0005FAFA997AA966FAFAA97AB967FAFAB977B
:1037B000AC968FAFAC97AD969FAFAD9760913D0241
:1037C00070913E0290E080E0A30192010E94EF33ED
:1037D000F22E032F142FB52FF62FE72FD82EE92E18
:1037E000A0E00E94543584F42150310940485F4FD5
:1037F0006F4F7F4F8F4F9F4FF22E032F142FB52FF8
:10380000F62FE72FD82EE92E2F2D302F412F5B2FAB
:103810006F2F7E2F8D2D9E2D07E10E9419354901B6
:103820005A019A0184010053184F2F4F3F4F2F9692
:103830000CAF1DAF2EAF3FAF2F97109259021092D1
:103840005A0210925B0210925C0210925D0210927A
:103850005E0210925F02109260021092610210925A
:10386000620210926302109264021092650210923A
:1038700066021092670210926802003D174021050F
:1038800031050CF0D7C0A5019401C501B4010E9417
:103890004F339B01AC01A5E0B0E00E9484338B0163
:1038A0009C01359527951795079523960CAF1DAF6D
:1038B0002EAF3FAF23972B013C01770C4408542CCB
:1038C00032010093590210935A0220935B02309305
:1038D0005C0240925D0240925E0240925F02409222
:1038E00060029B01AC0162E055954795379527959D
:1038F0006A95D1F727962CAF3DAF4EAF5FAF2797B4
:1039000020936102309362024093630250936402F9
:1039100040926502409266024092670240926802BD
:103920002F960CAD1DAD2EAD3FAD2F9704321A4F23
:103930002F4F3F4F0CF07EC0C501B4016455724F4C
:103940008F4F9F4F9B01AC010E944F332F966CAF5E
:103950007DAF8EAF9FAF2F97A7E0B0E09B01AC018A
:103960000E9484334B015C01BB0C8808982C5401E5
:103970009B01AC01682D782D882D982DAFAC219638
:10398000BFAC21972296CFAC22972396DFAC23972A
:10399000E42CF42C042D142D0E943635209359026A
:1039A00030935A0240935B0250935C0260935D0235
:1039B00070935E0280935F0290936002ABE0B0E090
:1039C0002F962CAD3DAD4EAD5FAD2F970E94843349
:1039D0004B015C01B594A794979487946B017C018B
:1039E000FF0CCC08DC2C76019401A5016C2D7C2DFC
:1039F0008C2D9C2D2496AFAC24972596BFAC259793
:103A00002696CFAC26972796DFAC2797E42CF42C8C
:103A10000E94363520936102309362024093630224
:103A2000509364026093650270936602809367020C
:103A300090936802232D322DA8964FADA897A99692
:103A40005FADA997AA966FADAA97AB967FADAB97DE
:103A5000AC968FADAC97AD969FADAD97A09061023F
:103A6000B0906202C0906302D0906402E090650260
:103A7000F090660200916702109168020E944B3537
:103A80006F96CCACDDACEEACFFAC6F975601670126
:103A9000E12CF12C00E010E00E949733F22E032F6E
:103AA000142FB52FF62FE72FD82EE92EA0E00E9475
:103AB000543584F421503109404E5F4F6F4F7F4F92
:103AC0008F4F9F4FF22E032F142FB52FF62FE72F76
:103AD000D82EE92E2F2D302F412F5B2F6F2F7E2FC9
:103AE0008D2D9E2D05E10E94193539014A01B62F11
:103AF000A72FF82FE92FA0962FADA097A1963FAD45
:103B0000A197A2964FADA297A3965FADA397A49657
:103B10006FADA497A5967FADA597A6968FADA697F6
:103B2000A7969FADA797A0905902B0905A02C09057
:103B30005B02D0905C02E0905D02F0905E0200912A
:103B40005F02109160020E944B3559016A017B01AE
:103B50008C019301A4016B2F7A2F8F2F9E2F0E942F
:103B60004B35F22E032F142FB52FF62FE72FD82E1B
:103B7000E92EA0E00E94543584F4215030484F4F84
:103B80005F4F6F4F7F4F8F4F9F4FF22E032F142F9A
:103B9000B52FF62FE72FD82EE92E2F2D302F412FBE
:103BA0005B2F6F2F7E2F8D2D9E2D0FE00E941935DC
:103BB000B901CA010E94093060934B0270934C0214
:103BC00080934D0290934E0261960EAD1FAD6197AA
:103BD0000150110961961FAF0EAF6197012B09F0DB
:103BE000F6CC0E94E21260934302709344028093E9
:103BF00045029093460210922E0210922D0286E604
:103C000096E6A6E6BFE380932F0290933002A0933E
:103C10003102B09332020E94E2126B017C0180916A
:103C20003B0290913C02B0E0A0E0BA2FA92F982F60
:103C30008827C81AD90AEA0AFB0A60913D027091E6
:103C40003E0290E080E0A70196010E94EF33B22E81
:103C5000032F142FB52FF62FE72F982EA92EA0E0B3
:103C60000E94543584F42150310940485F4F6F4F12
:103C70007F4F8F4F9F4FB22E032F142FB52FF62F4C
:103C8000E72F982EA92E2B2D302F412F5B2F6F2F32
:103C90007E2F892D9A2D07E10E94193529013A01BD
:103CA00010ED410E17E0511E611C711C109255025F
:103CB00010925602109257021092580220ED4216AE
:103CC00027E0520661047104A4F4A7019601C7011C
:103CD000B6010E944F332FEF3FEF4FEF5FE70E9497
:103CE0005F3320935502309356024093570250930E
:103CF00058028091550290915602A0915702B091BE
:103D0000580273016201C81AD90AEA0AFB0AC701FC
:103D1000B6010E94093020E030E048EC52E40E94F5
:103D2000592F0E94CB2F60934F02709350028093C3
:103D300051029093520220E836EE45EC57E4609130
:103D40004B0270914C0280914D0290914E020E9464
:103D5000592F2BEA3CED42E45EE30E94F8319B01CF
:103D6000AC0160E070E080E89FE30E94752E20E0E7
:103D70003AE24DE257E40E948B3160932702709340
:103D800028028093290290932A0210921D02109219
:103D90001F0210922002109221021092220281E052
:103DA00080931E028AE08093530288E0809354023D
:103DB0008FE892ECA5E7BFE380932F029093300247
:103DC000A0933102B09332028FE195E8ABE6BFE3F6
:103DD0008093230290932402A0932502B09326029D
:103DE00083E0EACA843009F0F3CA8DEC9CECACE4C1
:103DF000BFE38093EC029093ED02A093EE02B093A8
:103E0000EF021092F002E4CA8AE999E9A9E5BFE35A
:103E10008093EC029093ED02A093EE02B093EF0238
:103E200085E08093F002D4CA4DEC5CEC6CE47FE357
:103E30004093EC025093ED026093EE027093EF0218
:103E4000F0CF6FE070E08EE10E948F0CCC9711F004
:103E50000C94012D21E030E082E090E00EC06FE094
:103E600070E08EE10E948F0C31E020E0CC9709F0E9
:103E700030E0832F922F30E020E090930B0380936B
:103E80000A038130910569F1029779F189E12130C6
:103E9000310509F088E180930C038EE180930D03D6
:103EA00083E090E0909311038093100384E090E00E
:103EB000909313038093120385E090E09093150391
:103EC0008093140386E090E0909317038093160389
:103ED00087E090E0909319038093180388E090E0C6
:103EE0002AC088E12130310509F489E180930C036F
:103EF0008EE180930D0383E090E090931103809313
:103F0000100384E090E0909313038093120387E002
:103F100090E0909315038093140388E090E09093D1
:103F200017038093160385E090E090931903809324
:103F3000180386E090E090931B0380931A030C947F
:103F4000362D0297B1F468E083E20E944C0767E4E3
:103F500080E20E944C076CE080E00E942F0760E244
:103F600081E00E942F0760E082E00E942F070C94FE
:103F7000532D60E083E20E944C0767E2E9CF109185
:103F80000501112311F40C94CB2D6DED71E085E149
:103F900090E00E942316113011F00C94CB2D0E945A
:103FA00047086FE00E9454086B017C01BE016F5FFF
:103FB0007F4F89E190E00E942316C701B6010E945D
:103FC000093020E030E04AE754E40E94592F6B01A9
:103FD0007C012CE53FE842E85FE369817A818B81CF
:103FE0009C810E948B319B01AC01C701B6010E94EC
:103FF0002E3187FF02C00C94CB2D1092DD01109260
:10400000DE011092DF011092E0010C94CB2D81E0D3
:1040100090E00C94252E809371039093720310927C
:104020007603109275038DE890E00E9491352DE89B
:10403000DC011D922A95E9F724E431E0FC0131838B
:10404000208390939E0380939D0306E010E020E080
:1040500030E048E458EE61E070E00E9406081092FB
:10406000A1031092A0031092A2031092A303109236
:10407000A4031092A5031092A60310929F038E0131
:104080000F5F1F4F312C212C0E946E04C090040240
:10409000D0900502E0900602F09007022396CCAE85
:1040A000DDAEEEAEFFAE23976C197D098E099F0938
:1040B000653B71058105910508F45FC48091030299
:1040C000882309F4B4C085E10E9405046C01E090E6
:1040D0000102F090020260910A0170910B0180913F
:1040E0000C0190910D010E9409304B015C01B60159
:1040F000CE14DF040CF4B7016E197F09072E000CF3
:10410000880B990B0E94093020E030E040E85AE328
:104110000E948B3120E030E44CE955E40E948B3161
:10412000A50194010E94762EA50194010E94752E8E
:104130009B01AC010E94762E6B017C0120EC36E4E1
:104140004DEE5CE3C501B4010E948B314B015C0173
:104150002BE734E948E853E46091060170910701C8
:1041600080910801909109010E94762E29E038E0A3
:1041700045E051E40E948B319B01AC01C501B401C3
:104180000E94592F9B01AC01C701B6010E94592F13
:104190000E944E326B017C018090FD019090FE01E7
:1041A000A090FF01B0900002AC019B01C501B401D9
:1041B0000E94752E20E030E040E05FE30E948B31EA
:1041C000A70196010E94762E6B017C018091FC0173
:1041D0008130B1F4C092F801D092F901E092FA0175
:1041E000F092FB01A5019401C701B6010E94752E52
:1041F0006093F4017093F5018093F6019093F701B9
:10420000C092FD01D092FE01E092FF01F092000207
:1042100026E636E646E650E4C701B6010E948B3139
:104220000E94CB2FAB01BC0187E10E945703F090A5
:10423000EB02FF2009F432C253E0D52EFD1409F43D
:1042400006C144E0E42EFE1409F435C50E94950A27
:104250000E94CB2F60930A0170930B0180930C0195
:1042600090930D010E94950A0E94130A6093060123
:1042700070930701809308019093090152E0F512B1
:1042800072C10E94130A8DEF0E949C086C01F12CF0
:10429000E12CC11470E8D706E104F10409F488C5E3
:1042A0004090320350903303609034037090350394
:1042B0008CE2581A81E0680A71084EE0CC0CDD1CD3
:1042C000EE1CFF1C4A95D1F7809152039091530345
:1042D000092E000CAA0BBB0B54E1880F991FAA1FD3
:1042E000BB1F5A95D1F7C81AD90AEA0AFB0AA0914E
:1042F0005403B0915503A30192010E948F33C61A53
:10430000D70AE80AF90A90E4D90EE11CF11C6FE023
:10431000F594E794D794C7946A95D1F7A091510387
:10432000B0E00E9484334B015C017BE0B594A7941C
:10433000979487947A95D1F7A0E89A0EA11CB11CA6
:10434000A09156030A2E000CBB0B0E948F33EAE0AB
:104350009595879577956795EA95D1F7A50194018D
:104360000E944F339B01AC01FAE055954795379574
:104370002795FA95D1F7405E5F4FA0914F03B0911A
:1043800050030E948F33705E8F4F9F4FAEE0959524
:10439000879577956795AA95D1F7A70196010E9411
:1043A0004F336B017C01BFE09595879577956795B5
:1043B000BA95D1F79B01AC010E944F339B01AC0130
:1043C00087E055954795379527958A95D1F7A09120
:1043D0004E03B0E00E94843324E09595879577954D
:1043E00067952A95D1F7C61AD70AE80AF90AF7FE9F
:1043F00003C0C12CD12C7601B1E0CB16D104E1046D
:10440000B9E1FB062CF0C12CD12CE12C39E1F32EC3
:10441000C701B6012CE095958795779567952A9504
:10442000D1F70E94093020E030E040E85AE30E94D2
:104430008B3120E030E040E251E40E948B310E9459
:10444000CB2FAB01BC018FE00E9457038CC0809141
:10445000EC029091ED02A091EE02B091EF028093F8
:104460002F0290933002A0933102B09332026091F8
:104470004F027091500280915102909152020E941D
:10448000093020E030E048EC52E40E94592F60935C
:1044900006017093070180930801909309016091D0
:1044A0004B0270914C0280914D0290914E020E94FD
:1044B000CB2F60930A0170930B0180930C019093B2
:1044C0000D010E94093020E836EE45EC57E40E94C9
:1044D000592F2BEA3CED42E45EE30E94F8319B0148
:1044E000AC0160E070E080E89FE30E94752E20E060
:1044F0003AE24DE257E40E948B316B017C010E944D
:10450000CB2F6093F0017093F1018093F2019093AF
:10451000F301209127023091280240912902509105
:104520002A02C701B6010E94752E20E030E040E269
:1045300051E40E948B310E94CB2F6093EC01709369
:10454000ED018093EE019093EF0180912D02909107
:104550002E029C01990F440B550B2B962CAF3DAFAF
:104560004EAF5FAF2B970E946E042091FC0121306B
:1045700091F42396CCACDDACEEACFFAC23976C1978
:104580007D098E099F096093E8017093E90180938A
:10459000EA019093EB01C090E801D090E901E0902E
:1045A000EA01F090EB01D701C6010197A109B10919
:1045B000873B9B40A105B105B0F520E038E44FE111
:1045C00056E46091F8017091F9018091FA0190919F
:1045D000FB010E948B312091F4013091F501409153
:1045E000F6015091F7010E948B314B015C01C7012C
:1045F000B6010E9407309B01AC01C501B4010E94C5
:10460000592F0E94CB2F2B96CCACDDACEEACFFAC7F
:104610002B97C60ED71EE81EF91E2B96CCAEDDAE2C
:10462000EEAEFFAE2B978091F002482F50E070E085
:1046300060E02B96CCACDDACEEACFFAC2B974C1510
:104640005D056E057F050CF0B8C3C41AD50AE60AED
:10465000F70AB701A60186E00E94570340910A01BC
:1046600050910B0160910C0170910D018DE00E9441
:10467000570320E030E040E251E460910601709180
:10468000070180910801909109010E948B310E94DD
:10469000CB2FAB01BC018EE00E9457030E946E0439
:1046A00060930402709305028093060290930702C0
:1046B000F090E701FF2009F4E7C00E9447086FE08F
:1046C0000E9454080E94093020E030E04AE754E498
:1046D0000E94592F69837A838B839C8320E030E08A
:1046E00040E251E40E948B310E94CB2FAB01BC0110
:1046F00080E10E94570334E070E060E03F1538F439
:104700004BE068E572E04F1510F064EC79E0C09082
:10471000E501D090E601C60ED71E8EE00E9405048A
:10472000BC01990F880B990B0E94093020E030E002
:1047300040E85AE30E948B3120E030E44CE955E434
:104740000E948B314B015C01B60190E080E00E9439
:1047500007309B01AC01C501B4010E94752E4B01CD
:104760005C01EF2DF0E0E55BFE4F608170E090E0D2
:1047700080E00E9409309B01AC01C501B4010E9498
:10478000592F6B017C01C092E101D092E201E092CD
:10479000E301F092E40120E030E040E251E40E94C5
:1047A0008B310E94CB2FAB01BC0181E10E945703EA
:1047B0002FEF3FEF4FE951E4C701B6010E94592F97
:1047C0002091DD013091DE014091DF015091E00147
:1047D0000E94762E6093DD017093DE018093DF01ED
:1047E0009093E0010E94CB2FAB01BC0182E10E94BB
:1047F000570380910501882391F10E946E048090F7
:10480000D9019090DA01A090DB01B090DC01681929
:1048100079098A099B096131774281059105F8F090
:1048200020E030E040E050E4C701B6010E94542F80
:1048300018165CF06DED71E085E190E00E944B167A
:10484000B80189E190E00E944B160E946E046093CB
:10485000D9017093DA018093DB019093DC01298107
:104860003A814B815C816091E1017091E20180911C
:10487000E3019091E4010E948B310E94CB2FAB01A8
:10488000BC0183E10E9457038091D801882379F00D
:1048900060E186E00E9454082AE030E040E050E009
:1048A0000E945F33BA01A90184E10E9457038091FD
:1048B000D701882379F061E187E00E9454082AE05B
:1048C00030E040E050E00E945F33BA01A90185E189
:1048D0000E9457038091D601882309F44EC084E1D9
:1048E0000E940504BC01990F880B990B0E940930A6
:1048F0009B01AC0160E070EC8FE794E40E94592FBB
:1049000020E030E040E85FE30E94752E9B01AC019F
:1049100060E070E48CE196E40E94592F20E030E4DE
:104920004CE156E40E94592F0E94433120E030EEC2
:1049300046E755E40E94592F2FE03FEC4BE55BE33F
:104940000E94762E9B01AC0160E070E080E89FE35E
:104950000E94592F29E939EF47E853E40E94752E48
:1049600020E030E040E251E40E948B310E94CB2FE6
:10497000AB01BC0186E10E9457038091D5018823D9
:1049800009F4D8C08091D401882309F4D3C0809160
:104990000C030E94250388EA90E00E9474070E949D
:1049A000F7048093090366E080910C030E947B0862
:1049B0000E946E047B0180918D0290918E02891B72
:1049C000990B20911C0330911D03863091050CF04A
:1049D00012C221153105C9F30E946E046E197F09B8
:1049E00080911C0390911D038617970720F781E0A3
:1049F00080931E0380910D030E94250380910A037A
:104A000090910B03039709F035C2809112039091A6
:104A1000130380680E9474070E94F70480930903BF
:104A200066E080910D030E947B080E946E047B016A
:104A300080918D0290918E02891B990B20911C030D
:104A400030911D03863091050CF019C221153105F6
:104A5000C9F30E946E046E197F0980911C03909126
:104A60001D038617970720F781E080931E0380912E
:104A70000A0390910B03039709F051C281E0482F7C
:104A80008BAB1CAA1EAA1DAA18AE1FAA50E060E09C
:104A90007EA980E098AD0E9488136B017C0120E024
:104AA00030E040E85FEB609101017091020180917C
:104AB0000301909104010E94542F811108C0C092FB
:104AC0000101D0920201E0920301F0920401809072
:104AD000010190900201A0900301B0900401A50192
:104AE0009401C701B6010E94752E6B017C0120E084
:104AF00030E0A9010E94542F87FF0AC020E030E077
:104B000044EB53E4C701B6010E94762E6B017C0191
:104B1000C501B4010E94CB2FAB01BC018CE10E9406
:104B20005703C701B6010E94CB2FAB01BC018DE139
:104B30000E9457034091EC015091ED016091EE010C
:104B40007091EF0184E00E9457034091F001509171
:104B5000F1016091F2017091F30185E00E94570329
:104B60008091EB02833069F590E080E00E941F0E97
:104B70000E946E04AB01BC018091D0019091D101E3
:104B8000A091D201B091D3010A96A11DB11D841745
:104B90009507A607B707A8F440912D0250912E0261
:104BA000052E000C660B770B86E00E9457030E94CF
:104BB0006E046093D0017093D1018093D2019093E1
:104BC000D301E090E7031092E703E11004C0809165
:104BD00000018823B1F10E946E048090CC01909076
:104BE000CD01A090CE01B090CF01681579058A055E
:104BF0009B0538F10E946E0468537F4F8F4F9F4F83
:104C00006093CC017093CD018093CE019093CF013E
:104C1000FF24F39491E1792E70EEE7128EC180911A
:104C2000CA019091CB018E3091053CF4019690938E
:104C3000CB018093CA01F0920001809100018111A3
:104C40008EC18DEC482E83E0582E80919D0390916B
:104C50009E03DC01ED91FC910480F581E02D099526
:104C6000892B09F4AAC680919D0390919E03DC01D3
:104C7000ED91FC910680F781E02D09952091A0032C
:104C80003091A1032115310509F0B8C39C012D53C2
:104C9000310922303105C8F621E030E03093A1031C
:104CA0002093A0038E33910509F020E02093A20306
:104CB0008093A703CACF809121030E94250388EA2D
:104CC00090E00E9474070E94F70463E08091210342
:104CD0000E947B080E944203F82E0E944203E82EA5
:104CE0000E944203682F880F770B880B990BCB012A
:104CF000772766276396EFAE639762961FAE62973B
:104D000063964EAD5FAD63974A01B12CA12C642B25
:104D100079298A299B296F290E94093020E030E0F7
:104D200040E859E30E948B310E94CB2F60930A0127
:104D300070930B0180930C0190930D0180912103DE
:104D40000E9425038BEA90E00E9474070E94F704FA
:104D500062E0809121030E947B080E944203F82EAA
:104D60000E94420365968FAF659764961FAE649765
:104D700065966EAD7FAD65976F29072E000C880B89
:104D8000990B0E94093020E030E040EF53E40E948C
:104D9000592F20E030E04AE252E40E94762E6093E0
:104DA0000601709307018093080190930901DBCB02
:104DB00060E070E080EC9FE73CCB90E091958195BE
:104DC0009109092E000CAA0BBB0B2B962CAD3DAD07
:104DD0004EAD5FAD2B97281739074A075B073CF4A8
:104DE000BA01A901481B590B6A0B7B0B34CC40E07C
:104DF00050E0BA0130CC0E944203C82E0E94420308
:104E0000B82E0E944203E82E0E944203D82E0E9430
:104E10004203F82E0E9442036796BFAE67976696DC
:104E20001FAE669767962EAD3FAD67972C293093DE
:104E3000F2022093F1026996DFAE699768961FAE81
:104E4000689769962EAD3FAD69972E293093F4028D
:104E50002093F3026B968FAF6B976A961FAE6A979B
:104E60006B968EAD9FAD6B978F299093F6028093D2
:104E7000F502C0CD8091100390911103CBCD8091AC
:104E80000A0390910B03039721F50E944203A82E79
:104E90000E944203D82E0E944203B82E0E94420371
:104EA000E82E0E944203C82E0E944203F82E9D2D38
:104EB0008A2D9093F8028093F7029E2D8B2D90936C
:104EC000FA028093F902DF2CD092FC02C092FB021E
:104ED000CECD0E944203D82E0E944203A82E80917C
:104EE0000A0390910B03892B69F40E944203E82E78
:104EF0000E944203B82E0E944203F82E0E944203F1
:104F0000C82ED5CF0E944203F82E0E944203C82E1D
:104F10000E944203E82E0E944203B82EC8CF1AAE68
:104F200019AE8FEF682F8BAF8CAF1EAE1DAE40E079
:104F30005AAD7FEF80E09EADAECD80E7E8123BC07A
:104F40008091CA019091CB01181619060CF075CE0C
:104F500001979093CB018093CA01F09200011AA2AD
:104F600019828091CA019091CB01789EB001799EFF
:104F7000700D11246A557D4F40E150E0CE018296BC
:104F80000E94562EE091CA01F091CB01ED30F1055F
:104F900008F0B2C1E253F84D0C947E3344297C29C9
:104FA0004C295729A729B329BC29C529CE29DC2991
:104FB000E329EA29F12990EDE91258C68091CA0146
:104FC0009091CB018530910509F451C07CF4833078
:104FD0009105F1F0049709F02ECE8091F00284360D
:104FE00008F029CE8F5F8093F00225CE873091059F
:104FF00009F44FC00CF444C0089709F01CCE80910E
:105000000501882309F417CE81508093050113CE42
:105010008090EC029090ED02A090EE02B090EF0232
:1050200020E030E040E85FE3C501B4010E94542F66
:1050300087FF01CE20E030E048EC52E4C501B40126
:105040000E948B3120E030E040E85FE30E94762E42
:1050500020E030E048EC52E40E94592F6093EC02CB
:105060007093ED028093EE029093EF02E4CD809175
:105070000302882309F4DFCD815080930302DBCD46
:105080008091FC01882309F4D6CD81508093FC01E6
:10509000D2CD8091E701882309F4CDCD8150809352
:1050A000E701C9CD0E947B16E091E701EE2381F173
:1050B000F0E0E55BFE4F608170E090E080E00E94F0
:1050C00009302091E1013091E2014091E3015091DA
:1050D000E4010E948B314B015C016091E50170910C
:1050E000E601072E000C880B990B0E9409309B01EA
:1050F000AC01C501B4010E94762E0E94CB2F6093B3
:10510000E5017093E601615884E090E00E949E16EC
:10511000F10109958090EC029090ED02A090EE02D2
:10512000B090EF0220E030E0A901C501B4010E9477
:105130002E3118160CF07FCD20E030E048EC52E420
:10514000C501B4010E948B3120E030E040E85FE30C
:105150000E94752E7DCF8091F002882309F46BCDDB
:10516000815041CF80910302811165CDF0920302FD
:1051700062CD8091FC01823008F05DCD8F5F86CFDB
:105180008091E7018F3008F056CD8F5F88CF8091F6
:105190000501823008F04FCD8F5F37CF8091D80165
:1051A0008F258093D80147CD8091D7018F2580939B
:1051B000D70141CD8091D6018F258093D6013BCD7B
:1051C0008091D5018F258093D50135CD6091E70180
:1051D00083E090E00E949E166091050185E090E0DA
:1051E0000E949E166091D80186E090E00E949E1673
:1051F0006091D70187E090E00E949E166091D601F1
:1052000088E090E00E949E166091D50189E090E0D0
:105210000E949E1620E030E048EC52E46091EC02DF
:105220007091ED028091EE029091EF020E948B311D
:105230000E94CB2F8BE090E00E949E166091F002BE
:105240008DE090E00E949E16609103028EE090E057
:105250000E949E166091FC018FE090E00E949E16D5
:10526000F1010995D12CC12C6FEFC6010E949E1649
:10527000FFEFCF1ADF0A22E3C216D104A9F70E947A
:105280007B16F1010995D7CC40E150E065E972E069
:10529000C8010E94562E30C06091EB02F9E06F9F6A
:1052A000B001112468597D4F40E150E0F1CF809169
:1052B000EB02882309F4B0CC20E030E048EC52E463
:1052C0006091EC027091ED028091EE029091EF02FC
:1052D0000E948B310E94CB2F7F936F9386E791E0E2
:1052E0009F938F931F930F930E94D5360F900F902B
:1052F0000F900F900F900F90DE019296EAE1F4E08C
:105300009E012E5C3F4F80E040E29D91992309F47D
:105310006FC081116DC0908331962A173B07A9F7A2
:10532000DE011196EAE2F4E09E012F5E3F4F80E03D
:1053300040E29D91992309F45EC081115CC0908385
:1053400031962A173B07A9F7109200017ACC809179
:10535000EB02882309F460CC8091F0021F928F93B6
:105360008DE791E0BDCF609103022AE0629FB0011A
:1053700011246C5A7D4F98CF6091FC013BE0639FF4
:10538000B00111246D5C7D4F8FCF6091E70140E14A
:10539000649FB00111246D5C7E4F86CF8091E70140
:1053A000882309F439CC6091050159E0659FB0016B
:1053B0001124685E7E4F78CF6091D8018AE0689FA3
:1053C000B0011124D6CF6091D7019AE0699FB00156
:1053D0001124CFCF6091D601AAE06A9FB0011124B9
:1053E000C8CF6091D501BAE06B9FB0011124C1CF45
:1053F000408381E091CF408381E0A2CF213031050D
:10540000A9F49C012D7F2130310519F522E030E00F
:105410003093A1032093A00321E08130910509F08E
:1054200020E02093A3038093A8030FCC2230310502
:10543000A9F4E3E0F0E0F093A103E093A0038093EC
:10544000A4038093A90393E09093A503813408F407
:10545000FCCB1092A1031092A003F7CB23303105AF
:1054600009F0F3CBE091A503EE24E394EE0EE09275
:10547000A503F0E0E955FC4F80838091A403E81276
:10548000E4CBB7EA6B2EB3E07B2E4301B12CA12C09
:1054900090E080E0F12C6701F2E0CF1AD108AC1463
:1054A000BD044CF4D4016D914D010E947603BFEF11
:1054B000AB1ABB0AF4CFF701EA55FC4F2081F60185
:1054C000E955FC4F30812327322723278217930782
:1054D00009F0BFCF8091AA038093A6038091AB030C
:1054E0009091A2039923D1F08133C1F48091AC0350
:1054F00086958093E903EDEAF3E030E020E090E068
:10550000281739073CF44191519154AF43AF2F5FB5
:105510003F4FF6CF81E08093E8039BCF8A3309F0B9
:1055200008C28091A303882309F493CF80919F033D
:1055300091E0980F90939F03811144C01092AE03A5
:105540001092B403F0906E038F2D880F880F880F90
:105550008093B5034F2D50E06AE573E086EB93E04E
:105560000E94B636E9E0FE0E8FE28093AD03809193
:10557000AE039FEF9F0D892B8093AE0389E080934C
:10558000AF0384EA8093B00380919B038093B103BF
:1055900080919C038093B2031092B303EEEAF3E090
:1055A00091E080E09F1508F079C12191822728E0E1
:1055B00087FF72C1880F37E0C32E8C252150C1F7B9
:1055C0009F5FF0CF2091730330917403982F9695CD
:1055D0009217130611F00CF06CC080FD6AC0F12C1C
:1055E000E12C8091730390917403E816F9060CF096
:1055F00051C120917603622F70E01B828FEF9FEFE5
:10560000DC018C839D83AE83BF831D8E1E8E1F8E17
:1056100018A219A2FB01A3E0F595E795AA95E1F779
:10562000E65AFC4F85AD90E0277002C095958795AE
:105630002A95E2F781708887882319F0C8010E94B3
:10564000830D809176038F5F80937603209173039F
:10565000309174038217130614F010927603888534
:10566000882319F11092AE038B818093B4038D8D42
:1056700098E0899F900111248E8D822B8093B50331
:1056800080E079E0F72EF80EE9E0F0E0EC0FFD1F86
:10569000E80FF11D9081992309F466CF8F5FEF2DFC
:1056A000F0E0E355FC4F9083ECCFAFEFEA1AFA0A33
:1056B00098CF80E48093AE0350E4C52ED12C67E0F0
:1056C000F62E20917503622F70E01B828FEF9FEF03
:1056D000DC018C839D83AE83BF831D8E1E8E1F8E47
:1056E00018A219A2FB0143E0F595E7954A95E1F769
:1056F000E65AFC4F85AD90E0277002C095958795DE
:105700002A95E2F781708887882319F0C8010E94E2
:10571000830D809175038F5F8093750320917303D0
:10572000309174038217130614F010927503888564
:10573000882309F4ACC08C819D81AE81BF818F3FED
:10574000EFEF9E07AE07BE0709F4A1C0EF2DF0E012
:10575000E355FC4F41E04F0D2B815F8D652F6F703E
:105760002031C8F06083E42FF0E0E355FC4F208344
:1057700042E04F0D69A170E0242F30E0F901E355BC
:10578000FC4F543009F450C068F4552309F15130EE
:10579000E9F180E025C070E1279F90011124262BBC
:1057A0002083E8CF583009F451C0593009F461C062
:1057B000553079F78083F901E255FC4F90832155EC
:1057C0003C4F5B2F5078852F8A2BD9018C933CC09E
:1057D0002B2F20788F71822B98A1892B808381E0D9
:1057E000F42EF80EFFEFCF1ADF0A80917303909129
:1057F0007403C816D9060CF0B7CE8AE190E0861B78
:10580000970BF81619060CF45CCFAECE80832255A8
:105810003C4F592F5F718B2F8078852B98A1892B56
:10582000D9018C9382E0DCCF8083F901E255FC4FF3
:10583000908321553C4F5A2F5F718B2F8078852B99
:1058400098A1892BF901808383E0CACF8083F90175
:10585000E255FC4F9083F901E155FC4FA0832055A0
:105860003C4F8B2F8F7998A1892BF901808384E09D
:10587000B7CF8083F901E255FC4F9083F901E155E0
:10588000FC4FA08320553C4FF901B083F0CF70E06E
:1058900060E0A8CFF12C68CE880F90CEEF2DF0E01D
:1058A000E355FC4F808329E02F0D2093A5038BE364
:1058B0008093A70381E08093A8032093A90380919C
:1058C000A6038093AA038AE38093AB03F394F09238
:1058D000AC03B12CA12C80E090E0E22EF12C67010A
:1058E00022E0C21AD108AC14BD044CF4D3016D916E
:1058F0003D010E947603BFEFAB1ABB0AF4CFF6015D
:10590000E955FC4F8083F701EA55FC4F9083809165
:105910009D0390919E03DC01ED91FC910280F38147
:10592000E02DA70167EA73E0099581E080933A04CE
:1059300090CD8B3309F08DCD8091A303882309F49A
:1059400088CD8091AD03803FA9F18093E70398E271
:105950009093A5038BE38093A70321E02093A803F2
:105960009093A9038093AB0380E28093AC03EAE1B8
:10597000F4E0ADEAB3E001900D928A95E1F780E0A2
:1059800090E0F30161913F010E94760346145704B1
:10599000C1F78093CD039093CE0380919D039091A6
:1059A0009E03DC01ED91FC910280F381E02D48E241
:1059B00050E0B8CF1092E703CACF80E090E0892B87
:1059C00011F40C9444200E9400000C94422060E2E8
:1059D00070E089E10E948F0C019611F00C94211F58
:1059E00060E270E088E10E948F0C019611F00C9447
:1059F0002F1F1092D50160E089E090E00E949E1672
:105A000067C021E030E090E080E00C943D1F83E02F
:105A100090E090930B0380930A038DE180930D0334
:105A200080930C0388E090E090931303809312031B
:105A300089E090E090931103809310038AE090E056
:105A400090931703809316038BE090E090931503D7
:105A5000809314038CE090E090931B0380931A03CF
:105A60008DE090E0909319038093180380910A03CE
:105A700090910B038330910511F00C94A11F60E00D
:105A800081E20E94690767E580E20E94690764E697
:105A900084E20E94690760E285E20E94690760E093
:105AA00086E20E94690786E0E4E1F1E0A3E0B3E06A
:105AB00001900D928A95E1F786E0EAE1F1E0ADEF21
:105AC000B2E001900D928A95E1F781E08093D401D4
:105AD0008BE090E00E9449168F3FA1F0682F70E0A4
